:020000040000fa
:0420000001000000db
:020000040000fa
:10220000f8ff0320ad3800004340000049400000c3
:10221000554000005b4000006140000000000000ed
:102220000000000000000000000000006740000007
:102230004f400000000000006740000067400000c1
:1022400067400000674000006740000067400000f2
:1022500067400000674000006740000067400000e2
:102260006740000067400000674000005d3c0000e0
:1022700067400000674000006740000067400000c2
:1022800067400000674000006740000067400000b2
:1022900067400000674000006740000067400000a2
:1022a0006740000067400000674000006740000092
:1022b0006740000067400000674000006740000082
:1022c0006740000067400000674000006740000072
:1022d0006740000067400000674000006740000062
:1022e00067400000674000000000000000000000a0
:1022f00000000000674000006740000067400000e9
:102300006740000067400000674000006740000031
:102310006740000067400000674000006740000021
:102320006740000067400000674000006740000011
:102330006740000067400000674000006740000001
:1023400067400000674000006740000067400000f1
:10235000674000006740000000000000000000002f
:10236000000000000000000000000000000000006d
:102370000000000000000000812400001929000076
:1023800067400000674000006740000067400000b1
:102390000000000067400000674000006740000048
:1023a0006740000067400000674000006740000091
:1023b0006740000067400000674000006740000081
:1023c0006740000067400000674000006740000071
:1023d0006740000067400000674000006740000061
:1023e0006740000067400000674000006740000051
:1023f0006740000067400000674000006740000041
:10240000674000000000000000000000674000007e
:102410006740000067400000674000006740000020
:102420006740000067400000674000006740000010
:102430006740000067400000674000006740000000
:1024400067400000674000006740000067400000f0
:1024500067400000674000006740000067400000e0
:020000040000fa
:10246000f8b500bff8bc08bc9e4670478d3a000026
:10247000f8b500bff8bc08bc9e467047693a00003a
:020000040000fa
:1024800080b588b000af00237b7700233b77002323
:10249000fb770023fb7600237b6100233b614ff039
:1024a00084431b6dfb60fb6803f00073002b04d0ba
:1024b0004ff084434ff000721a65fb6803f001038c
:1024c000002b00f0c9804ff0844301221a654ff0c1
:1024d00084435b6d4ff0844223f0010353654ff05a
:1024e0008443d3f8a43003f07f03002b00f0b480c2
:1024f0004ff08443d3f8a4301b0adbb203f03f0350
:102500003b77914bda683b7f1b0113447b617b690e
:102510001b6803f08043002b0dd07b6919683a7f5c
:102520008a4813469b0013449b0003441b6821f018
:1025300060421a600de07b691b68990c3a7f834802
:1025400013469b0013449b0003441b68c1f30a021b
:102550001a607b691b6803f00053002b14bf012332
:102560000023fb767b695b6803f40013002b04d126
:10257000fb7e002b01d0012300e00023fb76fb7ed5
:1025800003f00103fb76fb7e002b0bd03a7f6f49f3
:1025900013469b0013449b000b4410331b6801221d
:1025a0001a700ae03a7f694913469b0013449b0066
:1025b0000b4410331b6800221a707b695b681b0c8c
:1025c000dbb203f00f03dbb2184601f0d5fb034684
:1025d0007b773a7f5d4913469b0013449b000b4475
:1025e000043318687b6908337a7f194601f0defcf2
:1025f0003a7f564913469b0013449b000b44083313
:102600001b687a7f1a703a7f504913469b00134427
:102610009b000b440c331b68002b0cd07b69586863
:102620003a7f4a4913469b0013449b000b440c33ea
:102630001b6882b21a803b7f4ff0844203f03f0355
:10264000c2f8a830424b1b68002b05d0404b1b68da
:102650003f4a526810469847fb6803f01003002b6e
:1026600000f0d3804ff0844310221a654ff084436a
:102670005b6d4ff0844223f0100353654ff08443a9
:10268000d3f8b43003f07f03002b00f0be804ff08e
:102690008443d3f8b4301b0adbb203f03f033b772b
:1026a000294b1a693b7f1b0113443b613b691b6843
:1026b00003f08043002b0ed03b6919683b7f234811
:1026c0005a1c13469b0013449b0003441b6821f0d3
:1026d00060421a600ee03b691b68990c3b7f1b4807
:1026e0005a1c13469b0013449b0003441b68c1f310
:1026f0000a021a603b691b6803f00053002b14bfe9
:1027000001230023fb763b695b6803f40013002b75
:1027100004d1fb7e002b01d0012300e00023fb76d7
:10272000fb7e03f00103fb76fb7e002b12d03a7f89
:10273000064913469b0013449b000b4424331b683b
:1027400001221a7011e000bfd40000208c0000208c
:10275000b40000203a7f6e4913469b0013449b004f
:102760000b4424331b6800221a703b695b681b0c06
:10277000dbb203f00f03dbb2184601f0fdfa0346ab
:102780007b773b7f62495a1c13469b0013449b0096
:102790000b44043318683b6908337a7f194601f00b
:1027a00005fc3a7f5a4913469b0013449b000b4497
:1027b0001c331b687a7f1a703a7f554913469b0079
:1027c00013449b000b4420331b68002b0cd03b6947
:1027d00058683a7f4e4913469b0013449b000b44b4
:1027e00020331b6882b21a803b7f4ff0844203f093
:1027f0003f03c2f8b830474b9b68002b05d0454bd0
:102800009b68444ad26810469847fb6803f40073fb
:10281000002b52d04ff084434ff400721a654ff0f2
:1028200084435b6d4ff0844223f4007353650023af
:10283000fb7735e0fb7f03f01f03012202fa03f36d
:10284000bb604ff08443d3f8d820bb681340002b03
:1028500014bf01230023fb764ff08443d3f8e0201c
:10286000bb681340002b04d0fb7e002b01d001235a
:1028700000e00023fb76fb7e03f00103fb76fb7e8a
:10288000002b0ad04ff08443d3f8e020bb68db4331
:102890004ff084411340c1f8e030fb7f0133fb77f8
:1028a000fb7f002bc6d01b4b9b69002b05d0194b1f
:1028b0009b69184ad26910469847fb6803f4006385
:1028c000002b21d04ff084434ff400621a654ff083
:1028d0008443d3f8c4301b0adbb203f01f03fb713f
:1028e0004ff08443d3f8c4301b0cdbb203f01f035a
:1028f000bb71fb79bb77ba7fbb799a4203d2bb7fae
:102900000133bb77f7e700bf00bf2037bd4680bd6e
:082910008c000020b40000203f
:020000040000fa
:1029180080b586b000af00237b7500233b7500238c
:10292800fb750023fb740023fb60a74b1b6dbb608a
:10293800bb6803f00073002b03d0a34b4ff0007269
:102948001a65bb6803f00103002b00f0c3809e4b9f
:1029580001221a659c4b5b6d9b4a23f0010353656a
:10296800994bd3f8a43003f07f03002b00f0b2801a
:10297800954bd3f8a4301b0adbb203f03f033b7539
:10298800924bda683b7d1b011344fb60fb681b68b4
:1029980003f08043002b0dd0fb6819683a7d8c4802
:1029a80013469b0013449b0003441b6821f06042bc
:1029b8001a600de0fb681b68990c3a7d8448134641
:1029c8009b0013449b0003441b68c1f30a021a606e
:1029d800fb681b6803f00053002b14bf012300237e
:1029e800fb74fb685b6803f40013002b04d1fb7cc9
:1029f800002b01d0012300e00023fb74fb7c03f0d3
:102a08000103fb74fb7c002b0bd03a7d7049134605
:102a18009b0013449b000b4410331b6801221a705f
:102a28000ae03a7d6a4913469b0013449b000b4415
:102a380010331b6800221a70fb685b681b0cdbb242
:102a480003f00f03dbb2184601f0aaf903467b75c1
:102a58003a7d5f4913469b0013449b000b440433a3
:102a68001868fb6808337a7d194601f09bfa3a7dad
:102a7800574913469b0013449b000b4408331b68bb
:102a88007a7d1a703a7d524913469b0013449b0085
:102a98000b440c331b68002b0cd0fb6858683a7d3c
:102aa8004b4913469b0013449b000b440c331b6893
:102ab80082b21a803b7d444a03f03f03c2f8a83033
:102ac800444b1b68002b05d0424b1b68414a526897
:102ad80010469847bb6803f40073002b4bd03a4b61
:102ae8004ff400721a65384b5b6d374a23f4007354
:102af80053650023fb7531e0fb7d03f01f030122c2
:102b080002fa03f37b60304bd3f8d8207b6813407c
:102b1800002b14bf01230023fb742b4bd3f8e020b8
:102b28007b681340002b04d0fb7c002b01d00123d1
:102b380000e00023fb74fb7c03f00103fb74fb7cc7
:102b4800002b08d0204bd3f8e0207b68db431e49dc
:102b58001340c1f8e030fb7d0133fb75fb7d002b92
:102b6800cad01c4b9b69002b05d01a4b9b69194a8c
:102b7800d26910469847bb6803f40063002b1ed047
:102b8800114b4ff400621a650f4bd3f8c4301b0a7f
:102b9800dbb203f01f03fb700b4bd3f8c4301b0ce4
:102ba800dbb203f01f03bb70fb78bb75ba7dbb7843
:102bb8009a4203d2bb7d0133bb75f7e700bf00bf64
:102bc8001837bd4680bd00bf000400424801002000
:082bd80000010020280100208b
:020000040000fa
:102be00080b487b000aff860b9607a603b600023c2
:102bf000bb750023fb7597f82030002b02d0012b0a
:102c000054d0a7e04ff08443d3f8a4301b0adbb2c2
:102c100003f03f03bb7597f82020bb7d51491a4450
:102c200013469b0013449b000b44fa681a6097f804
:102c30002020bb7d4b491a4413469b0013449b0044
:102c40000b4404337a681a6097f82020bb7d45490d
:102c50001a4413469b0013449b000b440833ba6884
:102c60001a6097f82020bb7d3e491a4413469b000a
:102c700013449b000b440c333a681a6097f82020e9
:102c8000bb7d38491a4413469b0013449b000b44f8
:102c900010337a6a1a604ff084435b6d4ff08442c0
:102ca00043f0010353650123fb7553e04ff0844368
:102cb000d3f8b4301b0adbb203f03f03bb7597f8bf
:102cc0002020bb7d27491a4413469b0013449b00d8
:102cd0000b44fa681a6097f82020bb7d21491a44fa
:102ce00013469b0013449b000b4404337a681a601c
:102cf00097f82020bb7d1b491a4413469b001344c0
:102d00009b000b440833ba681a6097f82020bb7dfb
:102d100014491a4413469b0013449b000b440c3384
:102d20003a681a6097f82020bb7d0e491a44134672
:102d30009b0013449b000b4410337a6a1a604ff0d7
:102d400084435b6d4ff0844243f0100353650123cd
:102d5000fb7500bffb7d18461c37bd465df8047b44
:082d6000704700bf8c00002049
:020000040000fa
:102d680080b588b000aff8607a601a460b46fb72ef
:102d78001346bb720023fb770023bb610023fb755e
:102d880097f82830012b19d84ff08443d3f8c43072
:102d980003f40013002b13d14ff08443d3f8c4304d
:102da8001b0cdbb203f01f03fb773a4b9a69fb7fde
:102db8001b011344bb610123fb7501e000bf00e068
:102dc80000bffb7d002b60d0fb68b3f5006f07d315
:102dd800fb6823f0604343f08042bb691a6003e05c
:102de800fb689a04bb691a60fb7a082b01d908238f
:102df800fb72fb7a1b0403f47022bb695a6097f8d4
:102e08002830022b03d097f82830002b07d1bb6954
:102e18000833fa7a7968184601f0c4f80de097f893
:102e28002830032b03d097f82830012b05d1bb6934
:102e38001b6843f00052bb691a60174b1b780133bb
:102e4800dab2154b1a70bb695a68134b1b781b060c
:102e5800134343f40002bb695a60fb7f4ff084427e
:102e6800012101fa03f3c2f8e030fb7f4ff08442fe
:102e7800012101fa03f3c2f8d0304ff084435b6daf
:102e88004ff0844243f400735365fb7d18462037a6
:0c2e9800bd4680bdd4000020fc000020de
:020000040000fa
:102ea40080b584b000af78600023fb60402200212d
:102eb400786801f0a7f84ff0844301229a6100bfbb
:102ec4004ff084439b6903f00103012bf8d14ff0c9
:102ed40084439b694ff0844243f0020393613a4a6e
:102ee4007b68d3601023fb60374bdb689bb24ff0e9
:102ef400844243f0004343f48033c2f8a0307a683c
:102f0400fb681344304a1361fb681033fb602e4b9b
:102f14001b699bb24ff0844243f0004343f4803377
:102f2400c2f8b0307a68fb681344274a9361fb689f
:102f34001033fb60244b9b699bb24ff0844243f0f7
:102f44008073c2f8c0307a68fb6813441e4ad361a8
:102f5400fb680833fb601c4bdb699bb24ff0844277
:102f640043f48033c2f8f0307a68fb681344164a9d
:102f74001362154b1b6a08221449184601f014f811
:102f8400fb680833fb60104b1b6a9bb24ff0844212
:102f940043f40033c2f884304ff084439b6923f434
:102fa400804323f001034ff0844243f48043936150
:102fb40000bf4ff084439b6903f00103012bf8d059
:102fc40000bf1037bd4680bdd4000020c83f0000bc
:020000040000fa
:102fd40080b584b000af78600023fb602c22002110
:102fe400786801f00ff8344b01229a6100bf324b2c
:102ff4009b6903f00103012bf9d12f4b9b692e4ae6
:1030040043f0020393612d4a7b68d3601023fb6075
:103014002a4bdb689bb2284a43f0004343f48033d5
:10302400c2f8a0307a68fb681344244a9361fb68b1
:103034001033fb60214b9b699bb21f4a43f08073a2
:10304400c2f8c0307a68fb6813441c4ad361fb6839
:103054000833fb60194bdb699bb2174a43f4803396
:10306400c2f8f0307a68fb681344144a1362134bb5
:103074001b6a134a1a60fb680433fb600f4b1b6a1c
:103084009bb20d4a43f48033c2f884300a4b9b69e7
:1030940023f4804323f00103074a43f480439361fc
:1030a40000bf054b9b6903f00103012bf9d000bf5e
:1030b4001037bd4680bd00bf000400424801002017
:0430c40000075008a9
:020000040000fa
:1030c80080b487b000aff860b9607a603b600023d5
:1030d800bb750023fb7597f82030002b50d12c4b83
:1030e800d3f8a4301b0adbb203f03f03bb7597f893
:1030f8002020bb7d27491a4413469b0013449b009c
:103108000b44fa681a6097f82020bb7d21491a44bd
:1031180013469b0013449b000b4404337a681a60df
:1031280097f82020bb7d1b491a4413469b00134483
:103138009b000b440833ba681a6097f82020bb7dbf
:1031480014491a4413469b0013449b000b440c3348
:103158003a681a6097f82020bb7d0e491a44134636
:103168009b0013449b000b4410337a6a1a60084b87
:103178005b6d074a43f0010353650123fb7500e0cb
:1031880000bffb7d18461c37bd465df8047b7047c1
:083198000004004200010020c8
:020000040000fa
:1031a00080b500af4ff0844301229a6100bf4ff019
:1031b00084439b6903f00103012bf8d14ff0844352
:1031c0009b694ff0844243f0020393614ff08443c4
:1031d000204ada614ff084432a22c3f880204ff05e
:1031e000844301221a624ff084439b6923f4804395
:1031f00023f001034ff0844243f48043936100bf06
:103200004ff084439b6903f00103012bf8d04ff08a
:10321000844300229a654ff084430122da654ff01f
:1032200084434ff000725a650b4b00221a600a4b20
:1032300000225a60084b00229a6028220021074889
:1032400000f0e2fe1c220021054800f0ddfe00bf78
:1032500080bd00bf0e2b001cd40000208c0000207d
:04326000e00000206a
:020000040000fa
:1032640080b500af244b01229a6100bf224b9b69b9
:1032740003f00103012bf9d11f4b9b691e4a43f054
:10328400020393611c4b1d4ada611b4b2a22c3f8cb
:103294008020194b01221a62174b9b6923f4804347
:1032a40023f00103144a43f48043936100bf124b9b
:1032b4009b6903f00103012bf9d00f4b00229a659f
:1032c4000d4b0122da650c4b4ff000725a650c4b22
:1032d40000221a600a4b00225a60094b00229a60ad
:1032e40028220021074800f08dfe1c2200210648f8
:1032f40000f088fe00bf80bd000400420e2b001cbd
:0c330400480100200001002054010020be
:020000040000fa
:1033100080b500af00f080fe00f05efd00f0b8fd6b
:1033200000f081fe00f09efd00f04cf900f058fb2b
:1033300000f082fd1e4b4322c3f8a42000bf1c4bab
:10334000d3f8a43003f04003402bf8d1184b4122ae
:10335000c3f8ac2000bf164bd3f8ac3003f04003e9
:10336000402bf8d1124b4122c3f8ec2000bf104b88
:10337000d3f8ec3003f04003402bf8d10c4b412242
:10338000c3f8f02000bf0a4bd3f8f03003f040033d
:10339000402bf8d1074b6ff07f421a61054b44f286
:1033a000ff725a61034b044a9a6100bf80bd00bf9f
:0c33b000001c004000080040d680010016
:020000040000fa
:1033bc00c00100201c000000000000001c000020c8
:1033cc000400000001000000000000207401002037
:1033dc002800000000000000200000204000000039
:1033ec00000000009c0100202400000000000000f0
:1033fc00600000202c000000000000008c00002069
:10340c0071000000000000000001002071000000ad
:10341c0000000000100000200c0000000000000064
:10342c00fd0000200100000000000000dc01002075
:10343c00040000000000000000000000000000007c
:020000040000fa
:10344c001e4b1f4a9342f0b438bf002103d203f83d
:10345c00011b9342fbd11b4ad2e9000150ea010344
:10346c004ff0000610d09468034602f10c076cb9bb
:10347c0021b1014403f8016b9942fbd13a46d2e9e0
:10348c00000150ea0103eed1f0bc704759b101f1d3
:10349c000c030c38801a1a443b461c1813f8015bb9
:1034ac0025709342f9d111f0030318bf012303ebec
:1034bc00910107eb81073a46e1e700bf20000020ad
:0834cc008c000020bc3300005d
:020000040000fa
:1034d40080b400af1e4b402283f84e201c4b402288
:1034e40083f84f201a4b012283f85620184b0122ef
:1034f40083f85720164b882283f83b20144bee2286
:10350400da62134b4ff00042c3f88020104b4ff0a7
:103514000042c3f890200e4b012283f8c0200c4bcc
:10352400012283f8cc200a4b012283f8cd20084bda
:10353400402283f8df20064b012283f8b020044b9d
:10354400772283f8b62000bfbd465df8047b704740
:0435540000800041b2
:020000040000fa
:1035580080b483b000af4ff084435b6c7b607a68c3
:1035680044f2e77313403b604ff084439b6903f0d8
:103578000103012b1bd14ff084439b694ff0844218
:1035880043f0020393614ff084439b6923f4804323
:1035980023f001034ff0844243f48043936100bf5a
:1035a8004ff084439b6903f00103012bf8d03b687b
:0c35b80018460c37bd465df8047b7047d8
:020000040000fa
:1035c40080b400af174b4222c3f8842000bf154bd0
:1035d400d3f8843003f04003402bf8d1124b00227f
:1035e4009a63114b77225a6300bf0f4bdb6b03f0d6
:1035f4000403042bf9d00c4b022283f8302000bfc3
:10360400094bdb6b03f00203022bf9d000bf064b1e
:103614001b6c03f00303032bf9d100bfbd465df817
:0c362400047b7047001c004000100040b8
:020000040000fa
:1036300080b483b000af164b5b6c7b607a6844f259
:10364000e77313403b60124b9b6903f00103012bae
:1036500016d10f4b9b690e4a43f0020393610c4b4a
:103660009b6923f4804323f00103094a43f4804318
:10367000936100bf064b9b6903f00103012bf9d056
:103680003b6818460c37bd465df8047b704700bfa9
:0436900000040042f0
:020000040000fa
:1036940080b582b002af002200210d4800f082fa0a
:1036a4000c4b0193002300930b4b0c4a0c490d481f
:1036b400fff794fa034683f00103dbb2002b04d036
:1036c400094b1b680120984700bf00bfbd4680bd61
:1036d400a93a000074010020860100207c0100202a
:0c36e400840100207801002098010020e3
:020000040000fa
:1036f00080b400af144b01221a8000bf124b1b692b
:1037000003f00103012bf9d00f4b4ff401421a8053
:103710000d4b00221a6200bf0b4b1b6903f0200304
:10372000202bf9d0084b00225a6200bf064b1b69c0
:1037300003f04003402bf9d0034b80225a8100bf95
:0c374000bd465df8047b7047002400408b
:020000040000fa
:10374c0080b500af002000f0d9fa114b1b681b6844
:10375c00012b00d100bf00210e4800f0bffb00f090
:10376c004dfb00f0a5fb002000f090fa00f032fcbd
:10377c00fff78aff00f03ef8074b1b78002b04d0b4
:10378c0000f00cf8044b00221a7000f09bfaf3e7df
:0c379c001c000020413d0000fd0000204a
:020000040000fa
:1037a80080b582b002af124b01221a75104b02226b
:1037b8005a750f4b03229a750d4b0422da750c4b80
:1037c80005221a760a4b06225a76094b07229a7660
:1037d800074b0822da76002300930023054a0821c4
:1037e80040f20160fff7bcfa00bfbd4680bd00bfd4
:0837f800780100208c01002083
:020000040000fa
:1038000080b582b002af002200210d4800f0eaf935
:103810000c4b0193002300930b4b0c4a0c490d48b1
:10382000fff752fc034683f00103dbb2002b03d009
:10383000002000f09ffb00bf00bfbd4680bd00bf61
:10384000e93a00009c010020ae010020a401002004
:08385000ac010020a0010020e2
:020000040000fa
:1038580080b483b000af03463960fb80b7f9063007
:10386800002b0adb3b68dab20c49b7f90630520183
:10387800d2b20b4483f800230ae03b68dab2084965
:10388800fb8803f00f03043b5201d2b20b441a76b3
:1038980000bf0c37bd465df8047b704700e100e0cf
:0438a80000ed00e04f
:020000040000fa
:1038ac0008b50d4b98470d4b984700f0b5f8022022
:1038bc0000f03afbfff7c4fd094b23f07f03094ae4
:1038cc009360094b984700f029f9084b9847084b2f
:1038dc009847fff735fffee7a73b0000a73b00002a
:1038ec000022000000ed00e099390000a73b000029
:0438fc00a73b0000e6
:020000040000fa
:1039000080b400af114b01221a6000bf0f4b1b693e
:1039100003f00103012bf9d00c4b10221a600b4b62
:1039200001221a73094b02225a71084b4ff480622c
:103930009a83064b33229a7200bf044b1b69002bfb
:10394000fbd100bfbd465df8047b704700380040e6
:020000040000fa
:1039500080b485b000af78607b6803f00703fb603c
:103960000c4bdb68bb60ba684ff6ff031340bb60cb
:10397000fb681a02bb68134343f0bf6343f4003390
:10398000bb60044abb68d36000bf1437bd465df816
:08399000047b704700ed00e02c
:020000040000fa
:1039980070b50d4d0d4c641ba4100026a64209d12c
:1039a8000b4d0c4cfef758fd641ba4100026a642d4
:1039b80005d170bd55f8043b98470136eee755f838
:1039c800043b98470136f2e76c2400006c240000a1
:0839d8006c24000070240000c3
:020000040000fa
:1039e00080b400af0c4b01225a7100bf0a4bdb7848
:1039f000dbb203f00103012bf8d1084b084a1a622d
:103a000000bf064b5b6803f00403042bf9d000bf32
:103a1000bd465df8047b704700080040001c004074
:043a20000701010099
:020000040000fa
:103a240080b483b000afeff310833b603b687b60ee
:103a340072b60b4bd3f88830094a43f47003c2f8ca
:103a44008830bff34f8fbff36f8f7b68002b00d19b
:103a540062b600bf0c37bd465df8047b704700bffb
:043a640000ed00e091
:020000040000fa
:103a680010b5054c237833b9044b13b10448aff3b0
:103a780000800123237010bdc00100200000000059
:103a88000000000008b5034b1bb103490348aff31e
:103a9800008008bd00000000c401002000000000f4
:020000040000fa
:103aa80080b584b000af7860fff752fdf860fb681e
:103ab80003f00703002b04d0fb6803f00703072b70
:103ac80003d1054b01221a7002e0044b01221a703f
:103ad80000bf1037bd4680bd75010020760100206b
:020000040000fa
:103ae80080b584b000af7860fff79efdf860fb6892
:103af80003f00703002b04d0fb6803f00703072b30
:103b080003d1054b01221a7002e0044b01221a70fe
:103b180000bf1037bd4680bd9d0100209e010020da
:020000040000fa
:103b280080b400af0d4b9b680c4a23f001039360ef
:103b380000bf0a4bdb6803f00103012bf9d0074be8
:103b48005b68064a43f004035360044b01229a6001
:103b580000bfbd465df8047b704700bf00600041b0
:020000040000fa
:103b680080b500af0020fff7effebff35f8f62b6ae
:103b780007210b20fff76cfe0b2000f04df8072102
:103b88004e20fff765fe4e2000f046f807214f2033
:0e3b9800fff75efe4f2000f03ff800bf80bd3b
:020000040000fa
:023ba600704766
:020000040000fa
:103ba80080b485b000aff860b9601346fb71fb685c
:103bb800002b0bd0fb790849fa6841f83320fb79d0
:103bc800054adb001344ba685a6000e000bf1437a6
:0c3bd800bd465df8047b7047b40000207f
:020000040000fa
:103be40080b485b000aff860b9601346fb71fb6820
:103bf400002b0bd0fb790849fa6841f83320fb7994
:103c0400054adb001344ba685a6000e000bf143769
:0c3c1400bd465df8047b704728010020cd
:020000040000fa
:103c200080b483b000af0346fb80b7f90630002ba9
:103c30000bdbfb8803f01f020749b7f906305b096d
:103c4000012000fa02f241f8232000bf0c37bd46e4
:0c3c50005df8047b704700bf00e100e05d
:020000040000fa
:103c5c0080b500af0b4b9b899bb21a460a4b5a603e
:103c6c00084b4cf2ff329a81074b1b68002b07d094
:103c7c00054b1b68044a5068034a926811469847e2
:0c3c8c0000bf80bd00240040100000209c
:020000040000fa
:103c980080b582b000af78600848fff7fff87b680e
:103ca800002b03d1064b074a1a6003e0044a7b68dd
:103cb800136000bf0837bd4680bd00bf200000204c
:083cc80098010020593f0000a3
:020000040000fa
:103cd00080b500af0a4b1b78002b05d0084b0022a3
:103ce0001a70fff78dfd09e0064b1b78002b05d0fd
:103cf000044b00221a70fff783fd00bf00bf80bd98
:083d00009d0100209e0100203e
:020000040000fa
:103d080080b582b000af786000f03ef9fff7defbc7
:103d1800fff7fafa00f0f8f8fff7a0fa00f086f9d2
:103d2800fff73afafff7e0fcfff7e6fdfff718ffa9
:083d380000bf0837bd4680bd45
:020000040000fa
:103d400080b483b000af786039607b6803f0800393
:103d5000002b07d0064b01221a70064b4ff0004291
:103d6000c3f89c2000bf0c37bd465df8047b70474c
:083d7000fd000020008000416d
:020000040000fa
:103d780090b486b000af0346fb71084b07f1080406
:103d88000fcb84e80f00fb7907f11802134413f8ee
:103d9800103c18461837bd4690bc7047d03f00000d
:103da80090b486b000af0346fb71084b07f10804d6
:103db8000fcb84e80f00fb7907f11802134413f8be
:103dc800103c18461837bd4690bc7047f83f0000b5
:020000040000fa
:103dd80080b400af094b42f25e229a8200bf074bc3
:103de800db6803f00103012bf9d1044b05221a7497
:103df80000bfbd465df8047b704700bf001400405b
:020000040000fa
:103e080080b400af094b1b889bb2084a43f00203f9
:103e18009bb2138000bf054b1b6903f00203022b02
:103e2800f9d000bfbd465df8047b70470024004010
:020000040000fa
:103e380080b400af074b084a5a6200bf054b5b6865
:103e480003f00803082bf9d000bfbd465df8047bda
:0c3e5800704700bf001c00400701020082
:020000040000fa
:103e640080b400af074b084a9a6200bf054b5b68f9
:103e740003f01003102bf9d000bfbd465df8047b9e
:0c3e8400704700bf001c00400601300029
:020000040000fa
:103e900080b400af074b084ada6200bf054b5b688d
:103ea00003f02003202bf9d000bfbd465df8047b52
:0c3eb000704700bf001c00400409200007
:020000040000fa
:103ebc0080b400af084b1b68074a43f00203136041
:103ecc0000bf054b1b6903f00203022bf9d000bfa6
:0c3edc00bd465df8047b704700380040d4
:020000040000fa
:103ee80080b483b000af78603960064a7b6813609d
:103ef800044a3b68936000bf0c37bd465df8047bfd
:083f0800704700bf100000200b
:020000040000fa
:103f100080b400af064b0122c3f82421044b40f6c5
:103f200021221a6200bfbd465df8047b704700bfc6
:043f300000e000416c
:020000040000fa
:103f340080b483b000af78607b681b01044a03f04f
:103f44007003536000bf0c37bd465df8047b7047b7
:043f540000600041c8
:020000040000fa
:103f580080b483b000af0346fb71fb79002b00bf30
:0c3f680000bf0c37bd465df8047b7047bd
:020000040000fa
:103f740080b483b000af0346fb71fb79002b00bf14
:0c3f840000bf0c37bd465df8047b7047a1
:020000040000fa
:103f900080b400af044b40f204521a8000bfbd460b
:0c3fa0005df8047b704700bf004000414a
:020000040000fa
:103fac000a44914200f1ff3300d1704710b511f86b
:0c3fbc00014b03f8014f9142f9d110bdf8
:020000040000fa
:103fc8000102010a010600110001020304050607a7
:083fd800080c10141820304001
:020000040000fa
:103fe00080b500af0248fef7f5ff00bf80bd00bfff
:043ff000600000204d
:020000040000fa
:103ff400000750080001020304050607080c10140a
:044004001820304010
:020000040000fa
:1040080002440346934200d1704703f8011bf9e7c5
:020000040000fa
:0e40180080b400af00bfbd465df8047b70476a
:020000040000fa
:0e40260080b400af00bfbd465df8047b70475c
:020000040000fa
:0e40340080b400af00bfbd465df8047b70474e
:020000040000fa
:0640420080b400affee7b0
:020000040000fa
:0640480080b400affee7aa
:020000040000fa
:06404e0080b400affee7a4
:020000040000fa
:0640540080b400affee79e
:020000040000fa
:06405a0080b400affee798
:020000040000fa
:0640600080b400affee792
:020000040000fa
:02406600fee773
:020000040000fa
:0200000400807a
:044000003912003c35
:020000040000fa
:0200000400807a
:044004008000a82a66
:020000040000fa
:0200000400807a
:04400800ffffffffb8
:00000001FF
