:020000040000fa
:10200000f0ff0320ad4d0000bf600000c160000084
:10201000c5600000c7600000c9600000000000004b
:10202000000000000000000000000000bd60000093
:10203000c360000000000000bd600000bd60000043
:10204000bd600000bd600000bd600000bd6000001c
:10205000bd600000bd600000bd600000bd6000000c
:10206000bd600000bd600000bd600000ad5c000010
:10207000bd600000bd600000bd600000bd600000ec
:10208000bd600000bd600000bd600000bd600000dc
:10209000bd600000bd600000bd600000bd600000cc
:1020a000bd600000bd600000bd600000bd600000bc
:1020b000bd600000bd600000bd600000bd600000ac
:1020c000bd600000bd600000bd600000bd6000009c
:1020d000bd600000bd600000bd600000bd6000008c
:1020e000bd600000bd6000000000000000000000b6
:1020f00000000000bd600000bd600000bd60000089
:10210000bd600000bd600000bd600000bd6000005b
:10211000bd600000bd600000bd600000bd6000004b
:10212000bd600000bd600000bd600000bd6000003b
:10213000bd600000bd600000bd600000bd6000002b
:10214000bd600000bd600000bd600000bd6000001b
:10215000bd600000bd600000000000000000000045
:10216000000000000000000000000000000000006f
:102170000000000000000000a5360000a94100009a
:10218000bd600000bd600000bd600000bd600000db
:1021900000000000bd600000bd600000bd600000e8
:1021a000bd600000bd600000bd600000bd600000bb
:1021b000bd600000bd600000bd600000bd600000ab
:1021c000bd600000bd600000bd600000bd6000009b
:1021d000bd600000bd600000bd600000bd6000008b
:1021e000bd600000bd600000bd600000bd6000007b
:1021f000bd600000bd600000bd600000bd6000006b
:10220000bd6000000000000000000000bd60000094
:10221000bd600000bd600000bd600000bd6000004a
:10222000bd600000bd600000bd600000bd6000003a
:10223000bd600000bd600000bd600000bd6000002a
:10224000bd600000bd600000bd600000bd6000001a
:10225000bd600000bd600000bd600000bd6000000a
:020000040000fa
:10226000f8b500bff8bc08bc9e4670477558000022
:10227000f8b500bff8bc08bc9e4670475158000036
:020000040000fa
:10228000f0b583b0a94b1b78a3b9a94b1b78002be1
:1022900040f05e81a74b1b78002b40f06081a64b7d
:1022a0001b78002b00f05981a34b00221a7003f019
:1022b000abfb52e19d4b00221a70a04b1b7b082bfd
:1022c00005d19e4c221d04f10c05002103e003f012
:1022d0007ffb42e1194612f8010b80ea0103dbb2f1
:1022e000aa42f7d1884219d1944b1b79944a1278ab
:1022f0009a4216d0924a1370904b03f11402191da2
:1023000003c982e803005b79013b092b12d8dfe89f
:1023100003f00b29333c546c839ab1ca03f058fb89
:102320001be103f055fb18e1864bd3f80120834bea
:10233000c3f81720844b04f11b00002113f8012b74
:1023400051408342fad17d4ad1767e4b18780023e2
:1023500000931432082100f5007002f0fffa03f038
:1023600037fbfae0774bd3f80510744ac2f8171020
:1023700000225a719a71dde7704a724b53f8091fb7
:10238000c2f816101b799376d4e76c4b9b796d4a93
:10239000927e9a4209d902336a4a02eb8303d3f848
:1023a0000620664bc3f81720c4e7644b00225a7519
:1023b00004229a750122da75bce7604b9b79614a69
:1023c000d27f9a4209d906335e4a02eb8303d3f8df
:1023d00003205a4bc3f81720ace7584b00225a751c
:1023e00005229a750122da75a4e7544b9b79554a68
:1023f00092f850209a4207d90833524a52f82320c3
:102400004e4bc3f8172095e74c4b00225a75062215
:102410009a750122da758de7484b9b79494ad27f3c
:102420009a4208d9454ad2f81710464a02eb83036c
:10243000c3f81b107ee7414b00225a7507229a759c
:102440000122da7576e73d4b9b793e4a92f850209f
:102450009a4207d90833394ad2f81710394a42f854
:10246000231067e7354b00225a7508229a7501221e
:10247000da755fe7334d05f11c0305f14c07334e68
:10248000c5f1ff2505f57f05e435ea18316853f8f5
:10249000040f8850bb42f8d12c4b1b684ff05a32c6
:1024a000c3f8fc2346e7274b5e6d2eb3234b987988
:1024b00028b1244b9b7a012b2ed0224b5872214df0
:1024c0000423ab720023eb722b731c498b7a0093ad
:1024d0004b7a0a7ac979b047ab7a032b03d9032226
:1024e000aa7205226a73154a164b53f8091fc2f8df
:1024f00016101b7993761de7104a917959720321c2
:1025000099720021d972197304215973d3f80930d3
:10251000c2f8163091760de7084b0322da750022d7
:102520001a765a7601229a7604e700bfb403002097
:10253000b3030020b2030020b103002024030020d5
:10254000af030020dc000020380300203c01002005
:102550002e4b00221a7003f03bfa03b0f0bd2c4b57
:1025600000221a702b4b1b7b082b18d1294b03f12f
:102570001402191d03c982e803001b79012b11d035
:10258000022b2ed0244b187800230093234a0821d5
:1025900000f5807002f0e2f903f036fadde703f0af
:1025a00033fadae71c4b93f85c3073b9194b00220d
:1025b0005a759a75da751a76164b174a5178597604
:1025c00091789976d278da76dce7124b02225a7546
:1025d000114a926d117999755179d97592791a7656
:1025e000eae70d4b93f85c303bb90a4bff221a75b2
:1025f00002225a7500229a75c4e7074b012283f81c
:102600005d200021064803f00bfdbbe7b30300206b
:10261000b203002004030020dc0000201803002087
:04262000c954000099
:020000040000fa
:10262400f0b583b0ae4b1d7f6a1cc2ebc20203eb54
:10263400c2039879082800f2bc81dfe810f0090091
:102644002f005e007700a400d000fd002a01530192
:10265400a34c6b1cc3ebc303c5ebc50504ebc50559
:10266400ea6a54f833009047237fc3ebc30304ebb7
:10267400c3035b6a5860237fc3ebc30204ebc2024b
:102684000021a2f84c100133da00d11a04ebc10185
:102694008b7901338b71012003b0f0bd904b9b7c8f
:1026a400a3b9c5ebc5038e4a02ebc303b3f84c6070
:1026b4005c6a04ebc601ca78aab90135c5ebc50545
:1026c400874b03ebc5050223ab71e5e7844b00227e
:1026d4009a74ea00511b03ebc101b1f84c30013389
:1026e400a1f84c30d8e74b68897834f836000224d6
:1026f400009402f0bdfe0020cee7794b9b7c53b1e1
:10270400774b002098740135c5ebc50503ebc50371
:1027140003229a71c0e70223009301232f22002190
:1027240046f2600002f0a4fe0020b5e76c4b9b7cef
:1027340003b36b4b00229a741b79602b10d002f008
:102744006bfe4ff68f4303400222009243f02003b6
:102754002b22002146f2400002f08afe00209be773
:102764000135c5ebc5055e4b03ebc5050423ab7111
:10277400104691e702232b22002146f2400002f08a
:1027840069ff002088e7564b9b7cfbb1544b002229
:102794009a741b79602b09d10135c5ebc505504be3
:1027a40003ebc5050523ab71012075e702f034fe88
:1027b40000f47c430222009243f02f032b220021d9
:1027c40046f2400002f054fe012065e702232b226a
:1027d400002146f2400002f03dff00205ce7404b40
:1027e4009b7c03b33e4b00229a7402f00bff082833
:1027f40009d10135c5ebc505394b03ebc5050623e6
:10280400ab71012048e7672003f018f9344b1a7fb5
:102814000132d100881a03ebc0000224447103463c
:102824000020987138e702232b22002146f2410050
:1028340002f010ff00202fe7294b9b7c03b3284ba9
:1028440000229a741b79602b10d002f0e5fd4ff63c
:102854008f4303400222009243f030032b220021d5
:1028640046f2400002f004fe002015e70135c5ebf6
:10287400c5051b4b03ebc5050723ab7110460be7de
:1028840002232b22002146f2400002f0e3fe002046
:1028940002e7134b9b7ccbb1114e0024b47402f0bd
:1028a400bbfdef007b1b06ebc3031b6b98477d1b33
:1028b40006ebc505a864337f0133da00d11a06ebb1
:1028c400c1018b7901338b712046e5e60223232273
:1028d400002146f2640002f0bdfe0020dce600bfe9
:1028e40010000020344b9b7c002b59d0324b00222b
:1028f4009a7493f8ca300bbb02f084fe08282fd1d7
:1029040002f08afd00f4a050b0f5a05f38d02a4947
:10291400c5ebc50201ebc2026b1cc3ebc303926c93
:1029240051f833309a422bd00135c5ebc505224b03
:1029340003ebc5050723ab710020ade61e4c15461d
:1029440084f8ca20062003f079f8237f0133da00e3
:10295400d11a04ebc1010a2048718d7128469be607
:10296400672003f06bf8144b1a7f0132d100881ae8
:1029740003ebc000022444710346002098718be6e7
:10298400002003f05bf80c4b1a7f0132d100881a47
:1029940003ebc000022444710346002098717be6d7
:1029a40002232b22002146f2410002f053fe0020b4
:0c29b40072e6002070e600bf100000205a
:020000040000fa
:1029c000ab4b1b78002b4ed1aa4b1b6a13f4004f64
:1029d00000f0a681a84a13780133dbb21370042bf0
:1029e00005d9a34b01221a70a34b00221a70a34be6
:1029f0001b78002b4ad19f4b1b6a13f0100f40f03d
:102a000087819f4a13780133dbb21370042b05d9f9
:102a10009a4b01221a709a4b00221a70994b1b880c
:102a2000002b40f05f8170b5964b05221a80964bc3
:102a30001b78002b61d1954b1b78012b50d05ab2db
:102a4000002a36d0022b5cd1894b1b78002b51d148
:102a5000884b4ff480425a618c4b00221a708a4b8b
:102a600001221a704de0834b1b6a13f4004f40f0b3
:102a70005b81814a13780133dbb21370042bb6d922
:102a800000237b4a13707c4a1370b0e7794b1b6ab2
:102a900013f0100f00f04081794a13780133dbb254
:102aa0001370042bbad90023744a1370744a13703c
:102ab000b4e7774b1b7853b96d4b1b786bb96d4bf3
:102ac0004ff480429a61714b01221a7019e0013b68
:102ad0006f4a137003f0fef813e003f0fbf810e008
:102ae000634b1b786bb1634b04229a61674b0222e4
:102af0001a7006e003f0eef803e0664b1b78002b3b
:102b000049d05c4b1b6ac3f3c003802200210846f6
:102b100002f0ceff03f0bafa642404fb00f05e4d2d
:102b200085fb00321318c217c2eba312d2b25b4e60
:102b300032700021012003f06df903f0a1fa04fbcb
:102b400000f085fb00350544c217c2eba512d2b2d6
:102b5000534c22700121084603f05cf90021042047
:102b600003f090f8337883422cbf00230123202206
:102b70000021084602f09cff0121042003f082f8a6
:102b8000237883422cbf00230123402200210846e2
:102b900002f08eff70bd01220021084603f034f8d8
:102ba00000283bd1324b1b78002b00f09f803d4a20
:102bb00013780133dbb21370322b48d83a4a1278bb
:102bc000002a40f09b80142b12d9374c0125257028
:102bd0000021032003f056f8344b18702b461022c6
:102be0000021084602f064ff2378002b40f0868025
:102bf000224c237804220021084602f059ff237852
:102c0000002b61d02a4b1b883bb3013b9bb2284a67
:102c10001380632b24d803f071f872e701231d4a57
:102c2000137040220221002002f042ff114c4ff4a9
:102c30008043636100201c4b18700346102201463c
:102c400002f036ff4ff40003c4f89830aae702f010
:102c50003df956e702f03af953e702f037f950e749
:102c6000144b1b78192b27d00133124a137048e7f5
:102c7000c003002000800041c5030020bf030020e6
:102c8000c4030020a4030020be030020bd030020d5
:102c9000c2030020bc03002043082184ba030020a3
:102ca000bb030020c3030020c1030020c903002090
:102cb000a6030020c80300201d4b4ff48042da61b8
:102cc0001c4b01221a701ce70021022002f0daffdf
:102cd00000eb80004000184b1880154b4ff48042e9
:102ce0005a610ee7013b154a13807047144b0022ce
:102cf0001a70144b1b78002b3ff47aaf02f0feffe2
:102d0000114b1b78002ba5d0013b0f4a1370f8e63e
:102d10000e4b00221a7081e60c4b00221a707de6e1
:102d20000b4b00221a7062e6094b00221a705ee615
:102d300000800041c8030020a6030020a403002057
:102d4000c3030020c1030020c9030020c4030020e6
:042d5000c503002097
:020000040000fa
:102d5400840300201c00000000000000a8030020e1
:102d64000100000000000000a90300200100000091
:102d740000000000aa030020010000000000000081
:102d8400ab0300200100000000000000ac030020a1
:102d94000100000000000000ad030020010000005d
:102da40000000000ae03002001000000000000004d
:102db4004001002040000000000000000403002047
:102dc4002000000000000000240300202000000078
:102dd40000000000dc000020600000000000000093
:102de400af0300200100000000000000b003002039
:102df4000100000000000000b103002001000000f9
:102e040000000000b20300200100000000000000e8
:102e1400b30300200100000000000000b403002000
:102e240001000000000000003c010020040000003c
:102e340001000000000000444403002020000000c2
:102e440000000000ec010020280000000000000049
:102e5400140200202800000000000000b503002038
:102e640001000000000000006403002020000000b6
:102e7400000000003c0200202800000000000000c8
:102e8400640200202800000000000000b6030020b7
:102e94000100000000000000b40100200c0000004c
:102ea40000000000b7030020010000000000000043
:102eb400b80300200100000000000000c001002051
:102ec4002c0000000000000010000020cc000000d6
:102ed40000000000b9030020010000000000000011
:102ee400800100203400000001000000c530000013
:102ef400c1330000cd470000255d000031520000c1
:102f0400c95100002143000025260000f1460000bd
:102f1400ad60000001530000495d0000113900005c
:102f24008c02002028000000010000007a600023c9
:102f340060f0ffff8360002315020000846000231b
:102f440015020000816000230a0100000000000057
:102f540000000000b402002028000000010000006e
:102f64007a60002360f0ffff8360002315020000f5
:102f74008460002315020000816000230a01000020
:102f84000000000000000000dc0200202800000017
:102f9400010000007a60002360f0ffff83600023db
:102fa40015020000846000231502000081600023e4
:102fb4000a0100000000000000000000ba03002025
:102fc4000100000000000000bb030020010000001d
:102fd40000000000bc03002001000000000000000d
:102fe400bd0300200100000000000000be0300201b
:102ff4000100000000000000bf03002001000000e9
:1030040000000000c00300200100000000000000d8
:10301400c10300200100000000000000a403002000
:103024000200000000000000c203002001000000b4
:1030340000000000c30300200100000000000000a5
:10304400a60300200200000000000000c4030020ca
:103054000100000000000000c50300200100000082
:1030640000000000c6030020010000000000000072
:10307400c70300200100000000000000c803002076
:103084000100000000000000c9030020010000004e
:1030940000000000ca03002001000000000000003e
:1030a400a003002004000000000000000000000055
:1030b4000000000022222222222222222222222274
:020000040000fa
:1030c40070b582b0bb4b1d7f6a1cc2ebc20203eb1e
:1030d400c2039c79082c00f24881dfe814f009004f
:1030e4003f007100a100bf00d900f0000f012801ca
:1030f400c5ebc502af4b03ebc2020023a2f84e306e
:10310400106ab2f84c104b1c9bb2a2f84c3000eb86
:10311400c101ca78bab1c5ebc501a64a02ebc10127
:1031240000ebc3035b68b1f84e201344a1f84e30a2
:10313400b1f84c20531c9bb2a1f84c3000ebc202f6
:10314400d278002aecd10135c5ebc505994b03ebc8
:10315400c5050123ab71204602b070bd954b9b7c25
:103164002bb3944e0023b37402f056f9c5ebc50398
:1031740006ebc306b6f84e3098420fd08d4bc5eb24
:10318400c50203ebc2020024a2f84c400135c5eb92
:10319400c50503ebc50302229a71dce70135c5ebd3
:1031a400c505844b03ebc5056423ab71d3e7022348
:1031b4002b2219464ff41c5002f04cfa0024cae7a3
:1031c4007c4b9b7c63b17b4b00249c74ea00511bb9
:1031d40003ebc101b1f84c300133a1f84c30bae72c
:1031e400c5ebc503734a02ebc303b3f84c60186a1a
:1031f40000ebc602d47844b90135c5ebc5056d4b67
:1032040003ebc5050323ab71a5e75368917830f848
:10321400360002220092224602f02af900249ae79c
:10322400644b9b7c53b1634b00249c740135c5eb08
:10323400c50503ebc50304229a718ce7c5ebc505ec
:103244005c4b03ebc50502210091b5f84e302b22ef
:103254004ff41c5002f00cf900247ce7554b9b7c86
:1032640053b1544b00249c740135c5ebc50503ebe5
:10327400c50305229a716ee7022300934af6aa2336
:103284002b2204214ff41c5002f0f2f8002462e7d0
:1032940002230093484b2322012141f2100002f043
:1032a400e7f8444b00229a741a7f0132d100881a3d
:1032b40003ebc000837901338371c8244be73d4b92
:1032c4009b7c93b13b4b00229a7402f0a5f8012831
:1032d40001d000243fe70135c5ebc505354b03ebb1
:1032e400c5050723ab71002435e7022323220121fe
:1032f40041f2100002f0aef900242ce72d4b9b7c28
:1033040053b12c4b00249c740135c5ebc50503eb6c
:10331400c50308229a711ee70223009301232f227a
:1033240019464ff41c5002f0a3f8002413e7214b74
:103334009b7c8bb11f4b00229a7402f06df808b18c
:10334400002408e70135c5ebc5051a4b03ebc50599
:103354000923ab710024fee602232f2201214ff43e
:103364001c5002f077f90024f5e6124b9b7cb3b1b4
:10337400104b00249c74c5ebc50203ebc202012070
:1033840082f840000544ea00511b03ebc101c871f7
:10339400511b03ebc101022048718c71dbe602234f
:1033a400009301232b2204214ff41c5002f060f8f7
:0c33b4000024d0e6100000207361766554
:020000040000fa
:1033c000f0b583b0b54b1d7f6a1cc2ebc20203eba4
:1033d000c2039c79072c00f24a81dfe814f0080050
:1033e00040005e0077009000ba00e400fd00ab4ba7
:1033f0009b7c3bb3a94e0023b37402f00ff8ef009f
:103400007b1b06ebc3039b6a80b298477d1b06ebd0
:10341000c5056864377ffd00eb1b06ebc303da6a62
:10342000586c9047ed1b06ebc5056864337f01338c
:10343000da00d11a06ebc1018b7901338b7120467a
:1034400003b0f0bd964b4ff00042c3f89820022322
:103450002b22012143f2202002f0fef8efe78f4bf0
:103460009b7c53b18d4b00249c740135c5ebc50585
:1034700003ebc50302229a71e1e7c5ebc505874b53
:1034800003ebc505022300936b6c2322002146f257
:103490007c0001f0efff0024d1e7804b9b7c53b10f
:1034a0007e4b00249c740135c5ebc50503ebc503b9
:1034b00003229a71c3e70223009323232f220021c2
:1034c00046f2980001f0d6ff0024b8e7734b9b7cce
:1034d00053b1724b00249c740135c5ebc50503eb59
:1034e000c50304229a71aae70223009306232f2220
:1034f000002146f2600001f0bdff00249fe7674b0a
:103500009b7cebb1654b00229a741b79602b0dd02c
:1035100001f084ff0223009340f010032b220021ce
:1035200046f2400001f0a6ff002488e70135c5eb14
:10353000c5055a4b03ebc5050523ab7114467ee761
:1035400002232b22002146f2400002f085f80024dd
:1035500075e7524b9b7cebb1504b00229a741b7960
:10356000602b0dd001f05aff0223009320f01003ce
:103570002b22002146f2400001f07cff00245ee790
:103580000135c5ebc505454b03ebc5050623ab71fe
:10359000144654e702232b22002146f2400002f099
:1035a0005bf800244be73d4b9b7c53b13b4b002425
:1035b0009c740135c5ebc50503ebc50307229a7161
:1035c0003de70223009300232f22194646f26000b4
:1035d00001f050ff002432e7304b9b7c43b90223bb
:1035e0002322002146f2640002f036f8002426e788
:1035f0002a4c0023a37401f011ffc5ebc50304ebb3
:10360000c304a064636c9a1c904222dd6b1cc3eb64
:10361000c303224a02ebc30300229a7101f0fefeab
:103620001e4cee00731b04ebc3031b6b9847751b0a
:1036300004ebc505a864267ff500ab1b04ebc303b0
:103640001a6b586c9047ad1b04ebc50460640a24e8
:10365000f5e6023b984205f10103c3ebc3030f4ab1
:1036600002ebc303b4bf002208229a71d6e70c4bc9
:103670004ff00042c3f89420084bc5ebc50203eba2
:10368000c202002482f840400135ea00511b03ebde
:10369000c101022048718c71d1e600bf10000020ea
:0436a0000080004165
:020000040000fa
:1036a4002de9f04784b04ff084431c6d14f0007f83
:1036b4001cbf4ff000721a6514f0010f63d04ff075
:1036c400844301221a655a6d22f001025a65d3f827
:1036d400a43013f07f0f56d04ff08443d3f8a45096
:1036e400c5f305252b01854ad268d718d15811f0a6
:1036f400804fd15805eb8500814e56f8200014bf49
:1037040021f06041c1f38a410160d2587b6813f40f
:10371400001f03d112f0005f40f0e68005eb850343
:10372400774a02eb83031b6900221a707e68754b8b
:103734000fcb0df1100c0ce90f00c6f303466644e1
:1037440016f810ac6e4e4fea850808eb050906eb37
:103754008909524607f10801d9f8040002f0acfbcc
:10376400d9f8083083f800a0d9f80c300bb17a6886
:103774001a804ff08443c3f8a850634b1b6813b1fd
:10378400614a5068984714f0100f67d04ff0844393
:1037940010221a655a6d22f010025a65d3f8b4301b
:1037a40013f07f0f5ad04ff08443d3f8b450c5f3cd
:1037b40005252b01514a1269d718d15811f0804fb1
:1037c400d05805f1010101eb81014d4e56f82160fd
:1037d40014bf20f06040c0f38a403060d2587b6848
:1037e40013f4001f02d112f0005f74d105eb8503be
:1037f400434a02eb83035b6a00221a707e68414be2
:103804000fcb0df1100c0ce90f00c6f30346664410
:1038140016f8108c3a4e6b1c03eb830306eb830300
:10382400424607f10801586802f046fbab005a19fa
:1038340006eb8202d26982f800802b4406eb8306f1
:10384400336a0bb17a681a804ff08443c3f8b850d6
:103854002d4b9b6813b12c4ad068984714f4007f11
:1038640020d04ff084434ff400721a655a6d22f44d
:1038740000725a65d3f8d820d3f8e03013f0010f62
:103884000ad012f0010f07d04ff08442d2f8e03092
:1038940023f00103c2f8e0301b4b9b6913b11a4ab1
:1038a400d069984714f4006f12d04ff084424ff45b
:1038b40000631365d2f8c430c3f30423d2f8c420e0
:1038c400c2f30442934203d20133dbb29a42fbd1e6
:1038d40004b0bde8f08705eb8503094a02eb8303d6
:1038e4005b6a01221a7089e705eb8503044a02eb3f
:1038f40083031b6901221a7018e700bf3c020020f1
:0c3904006402002030600000640300201a
:020000040000fa
:1039100070b582b0714b1c7f621cc2ebc20203eb1c
:10392000c2039b790b2b00f2cb80dfe803f006305b
:1039300053c9c9c9c9c9c9c97ba2684b9b7cf3b12a
:10394000664d0023ab7401f069fdc0b2c4ebc40343
:1039500005ebc30585f8500040b10134c4ebc40445
:103960005e4b03ebc4040123a371b3e00134c4eb49
:10397000c4045a4b03ebc4040a23a371aae0022334
:103980002f22002141f2010001f066fea2e0534b1c
:103990009b7cbbb1514b00229a7401f03ffd40b1ba
:1039a0000134c4ebc4044d4b03ebc4040223a371e4
:1039b00090e00134c4ebc404484b03ebc40400237f
:1039c000a37187e002232f22002141f2030001f0be
:1039d00043fe7fe0414b9b7c83b1404d0026ae749b
:1039e00001f01cfdc4ebc40305ebc30358650134af
:1039f000c4ebc40405ebc405ae716be0374b5b7cd4
:103a000043b10134c4ebc404344b03ebc4040023be
:103a1000a3715fe002232322012141f2030001f0a0
:103a20001bfe57e02d4b9b7cdbb12c4b00229a7484
:103a30001b79602b0cd001f0f1fc0223009340f0c5
:103a400080032b22002146f2400001f013fd41e0eb
:103a50000134c4ebc404214b03ebc4040b23a37156
:103a600038e002232b22002146f2400001f0f4fd51
:103a700030e01a4b9b7cdbb1184b00229a741b7907
:103a8000602b0cd001f0cafc0223009320f08003cd
:103a90002b22002146f2400001f0ecfc1ae0013438
:103aa000c4ebc4040d4b03ebc4040c23a37111e05d
:103ab00002232b22002146f2400001f0cdfd09e057
:103ac000064b0134e200111b03ebc10102204871d7
:103ad00000228a71002002b070bd00bf10000020db
:020000040000fa
:103ae00013400123010000002910012f00000000f5
:103af0002910022f0100000031200023881300004c
:103b0000322000238813000033200023000000002f
:103b1000342000232cc9000035200023204e000053
:103b200036200023d007000037200023ceffffff00
:103b30003b200123881300003b200223e803000000
:103b40003b200323000000003b2004230000000072
:103b50003b2005238813000056200023f4010000b9
:103b60006120002301000000622000237800000093
:103b7000632000230100000064200023780000007f
:103b80006520002301000000662000233c000000a7
:103b900002320023090000000b3201230000000064
:103ba0000b320223000000000b320323010000004f
:103bb0000b320423010000001032012350c3000027
:103bc000103202230a00000021320023000000000e
:103bd00041320123000000000037002bffff0000ee
:103be0005a60002b000000005b60002b000000000a
:103bf0005c60002b000000005d60002b00000000f6
:103c00005e60002b000000006560002300010000e2
:103c10006660002b64000000676000230a0000005b
:103c20006860002b640000007b600123000000003e
:103c30007b600223000000007d600123c0e0ffffe5
:103c40007d600223401f00007e60002f0000000006
:103c50008f600123d00700008f6002230100000065
:103c6000f260002b020000009160012301000000bf
:103c70009160022301000000c5600023881300004a
:103c8000c6600023881300009860002f2300000006
:103c90007c60002300000000000000000000000025
:020000040000fa
:103ca00013400123010000002910012f0000000033
:103cb0002910022f0100000031200023881300008a
:103cc000322000238813000033200023000000006e
:103cd000342000232cc9000035200023204e000092
:103ce00036200023d007000037200023ceffffff3f
:103cf0003b200123881300003b200223e80300003f
:103d00003b200323000000003b20042300000000b0
:103d10003b2005238813000056200023f4010000f7
:103d200061200023010000006220002378000000d1
:103d300063200023010000006420002378000000bd
:103d40006520002301000000662000233c000000e5
:103d500002320023090000000b32012300000000a2
:103d60000b320223000000000b320323010000008d
:103d70000b320423010000001032012350c3000065
:103d8000103202230a00000021320023000000004c
:103d900041320123000000000037002bffff00002c
:103da0005a60002b000000005b60002b0000000048
:103db0005c60002b000000005d60002b0000000034
:103dc0005e60002b00000000656000230001000021
:103dd0006660002b64000000676000230a0000009a
:103de0006860002b640000007b600123000000007d
:103df0007b600223000000007d600123c0e0ffff24
:103e00007d600223401f00007e60002f0000000044
:103e10008f600123d00700008f60022301000000a3
:103e2000f260002b020000009160012301000000fd
:103e30009160022301000000c56000238813000088
:103e4000c6600023881300009860002f2300000044
:103e50007c60002300000000000000000000000063
:020000040000fa
:103e600013400123010000002910012f0000000071
:103e70002910022f010000003120002388130000c8
:103e800032200023881300003320002300000000ac
:103e9000342000232cc9000035200023204e0000d0
:103ea00036200023d007000037200023ceffffff7d
:103eb0003b200123881300003b200223e80300007d
:103ec0003b200323000000003b20042300000000ef
:103ed0003b2005238813000056200023f401000036
:103ee0006120002301000000622000237800000010
:103ef00063200023010000006420002378000000fc
:103f00006520002301000000662000233c00000023
:103f100002320023090000000b32012300000000e0
:103f20000b320223000000000b32032301000000cb
:103f30000b320423010000001032012350c30000a3
:103f4000103202230a00000021320023000000008a
:103f500041320123000000000037002bffff00006a
:103f60005a60002b000000005b60002b0000000086
:103f70005c60002b000000005d60002b0000000072
:103f80005e60002b0000000065600023000100005f
:103f90006660002b64000000676000230a000000d8
:103fa0006860002b640000007b60012300000000bb
:103fb0007b600223000000007d600123c0e0ffff62
:103fc0007d600223401f00007e60002f0000000083
:103fd0008f600123d00700008f60022301000000e2
:103fe000f260002b0200000091600123010000003c
:103ff0009160022301000000c560002388130000c7
:10400000c6600023881300009860002f2300000082
:104010007c600023000000000000000000000000a1
:020000040000fa
:1040200008b5594b1b78594a126ac2f300529342a1
:1040300076d0564b1b6ac3f30053534a1370544b4c
:104040001b78524ad2f8a02002f0010293426dd0b0
:104050004e4bd3f8a03003f001034d4a13704d4b83
:104060001b784a4ad2f8a020c2f34002934263d0a0
:10407000464bd3f8a030c3f34003464a1370464b77
:104080001b78424ad2f8a020c2f38002934259d052
:104090003e4bd3f8a030c3f380033f4a13703f4b2d
:1040a0001b783a4ad2f8a020c2f3c00293424fd004
:1040b000364bd3f8a030c3f3c003384a1370384be3
:1040c0001b78324a126ac2f34052934246d02f4bb9
:1040d0001b6ac3f34053324a1370324b1b782b4a8e
:1040e000126ac2f3c06293423ed0284b1b6ac3f3ec
:1040f000c0632c4a137008220021084601f084fd99
:10410000c0b3224b4ff400229a61102200210846ce
:1041100001f07afd98b31d4b1022c3f8982008bd1a
:1041200004220221002001f0c3fc88e710220121b3
:10413000002001f0bdfc92e720220121002001f0c7
:10414000b7fc9ce701221146002001f0b1fca6e774
:1041500002220121002001f0abfcb0e70422012182
:10416000002001f0a5fcb8e708220121002001f0a1
:104170009ffcc0e7054b4ff400225a61c5e7034b93
:104180001022c3f89420cae7aa030020008000414f
:10419000ac030020ab030020a9030020a8030020eb
:0841a000ae030020ad03002076
:020000040000fa
:1041a8002de9f04784b0574b1c6d14f0007f1cbffd
:1041b8004ff000721a6514f0010f5fd0514b0122c5
:1041c8001a655a6d22f001025a65d3f8a43013f02b
:1041d8007f0f53d04b4bd3f8a450c5f305252b01c3
:1041e800494ad268d718d15811f0804fd15805ebf9
:1041f8008500464e56f8200014bf21f06041c1f3f7
:104208008a410160d2587b6813f4001f02d112f072
:10421800005f6dd105eb85033c4a02eb83031b6904
:1042280000221a707e683a4b0fcb0df1100c0ce986
:104238000f00c6f30346664416f810ac334e4fea37
:10424800850808eb050906eb8909524607f10801bc
:10425800d9f8040001f02efed9f8083083f800a040
:10426800d9f80c300bb17a681a80264bc3f8a850dd
:10427800284b1b6813b1274a5068984714f4007fed
:104288001ed0204b4ff400721a655a6d22f400724a
:104298005a65d3f8d820d3f8e03013f0010f09d0cd
:1042a80012f0010f06d0174ad2f8e03023f00103cc
:1042b800c2f8e030174b9b6913b1164ad06998478a
:1042c80014f4006f11d00f4a4ff400631365d2f84d
:1042d800c430c3f30423d2f8c420c2f30442934287
:1042e80003d20133dbb29a42fbd104b0bde8f087b8
:1042f80005eb8503054a02eb83031b6901221a704b
:1043080090e700bf00040042ec01002014020020e6
:084318001060000044030020c6
:020000040000fa
:1043200070b5594b1c7f621cc2ebc20203ebc20387
:104330009b79012b32d05ab25ab1022b52d00134a0
:10434000c4ebc404504b03ebc4040023a37100204e
:1043500070bd4d4b9b7ccbb14b4d0023ab7401f03a
:104360005df8e600331b05ebc3039b6a80b29847f8
:10437000341b05ebc40460642b7f0133da00d11acf
:1043800005ebc1018b7901338b71e0e702232b220e
:10439000012143f2202001f05ff9d8e73a4b9b7ce2
:1043a000c3b1394d0023ab7401f038f8e600331b7c
:1043b00005ebc3031b6b9847341b05ebc404a064d7
:1043c0002b7f0133da00d11a05ebc1018b79013360
:1043d0008b71bce702232322002146f2640001f026
:1043e0003bf9b4e7284b9b7c002b44d0264d00239f
:1043f000ab7401f009f9631cc3ebc30305ebc30500
:104400006871062815d0c4ebc4041f4b03ebc40429
:1044100094f834304bb91c4a137f0133c3ebc30308
:1044200002ebc30300229a7191e7672001f008fbb9
:10443000f1e7c4ebc403144a02ebc30393f834302e
:10444000012b0ad113460134e200111b03ebc10119
:104450000720487100228a7179e7662001f0f0fa9e
:10446000094b1a7f0132d100881a03ebc00083790f
:10447000013383716be702232b22002146f24100b6
:0c44800001f0eaf863e700bf1000002024
:020000040000fa
:10448c004e4b42f20e229a821a46d36813f0010f59
:10449c00fbd04a4b00221a7403f50063484ada62d7
:1044ac001a46536813f0200ffbd1464b464a9a62ca
:1044bc001a46536813f0100ffbd1424b434a1a6350
:1044cc001a46536813f0400ffbd13e4b4222c3f8ff
:1044dc0084201a46d2f8843013f0400ffad03c4bab
:1044ec0000229a6377225a631a46d36b13f0040f97
:1044fc00fbd1374b022283f830201a46d36b13f0d2
:10450c00020ffbd1324a136c03f00303032bfad1d5
:10451c00304b01225a711a46d37813f0010ffbd09d
:10452c00284b2d4a1a621a46536813f0040ffbd11c
:10453c00244b2a4a5a621a46536813f0080ffbd1cf
:10454c00204b4322c3f8a4201a46d2f8a43013f00f
:10455c00400ffad01b4b4422c3f8ec201a46d2f879
:10456c00ec3013f0400ffad0164b4422c3f8f02075
:10457c001a46d2f8f03013f0400ffad0114b41220a
:10458c00c3f820211a46d2f8203113f0400ffad08c
:10459c000c4b4122c3f824211a46d2f8243113f0d3
:1045ac00400ffad00b4b6ff07f421a6144f2ff724e
:1045bc005a614ff4c0721a62704700bf0014004079
:1045cc0004012000001c004006013000060102001e
:1045dc000010004000080040070101000701020024
:020000040000fa
:1045ec00f8b507463a4b1e683a4c012525703a48f7
:1045fc0000f004fa65700023a370e5700222a27229
:10460c00e372237363736371a371e37123720323e6
:10461c00a376e57706f00f03ab4210d02d4b0022aa
:10462c0083f850202b4a57654ff0005393651b7845
:10463c00112b2ad0274b002283f85c203ee0c6f3d6
:10464c000216ae42ead10c2284f8502001f0fafc9a
:10465c000028fbd1214b1868d0f8fc33b3f15a3f3a
:10466c0009d01c4a02f120035032002143f8041bec
:10467c009342fbd1d6e7031f194a2c3053f8041f81
:10468c0042f8041f8342f9d1cce74ff000535b781a
:10469c00822bcfd14ff000539b78132bcad14ff004
:1046ac000053db78842bc5d101220a4b83f85c20a4
:1046bc004ff00053da71002119725a72054b002227
:1046cc0083f85d2001f07ef901f098f9f8bd00bf88
:1046dc0004408000dc000020400100203c01002050
:0446ec00f8000020b2
:020000040000fa
:1046f00010b582b0344b197f4a1cc2ebc20203ebe7
:10470000c2039b7973b1012b34d02f4b0131ca0006
:10471000501a03ebc0000224447100228271002071
:1047200002b010bd284b9b7ce3b1274b00229a744a
:104730001b79602b0dd000f071fe022300934ff621
:104740008f5303402b22002146f2400000f092fede
:10475000e5e70131c1ebc1011b4b03ebc1010123b3
:104760008b71dce702232b22002146f2400000f08f
:1047700073ffd4e7144b9b7cf3b1134b00229a7464
:104780001b79602b0fd000f049fe4ff67073034089
:104790000222009243f007032b22002146f2400040
:1047a00000f068febbe70131c1ebc101064b03eb32
:1047b000c10102238b71b2e702232b22002146f2b2
:0c47c000400000f049ffaae710000020b4
:020000040000fa
:1047cc0070b5334b1c7f621cc2ebc20203ebc203fd
:1047dc00db7933b3c4ebc4032d4a02ebc30393f868
:1047ec0040304bbb631cc3ebc303294a02ebc3032e
:1047fc009b79a3bb937c53b3134600229a7400f0ad
:10480c0007fe4af6aa23984204f10104c4ebc4043f
:10481c001f4b03ebc40407bf0023e3710123a371f7
:10482c0008e01b4b0134e200111b03ebc10100201b
:10483c0048718871002070bd13460134e200111bd1
:10484c0003ebc1010120487100228a71f2e70223b7
:10485c002b2204214ff41c5000f0f8feeae70c4b1d
:10486c009b7c63b10a4d0026ae7400f0c7fe013488
:10487c00e3001a1b05ebc20250719671dae70223b2
:10488c002b22002146f2410000f0e0fed2e700bfef
:04489c0010000020e8
:020000040000fa
:1048a00010b582b02c48fff7a1fe002400942346e7
:1048b00022462821204600f087ff00942346224606
:1048c0003221012000f080ff009423462246c821b7
:1048d000022000f079ff0094234622466421032041
:1048e00000f072ff0094234664221146042000f079
:1048f0006bff0094234622462146052000f064ff0a
:104900000094234622462146062000f05dff0094d5
:10491000234622462146072000f056ff00942346f6
:1049200022462146082000f04fff00942346022231
:104930002146092000f048ff0094234622462146e4
:104940000a2000f041ff00942346224621460b2016
:0c49500000f03aff02b010bd99520000c8
:020000040000fa
:10495c00f8b59df818c0bcf1010f01d90020f8bdc5
:10496c004ff08443d3f8c43013f4001f3fd14ff001
:10497c008443d3f8c440c4f3044426011d4b9f69ff
:10498c00bd19b0f5006f26bf20f0604040f08040ac
:10499c008004b8510b46082928bf08231804686006
:1049ac001cf0fd0f1ed111461a4605f1080001f04e
:1049bc007ffa114a13780133dbb213706a6842ea4a
:1049cc00036343f400036b60012000fa04f44ff01e
:1049dc008443c3f8e040c3f8d0405a6d42f40072ef
:1049ec005a65bce7bb5943f00053bb51e1e70020cb
:0c49fc00b5e700bf3c020020b60300201d
:020000040000fa
:104a080038b504464022002101f02efb4ff08443c4
:104a180001229a611a46936913f0010ffbd04ff0f7
:104a280084439a6942f002029a611e49cc60a2b29c
:104a380042f0004242f48032c3f8a02004f1100290
:104a48000a6192b242f0004242f48032c3f8b020c8
:104a580004f120028a6192b242f08072c3f8c02049
:104a680004f13002ca6192b242f48032c3f8f020f5
:104a780004f138020a620c4d03cda063e16392b2df
:104a880042f40032c3f884209a6922f4804222f06a
:104a9800010242f480429a611a46936913f0010fa9
:0c4aa800fbd138bd3c020020a4600000df
:020000040000fa
:104ab400f8b59df818c0bcf1010f01d90020f8bd6c
:104ac400224bd3f8c43013f4001f3dd11f4bd3f84d
:104ad400c440c4f3044426011d4b9f69bd19b0f5bd
:104ae400006f26bf20f0604040f080408004b85141
:104af4000b46082928bf0823180468601cf0fd0f22
:104b04001dd111461a4605f1080001f0d5f9114ae4
:104b140013780133dbb213706a6842ea036343f427
:104b240000036b60012000fa04f4084bc3f8e04072
:104b3400c3f8d0405a6d42f400725a65bfe7bb59be
:104b440043f00053bb51e2e70020b8e70004004201
:084b5400ec010020b503002074
:020000040000fa
:104b5c0010b4234b234a1a60462283f843200622c2
:104b6c0083f8442083f84520402083f84b0083f8d9
:104b7c004e0083f84f2083f8530083f8542083f8b9
:104b8c005520012183f8561083f8571083f85b20c9
:104b9c00882483f83b40a4f1ff44583cc3f8804080
:104bac0083f8c02083f8c12083f8c22083f8c32087
:104bbc0083f8c40083f8c81083f8c91083f8cc10ac
:104bcc0083f8cd1083f8ce2083f8d700112283f818
:104bdc00b420772283f8b6205df8044b704700bff1
:084bec000080004104480800ac
:020000040000fa
:104bf40010b504462c22002101f038fa1e4b012284
:104c04009a611a46936913f0010ffbd01a4b9a6903
:104c140042f002029a611949cc60a2b242f0004209
:104c240042f48032c3f8a02004f110028a6192b2e7
:104c340042f08072c3f8c02004f12002ca6192b22b
:104c440042f48032c3f8f02004f128020a620c49cd
:104c5400a16292b242f48032c3f884209a6922f4a9
:104c6400804222f0010242f480429a611a4693691a
:104c740013f0010ffbd110bd00040042ec01002031
:044c84000006800d99
:020000040000fa
:104c880008b5224b9b7c002b2bd0204b1b7cabb157
:104c98001e4b1b79802b08d01c494b6823f0ff0260
:104ca8004b6923f0ff039a4217d0184b01225a741c
:104cb800164b00229a7401f067f822e0134b5b7cd4
:104cc800002bf5d1114bdb7c1bb9104b01225a7418
:104cd800eee7013b0d4ad37413e00c4b5b7c002bd1
:104ce800e6d10a4a137f0133c3ebc30302ebc303c4
:104cf8005a79074b53f82230984710b9034b9b7cdd
:104d080003b108bd01f040f8fbe700bf1000002028
:044d180080010020f6
:020000040000fa
:104d1c00f0b59df814401cb1012c1fd00020f0bd43
:104d2c004ff0844cdcf8a450c5f305251b4cae00a9
:104d3c007719bf0004eb070ee051cef80420cef833
:104d4c000810cef80c30069bcef81030dcf854303e
:104d5c0043f00103ccf854300120e0e74ff08447d6
:104d6c00d7f8b450c5f305250c4c05f1010c4feaee
:104d7c008c0606eb0c0e44f82e0004eb8e067260cb
:104d8c00aa00501904eb8000c1610362069b4362c8
:104d9c007b6d43f010037b650120c0e764020020ab
:020000040000fa
:104dac0008b51b4b98471b4b9847eff3108172b615
:104dbc00194ad2f8883043f47003c2f88830bff334
:104dcc004f8fbff36f8f01b962b6144c2023636011
:104ddc0000f044f9124b23f07f030f4a9360114b00
:104dec009847a36823f00103a3602346da6812f006
:104dfc00010ffbd1094b5a6842f004025a600122a0
:104e0c009a60094b9847094b984700f011f8fee758
:104e1c00cb600000cb60000000ed00e000600041c2
:104e2c000020000081570000cb600000cb60000028
:020000040000fa
:104e3c0008b5002000f082fe00211e4801f026f982
:104e4c0001f074f801f07ef800f0b0fbfff722fde2
:104e5c0000f048f901f0fef800f03efe164c174d3c
:104e6c0001f022f9237813f0020f0fd1237813f0fd
:104e7c00040f19d1237813f0010ff1d023f00103a3
:104e8c0023704ff00043c5f89c30e9e723f0020390
:104e9c002370fff7bff800f061fb01f011f9fff789
:104eac00edfe00f057f9e1e723f004032370fdf762
:104ebc0081fddfe7795a0000ca0300200080004121
:020000040000fa
:104ecc0070b50024194b1c70194b1c7021462046e0
:104edc0000f0d2fe174b1870174e04257561174b56
:104eec001c70234640220221204600f0dbfd4ff4cb
:104efc000003c6f89430234610222146204600f0c9
:104f0c00d1fd0f4b1c702146022000f0b5fe00ebca
:104f1c00800040000b4b188023462a462146204631
:104f2c0000f0c0fd084b1c7070bd00bfbe0300201c
:104f3c00bd030020c203002000800041bc03002000
:0c4f4c00c1030020a6030020c3030020c6
:020000040000fa
:104f580038b51d4b01229a611a46936913f0010f67
:104f6800fbd0194b9a6942f002029a61174ada613a
:104f78002b22c3f8802001221a629a6922f4804207
:104f880022f0010242f480429a611a46936913f0b2
:104f9800010ffbd10c4b00249c650122da654ff010
:104fa80000725a650a4d2c606c60ac60282221465c
:104fb800084801f059f8ec602c616c61ac61ec6157
:104fc8002c626c6238bd00bf00040042000502007c
:084fd800ec010020140200208e
:020000040000fa
:104fe00038b54ff0844301229a611a46936913f051
:104ff000010ffbd04ff084439a6942f002029a619c
:10500000164ada612b22c3f8802001221a629a69bb
:1050100022f4804222f0010242f480429a611a4650
:10502000936913f0010ffbd14ff0844300249c657a
:105030000122da654ff000725a65094d2c606c60f0
:10504000ac6028222146074801f012f8ec602c6180
:105050006c61ac61ec612c626c6238bd00050200d1
:085060003c0200206402002064
:020000040000fa
:105068001e4b1f4a9342f0b438bf002103d203f805
:10507800011b9342fbd11b4ad2e9000150ea01030c
:105088004ff0000610d09468034602f10c076cb983
:1050980021b1014403f8016b9942fbd13a46d2e9a8
:1050a800000150ea0103eed1f0bc704759b101f19b
:1050b8000c030c38801a1a443b461c1813f8015b81
:1050c80025709342f9d111f0030318bf012303ebb4
:1050d800910107eb81073a46e1e700bf1000002085
:0850e80010000020542d00000f
:020000040000fa
:1050f00008b5002304220221184600f0d9fc002341
:1051000010220121184600f0d3fc002320220121a7
:10511000184600f0cdfc002301221146184600f08d
:10512000c7fc002302220121184600f0c1fc002325
:1051300004220121184600f0bbfc002308220121b3
:10514000184600f0b5fc054b4ff400225a612022ae
:10515000c3f894201022c3f8942008bd00800041b9
:020000040000fa
:1051600070b5174e756c174c84fb0523ed17c5eb16
:105170006315eab20021022000f04cfec5f30722bd
:105180000121022000f046feb36c84fb0324db17f0
:10519000c3eb6414e2b20221084600f03bfec4f304
:1051a00007220321022000f035fe96f8c830b3fa3a
:1051b00083f35b0910220321002000f079fc70bd0d
:0851c000100000201f85eb51d7
:020000040000fa
:1051c80010b582b0174b9b7c1bb3164b00229a7408
:1051d8001b79602b0dd1134b1a7f0132d100881a2d
:1051e80003ebc0000224447100228271002002b047
:1051f80010bd00f00ff94ff67073034002220092c1
:1052080043f007032b22002146f2400000f02ef95c
:10521800ece702232b22002146f2400000f018faa6
:08522800e4e700bf10000020c4
:020000040000fa
:1052300010b582b0174b9b7c1bb3164b00229a749f
:105240001b79602b0dd1134b1a7f0132d100881ac4
:1052500003ebc0000224447100228271002002b0de
:1052600010bd00f0dbf84ff6787303400222009285
:1052700043f006032b22002146f2400000f0faf82a
:10528000ece702232b22002146f2400000f0e4f973
:08529000e4e700bf100000205c
:020000040000fa
:1052980038b501280fd00d4644b22cb1022816d0db
:1052a800042000f0a1fe05e000f06efb00f058febf
:1052b80000f0a2fe38bd00f0f1f920b10021084647
:1052c80000f088fef6e7032000f08efef2e702eb1e
:1052d800032211b2284600f02bfa012804d0022834
:1052e80005d000f06dfee5e700f07efee2e7042061
:0652f80000f07afedee783
:020000040000fa
:0252fe007047f7
:020000040000fa
:1053000010b582b0164b9b7c13b3154b00229a74d8
:105310001b79602b0dd1124b1a7f0132d100881af4
:1053200003ebc0000224447100228271002002b00d
:1053300010bd00f073f84ff678730340022200921c
:1053400013432b22002146f2400000f093f8ede7d2
:1053500002232b22002146f2400000f07df9e5e710
:045360001000002019
:020000040000fa
:10536400154b01221a801a46136b13f0010ffbd15f
:105374004ff080131b681a0902f07002d90001f47f
:10538400e061c3f382030a431a430b4ba3f848209a
:105394004ff4e0621a800322da721a7241f60202b2
:1053a4009a801a22da80072283f82e201a46136b79
:0c53b400002bfcd1704700bf001c004320
:020000040000fa
:1053c000154b01221a801a46136b13f0010ffbd103
:1053d0004ff080131b689a0c02f07002d90a01f496
:1053e000e061c3f302430a431a430b4ba3f848207e
:1053f0004ff4e0621a800322da721a7241f6010257
:105400009a801a22da80072283f82e201a46136b1c
:0c541000002bfcd1704700bf00200043bf
:020000040000fa
:10541c00144b1b794f2b07d04b2b08d0472b0cd0a0
:10542c00432b13d0002070470e4b187a70470d4b4e
:10543c005a7a187a00eb022070470a4a937a507a0b
:10544c0000eb0323107a00eb03207047054bd87a4e
:10545c009a7a02eb0022587a00eb0222187a00ebbf
:08546c0002207047100000202f
:020000040000fa
:1054740010b582b0124c22756075000aa075e175f2
:1054840023761a0a62761a0ca2761b0ee376237f21
:105494000133c3ebc30304ebc30318790023009364
:1054a40004f11402082100f5c060fff701fb9df828
:1054b400100000f02bfa0120a07402b010bd00bf50
:0454c40010000020b4
:020000040000fa
:1054c800104b93f85d3003b970470e4b002283f8f8
:1054d8005d209a6d012111709a6d022151709a6dab
:1054e800032191709b6d0422da70bff34f8f064938
:1054f800ca6802f4e062054b1343cb60bff34f8fd9
:1055080000bffde7dc00002000ed00e00400fa0524
:020000040000fa
:10551800f0b59df81440ecb9dff840c0dcf8a450b1
:10552800c5f305250c4cae007719bf0004eb070e38
:10553800e051cef80420cef80810cef80c30069bc7
:10554800cef81030dcf8543043f00103ccf8543076
:10555800012000e00020f0bd1402002000040042f9
:020000040000fa
:1055680008b5104b1a78104b1b6ac3f340139a42c4
:1055780010d00d4b1b6ac3f340130a4a1370202244
:105588000021084600f03cfb38b1074b4ff400629d
:105598009a6108bd054b1a70f1e7034b4ff400629e
:1055a8005a61f6e7b803002000800041b7030020e5
:020000040000fa
:1055b80010b51148fff71afb104c0020207784f82b
:1055c800c80084f8c90084f8ca002074607400f028
:1055d800bbf9012000f0b8f9022000f0b5f904f198
:1055e800200000f0c5fa04f1580000f0d9fa04f1df
:1055f800900000f0edfa10bdc0010020100000205e
:020000040000fa
:10560800124b1b7a13f04f0212d0402a12d003f02b
:105618006f03212b10d0232b10d0272b10d0072b52
:1056280010d00f2a10d0082a14bf03200c2070476e
:1056380003207047042070470520704706207047f4
:1056480008207047092070470b2070471000002081
:020000040000fa
:1056580030b583b01d46104c402323756075000a91
:10566800a075e175002323766376a376e376227f1f
:105678000132c2ebc20204ebc2021079009304f1ba
:105688001402082100f5c060fff710fa284600f060
:0c5698003bf9a07403b030bd10000020ee
:020000040000fa
:1056a40010b50e4b1b78b3b90d4b1c78a4b10d4b40
:1056b4001b780bb11c460fe00021032000f0e0fa38
:1056c400094b18700123074a137010220021084661
:1056d40000f0ecf900e00024204610bdbc030020db
:0c56e400be030020c1030020c903002009
:020000040000fa
:1056f0000f4ad36823f4e0631b041b0c43f0bf6321
:1057000043f40033d360bff35f8f62b6094be022ee
:1057100083f80b234ff40061196083f84e234ff494
:105720008041996083f84f234ff400429a6070479c
:0857300000ed00e000e100e0e3
:020000040000fa
:10573800104b93f8c830c3b9012801d0022315e0f3
:105748000c4a92f83d20062a12d110b4094a82f870
:10575800c80082f8c900002482f8ca40916382f820
:10576800340018465df8044b70470123184670470b
:085778000346fbe710000020ce
:020000040000fa
:1057800070b50d4d0d4c641ba4100026a64209d126
:105790000b4d0c4cfcf764fd641ba4100026a642c4
:1057a00005d170bd55f8043b98470136eee755f832
:1057b000043b98470136f2e76c2200006c2200009f
:0857c0006c22000070220000c1
:020000040000fa
:1057c80030b40e4c2468d4f8fc43b4f15a3f13d0db
:1057d8000b4c94f8504084420ed9094c00f108054e
:1057e80004f8251004eb800080f8212080f822308e
:1057f8009df8083080f8233030bc70473c01002009
:04580800dc000020a0
:020000040000fa
:10580c000f4b01221a801a46136913f0010ffbd1ba
:10581c000b4b4ff401421a8000221a621a4613698c
:10582c0013f0200ffbd1064b00225a621a46136963
:10583c0013f0400ffbd1024b83225a81704700bffb
:04584c0000240040f4
:020000040000fa
:1058500010b5054c237833b9044b13b10448aff3aa
:1058600000800123237010bd84030020000000008d
:105870000000000008b5034b1bb103490348aff318
:10588000008008bd00000000880300200000000028
:020000040000fa
:105890000e4b586c20f4605020f018004004400c6f
:1058a0009b6913f0010f10d0084a936943f002037b
:1058b0009361936923f4804323f0010343f480430d
:1058c0009361936913f0010ffbd17047000400420c
:020000040000fa
:1058d0004ff08443586c20f4605020f018004004ce
:1058e000400c9b6913f0010f11d04ff08442936973
:1058f00043f002039361936923f4804323f001038f
:1059000043f480439361936913f0010ffbd1704717
:020000040000fa
:1059100030b583b00b4c002525746574e0742a46bd
:105920002946094800f084fa084b0193009504f1d8
:105930000e03221d04f10c012046fff7edfd03b01c
:1059400030bd00bf100000206d5d0000b9030020d5
:020000040000fa
:1059500030b40e4a441ce1000d1b02ebc5050023c8
:105960006b710d1b02ebc505ab71eb71c400211a05
:1059700002ebc101012581f840504b648b6481f832
:1059800050304b6581f8343030bc70471000002037
:020000040000fa
:1059900008b50b4b1b782bb90a4b1b7813b10a4b7c
:1059a0001b7803b908bd0020074b1870034610226e
:1059b000014600f07df8054b4ff480425a61f1e753
:1059c000bc030020be030020c10300200080004172
:020000040000fa
:1059d00000b583b000221146084800f037fa0848a5
:1059e000084b01930023009300f10e03021d00f108
:1059f0000c01fff793f903b05df804fb355c000080
:085a000024030020b003002084
:020000040000fa
:105a080000b583b001220021084800f01bfa0848bd
:105a1800084b01930123009300f10e03021d00f1ce
:105a28000c01fff777f903b05df804fb5d5c00003b
:085a380004030020b00300206c
:020000040000fa
:105a400008b50c4a137fc3ebc30302ebc303002169
:105a500083f8341082f8c81028b9084682f8c910b3
:105a600000f0bcfa08bd034a022182f8c91000f018
:085a7000bffaf7e71000002067
:020000040000fa
:105a780010f0010f04d00b4a137843f0020313709f
:105a880010f0020f04d0074a137843f00403137090
:105a980010f0800f04d0034a137843f00103137009
:085aa800704700bfca03002093
:020000040000fa
:105ab00010b40b4ca47e84420fd903290dd8084c96
:105ac00004eb80040c44a47b24ea020403b11443d5
:105ad000034b03eb8000084484735df8044b70476c
:045ae000dc000020c6
:020000040000fa
:105ae40010b50024084b1c80fff7eef900f0f2f922
:105af40000f008fa00f0faf900f010fa034b1c70f9
:105b0400034b1c7010bd00bfa4030020bf03002082
:045b1400c0030020aa
:020000040000fa
:105b18000a4b01221a601a46136913f0010ffbd1d0
:105b2800064b40f214721a6001221a731a77332254
:105b38009a721a461369002bfcd17047003800404e
:020000040000fa
:105b480008b500f079fafff705f8fef79bfcfff7b8
:105b5800d2fbfff703fcfff7fbf9fff73dfafff76e
:105b68002bfcfff74ffefff7d3fffff7bdfd08bd86
:020000040000fa
:105b780003230377054b0360054b4360054b8360a4
:105b8800054bc360054b0361704700bfe03a000056
:105b98008c020020b55d0000695e0000815f000096
:020000040000fa
:105ba80004230377054b0360054b4360054b836073
:105bb800054bc360054b0361704700bfa03c000064
:105bc800b4020020d55d0000855e0000995f0000ea
:020000040000fa
:105bd80005230377054b0360054b4360054b836042
:105be800054bc360054b0361704700bf603e000072
:105bf800dc020020f55d0000a15e0000b15f00003e
:020000040000fa
:105c0800094bdb7f83420dd9032901d90020704756
:105c1800054b03eb80000844c37e1a4214bf0120e1
:0c5c28000020704700207047dc000020c6
:020000040000fa
:105c340008b5fff74bfe10f0070005d0072803d086
:105c4400034b01221a7002e0024b01221a7008bdb4
:085c5400b3030020b40300209b
:020000040000fa
:105c5c0008b5fff737fe10f0070005d0072803d072
:105c6c00034b01221a7002e0024b01221a7008bd8c
:085c7c00b1030020b203002077
:020000040000fa
:105c8400084b93f8503083420ad9032901d90020e4
:105c94007047044b03eb8000084490f820007047e1
:085ca40000207047dc00002025
:020000040000fa
:105cac0008b5074a908980b2064b58604cf2ff3118
:105cbc0091811b6813b1034a9168984708bd00bfd6
:085ccc0000240040b401002097
:020000040000fa
:105cd400074b1b78012b03d00133054a137070471f
:105ce400044b4ff48042da61014b01221a70704771
:085cf400c603002000800041fe
:020000040000fa
:105cfc00074b1b78022b03d00133054a13707047f6
:105d0c00044b4ff48042da61014b01221a70704748
:085d1c00c703002000800041d4
:020000040000fa
:105d240010b4074b1a7f0132d100881a03ebc0006c
:105d3400022444710346002098715df8044b7047b7
:045d4400100000202b
:020000040000fa
:105d480010b4074b1a7f0132d100881a03ebc00048
:105d5800022444710346002098715df8044b704793
:045d68001000002007
:020000040000fa
:105d6c0008b5fff78ffd10f0070005d0072803d00a
:105d7c00034b01225a7402e0014b01221a7408bd34
:045d8c0010000020e3
:020000040000fa
:105d9000074b1b7f0133dbb2032b05d0044a13777b
:105da000034b00229a747047014b00221a77f7e7e1
:045db00010000020bf
:020000040000fa
:105db400a0f5007048f6541303fb00f3034880fb7e
:105dc40003201844db17c3eb60207047556e599dc0
:020000040000fa
:105dd400a0f5007048f6541303fb00f3034880fb5e
:105de40003201844db17c3eb60207047556e599da0
:020000040000fa
:105df400a0f5007048f6541303fb00f3034880fb3e
:105e040003201844db17c3eb60207047556e599d7f
:020000040000fa
:105e1400054b9b7e834206d9032904d8024b03eb2e
:0c5e24008000084482737047dc000020fe
:020000040000fa
:105e300010b428b1044b43f8320003ebc20359609d
:0c5e40005df8044b704700bf44030020d5
:020000040000fa
:105e4c0010b428b1044b43f8320003ebc203596081
:0c5e5c005df8044b704700bf6403002099
:020000040000fa
:105e680000eb80000301044880fb03201844db1783
:0c5e7800c3ebe010704700bfb7600bb632
:020000040000fa
:105e840000eb80000301044880fb03201844db1767
:0c5e9400c3ebe010704700bfb7600bb616
:020000040000fa
:105ea00000eb80000301044880fb03201844db174b
:0c5eb000c3ebe010704700bfb7600bb6fa
:020000040000fa
:105ebc000a44914200f1ff3300d1704710b511f83c
:0c5ecc00014b03f8014f9142f9d110bdc9
:020000040000fa
:105ed800044a138843f002031380136b002bfcd190
:085ee800704700bf001c0043dd
:020000040000fa
:105ef000044a137d43f002031375136b13f4006f10
:085f0000fbd17047001c0043b7
:020000040000fa
:105f0800044a138843f002031380136b002bfcd15f
:085f1800704700bf00200043a8
:020000040000fa
:105f2000044a137d43f002031375136b13f4006fdf
:085f3000fbd170470020004383
:020000040000fa
:105f3800044a138843f002031380136913f0020f15
:085f4800fbd17047002400406a
:020000040000fa
:105f5000044a136843f002031360136913f0020f3d
:085f6000fbd17047003800403e
:020000040000fa
:105f6800044b93f8c8301bb1024b012283f8ca20b6
:085f7800704700bf100000207b
:020000040000fa
:105f8000b42303fb00f0034b83fb0023c017c0ebdb
:085f9000631070476766666646
:020000040000fa
:105f9800b42303fb00f0034b83fb0023c017c0ebc3
:085fa80063107047676666662e
:020000040000fa
:105fb000b42303fb00f0034b83fb0023c017c0ebab
:085fc000631070476766666616
:020000040000fa
:105fc800034b01229a720022da721a735a737047cd
:045fd800dc000020c9
:020000040000fa
:105fdc00034b02229a72d872197300225a737047bb
:045fec00dc000020b5
:020000040000fa
:105ff000024b03229a725873704700bfdc000020e6
:020000040000fa
:10600000024b03229a7206225a737047dc0000206a
:020000040000fa
:106010000001020304050607080c10141820304084
:020000040000fa
:1060200010b1024b9861d961704700bf6403002032
:020000040000fa
:106030000001020304050607080c10141820304064
:020000040000fa
:10604000024b40f204521a80704700bf00400041ea
:020000040000fa
:10605000024bd86ac0f38000704700bf0040004187
:020000040000fa
:10606000024b4ff400625a61704700bf008000414c
:020000040000fa
:1060700002440346934200d1704703f8011bf9e73d
:020000040000fa
:0c608000014bb3f840007047001c0043c7
:020000040000fa
:0c608c00014bb3f84000704700200043b7
:020000040000fa
:0c609800014b186099607047b4010020b3
:020000040000fa
:0860a4000102010a01010111d2
:020000040000fa
:0860ac0008b5fff7bff808bdbd
:020000040000fa
:0860b40008b5fcf7e3f808bd94
:020000040000fa
:0260bc00fee7fd
:020000040000fa
:0260be00fee7fb
:020000040000fa
:0260c000fee7f9
:020000040000fa
:0260c200fee7f7
:020000040000fa
:0260c400fee7f5
:020000040000fa
:0260c600fee7f3
:020000040000fa
:0260c800fee7f1
:020000040000fa
:0260ca0070471d
:020000040000fa
:0260cc0070471b
:020000040000fa
:0200000400807a
:044000003912003c35
:020000040000fa
:0200000400807a
:044004009100a82a55
:020000040000fa
:0200000400807a
:04400800ffffffffb8
:00000001FF
