:10000000F0FF0320C1050000630A0000650A00003C
:10001000690A00006B0A00006D0A00000000000081
:10002000000000000000000000000000610A000065
:10003000670A000000000000610A0000610A000079
:10004000610A0000610A0000610A0000610A000004
:10005000610A0000610A0000610A0000610A0000F4
:10006000610A0000610A0000610A00009D090000A9
:10007000610A0000610A0000610A0000610A0000D4
:10008000610A0000610A0000610A0000610A0000C4
:10009000610A0000610A0000610A0000610A0000B4
:1000A000610A0000610A0000610A0000610A0000A4
:1000B000610A0000610A0000610A0000610A000094
:1000C000610A0000610A0000610A0000610A000084
:1000D000610A0000610A0000610A0000610A000074
:1000E000610A0000610A000000000000000000003A
:1000F00000000000610A0000610A0000610A0000BF
:10010000610A0000610A0000610A0000610A000043
:10011000610A0000610A0000610A0000610A000033
:10012000610A0000610A0000610A0000610A000023
:10013000610A0000610A0000610A0000610A000013
:10014000610A0000610A0000610A0000610A000003
:10015000610A0000610A00000000000000000000C9
:10016000000000000000000000000000000000008F
:10017000000000000000000081020000610A000091
:10018000610A0000610A0000610A0000610A0000C3
:1001900000000000610A0000610A0000610A00001E
:1001A000610A0000610A0000610A0000610A0000A3
:1001B000610A0000610A0000610A0000610A000093
:1001C000610A0000610A0000610A0000610A000083
:1001D000610A0000610A0000610A0000610A000073
:1001E000610A0000610A0000610A0000610A000063
:1001F000610A0000610A0000610A0000610A000053
:10020000610A00000000000000000000610A000018
:10021000610A0000610A0000610A0000610A000032
:10022000610A0000610A0000610A0000610A000022
:10023000610A0000610A0000610A0000610A000012
:10024000610A0000610A0000610A0000610A000002
:10025000610A0000610A0000610A0000610A0000F2
:10026000F8B500BFF8BC08BC9E4670470D090000F9
:10027000F8B500BFF8BC08BC9E467047E90800000E
:100280002DE9F04784B04FF084431C6D14F0007FDB
:100290001CBF4FF000721A6514F0010F63D04FF0CD
:1002A000844301221A655A6D22F001025A65D3F87F
:1002B000A43013F07F0F56D04FF08443D3F8A450EE
:1002C000C5F305252B01854AD268D718D15811F0FE
:1002D000804FD15805EB8500814E56F8200014BFA1
:1002E00021F06041C1F38A410160D2587B6813F468
:1002F000001F03D112F0005F40F0E68005EB85039C
:10030000774A02EB83031B6900221A707E68754BE3
:100310000FCB0DF1100C0CE90F00C6F30346664439
:1003200016F810AC6E4E4FEA850808EB050906EB8F
:100330008909524607F10801D9F8040000F054FB7E
:10034000D9F8083083F800A0D9F80C300BB17A68DE
:100350001A804FF08443C3F8A850634B1B6813B155
:10036000614A5068984714F0100F67D04FF08443EB
:1003700010221A655A6D22F010025A65D3F8B43073
:1003800013F07F0F5AD04FF08443D3F8B450C5F325
:1003900005252B01514A1269D718D15811F0804F09
:1003A000D05805F1010101EB81014D4E56F8216055
:1003B00014BF20F06040C0F38A403060D2587B68A0
:1003C00013F4001F02D112F0005F74D105EB850316
:1003D000434A02EB83035B6A00221A707E68414B3A
:1003E0000FCB0DF1100C0CE90F00C6F30346664469
:1003F00016F8108C3A4E6B1C03EB830306EB830359
:10040000424607F10801586800F0EEFAAB005A19AD
:1004100006EB8202D26982F800802B4406EB830649
:10042000336A0BB17A681A804FF08443C3F8B8502E
:100430002D4B9B6813B12C4AD068984714F4007F69
:1004400020D04FF084434FF400721A655A6D22F4A5
:1004500000725A65D3F8D820D3F8E03013F0010FBA
:100460000AD012F0010F07D04FF08442D2F8E030EA
:1004700023F00103C2F8E0301B4B9B6913B11A4A09
:10048000D069984714F4006F12D04FF084424FF4B3
:1004900000631365D2F8C430C3F30423D2F8C42038
:1004A000C2F30442934203D20133DBB29A42FBD13E
:1004B00004B0BDE8F08705EB8503094A02EB83032E
:1004C0005B6A01221A7089E705EB8503044A02EB97
:1004D00083031B6901221A7018E700BF1000002077
:1004E00038000020300A0000600000202C4B002261
:1004F0001A7403F500632B4ADA621A46536813F044
:10050000200FFBD1284B01225A711A46D37813F0E1
:10051000010FFBD0254B264A1A621A46536813F086
:10052000040FFBD1214B234A5A621A46536813F039
:10053000080FFBD11D4B204A9A621A46536813F0EC
:10054000100FFBD1194B1B4A1A631A46536813F05C
:10055000400FFBD1154B4322C3F8A4201A46D2F812
:10056000A43013F0400FFAD0104B4422C3F8EC2013
:100570001A46D2F8EC3013F0400FFAD00B4B44225D
:10058000C3F8F0201A46D2F8F03013F0400FFAD03A
:10059000054B0A4A1A6144F2FF725A61704700BF64
:1005A000001400400401200000080040001C00402E
:1005B000060101000601020006013000FFFFFB00FA
:1005C00008B51B4B98471B4B9847EFF3108172B649
:1005D000194AD2F8883043F47003C2F88830BFF368
:1005E0004F8FBFF36F8F01B962B6144C2023636045
:1005F00000F072F8124B23F07F030F4A9360114B07
:100600009847A36823F00103A3602346DA6812F039
:10061000010FFBD1094B5A6842F004025A600122D3
:100620009A60094B9847094B984700F0EBF9FEE7B1
:100630006F0A00006F0A000000ED00E0006000415A
:10064000000000005D0800006F0A00006F0A000053
:1006500038B54FF0844301229A611A46936913F02A
:10066000010FFBD04FF084439A6942F002029A6175
:10067000164ADA612B22C3F8802001221A629A6995
:1006800022F4804222F0010242F480429A611A462A
:10069000936913F0010FFBD14FF0844300249C6554
:1006A0000122DA654FF000725A65094D2C606C60CA
:1006B000AC6028222146074800F0CAF9EC602C61A2
:1006C0006C61AC61EC612C626C6238BD00050200AB
:1006D00010000020380000201E4B1F4A9342F0B447
:1006E00038BF002103D203F8011B9342FBD11B4A00
:1006F000D2E9000150EA01034FF0000610D09468DF
:10070000034602F10C076CB921B1014403F8016BF7
:100710009942FBD13A46D2E9000150EA0103EED1F9
:10072000F0BC704759B101F10C030C38801A1A441F
:100730003B461C1813F8015B25709342F9D111F068
:10074000030318BF012303EB910107EB81073A462E
:10075000E1E700BF10000020100000200C0800009E
:100760004FF4005318684FF000531B78012B12D040
:10077000013018BF01204FF0005311221A7082225D
:100780005A7013229A708422DA7000221A710122A0
:100790005A719A7170474FF000535B78022BE7D182
:1007A0004FF000539B78032BE2D14FF00053DB78DE
:1007B000042BDDD10020DEE7134B05221A60022254
:1007C00083F84020012183F84210402283F843201F
:1007D00083F84B2083F84E2083F8532083F856107B
:1007E00083F8571083F83110882083F83B004FF0CE
:1007F0000040C3F8800083F8C42083F8D72083F832
:10080000DF1083F8BF207047008000418000002087
:100810001C0000000000000060000020200000001C
:100820000000000010000020280000000000000070
:100830003800002028000000000000009C0000207C
:100840000C00000000000000A800002004000000D0
:1008500000000000000000000000000070B50D4D19
:100860000D4C641BA4100026A64209D10B4D0C4C64
:10087000FFF7F6FC641BA4100026A64205D170BD4C
:1008800055F8043B98470136EEE755F8043B984786
:100890000136F2E76C0200006C0200006C020000FE
:1008A000700200000F4B01221A801A46136913F0E0
:1008B000010FFBD10B4B4FF401421A8000221A6248
:1008C0001A46136913F0200FFBD1064B00225A621F
:1008D0001A46136913F0400FFBD1024B83225A8151
:1008E000704700BF0024004010B5054C237833B991
:1008F000044B13B10448AFF300800123237010BDF3
:1009000080000020000000000000000008B5034B3C
:100910001BB103490348AFF3008008BD000000008D
:1009200084000020000000000D4AD36823F4E06337
:100930001B041B0C43F0BF6343F40033D360BFF3CD
:100940005F8F62B6074BE02283F80B234FF4006100
:10095000196083F84E234FF480429A60704700BFBD
:1009600000ED00E000E100E00B4B01221A601A46A6
:10097000136913F0010FFBD1074B4FF4C2621A60E9
:1009800001221A7302229A8333229A721A46136939
:10099000002BFCD1704700BF0038004008B5074A63
:1009A000908980B2064B58604CF2FF3191811B68F0
:1009B00013B1034A9168984708BD00BF0024004066
:1009C0009C00002008B500F03BF8FFF7F5FEFFF7AC
:1009D0008DFD00F02CF8FFF73BFEFFF763FFFFF7FC
:1009E000C3FFFFF7A1FF08BD0A44914200F1FF33A6
:1009F00000D1704710B511F8014B03F8014F914237
:100A0000F9D110BD08B50020FFF7DCFFFFF7A8FE05
:100A100000B9FEE700F001F8FBE74FF400531B6854
:100A200083F3088842F204031B6818477047704735
:100A30000001020304050607080C101418203040BA
:100A4000024B4FF482721A80704700BF0040004191
:100A500002440346934200D1704703F8011BF9E7B3
:100A6000FEE7FEE7FEE7FEE7FEE7FEE7FEE770478C
:10200000F0FF03209D3800005546000057460000B1
:102010005B4600005D4600005F46000000000000D7
:102020000000000000000000000000005346000017
:1020300059460000000000005346000053460000CF
:10204000534600005346000053460000534600002C
:10205000534600005346000053460000534600001C
:10206000534600005346000053460000E943000079
:1020700053460000534600005346000053460000FC
:1020800053460000534600005346000053460000EC
:1020900053460000534600005346000053460000DC
:1020A00053460000534600005346000053460000CC
:1020B00053460000534600005346000053460000BC
:1020C00053460000534600005346000053460000AC
:1020D000534600005346000053460000534600009C
:1020E00053460000534600000000000000000000BE
:1020F0000000000053460000534600005346000015
:10210000534600005346000053460000534600006B
:10211000534600005346000053460000534600005B
:10212000534600005346000053460000534600004B
:10213000534600005346000053460000534600003B
:10214000534600005346000053460000534600002B
:10215000534600005346000000000000000000004D
:10216000000000000000000000000000000000006F
:102170000000000000000000592C0000D52E0000D7
:1021800053460000534600005346000053460000EB
:102190000000000053460000534600005346000074
:1021A00053460000534600005346000053460000CB
:1021B00053460000534600005346000053460000BB
:1021C00053460000534600005346000053460000AB
:1021D000534600005346000053460000534600009B
:1021E000534600005346000053460000534600008B
:1021F000534600005346000053460000534600007B
:10220000534600000000000000000000534600009C
:10221000534600005346000053460000534600005A
:10222000534600005346000053460000534600004A
:10223000534600005346000053460000534600003A
:10224000534600005346000053460000534600002A
:10225000534600005346000053460000534600001A
:10226000F8B500BFF8BC08BC9E467047454000006A
:10227000F8B500BFF8BC08BC9E467047214000007E
:1022800070B582B0AF4B1B78A3B9AF4B1B78002B56
:1022900040F06C81AD4B1B78002B40F06E81AC4B55
:1022A0001B78002B00F06781A94B00221A7001F007
:1022B00035FF60E1A34B00221A70A64B1B7B082B55
:1022C00005D1A44C221D04F10C05002103E001F00E
:1022D00025FF50E1194612F8010B80EA0103DBB239
:1022E000AA42F7D188421ED19A4B1B799A4A12789A
:1022F0009A421BD0984A1370964B03F11402191D91
:1023000003C982E803005B79013B092B31D8DFE880
:1023100013F02A00480052005B0074008D00A500F5
:10232000BD001000D50001F0F9FE24E101F0F6FE39
:1023300021E18A4B93F8703973B1894A0023894EA1
:10234000A2F24C6552F8040F316841F823000133C2
:1023500095F870198B42F5DB824B1B684FF05A32AF
:10236000C3F8FC2305E07D4BD3F80120794BC3F87B
:1023700017207D4B04F11B00002113F8012B514065
:102380008342FAD1734AD176744B187800230093B4
:102390001432082100F5A07001F038F901F0BEFEFA
:1023A000E9E06E4BD3F805106A4AC2F81710002214
:1023B0005A719A71DDE7674A684B53F8091FC2F8F2
:1023C00016101B799376D4E7624B9B79634A92F897
:1023D0002E239A4209D90233604A02EB8303D3F8D1
:1023E00006205C4BC3F81720C3E75A4B00225A75EE
:1023F00004229A750122DA75BBE7564B9B79574A3E
:1024000092F84F269A4209D9CA33544A02EB830301
:10241000D3F807204F4BC3F81720AAE74D4B0022F3
:102420005A7505229A750122DA75A2E7494B9B7904
:102430004A4A92F870299A4208D903F5CA73474A62
:1024400052F82320434BC3F8172092E7414B002258
:102450005A7506229A750122DA758AE73D4B9B79F7
:102460003E4A92F84F269A4208D93A4AD2F81710B3
:102470003A4A02EB8303C3F82F137AE7354B002265
:102480005A7507229A750122DA7572E7314B9B79EA
:10249000324A92F870299A4208D903F5CA732D4A34
:1024A000D2F817102D4A42F8231062E7294B002278
:1024B0005A7508229A750122DA755AE7274BD3F824
:1024C00074692EB3234B987928B1244B9B7A012B46
:1024D0002ED0224B5872214D0423AB720023EB7295
:1024E0002B731C498B7A00934B7A0A7AC979B047CF
:1024F000AB7A032B03D90322AA7205226A73154A09
:10250000164B53F8091FC2F816101B79937630E763
:10251000104A91795972032199720021D972197365
:1025200004215973D3F80930C2F81630917620E7A8
:10253000084B0322DA7500221A765A7601229A761F
:1025400017E700BF61120020601200205F12002018
:102550005E120020D01100205B120020100000202D
:102560005C0600209C090020E41100202F4B002273
:102570001A7001F0D3FD02B070BD2D4B00221A700D
:102580002C4B1B7B082B18D12A4B03F11402191D6D
:1025900003C982E803001B79012B11D0022B2FD035
:1025A000254B187800230093244A082100F58070F9
:1025B00001F02CF801F0B2FDDDE701F0AFFDDAE744
:1025C0001D4B93F87C3973B91A4B00225A759A75D2
:1025D000DA751A76174B184A5178597691789976A8
:1025E000D278DA76DCE7134B02225A75124AD2F817
:1025F0007829117999755179D97592791A76E9E71F
:102600000D4B93F87C393BB90A4BFF221A75022215
:102610005A7500229A75C3E7074B012283F87D297A
:102620000021074801F0B8FFBAE700BF60120020A0
:102630005F120020D011002010000020E4110020C3
:10264000153E0000AB4B1B78002B4ED1AA4B1B6AEA
:1026500013F4004F00F0A681A84A13780133DBB2CF
:102660001370042B05D9A34B01221A70A34B00222F
:102670001A70A34B1B78002B4AD19F4B1B6A13F097
:10268000100F40F087819F4A13780133DBB213703B
:10269000042B05D99A4B01221A709A4B00221A700A
:1026A000994B1B88002B40F05F8170B5964B05223B
:1026B0001A80964B1B78002B61D1954B1B78012B10
:1026C00050D05AB2002A36D0022B5CD1894B1B78ED
:1026D000002B51D1884B4FF480425A618C4B002221
:1026E0001A708A4B01221A704DE0834B1B6A13F457
:1026F000004F40F05B81814A13780133DBB21370E5
:10270000042BB6D900237B4A13707C4A1370B0E7C0
:10271000794B1B6A13F0100F00F04081794A13784F
:102720000133DBB21370042BBAD90023744A13703F
:10273000744A1370B4E7774B1B7853B96D4B1B7811
:102740006BB96D4B4FF480429A61714B01221A7044
:1027500019E0013B6F4A137001F05AFE13E001F0DB
:1027600057FE10E0634B1B786BB1634B04229A61F8
:10277000674B02221A7006E001F04AFE03E0664B46
:102780001B78002B49D05C4B1B6AC3F3C00380222B
:102790000021084601F016FD01F04AFF642404FB05
:1027A00000F05E4D85FB00321318C217C2EBA31276
:1027B000D2B25B4E32700021012001F051FE01F0D7
:1027C00031FF04FB00F085FB00350544C217C2EB66
:1027D000A512D2B2534C22700121084601F040FEEE
:1027E0000021042001F0ECFD337883422CBF00234C
:1027F000012320220021084601F0E4FC01210420ED
:1028000001F0DEFD237883422CBF00230123402208
:102810000021084601F0D6FC70BD012200210846C7
:1028200001F086FD00283BD1324B1B78002B00F0D5
:102830009F803D4A13780133DBB21370322B48D8A6
:102840003A4A1278002A40F09B80142B12D9374C58
:10285000012525700021032001F0B2FD344B1870D2
:102860002B4610220021084601F0ACFC2378002BF7
:1028700040F08680224C237804220021084601F093
:10288000A1FC2378002B61D02A4B1B883BB3013B72
:102890009BB2284A1380632B24D801F0CDFD72E748
:1028A00001231D4A137040220221002001F08AFCFE
:1028B000114C4FF48043636100201C4B1870034699
:1028C0001022014601F07EFC4FF40003C4F898305A
:1028D000AAE701F0FFF856E701F0FCF853E701F032
:1028E000F9F850E7144B1B78192B27D00133124A03
:1028F000137048E76B120020008000417012002026
:102900006A1200206F12002050120020691200206D
:10291000681200206D1200206712002043082184F5
:1029200065120020661200206E1200206C1200203A
:102930007412002052120020731200201D4B4FF41D
:102940008042DA611C4B01221A701CE70021022030
:1029500001F036FD00EB80004000184B1880154B4D
:102960004FF480425A610EE7013B154A13807047CD
:10297000144B00221A70144B1B78002B3FF47AAFD3
:1029800001F05AFD114B1B78002BA5D0013B0F4ADB
:102990001370F8E60E4B00221A7081E60C4B0022F1
:1029A0001A707DE60B4B00221A7062E6094B00227A
:1029B0001A705EE60080004173120020521200205F
:1029C000501200206E1200206C12002074120020A1
:1029D0006F12002070120020301200201C00000036
:1029E0000000000054120020010000000000000060
:1029F00055120020010000000000000056120020C7
:102A0000010000000000000057120020010000003B
:102A1000000000005812002001000000000000002B
:102A20005912002001000000000000005A1200208E
:102A30000100000000000000A0090020A00200002A
:102A400000000000901100202000000000000000A5
:102A5000B01100202000000000000000D011002074
:102A6000200000000000000010000020800900008D
:102A7000000000005B1200200100000000000000C8
:102A80005C12002001000000000000005D12002028
:102A900001000000000000005E12002001000000A4
:102AA000000000005F120020010000000000000094
:102AB00060120020010000000000000061120020F0
:102AC00001000000000000009C090020040000003C
:102AD0000100000000000044F01100202000000070
:102AE000000000004011002028000000000000004D
:102AF000400C002080020000000000006212002054
:102B00000100000000000000900900200C000000FF
:102B1000000000006312002001000000000000001F
:102B20006412002001000000000000006512002077
:102B300001000000000000006612002001000000FB
:102B400000000000671200200100000000000000EB
:102B5000681200200100000000000000691200203F
:102B600001000000000000006A12002001000000C7
:102B7000000000006B1200200100000000000000B7
:102B80006C12002001000000000000005012002024
:102B900002000000000000006D1200200100000093
:102BA000000000006E120020010000000000000084
:102BB0005212002002000000000000006F120020EE
:102BC0000100000000000000701200200100000061
:102BD0000000000071120020010000000000000051
:102BE000721200200100000000000000731200209B
:102BF000010000000000000074120020010000002D
:102C0000000000007512002001000000000000001C
:102C100010120020200000000000000068110020B9
:102C20002800000000000000C00E0020800200000C
:102C300000000000761200200100000000000000EB
:102C40004C12002004000000000000000000000002
:102C500000000000222222222DE9F04784B04FF02C
:102C600084431D6D15F0007F1CBF4FF000721A6584
:102C700015F0010F63D04FF0844301221A655A6D9D
:102C800022F001025A65D3F8A43013F07F0F56D01A
:102C90004FF08443D3F8A440C4F305242301894AA8
:102CA000D268D718D15811F0804FD15804EB840066
:102CB000854E56F8200014BF21F06041C1F38A41CF
:102CC0000160D2587B6813F4001F03D112F0005F3B
:102CD00040F0EE8004EB84037B4A02EB83031B6924
:102CE00000221A707E68794B0FCB0DF1100C0CE9A5
:102CF0000F00C6F30346664416F810AC724E4FEA56
:102D0000840808EB040906EB8909524607F108011B
:102D1000D9F8040001F0D0FBD9F8083083F800A0FE
:102D2000D9F80C300BB17A681A804FF08443C3F89D
:102D3000A840674B1B6813B1654A5068984715F067
:102D4000100F00F0A4804FF0844310221A655A6DD2
:102D500022F010025A65D3F8B43013F07F0F00F060
:102D600096804FF08443D3F8B440C4F30524230184
:102D7000544A1269D718D15811F0804FD15804EB3A
:102D80008400514E06EB8000D0F8400114BF21F0C2
:102D90006041C1F38A410160D2587B6813F4001F7F
:102DA00002D112F0005F3CD104EB8403464A02EBEF
:102DB0008303D3F8503100221A703BE0444B9B69E7
:102DC00013B1434AD069984715F4006F12D04FF001
:102DD00084424FF400631365D2F8C430C3F3042374
:102DE000D2F8C420C2F30442934203D20133DBB2CF
:102DF0009A42FBD104B0BDE8F087D2F8E00020EAA7
:102E00000101C2F8E0100133102BD7D006FA03F10C
:102E1000D2F8D840D2F8E0000842F4D00C42ECD10D
:102E2000F1E704EB8403284A02EB8303D3F8503123
:102E300001221A707E68254B0FCB0DF1100C0CE9A6
:102E40000F00C6F30346664416F810AC1E4E4FEA58
:102E5000840808EB040906EB8909524607F10801CA
:102E6000D9F8440101F028FBD9F8483183F800A0D3
:102E7000D9F84C310BB17A681A804FF08443C3F80B
:102E8000B840134B9B6813B1114AD068984715F4AA
:102E9000007F99D04FF084434FF400721A655A6D49
:102EA00022F400725A65002301264FF08442ADE7F8
:102EB00004EB8403044A02EB83031B6901221A70AA
:102EC00010E700BF40110020400C0020A845000082
:102ED000F01100202DE9F04784B0944B1D6D15F0E2
:102EE000007F1CBF4FF000721A6515F0010F60D013
:102EF0008E4B01221A655A6D22F001025A65D3F8F1
:102F0000A43013F07F0F54D0884BD3F8A440C4F3FF
:102F100005242301864AD268D718D15811F0804F72
:102F2000D15804EB8400834E56F8200014BF21F0E2
:102F30006041C1F38A410160D2587B6813F4001FDD
:102F400003D112F0005F40F0E78004EB8403794A7C
:102F500002EB83031B6900221A707E68764B0FCB4D
:102F60000DF1100C0CE90F00C6F30346664416F889
:102F700010AC704E4FEA840808EB040906EB89098F
:102F8000524607F10801D9F8040001F095FAD9F882
:102F9000083083F800A0D9F80C300BB17A681A8099
:102FA000624BC3F8A840654B1B6813B1634A506875
:102FB000984715F0100F00F0A0805C4B10221A65A6
:102FC0005A6D22F010025A65D3F8B43013F07F0F17
:102FD00000F09380554BD3F8B440C4F3052423018B
:102FE000534A1269D718D15811F0804FD15804EBC9
:102FF0008400504E06EB8000D0F8400114BF21F051
:103000006041C1F38A410160D2587B6813F4001F0C
:1030100002D112F0005F3BD104EB8403454A02EB7E
:103020008303D3F8503100221A703AE0434B9B6976
:1030300013B1424AD069984715F4006F11D03B4A4A
:103040004FF400631365D2F8C430C3F30423D2F8FD
:10305000C420C2F30442934203D20133DBB29A424A
:10306000FBD104B0BDE8F087D2F8E00020EA01010E
:10307000C2F8E0100133102BD8D006FA03F1D2F8D1
:10308000D840D2F8E0000842F4D00C42ECD1F1E78D
:1030900004EB8403274A02EB8303D3F85031012267
:1030A0001A707E68244B0FCB0DF1100C0CE90F0049
:1030B000C6F30346664416F810AC1E4E4FEA840869
:1030C00008EB040906EB8909524607F10801D9F813
:1030D000440101F0F1F9D9F8483183F800A0D9F89A
:1030E0004C310BB17A681A80104BC3F8B840134BBF
:1030F0009B6813B1114AD068984715F4007F9BD0A4
:103100000A4B4FF400721A655A6D22F400725A6528
:1031100000230126054AB0E704EB8403054A02EBCD
:1031200083031B6901221A7017E700BF00040042E5
:1031300068110020C00E0020F84500001012002089
:1031400008B5594B1B78594A126AC2F30052934290
:1031500076D0564B1B6AC3F30053534A1370544B3B
:103160001B78524AD2F8A02002F0010293426DD09F
:103170004E4BD3F8A03003F001034D4A13704D4B72
:103180001B784A4AD2F8A020C2F34002934263D08F
:10319000464BD3F8A030C3F34003464A1370464B66
:1031A0001B78424AD2F8A020C2F38002934259D041
:1031B0003E4BD3F8A030C3F380033F4A13703F4B1C
:1031C0001B783A4AD2F8A020C2F3C00293424FD0F3
:1031D000364BD3F8A030C3F3C003384A1370384BD2
:1031E0001B78324A126AC2F34052934246D02F4BA8
:1031F0001B6AC3F34053324A1370324B1B782B4A7D
:10320000126AC2F3C06293423ED0284B1B6AC3F3DA
:10321000C0632C4A137008220021084601F088F888
:10322000C0B3224B4FF400229A61102200210846BD
:1032300001F07EF898B31D4B1022C3F8982008BD0A
:1032400004220221002000F0BDFF88E710220121A6
:10325000002000F0B7FF92E720220121002000F0BB
:10326000B1FF9CE701221146002000F0ABFFA6E76A
:1032700002220121002000F0A5FFB0E70422012175
:10328000002000F09FFFB8E708220121002000F095
:1032900099FFC0E7054B4FF400225A61C5E7034B85
:1032A0001022C3F89420CAE7561200200080004183
:1032B00058120020571200205512002054120020EE
:1032C0005A120020591200204E4B42F206229A82D6
:1032D0001A46D36813F0010FFBD04A4B00221A7430
:1032E00003F50063484ADA621A46536813F0200F68
:1032F000FBD1464B464A9A621A46536813F0100FA8
:10330000FBD1424B434A1A631A46536813F0400FED
:10331000FBD13E4B4222C3F884201A46D2F88430B7
:1033200013F0400FFAD03C4B00229A6377225A6385
:103330001A46D36B13F0040FFBD1374B022283F8EC
:1033400030201A46D36B13F0020FFBD1324A136CB4
:1033500003F00303032BFAD1304B01225A711A46B2
:10336000D37813F0010FFBD0284B2D4A1A621A466E
:10337000536813F0040FFBD1244B2A4A5A621A46B1
:10338000536813F0080FFBD1204B4322C3F8A4204D
:103390001A46D2F8A43013F0400FFAD01B4B442247
:1033A000C3F8EC201A46D2F8EC3013F0400FFAD0F4
:1033B000164B4422C3F8F0201A46D2F8F03013F02E
:1033C000400FFAD0114B4122C3F820211A46D2F8FF
:1033D000203113F0400FFAD00C4B4122C3F82421C6
:1033E0001A46D2F8243113F0400FFAD00B4B6FF08D
:1033F0007F421A6144F2FF725A614FF4C0721A623E
:10340000704700BF0014004004012000001C004071
:1034100006013000060102000010004000080040D4
:1034200007010100070102002DE9F84F8B46924683
:1034300098469DF828709DF82C609DF830503E4BC2
:10344000D3F800903D4C20703D4800F081F8677043
:10345000A670E5700223A3720023E37223736373E3
:103460006371A371E371237284F82EB384F84FA6BD
:10347000B8F1000F03D009F00F03012B13D02F4B2D
:10348000002283F870292D4A0D9BC2F874394FF041
:103490000053C2F878391B78112B2AD0274B002211
:1034A00083F87C293DE0C9F30219B9F1010FE6D197
:1034B00084F8708901F090F80028FBD1214B19683D
:1034C000D1F8FC33B3F15A3F08D01F4B03EB880807
:1034D000002243F8042B4345FBD1D4E70B461B4A9B
:1034E00001EB880853F8041B42F8041F4345F9D147
:1034F000C9E74FF000535B78822BCFD14FF00053D8
:103500009B78132BCAD14FF00053DB78842BC5D1A5
:103510000A4B012283F87C294FF00053DF711E72A1
:103520005D72064B002283F87D2900F0F7FD01F063
:1035300073F8BDE8F88F00BF044080001000002041
:10354000A00900209C090020600600205C060020E5
:10355000F8B506464FF42872002101F055F84FF0F7
:10356000844301229A611A46936913F0010FFBD03C
:103570004FF08444A36943F00203A361214AD6605B
:10358000B3B243F0004343F48033C4F8A03006F1F3
:10359000100313619BB243F0004343F48013C4F85B
:1035A000B03006F5887393619BB243F08053C4F842
:1035B000C03006F50473D3619BB243F48013C4F8A2
:1035C000F03006F5247515620F4F0FCFC6F8900244
:1035D000C6F89412C6F89822C6F89C32ADB245F4EB
:1035E0008025C4F88450A36923F4804323F00103A9
:1035F00043F48043A3612246936913F0010FFBD18A
:10360000F8BD00BF40110020B8450000F8B59DF896
:1036100018C0BCF1010F01D90020F8BD4FF0844360
:10362000D3F8C43013F4001F3FD14FF08443D3F8D4
:10363000C440C4F3044426011D4B9F69BD19B0F575
:10364000006F26BF20F0604040F080408004B851F9
:103650000B46082928BF0823180468601CF0FD0FDA
:103660001ED111461A4605F1080000F025FF114A47
:1036700013780133DBB213706A6842EA036343F4E0
:1036800000036B60012000FA04F44FF08443C3F898
:10369000E040C3F8D0405A6D42F400725A65BCE76E
:1036A000BB5943F00053BB51E1E70020B5E700BF31
:1036B0004011002062120020F8B59DF818C0BCF13E
:1036C000010F01D90020F8BD224BD3F8C43013F408
:1036D000001F3DD11F4BD3F8C440C4F3044426015E
:1036E0001D4B9F69BD19B0F5006F26BF20F06040EB
:1036F00040F080408004B8510B46082928BF0823B9
:10370000180468601CF0FD0F1DD111461A4605F122
:10371000080000F0D1FE114A13780133DBB21370B8
:103720006A6842EA036343F400036B60012000FA15
:1037300004F4084BC3F8E040C3F8D0405A6D42F49B
:1037400000725A65BFE7BB5943F00053BB51E2E733
:103750000020B8E700040042681100207612002023
:1037600030B585B0264B03930125029500240194C2
:10377000009509232A4602211020FFF755FE0094E8
:10378000234622462821204600F006FC00942346CA
:1037900022463221284600F0FFFB009423462246B1
:1037A000C821022000F0F8FB009423462246642141
:1037B000032000F0F1FB009423466422114604200C
:1037C00000F0EAFB0094234622462146052000F043
:1037D000E3FB0094234622462146062000F0DCFB52
:1037E0000094234622462146072000F0D5FB009492
:1037F000234622462146082000F0CEFB05B030BD0E
:103800009D42000010B4234B234A1A60462283F8DD
:103810004320062283F8442083F84520402083F883
:103820004B0083F84E0083F84F2083F8530083F851
:10383000542083F85520012183F8561083F857103F
:1038400083F85B20882483F83B40A4F1FF44583C74
:10385000C3F8804083F8C02083F8C12083F8C220D9
:1038600083F8C32083F8C40083F8C81083F8C91014
:1038700083F8CC1083F8CD1083F8CE2083F8D700DE
:10388000112283F8B420772283F8B6205DF8044B28
:10389000704700BF008000410448080008B51B4B7A
:1038A00098471B4B9847EFF3108172B6194AD2F82C
:1038B000883043F47003C2F88830BFF34F8FBFF3F2
:1038C0006F8F01B962B6144C2023636000F048F991
:1038D000124B23F07F030F4A9360114B9847A36864
:1038E00023F00103A3602346DA6812F0010FFBD135
:1038F000094B5A6842F004025A6001229A60094B4F
:103900009847094B984700F06FF9FEE761460000C1
:103910006146000000ED00E0006000410020000072
:10392000513F00006146000061460000F0B59DF87F
:1039300014401CB1012C1FD00020F0BDDFF878C06E
:10394000DCF8A450C5F305251A4CAE007719BF006A
:1039500004EB070EE051CEF80420CEF80810CEF8A4
:103960000C30069BCEF81030DCF8543043F00103E5
:10397000CCF854300120E0E7DFF83CC0DCF8B4506C
:10398000C5F305250B4EAF007C1906EB8404C4F883
:103990004001C4F84421C4F84811C4F84C31069BD6
:1039A000C4F85031DCF8543043F01003CCF85430F4
:1039B0000120C2E7C00E00200004004238B54FF0DD
:1039C000844301229A611A46936913F0010FFBD0D8
:1039D0004FF084439A6942F002029A61174ADA6111
:1039E0002B22C3F8802001221A629A6922F48042B5
:1039F00022F0010242F480429A611A46936913F060
:103A0000010FFBD14FF0844300249C650122DA654D
:103A10004FF000725A650A4D2C606C60AC604FF438
:103A200020722146074800F0EFFDEC602C616C61CC
:103A3000AC61EC612C626C6238BD00BF0005020015
:103A400040110020400C0020F0B59DF814401CB13E
:103A5000012C1FD00020F0BD4FF0844CDCF8A450A6
:103A6000C5F305251A4CAE007719BF0004EB070E0D
:103A7000E051CEF80420CEF80810CEF80C30069BAA
:103A8000CEF81030DCF8543043F00103CCF8543059
:103A90000120E0E74FF0844CDCF8B450C5F3052575
:103AA0000B4EAF007C1906EB8404C4F84001C4F847
:103AB0004421C4F84811C4F84C31069BC4F8503175
:103AC000DCF8543043F01003CCF854300120C2E746
:103AD000400C002070B50024194B1C70194B1C7051
:103AE0002146204600F06CFC174B1870174E042539
:103AF0007561174B1C70234640220221204600F0BE
:103B000061FB4FF40003C6F894302346102221468F
:103B1000204600F057FB0F4B1C702146022000F09E
:103B20004FFC00EB800040000B4B188023462A46D8
:103B30002146204600F046FB084B1C7070BD00BFBC
:103B400069120020681200206D12002000800041E0
:103B5000671200206C120020521200206E1200200A
:103B60001E4B1F4A9342F0B438BF002103D203F822
:103B7000011B9342FBD11B4AD2E9000150EA010329
:103B80004FF0000610D09468034602F10C076CB9A0
:103B900021B1014403F8016B9942FBD13A46D2E9C5
:103BA000000150EA0103EED1F0BC704759B101F1B8
:103BB0000C030C38801A1A443B461C1813F8015B9E
:103BC00025709342F9D111F0030318BF012303EBD1
:103BD000910107EB81073A46E1E700BF10000020A2
:103BE00010000020D829000008B5002000F0D0FB0C
:103BF00000211B4800F022FD00F09CFC00F0A6FC18
:103C0000FFF7AEFD00F072F800F0EEFC00F02CFBC8
:103C1000144C154D00F018FD237813F0020F0FD14E
:103C2000237813F0040F15D1237813F0010FF1D08E
:103C300023F0010323704FF00043C5F89C30E9E7FF
:103C400023F002032370FFF77BFA00F00FF900F076
:103C50003EFBE5E723F004032370FEF7F3FCE3E704
:103C6000FD410000751200200080004138B51B4B5B
:103C700001229A611A46936913F0010FFBD0174B8A
:103C80009A6942F002029A61154ADA612B22C3F85E
:103C9000802001221A629A6922F001029A611A4672
:103CA000936913F0010FFBD10C4B00249C6501229A
:103CB000DA654FF000725A650A4D2C606C60AC609A
:103CC0004FF420722146084800F09EFCEC602C6105
:103CD0006C61AC61EC612C626C6238BD0004004226
:103CE0000005020068110020C00E002008B5002366
:103CF00004220221184600F065FA00231022012157
:103D0000184600F05FFA002320220121184600F037
:103D100059FA002301221146184600F053FA0023F5
:103D200002220121184600F04DFA0023042201214D
:103D3000184600F047FA002308220121184600F037
:103D400041FA054B4FF400225A612022C3F8942017
:103D50001022C3F8942008BD00800041154B0122B9
:103D60001A801A46136B13F0010FFBD14FF080132A
:103D70001B681A0902F07002D90001F4E061C3F374
:103D800082030A431A430B4BA3F848204FF4E06226
:103D90001A800322DA721A7241F602029A801A22FB
:103DA000DA80072283F82E201A46136B002BFCD1F1
:103DB000704700BF001C0043154B01221A801A46B1
:103DC000136B13F0010FFBD14FF080131B689A0C9B
:103DD00002F07002D90A01F4E061C3F302430A431E
:103DE0001A430B4BA3F848204FF4E0621A800322D9
:103DF000DA721A7241F601029A801A22DA800722D8
:103E000083F82E201A46136B002BFCD1704700BF9D
:103E100000200043124B93F87D3903B97047104BD3
:103E2000002283F87D29D3F8782901211170D3F875
:103E3000782902215170D3F8782903219170D3F8A1
:103E400078390422DA70BFF34F8F0649CA6802F44A
:103E5000E062054B1343CB60BFF34F8F00BFFDE71C
:103E60001000002000ED00E00400FA0508B5104B3A
:103E70001A78104B1B6AC3F340139A4210D00D4BB3
:103E80001B6AC3F340130A4A13702022002108461C
:103E900000F04EFA38B1074B4FF400629A6108BD4A
:103EA000054B1A70F1E7034B4FF400625A61F6E7D5
:103EB00064120020008000416312002010B50E4BF8
:103EC0001B78B3B90D4B1C78A4B10D4B1B780BB10B
:103ED0001C460FE00021032000F072FA094B187015
:103EE0000123074A137010220021084600F06AF9E6
:103EF00000E00024204610BD671200206912002057
:103F00006C120020741200200F4AD36823F4E0637F
:103F10001B041B0C43F0BF6343F40033D360BFF3B7
:103F20005F8F62B6094BE02283F80B234FF40061E8
:103F3000196083F84E234FF48041996083F84F2332
:103F40004FF400429A60704700ED00E000E100E0AD
:103F500070B50D4D0D4C641BA4100026A64209D16E
:103F60000B4D0C4CFEF77CF9641BA4100026A642F6
:103F700005D170BD55F8043B98470136EEE755F87A
:103F8000043B98470136F2E76C2200006C220000E7
:103F90006C2200007022000030B40E4C2468D4F86B
:103FA000FC43B4F15A3F13D00B4C94F8704984424F
:103FB0000ED9094C00F5CA7504F8251004EB8000F1
:103FC00080F8512680F852369DF8083080F8533634
:103FD00030BC70479C090020100000200F4B0122CC
:103FE0001A801A46136913F0010FFBD10B4B4FF4E3
:103FF00001421A8000221A621A46136913F0200F38
:10400000FBD1064B00225A621A46136913F0400F87
:10401000FBD1024B83225A81704700BF002400402D
:1040200010B5054C237833B9044B13B10448AFF3F2
:1040300000800123237010BD30120020000000001A
:104040000000000008B5034B1BB103490348AFF360
:10405000008008BD000000003412002000000000B5
:104060004FF08443586C20F4605020F01800400456
:10407000400C9B6913F0010F11D04FF084429369FB
:1040800043F002039361936923F4804323F0010317
:1040900043F480439361936913F0010FFBD17047A0
:1040A00008B50B4B1B782BB90A4B1B7813B10A4B85
:1040B0001B7803B908BD0020074B18700346102277
:1040C000014600F07FF8054B4FF480425A61F1E75A
:1040D00067120020691200206C120020008000414D
:1040E0000D4B586C20F4605020F018004004400C38
:1040F0009B6913F0010F0DD0074B9A6942F0020241
:104100009A619A6922F001029A611A46936913F042
:10411000010FFBD1704700BF0004004200B583B01F
:1041200000221146084800F0ABF90848084B0193FB
:104130000023009300F10E03021D00F10C01FFF7B4
:1041400083FC03B05DF804FB35420000D011002071
:104150005C12002000B583B001220021084800F065
:104160008FF90848084B01930123009300F10E03D7
:10417000021D00F10C01FFF767FC03B05DF804FBC2
:10418000D1420000901100205C12002000B583B0E5
:1041900000221146084800F081F90848084B0193B5
:1041A0000023009300F10E03021D00F10C01FFF744
:1041B000BDFB03B05DF804FB01430000B01100201B
:1041C0005D12002010B40C4C94F82E4384420FD999
:1041D00003290DD8084C04EB80040C44A47B24EA8A
:1041E000020403B11443044B03EB800008448473BE
:1041F0005DF8044B704700BF1000002010F0010F65
:1042000004D00B4A137843F00203137010F0020F2E
:1042100004D0074A137843F00403137010F0800FA2
:1042200004D0034A137843F001031370704700BFB2
:104230007512002008B5FFF713FF10F0070001D03A
:10424000072808D1054B1B68FF2B8CBF044B054B7F
:1042500001221A7008BDFFF761FFFBE7D0110020B3
:10426000611200205F12002010B50024084B1C8052
:10427000FFF730FC00F02EF900F044F900F036F9B9
:1042800000F04CF9034B1C70034B1C7010BD00BFB9
:10429000501200206A1200206B12002008B528B1CD
:1042A000012808D0042000F067F903E0FFF7F8FECA
:1042B00000F06AF908BDFFF701FE20B100210846B1
:1042C00000F050F9F6E7032000F056F9F2E77047E6
:1042D00000B583B0FFF704FF10F0070001D00728F6
:1042E00007D1064800230093021D017B0068FFF7F9
:1042F000E3F9FFF72FFF03B05DF804FB90110020F6
:1043000000B583B0FFF7ECFE10F0070001D00728DE
:1043100007D1064800230093021D017B0068FFF7C8
:1043200075F9FFF733FF03B05DF804FBB01100200F
:104330000A4B93F84F3683420ED9032901D9002046
:104340007047064B03EB8000084490F82F331A4265
:1043500014BF01200020704700207047100000208B
:104360000A4B01221A601A46136913F0010FFBD1A0
:10437000064B40F214721A6001221A731A77332224
:104380009A721A461369002BFCD17047003800401E
:1043900008B500F019F9FFF735FAFEF795FF00F0C0
:1043A00057F9FFF7DBFCFFF761FCFFF705FDFFF7AF
:1043B00005FBFFF7D5FFFFF711FEFFF7A5FD08BDD1
:1043C000084B93F8703983420AD9032901D9002098
:1043D0007047044B03EB8000084490F85006704788
:1043E000002070471000002008B5074A908980B26D
:1043F000064B58604CF2FF3191811B6813B1034AA0
:104400009168984708BD00BF002400409009002033
:10441000074B1B78012B03D00133054A13707047FB
:10442000044B4FF48042DA61014B01221A7070474D
:104430007112002000800041074B1B78022B03D033
:104440000133054A13707047044B4FF48042DA6120
:10445000014B01221A707047721200200080004147
:10446000064B93F82E33834206D9032904D8034B15
:1044700003EB800008448273704700BF10000020E7
:1044800010B428B1044B43F8320003EBC203596067
:104490005DF8044B704700BFF011002010B428B144
:1044A000044B43F8320003EBC20359605DF8044B40
:1044B000704700BF101200200A44914200F1FF3300
:1044C00000D1704710B511F8014B03F8014F91422C
:1044D000F9D110BD044A138843F002031380136B13
:1044E000002BFCD1704700BF001C0043044A137D21
:1044F00043F002031375136B13F4006FFBD1704785
:10450000001C0043044A138843F002031380136B1A
:10451000002BFCD1704700BF00200043044A137DEC
:1045200043F002031375136B13F4006FFBD1704754
:1045300000200043044A138843F0020313801369E8
:1045400013F0020FFBD1704700240040044A1368A7
:1045500043F002031360136913F0020FFBD170479D
:1045600000380040034B02229A72D872197300225D
:104570005A73704710000020024B03229A7258733E
:10458000704700BF10000020024B03229A720622DF
:104590005A7370471000002010B1024B9861D96126
:1045A000704700BFF0110020000102030405060758
:1045B000080C101418203040500150091001100947
:1045C0000000001007060316024B40F204521A8046
:1045D000704700BF00400041024BD86AC0F3800022
:1045E000704700BF00400041024B4FF400625A6127
:1045F000704700BF00800041000102030405060768
:10460000080C10141820304002440346934200D195
:10461000704703F8011BF9E708B5FFF79BFDFFF7AB
:10462000B5FD08BD014BB3F840007047001C0043C6
:10463000014BB3F84000704700200043014B186065
:10464000996070479009002008B5FDF719FE08BD74
:104650007047FEE7FEE7FEE7FEE7FEE7FEE7FEE760
:024660007047A1
:0200000400807A
:0C4000003912003C9100A82AFFFFFFFFCE
:00000001FF
