:020000040000fa
:10000000f0ff0320610d00007d1500007f1500004a
:100010008315000085150000871500000000000012
:100020000000000000000000000000007b15000040
:1000300081150000000000007b1500007b1500000a
:100040007b1500007b1500007b1500007b15000070
:100050007b1500007b1500007b1500007b15000060
:100060007b1500007b1500007b150000bd13000010
:100070007b1500007b1500007b1500007b15000040
:100080007b1500007b1500007b1500007b15000030
:100090007b1500007b1500007b1500007b15000020
:1000a0007b1500007b1500007b1500007b15000010
:1000b0007b1500007b1500007b1500007b15000000
:1000c0007b1500007b1500007b1500007b150000f0
:1000d0007b1500007b1500007b1500007b150000e0
:1000e0007b1500007b1500000000000000000000f0
:1000f000000000007b1500007b1500007b15000050
:100100007b1500007b1500007b1500007b150000af
:100110007b1500007b1500007b1500007b1500009f
:100120007b1500007b1500007b1500007b1500008f
:100130007b1500007b1500007b1500007b1500007f
:100140007b1500007b1500007b1500007b1500006f
:100150007b1500007b15000000000000000000007f
:10016000000000000000000000000000000000008f
:100170000000000000000000a9060000290800009f
:100180007b1500007b1500007b1500007b1500002f
:10019000000000007b1500007b1500007b150000af
:1001a0007b1500007b1500007b1500007b1500000f
:1001b0007b1500007b1500007b1500007b150000ff
:1001c0007b1500007b1500007b1500007b150000ef
:1001d0007b1500007b1500007b1500007b150000df
:1001e0007b1500007b1500007b1500007b150000cf
:1001f0007b1500007b1500007b1500007b150000bf
:100200007b15000000000000000000007b150000ce
:100210007b1500007b1500007b1500007b1500009e
:100220007b1500007b1500007b1500007b1500008e
:100230007b1500007b1500007b1500007b1500007e
:100240007b1500007b1500007b1500007b1500006e
:100250007b1500007b1500007b1500007b1500005e
:020000040000fa
:10026000f8b500bff8bc08bc9e4670475d120000a0
:10027000f8b500bff8bc08bc9e46704739120000b4
:020000040000fa
:1002800070b582b0a04b1b78002b00f031819e4be3
:1002900000221a709d4b1b7b082b05d19b4c221d05
:1002a00004f10c05002103e001f006f823e11946f2
:1002b00012f8010b80ea0103dbb2aa42f7d18842af
:1002c00019d1924b1a79924b1b78934216d0904bce
:1002d0001a708e4b03f11405191d03c985e803003c
:1002e0005b79013b092b12d8dfe803f00b29333a85
:1002f000526a839a11b200f0dffffce000f0dcffed
:10030000f9e0844bd3f80120804bc3f81720824bcf
:1003100004f11b00002113f8012b51408342fad154
:100320007a4ad1767b4b1878002300931432082147
:1003300000f5007000f074fc00f0beffdbe0754bd0
:10034000d3f80510714ac2f8171000225a719a7139
:10035000dde7704bd3f809206c4bc3f81720d6e7c4
:100360006a4b9b796b4a527d9a4209d90233694a9a
:1003700002eb8303d3f80520644bc3f81720c6e7cc
:10038000624b00225a7504229a750122da75bee783
:100390005e4b9b795f4a927e9a4209d904335d4a4b
:1003a00002eb8303d3f80620584bc3f81720aee7bf
:1003b000564b00225a7505229a750122da75a6e776
:1003c000524b9b79534a92f83f209a4209d90633ff
:1003d000504a02eb8303d3f803204c4bc3f8172099
:1003e00095e74a4b00225a7506229a750122da7562
:1003f0008de7464b9b79474a927e9a4208d9434af9
:10040000d2f81710434a02eb8303c3f816107ee7b5
:100410003e4b00225a7507229a750122da7576e75b
:100420003a4b9b793b4a92f83f209a4208d9374a87
:10043000d2f81710374a02eb8303c3f81b1066e7a4
:10044000324b00225a7508229a750122da755ee74e
:10045000304bdb7a012b23d02e4bdb6c6bb32b4e56
:10046000d6f807202b4dc5f8412098473379ab7259
:10047000b3796b72022b33d90221e97205222a73f8
:1004800085f8451085f84820002285f8462085f833
:100490004720204bd3f845201c4bc3f8172036e7e4
:1004a0001c4b022283f84520012283f848200022b9
:1004b00083f8462083f8472029e7164b9a72134a9f
:1004c00092795a720221d97204221a7383f8451064
:1004d00083f84820002283f8462083f8472016e757
:1004e0000c4b93f84520da7293f848201a73d0e742
:1004f0000a4b1b780bb902b070bd084b00221a7072
:1005000000f0dafef7e700bfb60100206c01002022
:10051000b30100200000002080010020b501002070
:020000040000fa
:1005200008b5594b1b78594a126ac2f300529342dc
:1005300076d0564b1b6ac3f30053534a1370544b87
:100540001b78524ad2f8a02002f0010293426dd0eb
:100550004e4bd3f8a03003f001034d4a13704d4bbe
:100560001b784a4ad2f8a020c2f34002934263d0db
:10057000464bd3f8a030c3f34003464a1370464bb2
:100580001b78424ad2f8a020c2f38002934259d08d
:100590003e4bd3f8a030c3f380033f4a13703f4b68
:1005a0001b783a4ad2f8a020c2f3c00293424fd03f
:1005b000364bd3f8a030c3f3c003384a1370384b1e
:1005c0001b78324a126ac2f34052934246d02f4bf4
:1005d0001b6ac3f34053324a1370324b1b782b4ac9
:1005e000126ac2f3c06293423ed0284b1b6ac3f327
:1005f000c0632c4a137008220021084600f0c6fe92
:10060000c0b3224b4ff400229a6110220021084609
:1006100000f0bcfe98b31d4b1022c3f8982008bd13
:1006200004220221002000f07ffe88e71022012131
:10063000002000f079fe92e720220121002000f046
:1006400073fe9ce701221146002000f06dfea6e734
:1006500002220121002000f067feb0e70422012100
:10066000002000f061feb8e708220121002000f020
:100670005bfec0e7054b4ff400225a61c5e7034b10
:100680001022c3f89420cae7aa010020008000418c
:10069000ac010020ab010020a9010020a80100202e
:0806a000ae010020ad010020b5
:020000040000fa
:1006a8002de9f04784b04ff084431c6d14f0007faf
:1006b8001cbf4ff000721a6514f0010f62d04ff0a2
:1006c800844301221a655a6d22f001025a65d3f853
:1006d800a43013f07f0f55d04ff08443d3f8a450c3
:1006e800c5f305252b014a4ad268d718d15811f00d
:1006f800804fd15805eb8500464e56f8200014bfb0
:1007080021f06041c1f38a410160d2587b6813f43b
:10071800001f02d112f0005f71d105eb85033d4a3d
:1007280002eb83031b6900221a707e683a4b0fcbd9
:100738000df1100c0ce90f00c6f30346664416f8d9
:1007480010ac344e4fea850808eb050906eb890919
:10075800524607f10801d9f8040000f099fed9f8cb
:10076800083083f800a0d9f80c300bb17a681a80e9
:100778004ff08443c3f8a850284b1b6813b1274a8d
:100788005068984714f4007f20d04ff084434ff40a
:1007980000721a655a6d22f400725a65d3f8d8208f
:1007a800d3f8e03013f0010f0ad012f0010f07d090
:1007b8004ff08442d2f8e03023f00103c2f8e03071
:1007c800164b9b6913b1154ad069984714f4006f0a
:1007d80012d04ff084424ff400631365d2f8c4304e
:1007e800c3f30423d2f8c420c2f30442934203d2d1
:1007f8000133dbb29a42fbd104b0bde8f08705ebc8
:100808008503044a02eb83031b6901221a708ce7f3
:10081800dc00002004010020081500004c01002025
:020000040000fa
:100828002de9f04784b0574b1c6d14f0007f1cbfb6
:100838004ff000721a6514f0010f5fd0514b01227e
:100848001a655a6d22f001025a65d3f8a43013f0e4
:100858007f0f53d04b4bd3f8a450c5f305252b017c
:10086800494ad268d718d15811f0804fd15805ebb2
:100878008500464e56f8200014bf21f06041c1f3b0
:100888008a410160d2587b6813f4001f02d112f02c
:10089800005f6dd105eb85033c4a02eb83031b69be
:1008a80000221a707e683a4b0fcb0df1100c0ce940
:1008b8000f00c6f30346664416f810ac334e4feaf1
:1008c800850808eb050906eb8909524607f1080176
:1008d800d9f8040000f0dcfdd9f8083083f800a04e
:1008e800d9f80c300bb17a681a80264bc3f8a85097
:1008f800284b1b6813b1274a5068984714f4007fa7
:100908001ed0204b4ff400721a655a6d22f4007203
:100918005a65d3f8d820d3f8e03013f0010f09d086
:1009280012f0010f06d0174ad2f8e03023f0010385
:10093800c2f8e030174b9b6913b1164ad069984743
:1009480014f4006f11d00f4a4ff400631365d2f806
:10095800c430c3f30423d2f8c420c2f30442934240
:1009680003d20133dbb29a42fbd104b0bde8f08771
:1009780005eb8503054a02eb83031b6901221a7004
:1009880090e700bf000400428c000020b400002063
:08099800f81400002c010020fe
:020000040000fa
:1009a0008c0100201c00000000000000a8010020b5
:1009b0000100000000000000a9010020010000006b
:1009c00000000000aa01002001000000000000005b
:1009d000ab0100200100000000000000ac0100207d
:1009e0000100000000000000ad0100200100000037
:1009f00000000000ae010020010000000000000027
:100a00002c01002020000000000000008c000020cd
:100a10002800000000000000b400002028000000b2
:100a2000000000004c010020200000000000000039
:100a3000dc0000202800000000000000040100206d
:100a40002800000000000000af01002001000000ad
:100a500000000000500000200c000000000000001a
:100a6000b00100200100000000000000b1010020e2
:100a70000100000000000000b201002001000000a1
:100a800000000000600000202c00000000000000ba
:100a90006c01002020000000000000000000002089
:100aa0005000000000000000b30100200100000021
:100ab00000000000b4010020010000000000000060
:100ac000b50100200100000000000000b601002078
:100ad00001000000000000005c0000200400000095
:100ae000000000000000000000000000222222227e
:020000040000fa
:100af000424b42f20e229a821a46d36813f0010f3b
:100b0000fbd03e4b00221a7403f500633c4ada62c4
:100b10001a46536813f0200ffbd13a4b3a4a9a62b7
:100b20001a46536813f0100ffbd1364b374a1a633d
:100b30001a46536813f0400ffbd1324b4222c3f8e0
:100b400084201a46d2f8843013f0400ffad0304b8c
:100b500000229a6377225a631a46d36b13f0040f6c
:100b6000fbd12b4b022283f830201a46d36b13f0b3
:100b7000020ffbd1264a136c03f00303032bfad1b7
:100b8000244b01225a711a46d37813f0010ffbd07f
:100b90001c4b214a1a621a46536813f0040ffbd10a
:100ba000184b1e4a5a621a46536813f0080ffbd1bd
:100bb000144b4322c3f8a4201a46d2f8a43013f0f1
:100bc000400ffad00f4b4422c3f8ec201a46d2f85b
:100bd000ec3013f0400ffad00a4b4422c3f8f02057
:100be0001a46d2f8f03013f0400ffad0094b6ff0ec
:100bf0007f421a6144f2ff725a617047001400404c
:100c000004012000001c0040060130000601020023
:100c10000010004000080040070101000701020029
:020000040000fa
:100c2000f8b59df818c0bcf1010f01d90020f8bd3e
:100c30004ff08443d3f8c43013f4001f3fd14ff07a
:100c40008443d3f8c440c4f3044426011d4b9f6978
:100c5000bd19b0f5006f26bf20f0604040f0804025
:100c60008004b8510b46082928bf0823180468607f
:100c70001cf0fd0f1ed111461a4605f1080000f0c8
:100c80000bfc114a13780133dbb213706a6842ea35
:100c9000036343f400036b60012000fa04f44ff097
:100ca0008443c3f8e040c3f8d0405a6d42f4007268
:100cb0005a65bce7bb5943f00053bb51e1e7002044
:0c0cc000b5e700bfdc000020af01002001
:020000040000fa
:100ccc0010b504462c22002100f038fc4ff0844370
:100cdc0001229a611a46936913f0010ffbd04ff071
:100cec0084439a6942f002029a611849cc60a2b21c
:100cfc0042f0004242f48032c3f8a02004f110020a
:100d0c008a6192b242f08072c3f8c02004f12002d2
:100d1c00ca6192b242f48032c3f8f02004f1280286
:100d2c000a620b49a16292b242f48032c3f8842069
:100d3c009a6922f4804222f0010242f480429a61c4
:100d4c001a46936913f0010ffbd110bddc00002093
:040d5c001102110a65
:020000040000fa
:100d600008b51b4b98471b4b9847eff3108172b6a1
:100d7000194ad2f8883043f47003c2f88830bff3c0
:100d80004f8fbff36f8f01b962b6144c202363609d
:100d900000f0b6f8124b23f07f030f4a9360114b1b
:100da0009847a36823f00103a3602346da6812f092
:100db000010ffbd1094b5a6842f004025a6001222c
:100dc0009a60094b9847094b984700f04ff9fee7a6
:100dd000891500008915000000ed00e00060004169
:100de00000000000ad110000891500008915000009
:020000040000fa
:100df00038b51d4b01229a611a46936913f0010f11
:100e0000fbd0194b9a6942f002029a61174ada61e3
:100e10002b22c3f8802001221a629a6922f48042b0
:100e200022f0010242f480429a611a46936913f05b
:100e3000010ffbd10c4b00249c650122da654ff0b9
:100e400000725a650a4d2c606c60ac602822214605
:100e5000084800f079fbec602c616c61ac61ec61de
:100e60002c626c6238bd00bf000400420005020025
:080e70008c000020b4000020fa
:020000040000fa
:100e780038b54ff0844301229a611a46936913f0fa
:100e8800010ffbd04ff084439a6942f002029a6145
:100e9800164ada612b22c3f8802001221a629a6965
:100ea80022f4804222f0010242f480429a611a46fa
:100eb800936913f0010ffbd14ff0844300249c6524
:100ec8000122da654ff000725a65094d2c606c609a
:100ed800ac6028222146074800f032fbec602c6108
:100ee8006c61ac61ec612c626c6238bd000502007b
:080ef800dc00002004010020d1
:020000040000fa
:100f00001e4b1f4a9342f0b438bf002103d203f8ae
:100f1000011b9342fbd11b4ad2e9000150ea0103b5
:100f20004ff0000610d09468034602f10c076cb92c
:100f300021b1014403f8016b9942fbd13a46d2e951
:100f4000000150ea0103eed1f0bc704759b101f144
:100f50000c030c38801a1a443b461c1813f8015b2a
:100f600025709342f9d111f0030318bf012303eb5d
:100f7000910107eb81073a46e1e700bf000000203e
:080f800000000020a0090000a0
:020000040000fa
:100f880010b4194b194a1a60062283f845204020ec
:100f980083f84b0083f8530083f8542083f85520d6
:100fa800012183f8561083f8571083f85b208824b2
:100fb80083f83b400e4cc3f8804083f8c02083f888
:100fc800c12083f8c22083f8c32083f8c40083f8c3
:100fd800cc1083f8cd1083f8ce20772283f8b62082
:100fe8005df8044b704700bf00800041000808000e
:040ff8003000008045
:020000040000fa
:100ffc0008b5002304220221184600f08ff90023c3
:10100c0010220121184600f089f900232022012129
:10101c00184600f083f9002301221146184600f00f
:10102c007df9002302220121184600f077f90023f4
:10103c0004220121184600f071f900230822012135
:10104c00184600f06bf9054b4ff400225a61202230
:10105c00c3f894201022c3f8942008bd00800041ee
:020000040000fa
:10106c0008b5002000f0b8f90021124800f06efa23
:10107c0000f01afa00f024fa00f058fafff7b8ff63
:10108c0000f04cfa0c4c00f06dfa237813f0020fc0
:10109c0007d1237813f0010ff5d023f0010323704f
:1010ac00f1e723f002032370fff734fa00f006f89f
:0c10bc00efe700bf0d140000b20100209f
:020000040000fa
:1010c80008b5104b1a78104b1b6ac3f340139a42a9
:1010d80010d00d4b1b6ac3f340130a4a1370202229
:1010e8000021084600f04ef938b1074b4ff4006272
:1010f8009a6108bd054b1a70f1e7034b4ff4006283
:101108005a61f6e7b101002000800041b0010020db
:020000040000fa
:10111800f0b59df81440ecb94ff0844cdcf8a450bd
:10112800c5f305250c4cae007719bf0004eb070e7c
:10113800e051cef80420cef80810cef80c30069b0b
:10114800cef81030dcf8543043f00103ccf85430ba
:0c115800012000e00020f0bd0401002098
:020000040000fa
:101164000f4ad36823f4e0631b041b0c43f0bf63f2
:1011740043f40033d360bff35f8f62b6094be022c0
:1011840083f80b234ff40061196083f84e234ff466
:101194008041996083f84f234ff400429a6070476e
:0811a40000ed00e000e100e0b5
:020000040000fa
:1011ac0070b50d4d0d4c641ba4100026a64209d140
:1011bc000b4d0c4cfff74ef8641ba4100026a642f6
:1011cc0005d170bd55f8043b98470136eee755f84c
:1011dc00043b98470136f2e76c0200006c020000f9
:0811ec006c020000700200001b
:020000040000fa
:1011f4000f4b01221a801a46136913f0010ffbd119
:101204000b4b4ff401421a8000221a621a461369ea
:1012140013f0200ffbd1064b00225a621a461369c1
:1012240013f0400ffbd1024b81225a81704700bf5b
:041234000024004052
:020000040000fa
:1012380010b5054c237833b9044b13b10448aff308
:1012480000800123237010bd8c01002000000000e5
:101258000000000008b5034b1bb103490348aff376
:10126800008008bd00000000900100200000000080
:020000040000fa
:101278004ff08443586c20f4605020f0180040046c
:10128800400c9b6913f0010f11d04ff08442936911
:1012980043f002039361936923f4804323f001032d
:1012a80043f480439361936913f0010ffbd17047b6
:020000040000fa
:1012b80000b583b000221146084800f0dbf8084862
:1012c800084b01930023009300f10e03021d00f167
:1012d8000c01fff71dff03b05df804fb3514000097
:0812e8006c010020b40100209c
:020000040000fa
:1012f00038b505460a4c112323700a48fff7e6fc6f
:10130000012363700022a270e37002226275a3764b
:10131000092384f83f30e564fff7ceff38bd00bff6
:08132000000000206000002025
:020000040000fa
:1013280010b40b4c647d84420fd903290dd8084ca6
:1013380004eb80040c44647b24ea020403b11443e4
:10134800034b03eb8000084444735df8044b70477b
:041358000000002071
:020000040000fa
:10135c000a4b01221a601a46136913f0010ffbd1d4
:10136c00064b40f214721a6001221a731a77332258
:10137c009a721a461369002bfcd170470038004052
:020000040000fa
:10138c000a4b9b7e83420dd903290dd8074b03ebe7
:10139c0080000844837d23ea0203134314bf012019
:1013ac00002070470020704700207047000000208c
:020000040000fa
:1013bc0008b5074a908980b2064b58604cf2ff3151
:1013cc0091811b6813b1034a9168984708bd00bf0f
:0813dc00002400405000002035
:020000040000fa
:1013e40008b500f097f8fff7cdfdfff77ffb00f09d
:1013f400c1f8fff7fbfcfff73dfdfff7f9fefff730
:08140400abfffff7adfe08bdd0
:020000040000fa
:10140c0010f0010f04d0074a137843f00203137055
:10141c0010f0800f04d0034a137843f001031370cb
:08142c00704700bfb20100206f
:020000040000fa
:1014340008b5fff71fff10f0070005d0072803d0f9
:10144400034b01221a7002e0024b01221a7008bdfc
:08145400b5010020b6010020e3
:020000040000fa
:10145c0010b4064c84f8450084f8461084f84720f4
:10146c0084f848305df8044b704700bf0000002042
:020000040000fa
:10147c0010b428b1044b43f8320003ebc20359609b
:0c148c005df8044b704700bf4c010020cd
:020000040000fa
:101498000a44914200f1ff3300d1704710b511f8aa
:0c14a800014b03f8014f9142f9d110bd37
:020000040000fa
:1014b400044a138843f002031380136913f0020fe4
:0814c400fbd170470024004039
:020000040000fa
:1014cc00044a136843f002031360136913f0020f0c
:0814dc00fbd17047003800400d
:020000040000fa
:1014e40008b500f03df80423002211460220fff75e
:0414f400b3ff08bd7d
:020000040000fa
:1014f8000001020304050607080c101418203040e8
:101508000001020304050607080c101418203040d7
:020000040000fa
:10151800024b40f204521a80704700bf004000415d
:020000040000fa
:10152800024b4ff400625a61704700bf00800041cf
:020000040000fa
:1015380008b50248fff7d8fe08bd00bfe514000053
:020000040000fa
:1015480002440346934200d1704703f8011bf9e7b0
:020000040000fa
:0c155800014b18609960704750000020a3
:020000040000fa
:0c156400014b93f840007047000000208d
:020000040000fa
:0815700008b5fef785fe08bd79
:020000040000fa
:021578007047ba
:020000040000fa
:02157a00fee78a
:020000040000fa
:02157c00fee788
:020000040000fa
:02157e00fee786
:020000040000fa
:02158000fee784
:020000040000fa
:02158200fee782
:020000040000fa
:02158400fee780
:020000040000fa
:02158600fee77e
:020000040000fa
:021588007047aa
:020000040000fa
:0200000400807a
:044000003912003c35
:020000040000fa
:0200000400807a
:044004008000a82a66
:020000040000fa
:0200000400807a
:04400800ffffffffb8
:00000001FF
