:020000040000fa
:10000000f0ff0320390b0000cd120000cf120000da
:10001000d3120000d5120000d7120000000000002b
:10002000000000000000000000000000cb120000f3
:10003000d112000000000000cb120000cb12000023
:10004000cb120000cb120000cb120000cb1200003c
:10005000cb120000cb120000cb120000cb1200002c
:10006000cb120000cb120000cb120000f1100000f8
:10007000cb120000cb120000cb120000cb1200000c
:10008000cb120000cb120000cb120000cb120000fc
:10009000cb120000cb120000cb120000cb120000ec
:1000a000cb120000cb120000cb120000cb120000dc
:1000b000cb120000cb120000cb120000cb120000cc
:1000c000cb120000cb120000cb120000cb120000bc
:1000d000cb120000cb120000cb120000cb120000ac
:1000e000cb120000cb120000000000000000000056
:1000f00000000000cb120000cb120000cb12000069
:10010000cb120000cb120000cb120000cb1200007b
:10011000cb120000cb120000cb120000cb1200006b
:10012000cb120000cb120000cb120000cb1200005b
:10013000cb120000cb120000cb120000cb1200004b
:10014000cb120000cb120000cb120000cb1200003b
:10015000cb120000cb1200000000000000000000e5
:10016000000000000000000000000000000000008f
:1001700000000000000000008102000001040000f7
:10018000cb120000cb120000cb120000cb120000fb
:1001900000000000cb120000cb120000cb120000c8
:1001a000cb120000cb120000cb120000cb120000db
:1001b000cb120000cb120000cb120000cb120000cb
:1001c000cb120000cb120000cb120000cb120000bb
:1001d000cb120000cb120000cb120000cb120000ab
:1001e000cb120000cb120000cb120000cb1200009b
:1001f000cb120000cb120000cb120000cb1200008b
:10020000cb1200000000000000000000cb12000034
:10021000cb120000cb120000cb120000cb1200006a
:10022000cb120000cb120000cb120000cb1200005a
:10023000cb120000cb120000cb120000cb1200004a
:10024000cb120000cb120000cb120000cb1200003a
:10025000cb120000cb120000cb120000cb1200002a
:020000040000fa
:10026000f8b500bff8bc08bc9e467047850f00007b
:10027000f8b500bff8bc08bc9e467047610f00008f
:020000040000fa
:100280002de9f04784b04ff084431c6d14f0007fdb
:100290001cbf4ff000721a6514f0010f62d04ff0ce
:1002a000844301221a655a6d22f001025a65d3f87f
:1002b000a43013f07f0f55d04ff08443d3f8a450ef
:1002c000c5f305252b014a4ad268d718d15811f039
:1002d000804fd15805eb8500464e56f8200014bfdc
:1002e00021f06041c1f38a410160d2587b6813f468
:1002f000001f02d112f0005f71d105eb85033d4a6a
:1003000002eb83031b6900221a707e683a4b0fcb05
:100310000df1100c0ce90f00c6f30346664416f805
:1003200010ac344e4fea850808eb050906eb890945
:10033000524607f10801d9f8040000f063ffd9f82c
:10034000083083f800a0d9f80c300bb17a681a8015
:100350004ff08443c3f8a850284b1b6813b1274ab9
:100360005068984714f4007f20d04ff084434ff436
:1003700000721a655a6d22f400725a65d3f8d820bb
:10038000d3f8e03013f0010f0ad012f0010f07d0bc
:100390004ff08442d2f8e03023f00103c2f8e0309d
:1003a000164b9b6913b1154ad069984714f4006f36
:1003b00012d04ff084424ff400631365d2f8c4307a
:1003c000c3f30423d2f8c420c2f30442934203d2fd
:1003d0000133dbb29a42fbd104b0bde8f08705ebf4
:1003e0008503044a02eb83031b6901221a708ce720
:1003f000bc000020e4000020741200002c0100204a
:020000040000fa
:100400002de9f04784b0574b1c6d14f0007f1cbfe2
:100410004ff000721a6514f0010f5fd0514b0122aa
:100420001a655a6d22f001025a65d3f8a43013f010
:100430007f0f53d04b4bd3f8a450c5f305252b01a8
:10044000494ad268d718d15811f0804fd15805ebde
:100450008500464e56f8200014bf21f06041c1f3dc
:100460008a410160d2587b6813f4001f02d112f058
:10047000005f6dd105eb85033c4a02eb83031b69ea
:1004800000221a707e683a4b0fcb0df1100c0ce96c
:100490000f00c6f30346664416f810ac334e4fea1d
:1004a000850808eb050906eb8909524607f10801a2
:1004b000d9f8040000f0a6fed9f8083083f800a0af
:1004c000d9f80c300bb17a681a80264bc3f8a850c3
:1004d000284b1b6813b1274a5068984714f4007fd3
:1004e0001ed0204b4ff400721a655a6d22f4007230
:1004f0005a65d3f8d820d3f8e03013f0010f09d0b3
:1005000012f0010f06d0174ad2f8e03023f00103b1
:10051000c2f8e030174b9b6913b1164ad06998476f
:1005200014f4006f11d00f4a4ff400631365d2f832
:10053000c430c3f30423d2f8c420c2f3044293426c
:1005400003d20133dbb29a42fbd104b0bde8f0879d
:1005500005eb8503054a02eb83031b6901221a7030
:1005600090e700bf000400426c00002094000020cf
:08057000641200000c010020e0
:020000040000fa
:100578008c0100201c000000000000000c0100207d
:1005880020000000000000006c000020280000008f
:100598000000000094000020280000000000000077
:1005a8003c00002001000000000000002c01002099
:1005b8002000000000000000bc000020280000000f
:1005c80000000000e40000202800000000000000f7
:1005d8003d00002001000000000000002c00002069
:1005e8000c00000000000000000000202c000000ab
:1005f800000000004c010020200000000000000066
:100608003e00002001000000000000003f00002024
:100618000100000000000000cc01002001000000e3
:1006280000000000a80100201800000000000000e1
:10063800400000202c000000000000006c01002099
:100648002000000000000000c00100200c00000095
:1006580000000000cd0100200100000000000000a3
:10066800ce0100200100000000000000cf010020a2
:100678000100000000000000d0010020010000007f
:100688000000000038000020040000000000000006
:100698000000000000000000222222222222222242
:020000040000fa
:1006a8003e4b42f20e229a821a46d36813f0010f8b
:1006b800fbd03a4b00221a7403f50063384ada6219
:1006c8001a46536813f0200ffbd1364b364a9a620c
:1006d8001a46536813f0100ffbd1324b4222c3f86d
:1006e80084201a46d2f8843013f0400ffad02f4bea
:1006f80000229a6377225a631a46d36b13f0040fc9
:10070800fbd12a4b022283f830201a46d36b13f010
:10071800020ffbd1254a136c03f00303032bfad114
:10072800234b01225a711a46d37813f0010ffbd0dc
:100738001c4b204a1a621a46536813f0040ffbd167
:10074800184b1d4a5a621a46536813f0080ffbd11a
:10075800144b4322c3f8a4201a46d2f8a43013f04d
:10076800400ffad00f4b4122c3f8ec201a46d2f8ba
:10077800ec3013f0400ffad00a4b4122c3f8f020b6
:100788001a46d2f8f03013f0400ffad0084b6ff049
:100798007f421a6144f2ff725a61704700140040a8
:1007a80004012000001c0040060130000010004039
:0c07b800000800400701010007010200da
:020000040000fa
:1007c40070b582b0364b1b78002b5ed0344b0022c0
:1007d4001a70344b1b7b082b05d1324c221d04f1bb
:1007e4000b05002103e000f035fc51e0194612f836
:1007f400010b80ea0103dbb2aa42f7d1884225d17a
:10080400284b18795a79d979274d4ff00046c5f805
:100814009c6018755a759975012a1ad0234b04f1f6
:100824001b00002113f8012b51408342fad11d4ac9
:10083400d1761f4b1878002300931432082100f559
:10084400007000f039f800f005fc21e000f002fc33
:100854001ee0174b1b7a8b4213d9154b5a6852f87a
:10086400213018780f4bd87552f82100407818764b
:1008740052f821008078587652f82120d2789a765e
:10088400cce7084b00229a75c8e70a4b1b780bb9d2
:1008940002b070bd074b00221a7000f0dbfbf7e7d3
:1008a400cf0100206c010020008000418001002065
:0808b400c0010020ce0100206c
:020000040000fa
:1008bc00f8b59df818c0bcf1010f01d90020f8bda6
:1008cc004ff08443d3f8c43013f4001f3fd14ff0e2
:1008dc008443d3f8c440c4f3044426011d4b9f69e0
:1008ec00bd19b0f5006f26bf20f0604040f080408d
:1008fc008004b8510b46082928bf082318046860e7
:10090c001cf0fd0f1ed111461a4605f1080000f02f
:10091c0073fc114a13780133dbb213706a6842ea34
:10092c00036343f400036b60012000fa04f44ff0fe
:10093c008443c3f8e040c3f8d0405a6d42f40072cf
:10094c005a65bce7bb5943f00053bb51e1e70020ab
:0c095c00b5e700bfbc0000203d000020fb
:020000040000fa
:10096800f8b59df818c0bcf1010f01d90020f8bdf9
:10097800224bd3f8c43013f4001f3dd11f4bd3f8da
:10098800c440c4f3044426011d4b9f69bd19b0f54a
:10099800006f26bf20f0604040f080408004b851ce
:1009a8000b46082928bf0823180468601cf0fd0faf
:1009b8001dd111461a4605f1080000f01ffc114a26
:1009c80013780133dbb213706a6842ea036343f4b5
:1009d80000036b60012000fa04f4084bc3f8e04000
:1009e800c3f8d0405a6d42f400725a65bfe7bb594c
:1009f80043f00053bb51e2e70020b8e7000400428f
:080a08006c0000203c000020fe
:020000040000fa
:100a100010b504462c22002100f044fc1e4b01229c
:100a20009a611a46936913f0010ffbd01a4b9a6929
:100a300042f002029a611949cc60a2b242f000422f
:100a400042f48032c3f8a02004f110028a6192b20d
:100a500042f08072c3f8c02004f12002ca6192b251
:100a600042f48032c3f8f02004f128020a620c49f3
:100a7000a16292b242f48032c3f884209a6922f4cf
:100a8000804222f0010242f480429a611a46936940
:100a900013f0010ffbd110bd000400426c000020d8
:040aa0000106010e3c
:020000040000fa
:100aa40010b504462c22002100f0fafb4ff08443d9
:100ab40001229a611a46936913f0010ffbd04ff09b
:100ac40084439a6942f002029a611849cc60a2b246
:100ad40042f0004242f48032c3f8a02004f1100234
:100ae4008a6192b242f08072c3f8c02004f12002fd
:100af400ca6192b242f48032c3f8f02004f12802b1
:100b04000a620b49a16292b242f48032c3f8842093
:100b14009a6922f4804222f0010242f480429a61ee
:100b24001a46936913f0010ffbd110bdbc000020dd
:040b34000102010aaf
:020000040000fa
:100b380008b51b4b98471b4b9847eff3108172b6cb
:100b4800194ad2f8883043f47003c2f88830bff3ea
:100b58004f8fbff36f8f01b962b6144c20236360c7
:100b680000f072f8124b23f07f030f4a9360114b89
:100b78009847a36823f00103a3602346da6812f0bc
:100b8800010ffbd1094b5a6842f004025a60012256
:100b98009a60094b9847094b984700f029f9fee7f6
:100ba800d9120000d912000000ed00e000600041f9
:100bb80000000000d50e0000d9120000d912000074
:020000040000fa
:100bc80038b54ff0844301229a611a46936913f0ad
:100bd800010ffbd04ff084439a6942f002029a61f8
:100be8004ff46452da612b22c3f8802001221a6282
:100bf8009a6922f4804222f0010242f480429a610a
:100c08001a46936913f0010ffbd14ff08443002477
:100c18009c650122da654ff000725a65084d2c6018
:100c28006c60ac6028222146064800f037fbec6077
:100c38002c616c61ac61ec612c626c6238bd00bfe8
:080c4800bc000020e4000020c4
:020000040000fa
:100c50001e4b1f4a9342f0b438bf002103d203f861
:100c6000011b9342fbd11b4ad2e9000150ea010368
:100c70004ff0000610d09468034602f10c076cb9df
:100c800021b1014403f8016b9942fbd13a46d2e904
:100c9000000150ea0103eed1f0bc704759b101f1f7
:100ca0000c030c38801a1a443b461c1813f8015bdd
:100cb00025709342f9d111f0030318bf012303eb10
:100cc000910107eb81073a46e1e700bf00000020f1
:080cd00000000020780500007f
:020000040000fa
:100cd80038b51d4b01229a611a46936913f0010f2a
:100ce800fbd0194b9a6942f002029a614ff46452a0
:100cf800da612b22c3f8802001221a629a6922f451
:100d0800804222f0010242f480429a611a469369b5
:100d180013f0010ffbd10c4b00249c650122da650e
:100d28004ff000725a65094d2c606c60ac60282247
:100d38002146074800f0b2faec602c616c61ac61a6
:100d4800ec612c626c6238bd000400426c0000202b
:040d580094000020e3
:020000040000fa
:100d5c00f0b59df81440ecb9dff840c0dcf8a450b5
:100d6c00c5f305250c4cae007719bf0004eb070e3c
:100d7c00e051cef80420cef80810cef80c30069bcb
:100d8c00cef81030dcf8543043f00103ccf854307a
:100d9c00012000e00020f0bd94000020000400427f
:020000040000fa
:100dac00f0b59df81440ecb94ff0844cdcf8a4502d
:100dbc00c5f305250c4cae007719bf0004eb070eec
:100dcc00e051cef80420cef80810cef80c30069b7b
:100ddc00cef81030dcf8543043f00103ccf854302a
:0c0dec00012000e00020f0bde400002029
:020000040000fa
:100df80008b5002000f08cf900210e4800f056fae2
:100e080000f00afa00f014fa00f040fa00f004f9d1
:100e1800112000f0e5f9084c0026012503e02670b2
:100e2800284600f02ff800f047fa2378002bfad074
:0c0e3800f5e700bf51120000d0010020bf
:020000040000fa
:100e44000f4ad36823f4e0631b041b0c43f0bf6315
:100e540043f40033d360bff35f8f62b6094be022e3
:100e640083f80b234ff40061196083f84e234ff489
:100e74008041996083f84f234ff400429a60704791
:080e840000ed00e000e100e0d8
:020000040000fa
:100e8c0000b583b00f4901230b754b758875002392
:100e9c00cb750b764b768b7601f114021b3112f865
:100eac00010b43408a42fad1064ad37600230093c1
:100ebc001432082140f20120fff750fd03b05df819
:080ecc0004fb00bf4c010020f3
:020000040000fa
:100ed40070b50d4d0d4c641ba4100026a64209d11b
:100ee4000b4d0c4cfff7baf9641ba4100026a64264
:100ef40005d170bd55f8043b98470136eee755f827
:100f0400043b98470136f2e76c0200006c020000d3
:080f14006c02000070020000f5
:020000040000fa
:100f1c000f4b01221a801a46136913f0010ffbd1f3
:100f2c000b4b4ff401421a8000221a621a461369c5
:100f3c0013f0200ffbd1064b00225a621a4613699c
:100f4c0013f0400ffbd1024b80225a81704700bf37
:040f5c00002400402d
:020000040000fa
:100f600010b5054c237833b9044b13b10448aff3e3
:100f700000800123237010bd8c01002000000000c0
:100f80000000000008b5034b1bb103490348aff351
:100f9000008008bd0000000090010020000000005b
:020000040000fa
:100fa0000e4b586c20f4605020f018004004400ca8
:100fb0009b6913f0010f10d0084a936943f00203b4
:100fc0009361936923f4804323f0010343f4804346
:100fd0009361936913f0010ffbd170470004004245
:020000040000fa
:100fe0004ff08443586c20f4605020f01800400407
:100ff000400c9b6913f0010f11d04ff084429369ac
:1010000043f002039361936923f4804323f00103c7
:1010100043f480439361936913f0010ffbd1704750
:020000040000fa
:1010200000b583b000221146084800f0c1f8084816
:10103000084b01930023009300f10e03021d00f101
:101040000c01fff78bfe03b05df804fb41110000bb
:081050004c0100203e000020cd
:020000040000fa
:1010580000b583b000221146084800f0b3f80848ec
:10106800084b01930023009300f10e03021d00f1c9
:101078000c01fff797fe03b05df804fb691100004f
:081088006c010020cd010020e5
:020000040000fa
:101090000a4b012283f8562083f85720882183f8d1
:1010a0003b104ff00041c3f8801083f8cc2083f848
:1010b000cd20772283f8b620704700bf0080004122
:020000040000fa
:1010c0000a4b01221a601a46136913f0010ffbd173
:1010d000064b40f214721a6001221a731a773322f7
:1010e0009a721a461369002bfcd1704700380040f1
:020000040000fa
:1010f00008b5074a908980b2064b58604cf2ff3120
:1011000091811b6813b1034a9168984708bd00bfdd
:08111000002400402c00002027
:020000040000fa
:1011180008b500f0b3f8fff7b7fffff7c1fa00f022
:10112800cff8fff7d5fdfff74bfdfff7f3fefff70d
:08113800c3fffff783fe08bdb1
:020000040000fa
:1011400008b5fff72dff10f0070005d0072803d0e2
:10115000034b01221a7002e0024b01221a7008bdf3
:081160003f000020cc0100203b
:020000040000fa
:1011680008b5fff739ff10f0070005d0072803d0ae
:10117800034b01221a7002e0024b01221a7008bdcb
:08118800ce010020cf01002080
:020000040000fa
:1011900038b50d4614460448fff784fc034b5d60e8
:1011a0001c72fff759ff38bd40000020c00100202d
:020000040000fa
:1011b00010b428b1044b43f8320003ebc20359606a
:0c11c0005df8044b704700bf0c010020dc
:020000040000fa
:1011cc0010b428b1044b43f8320003ebc20359604e
:0c11dc005df8044b704700bf2c010020a0
:020000040000fa
:1011e80008b5054901230b7100224a718b7106224b
:0c11f800fff7caff08bd00bfa8010020df
:020000040000fa
:101204000a44914200f1ff3300d1704710b511f840
:0c121400014b03f8014f9142f9d110bdcd
:020000040000fa
:10122000044a138843f002031380136913f0020f7a
:08123000fbd1704700240040cf
:020000040000fa
:10123800044a136843f002031360136913f0020fa2
:08124800fbd1704700380040a3
:020000040000fa
:1012500010f0800f02d0024b01221a70704700bfbd
:04126000d001002099
:020000040000fa
:101264000001020304050607080c1014182030407e
:101274000001020304050607080c1014182030406e
:020000040000fa
:10128400024b40f204521a80704700bf00400041f4
:020000040000fa
:1012940008b50248fff7bafb08bd00bf00000020f4
:020000040000fa
:1012a40002440346934200d1704703f8011bf9e757
:020000040000fa
:0c12b400014b1860996070472c0000206e
:020000040000fa
:0812c00008b5fff77ffa08bd35
:020000040000fa
:0212c80070476d
:020000040000fa
:0212ca00fee73d
:020000040000fa
:0212cc00fee73b
:020000040000fa
:0212ce00fee739
:020000040000fa
:0212d000fee737
:020000040000fa
:0212d200fee735
:020000040000fa
:0212d400fee733
:020000040000fa
:0212d600fee731
:020000040000fa
:0212d80070475d
:020000040000fa
:0200000400807a
:044000003912003c35
:020000040000fa
:0200000400807a
:044004008000a82a66
:020000040000fa
:0200000400807a
:04400800ffffffffb8
:00000001FF
