:020000040000fa
:10200000f0ff0320b9350000cb400000cd400000b8
:10201000d1400000d3400000d54000000000000087
:10202000000000000000000000000000c9400000a7
:10203000cf40000000000000c9400000c94000007f
:10204000c9400000c9400000c9400000c94000006c
:10205000c9400000c9400000c9400000c94000005c
:10206000c9400000c9400000c9400000a13e000076
:10207000c9400000c9400000c9400000c94000003c
:10208000c9400000c9400000c9400000c94000002c
:10209000c9400000c9400000c9400000c94000001c
:1020a000c9400000c9400000c9400000c94000000c
:1020b000c9400000c9400000c9400000c9400000fc
:1020c000c9400000c9400000c9400000c9400000ec
:1020d000c9400000c9400000c9400000c9400000dc
:1020e000c9400000c94000000000000000000000de
:1020f00000000000c9400000c9400000c9400000c5
:10210000c9400000c9400000c9400000c9400000ab
:10211000c9400000c9400000c9400000c94000009b
:10212000c9400000c9400000c9400000c94000008b
:10213000c9400000c9400000c9400000c94000007b
:10214000c9400000c9400000c9400000c94000006b
:10215000c9400000c940000000000000000000006d
:10216000000000000000000000000000000000006f
:102170000000000000000000d9290000c940000054
:10218000c9400000c9400000c9400000c94000002b
:1021900000000000c9400000c9400000c940000024
:1021a000c9400000c9400000c9400000c94000000b
:1021b000c9400000c9400000c9400000c9400000fb
:1021c000c9400000c9400000c9400000c9400000eb
:1021d000c9400000c9400000c9400000c9400000db
:1021e000c9400000c9400000c9400000c9400000cb
:1021f000c9400000c9400000c9400000c9400000bb
:10220000c94000000000000000000000c9400000bc
:10221000c9400000c9400000c9400000c94000009a
:10222000c9400000c9400000c9400000c94000008a
:10223000c9400000c9400000c9400000c94000007a
:10224000c9400000c9400000c9400000c94000006a
:10225000c9400000c9400000c9400000c94000005a
:020000040000fa
:10226000f8b500bff8bc08bc9e467047793b00003b
:10227000f8b500bff8bc08bc9e467047553b00004f
:020000040000fa
:1022800070b582b0af4b1b78a3b9af4b1b78002b56
:1022900040f06c81ad4b1b78002b40f06e81ac4b55
:1022a0001b78002b00f06781a94b00221a7001f007
:1022b000edfc60e1a34b00221a70a64b1b7b082ba0
:1022c00005d1a44c221d04f10c05002103e001f00e
:1022d000c1fc50e1194612f8010b80ea0103dbb2a0
:1022e000aa42f7d188421ed19a4b1b799a4a12789a
:1022f0009a421bd0984a1370964b03f11402191d91
:1023000003c982e803005b79013b092b31d8dfe880
:1023100013f02a00480052005b0074008d00a500f5
:10232000bd001000d50001f095fc24e101f092fc05
:1023300021e18a4b93f8703973b1894a0023894ea1
:10234000a2f24c6552f8040f316841f823000133c2
:1023500095f870198b42f5db824b1b684ff05a32af
:10236000c3f8fc2305e07d4bd3f80120794bc3f87b
:1023700017207d4b04f11b00002113f8012b514065
:102380008342fad1734ad176744b187800230093b4
:102390001432082100f5a07000f07cff01f05afc17
:1023a000e9e06e4bd3f805106a4ac2f81710002214
:1023b0005a719a71dde7674a684b53f8091fc2f8f2
:1023c00016101b799376d4e7624b9b79634a92f897
:1023d0002e239a4209d90233604a02eb8303d3f8d1
:1023e00006205c4bc3f81720c3e75a4b00225a75ee
:1023f00004229a750122da75bbe7564b9b79574a3e
:1024000092f84f269a4209d9ca33544a02eb830301
:10241000d3f807204f4bc3f81720aae74d4b0022f3
:102420005a7505229a750122da75a2e7494b9b7904
:102430004a4a92f870299a4208d903f5ca73474a62
:1024400052f82320434bc3f8172092e7414b002258
:102450005a7506229a750122da758ae73d4b9b79f7
:102460003e4a92f84f269a4208d93a4ad2f81710b3
:102470003a4a02eb8303c3f82f137ae7354b002265
:102480005a7507229a750122da7572e7314b9b79ea
:10249000324a92f870299a4208d903f5ca732d4a34
:1024a000d2f817102d4a42f8231062e7294b002278
:1024b0005a7508229a750122da755ae7274bd3f824
:1024c00074692eb3234b987928b1244b9b7a012b46
:1024d0002ed0224b5872214d0423ab720023eb7295
:1024e0002b731c498b7a00934b7a0a7ac979b047cf
:1024f000ab7a032b03d90322aa7205226a73154a09
:10250000164b53f8091fc2f816101b79937630e763
:10251000104a91795972032199720021d972197365
:1025200004215973d3f80930c2f81630917620e7a8
:10253000084b0322da7500221a765a7601229a761f
:1025400017e700bfc00a0020bf0a0020be0a002013
:10255000bd0a0020500a0020bb0a00201000002005
:102560005c0600209c090020640a00202f4b0022fa
:102570001a7001f06ffb02b070bd2d4b00221a7073
:102580002c4b1b7b082b18d12a4b03f11402191d6d
:1025900003c982e803001b79012b11d0022b2fd035
:1025a000254b187800230093244a082100f58070f9
:1025b00000f070fe01f06afbdde701f067fbdae78f
:1025c0001d4b93f87c3973b91a4b00225a759a75d2
:1025d000da751a76174b184a5178597691789976a8
:1025e000d278da76dce7134b02225a75124ad2f817
:1025f0007829117999755179d97592791a76e9e71f
:102600000d4b93f87c393bb90a4bff221a75022215
:102610005a7500229a75c3e7074b012283f87d297a
:102620000021074801f006fdbae700bfbf0a0020fd
:10263000be0a0020300a002010000020440a0020ba
:0426400091390000cc
:020000040000fa
:10264400ab4b1b78002b4ed1aa4b1b6a13f4004fe3
:1026540000f0a681a84a13780133dbb21370042b6f
:1026640005d9a34b01221a70a34b00221a70a34b65
:102674001b78002b4ad19f4b1b6a13f0100f40f0bc
:1026840087819f4a13780133dbb21370042b05d979
:102694009a4b01221a709a4b00221a70994b1b888c
:1026a400002b40f05f8170b5964b05221a80964b43
:1026b4001b78002b61d1954b1b78012b50d05ab25b
:1026c400002a36d0022b5cd1894b1b78002b51d1c8
:1026d400884b4ff480425a618c4b00221a708a4b0b
:1026e40001221a704de0834b1b6a13f4004f40f033
:1026f4005b81814a13780133dbb21370042bb6d9a2
:1027040000237b4a13707c4a1370b0e7794b1b6a31
:1027140013f0100f00f04081794a13780133dbb2d3
:102724001370042bbad90023744a1370744a1370bb
:10273400b4e7774b1b7853b96d4b1b786bb96d4b72
:102744004ff480429a61714b01221a7019e0013be7
:102754006f4a137001f0b6fb13e001f0b3fb10e015
:10276400634b1b786bb1634b04229a61674b022263
:102774001a7006e001f0a6fb03e0664b1b78002b01
:1027840049d05c4b1b6ac3f3c00380220021084676
:1027940001f096fa01f082fc642404fb00f05e4d23
:1027a40085fb00321318c217c2eba312d2b25b4ee0
:1027b40032700021012001f0adfb01f069fc04fb43
:1027c40000f085fb00350544c217c2eba512d2b256
:1027d400534c22700121084601f09cfb0021042087
:1027e40001f048fb337883422cbf002301232022cd
:1027f4000021084601f064fa0121042001f03afbab
:10280400237883422cbf0023012340220021084661
:1028140001f056fa70bd01220021084601f0bcfa0d
:1028240000283bd1324b1b78002b00f09f803d4a9f
:1028340013780133dbb21370322b48d83a4a12783a
:10284400002a40f09b80142b12d9374c01252570a7
:102854000021032001f00efb344b18702b4610228c
:102864000021084601f02cfa2378002b40f08680e2
:10287400224c237804220021084601f021fa23780f
:10288400002b61d02a4b1b883bb3013b9bb2284ae7
:102894001380632b24d801f029fb72e701231d4a1e
:1028a400137040220221002001f00afa114c4ff467
:1028b4008043636100201c4b1870034610220146bc
:1028c40001f0fef94ff40003c4f89830aae700f0d1
:1028d400b9fe56e700f0b6fe53e700f0b3fe50e74a
:1028e400144b1b78192b27d00133124a137048e775
:1028f400ca0a002000800041cf0a0020c90a002033
:10290400ce0a0020b00a0020c80a0020c70a00200e
:10291400cc0a0020c60a002043082184c40a0020ef
:10292400c50a0020cd0a0020cb0a0020d30a0020cb
:10293400b20a0020d20a00201d4b4ff48042da6113
:102944001c4b01221a701ce70021022001f092faac
:1029540000eb80004000184b1880154b4ff4804268
:102964005a610ee7013b154a13807047144b00224d
:102974001a70144b1b78002b3ff47aaf01f0b6faaf
:10298400114b1b78002ba5d0013b0f4a1370f8e6be
:102994000e4b00221a7081e60c4b00221a707de661
:1029a4000b4b00221a7062e6094b00221a705ee695
:1029b40000800041d20a0020b20a0020b00a0020a0
:1029c400cd0a0020cb0a0020d30a0020ce0a002022
:0429d400cf0a002006
:020000040000fa
:1029d8002de9f04784b04ff084431c6d14f0007f5c
:1029e8001cbf4ff000721a6514f0010f63d04ff04e
:1029f800844301221a655a6d22f001025a65d3f800
:102a0800a43013f07f0f56d04ff08443d3f8a4506e
:102a1800c5f305252b01854ad268d718d15811f07e
:102a2800804fd15805eb8500814e56f8200014bf21
:102a380021f06041c1f38a410160d2587b6813f4e8
:102a4800001f03d112f0005f40f0e68005eb85031c
:102a5800774a02eb83031b6900221a707e68754b64
:102a68000fcb0df1100c0ce90f00c6f303466644ba
:102a780016f810ac6e4e4fea850808eb050906eb10
:102a88008909524607f10801d9f8040001f05efaf5
:102a9800d9f8083083f800a0d9f80c300bb17a685f
:102aa8001a804ff08443c3f8a850634b1b6813b1d6
:102ab800614a5068984714f0100f67d04ff084436c
:102ac80010221a655a6d22f010025a65d3f8b430f4
:102ad80013f07f0f5ad04ff08443d3f8b450c5f3a6
:102ae80005252b01514a1269d718d15811f0804f8a
:102af800d05805f1010101eb81014d4e56f82160d6
:102b080014bf20f06040c0f38a403060d2587b6820
:102b180013f4001f02d112f0005f74d105eb850396
:102b2800434a02eb83035b6a00221a707e68414bba
:102b38000fcb0df1100c0ce90f00c6f303466644e9
:102b480016f8108c3a4e6b1c03eb830306eb8303d9
:102b5800424607f10801586801f0f8f9ab005a1924
:102b680006eb8202d26982f800802b4406eb8306ca
:102b7800336a0bb17a681a804ff08443c3f8b850af
:102b88002d4b9b6813b12c4ad068984714f4007fea
:102b980020d04ff084434ff400721a655a6d22f426
:102ba80000725a65d3f8d820d3f8e03013f0010f3b
:102bb8000ad012f0010f07d04ff08442d2f8e0306b
:102bc80023f00103c2f8e0301b4b9b6913b11a4a8a
:102bd800d069984714f4006f12d04ff084424ff434
:102be80000631365d2f8c430c3f30423d2f8c420b9
:102bf800c2f30442934203d20133dbb29a42fbd1bf
:102c080004b0bde8f08705eb8503094a02eb8303ae
:102c18005b6a01221a7089e705eb8503044a02eb17
:102c280083031b6901221a7018e700bfe00900201e
:0c2c3800080a002044400000700a002040
:020000040000fa
:102c4400900a00201c00000000000000b40a0020cc
:102c54000100000000000000b50a0020010000008f
:102c640000000000b60a002001000000000000007f
:102c7400b70a00200100000000000000b80a00208c
:102c84000100000000000000b90a0020010000005b
:102c940000000000ba0a002001000000000000004b
:102ca400a00900204000000000000000300a0020bd
:102cb4002000000000000000500a00202000000056
:102cc4000000000010000020800900000000000047
:102cd400bb0a00200100000000000000bc0a002024
:102ce4000100000000000000bd0a002001000000f7
:102cf40000000000be0a00200100000000000000e7
:102d0400bf0a00200100000000000000c00a0020eb
:102d140001000000000000009c09002004000000e5
:102d24000100000000000044700a002020000000a0
:102d340000000000e009002028000000000000005e
:102d4400080a00202800000000000000c10a00203a
:102d54000100000000000000900900200c000000a9
:102d640000000000c20a0020010000000000000072
:102d7400c30a00200100000000000000c40a002073
:102d84000100000000000000c50a0020010000004e
:102d940000000000c60a002001000000000000003e
:102da400c70a00200100000000000000c80a00203b
:102db4000100000000000000c90a0020010000001a
:102dc40000000000ca0a002001000000000000000a
:102dd400cb0a00200100000000000000b00a00201f
:102de4000200000000000000cc0a002001000000e6
:102df40000000000cd0a00200100000000000000d7
:102e0400b20a00200200000000000000ce0a0020e8
:102e14000100000000000000cf0a002001000000b3
:102e240000000000d00a00200100000000000000a3
:102e3400d10a00200100000000000000d20a002096
:102e44000100000000000000d30a0020010000007f
:102e540000000000d40a002001000000000000006f
:102e6400ac0a002004000000000000000000000084
:102e740000000000222222222222222222222222b6
:020000040000fa
:102e840008b5594b1b78594a126ac2f3005293424f
:102e940076d0564b1b6ac3f30053534a1370544bfa
:102ea4001b78524ad2f8a02002f0010293426dd05e
:102eb4004e4bd3f8a03003f001034d4a13704d4b31
:102ec4001b784a4ad2f8a020c2f34002934263d04e
:102ed400464bd3f8a030c3f34003464a1370464b25
:102ee4001b78424ad2f8a020c2f38002934259d000
:102ef4003e4bd3f8a030c3f380033f4a13703f4bdb
:102f04001b783a4ad2f8a020c2f3c00293424fd0b1
:102f1400364bd3f8a030c3f3c003384a1370384b90
:102f24001b78324a126ac2f34052934246d02f4b66
:102f34001b6ac3f34053324a1370324b1b782b4a3b
:102f4400126ac2f3c06293423ed0284b1b6ac3f399
:102f5400c0632c4a137008220021084600f01cffad
:102f6400c0b3224b4ff400229a611022002108467c
:102f740000f012ff98b31d4b1022c3f8982008bd2f
:102f840004220221002000f09bfe88e71022012188
:102f9400002000f095fe92e720220121002000f09d
:102fa4008ffe9ce701221146002000f089fea6e76f
:102fb40002220121002000f083feb0e70422012157
:102fc400002000f07dfeb8e708220121002000f077
:102fd40077fec0e7054b4ff400225a61c5e7034b67
:102fe4001022c3f89420cae7b60a002000800041ea
:102ff400b80a0020b70a0020b50a0020b40a00204d
:08300400ba0a0020b90a0020fd
:020000040000fa
:10300c004d4b42f206229a821a46d36813f0010ff6
:10301c00fbd0494b00221a7403f50063474ada626d
:10302c001a46536813f0200ffbd1454b454a9a6260
:10303c001a46536813f0100ffbd1414b424a1a63e6
:10304c001a46536813f0400ffbd13d4b4222c3f894
:10305c0084201a46d2f8843013f0400ffad03b4b40
:10306c0000229a6377225a631a46d36b13f0040f2b
:10307c00fbd1364b022283f830201a46d36b13f067
:10308c00020ffbd1314a136c03f00303032bfad16b
:10309c002f4b01225a711a46d37813f0010ffbd033
:1030ac00274b2c4a1a621a46536813f0040ffbd1b3
:1030bc00234b294a5a621a46536813f0080ffbd166
:1030cc001f4b4322c3f8a4201a46d2f8a43013f0a5
:1030dc00400ffad01a4b4422c3f8ec201a46d2f80f
:1030ec00ec3013f0400ffad0154b4422c3f8f0200b
:1030fc001a46d2f8f03013f0400ffad0104b4122a0
:10310c00c3f820211a46d2f8203113f0400ffad020
:10311c000b4b4122c3f824211a46d2f8243113f068
:10312c00400ffad00a4b0d4a1a6144f2ff725a61f1
:10313c004ff4c0721a627047001400400401200062
:10314c00001c004006013000060102000010004087
:10315c00000800400701010007010200fffffb000f
:020000040000fa
:10316c002de9f84f8b46924698469df828709df8ad
:10317c002c609df830503e4bd3f800903d4c2070a5
:10318c003d4800f0d7f86770a670e5700223a37273
:10319c000023e372237363736371a371e37123726e
:1031ac0084f82eb384f84fa6b8f1000f03d009f0c1
:1031bc000f03012b13d02f4b002283f870292d4abb
:1031cc000d9bc2f874394ff00053c2f878391b7854
:1031dc00112b2ad0274b002283f87c293de0c9f320
:1031ec000219b9f1010fe6d184f8708900f034ffaf
:1031fc000028fbd1214b1968d1f8fc33b3f15a3fad
:10320c0008d01f4b03eb8808002243f8042b4345de
:10321c00fbd1d4e70b461b4a01eb880853f8041b7f
:10322c0042f8041f4345f9d1c9e74ff000535b78ce
:10323c00822bcfd14ff000539b78132bcad14ff078
:10324c000053db78842bc5d10a4b012283f87c29ef
:10325c004ff00053df711e725d72064b002283f833
:10326c007d2900f0f1fc00f00bfdbde8f88f00bfec
:10327c000440800010000020a00900209c090020c0
:08328c00600600205c06002032
:020000040000fa
:10329400f8b59df818c0bcf1010f01d90020f8bda4
:1032a4004ff08443d3f8c43013f4001f3fd14ff0e0
:1032b4008443d3f8c440c4f3044426011d4b9f69de
:1032c400bd19b0f5006f26bf20f0604040f080408b
:1032d4008004b8510b46082928bf082318046860e5
:1032e4001cf0fd0f1ed111461a4605f1080000f02e
:1032f4002ffe114a13780133dbb213706a6842ea75
:10330400036343f400036b60012000fa04f44ff0fc
:103314008443c3f8e040c3f8d0405a6d42f40072cd
:103324005a65bce7bb5943f00053bb51e1e70020a9
:0c333400b5e700bfe0090020c10a00203e
:020000040000fa
:1033400038b504464022002100f09cfe4ff0844333
:1033500001229a611a46936913f0010ffbd04ff0d6
:1033600084439a6942f002029a611e49cc60a2b27b
:1033700042f0004242f48032c3f8a02004f110026f
:103380000a6192b242f0004242f48032c3f8b020a7
:1033900004f120028a6192b242f08072c3f8c02028
:1033a00004f13002ca6192b242f48032c3f8f020d4
:1033b00004f138020a620c4d03cda063e16392b2be
:1033c00042f40032c3f884209a6922f4804222f049
:1033d000010242f480429a611a46936913f0010f88
:0c33e000fbd138bde0090020b84000001f
:020000040000fa
:1033ec0030b585b0264b039301250295002401943a
:1033fc00009509232a4602211020fff7b1fe009404
:10340c00234622462821204600f05afb00942346ee
:10341c0022463221284600f053fb009423462246d4
:10342c00c821022000f04cfb009423462246642164
:10343c00032000f045fb009423466422114604202f
:10344c0000f03efb0094234622462146052000f066
:10345c0037fb0094234622462146062000f030fb21
:10346c000094234622462146072000f029fb0094b5
:10347c00234622462146082000f022fb05b030bd31
:04348c00693d000096
:020000040000fa
:1034900010b4234b234a1a60462283f843200622a5
:1034a00083f8442083f84520402083f84b0083f8bc
:1034b0004e0083f84f2083f8530083f8542083f89c
:1034c0005520012183f8561083f8571083f85b20ac
:1034d000882483f83b40a4f1ff44583cc3f8804063
:1034e00083f8c02083f8c12083f8c22083f8c3206a
:1034f00083f8c40083f8c81083f8c91083f8cc108f
:1035000083f8cd1083f8ce2083f8d700112283f8fa
:10351000b420772283f8b6205df8044b704700bfd3
:0835200000800041044808008e
:020000040000fa
:10352800f0b59df814401cb1012c1fd00020f0bd4f
:103538004ff0844cdcf8a450c5f305251b4cae00b5
:103548007719bf0004eb070ee051cef80420cef83f
:103558000810cef80c30069bcef81030dcf854304a
:1035680043f00103ccf854300120e0e74ff08447e2
:10357800d7f8b450c5f305250c4c05f1010c4feafa
:103588008c0606eb0c0e44f82e0004eb8e067260d7
:10359800aa00501904eb8000c1610362069b4362d4
:1035a8007b6d43f010037b650120c0e7080a00200b
:020000040000fa
:1035b80008b51b4b98471b4b9847eff3108172b621
:1035c800194ad2f8883043f47003c2f88830bff340
:1035d8004f8fbff36f8f01b962b6144c202363601d
:1035e80000f0b8f8124b23f07f030f4a9360114b99
:1035f8009847a36823f00103a3602346da6812f012
:10360800010ffbd1094b5a6842f004025a600122ab
:103618009a60094b9847094b984700f0dff8fee796
:10362800d7400000d740000000ed00e000600041f6
:1036380000200000853a0000d7400000d740000075
:020000040000fa
:1036480070b50024194b1c70194b1c70214620467c
:1036580000f00efc174b1870174e04257561174bb8
:103668001c70234640220221204600f027fb4ff41d
:103678000003c6f89430234610222146204600f065
:103688001dfb0f4b1c702146022000f0f1fb00ebe4
:10369800800040000b4b188023462a4621462046ce
:1036a80000f00cfb084b1c7070bd00bfc80a00205e
:1036b800c70a0020cc0a002000800041c60a00206a
:0c36c800cb0a0020b20a0020cd0a00202e
:020000040000fa
:1036d40038b54ff0844301229a611a46936913f076
:1036e400010ffbd04ff084439a6942f002029a61c1
:1036f400164ada612b22c3f8802001221a629a69e1
:1037040022f4804222f0010242f480429a611a4675
:10371400936913f0010ffbd14ff0844300249c659f
:103724000122da654ff000725a65094d2c606c6015
:10373400ac6028222146074800f0a2fcec602c6112
:103744006c61ac61ec612c626c6238bd00050200f6
:08375400e0090020080a002032
:020000040000fa
:10375c001e4b1f4a9342f0b438bf002103d203f82a
:10376c00011b9342fbd11b4ad2e9000150ea010331
:10377c004ff0000610d09468034602f10c076cb9a8
:10378c0021b1014403f8016b9942fbd13a46d2e9cd
:10379c00000150ea0103eed1f0bc704759b101f1c0
:1037ac000c030c38801a1a443b461c1813f8015ba6
:1037bc0025709342f9d111f0030318bf012303ebd9
:1037cc00910107eb81073a46e1e700bf10000020aa
:0837dc0010000020442c000045
:020000040000fa
:1037e40008b5002000f008fb00211b4800f05cfc39
:1037f40000f0ecfb00f0f6fbfff7f6fd00f032f80a
:1038040000f036fc00f094fa144c154d00f056fc10
:10381400237813f0020f0fd1237813f0040f15d17e
:10382400237813f0010ff1d023f0010323704ff03c
:103834000043c5f89c30e9e723f002032370fff747
:103844001ffb00f0cff800f045fce5e723f004038c
:103854002370fef7f5fee3e7fd3c0000d40a0020e8
:04386400008000419f
:020000040000fa
:1038680008b5002304220221184600f027fa002395
:1038780010220121184600f021fa002320220121fc
:10388800184600f01bfa002301221146184600f0e2
:1038980015fa002302220121184600f00ffa00232e
:1038a80004220121184600f009fa00230822012108
:1038b800184600f003fa054b4ff400225a61202203
:1038c800c3f894201022c3f8942008bd008000415a
:020000040000fa
:1038d800154b01221a801a46136b13f0010ffbd106
:1038e8004ff080131b681a0902f07002d90001f426
:1038f800e061c3f382030a431a430b4ba3f8482041
:103908004ff4e0621a800322da721a7241f6020258
:103918009a801a22da80072283f82e201a46136b1f
:0c392800002bfcd1704700bf001c0043c6
:020000040000fa
:10393400154b01221a801a46136b13f0010ffbd1a9
:103944004ff080131b689a0c02f07002d90a01f43c
:10395400e061c3f302430a431a430b4ba3f8482024
:103964004ff4e0621a800322da721a7241f60102fd
:103974009a801a22da80072283f82e201a46136bc3
:0c398400002bfcd1704700bf0020004366
:020000040000fa
:10399000124b93f87d3903b97047104b002283f81e
:1039a0007d29d3f8782901211170d3f878290221d3
:1039b0005170d3f8782903219170d3f87839042213
:1039c000da70bff34f8f0649ca6802f4e062054b14
:1039d0001343cb60bff34f8f00bffde71000002003
:0839e00000ed00e00400fa050f
:020000040000fa
:1039e80008b5104b1a78104b1b6ac3f340139a4260
:1039f80010d00d4b1b6ac3f340130a4a13702022e0
:103a08000021084600f0c6f938b1074b4ff40062b0
:103a18009a6108bd054b1a70f1e7034b4ff4006239
:103a28005a61f6e7c30a002000800041c20a00205c
:020000040000fa
:103a380010b50e4b1b78b3b90d4b1c78a4b10d4bc8
:103a48001b780bb11c460fe00021032000f010fa90
:103a5800094b18700123074a1370102200210846e9
:103a680000f02cf900e00024204610bdc60a002012
:0c3a7800c80a0020cb0a0020d30a00205e
:020000040000fa
:103a840070b50d4d0d4c641ba4100026a64209d13f
:103a94000b4d0c4cfef7e2fb641ba4100026a6425f
:103aa40005d170bd55f8043b98470136eee755f84b
:103ab400043b98470136f2e76c2200006c220000b8
:083ac4006c22000070220000da
:020000040000fa
:103acc0030b40e4c2468d4f8fc43b4f15a3f13d0f4
:103adc000b4c94f8704984420ed9094c00f5ca7508
:103aec0004f8251004eb800080f8512680f852363b
:103afc009df8083080f8533630bc70479c09002084
:043b0c001000002085
:020000040000fa
:103b10000f4b01221a801a46136913f0010ffbd1d3
:103b20000b4b4ff401421a8000221a621a461369a5
:103b300013f0200ffbd1064b00225a621a4613697c
:103b400013f0400ffbd1024b83225a81704700bf14
:043b5000002400400d
:020000040000fa
:103b540010b5054c237833b9044b13b10448aff3c3
:103b640000800123237010bd900a00200000000093
:103b74000000000008b5034b1bb103490348aff331
:103b8400008008bd00000000940a0020000000002e
:020000040000fa
:103b94004ff08443586c20f4605020f01800400427
:103ba400400c9b6913f0010f11d04ff084429369cc
:103bb40043f002039361936923f4804323f00103e8
:103bc40043f480439361936913f0010ffbd1704771
:020000040000fa
:103bd4000d4ad36823f4e0631b041b0c43f0bf635a
:103be40043f40033d360bff35f8f62b6074be02228
:103bf40083f80b234ff40061196083f84e234ff4cc
:103c040080429a60704700bf00ed00e000e100e0f0
:020000040000fa
:103c140008b50b4b1b782bb90a4b1b7813b10a4b15
:103c24001b7803b908bd0020074b18700346102207
:103c3400014600f045f8054b4ff480425a61f1e724
:103c4400c60a0020c80a0020cb0a002000800041d8
:020000040000fa
:103c540000b583b000221146084800f06bf908480b
:103c6400084b01930023009300f10e03021d00f1a1
:103c74000c01fff757fc03b05df804fb293e00007c
:083c8400500a0020bc0a0020d8
:020000040000fa
:103c8c0000b583b001220021084800f04ff9084824
:103c9c00084b01930123009300f10e03021d00f168
:103cac000c01fff73bfc03b05df804fb513e000038
:083cbc00300a0020bc0a0020c0
:020000040000fa
:103cc40010b40c4c94f82e4384420fd903290dd818
:103cd400084c04eb80040c44a47b24ea020403b1e2
:103ce4001443044b03eb8000084484735df8044bd5
:083cf400704700bf1000002022
:020000040000fa
:103cfc0010f0010f04d00b4a137843f00203137039
:103d0c0010f0020f04d0074a137843f00403137029
:103d1c0010f0800f04d0034a137843f001031370a2
:083d2c00704700bfd40a00201b
:020000040000fa
:103d340010b50024084b1c80fff784fc00f016f932
:103d440000f02cf900f01ef900f034f9034b1c705c
:103d5400034b1c7010bd00bfb00a0020c90a00202c
:043d6400ca0a002067
:020000040000fa
:103d680008b528b1012808d0042000f04ff903e075
:103d7800fff74cff00f052f908bdfff759fe20b1dc
:103d88000021084600f038f9f6e7032000f03ef974
:023d9800f2e750
:020000040000fa
:023d9a00704770
:020000040000fa
:103d9c000a4b93f84f3683420ed9032901d90020e0
:103dac007047064b03eb8000084490f82f331a42ff
:103dbc0014bf012000207047002070471000002025
:020000040000fa
:103dcc000a4b01221a601a46136913f0010ffbd13a
:103ddc00064b40f214721a6001221a731a773322be
:103dec009a721a461369002bfcd1704700380040b8
:020000040000fa
:103dfc0008b500f029f9fff745fbfff701f9fff7cc
:103e0c00c6fffff763fdfff78ffdfff75dfcfff7c4
:0c3e1c0079fefff7d5fffff7d7fe08bdc9
:020000040000fa
:103e280008b5fff7b3fe10f0070005d0072803d048
:103e3800034b01221a7002e0024b01221a7008bdde
:083e4800bf0a0020c00a00209f
:020000040000fa
:103e500008b5fff79ffe10f0070005d0072803d034
:103e6000034b01221a7002e0024b01221a7008bdb6
:083e7000bd0a0020be0a00207b
:020000040000fa
:103e7800084b93f8703983420ad9032901d90020e5
:103e88007047044b03eb8000084490f850067047d5
:083e980000207047100000201b
:020000040000fa
:103ea00008b5074a908980b2064b58604cf2ff3142
:103eb00091811b6813b1034a9168984708bd00bf00
:083ec0000024004090090020dd
:020000040000fa
:103ec800074b1b78012b03d00133054a1370704749
:103ed800044b4ff48042da61014b01221a7070479b
:083ee800d00a00200080004117
:020000040000fa
:103ef000074b1b78022b03d00133054a1370704720
:103f0000044b4ff48042da61014b01221a70704772
:083f1000d10a002000800041ed
:020000040000fa
:103f1800064b93f82e33834206d9032904d8034b62
:103f280003eb800008448273704700bf1000002034
:020000040000fa
:103f380010b428b1044b43f8320003ebc2035960b4
:0c3f48005df8044b704700bf700a0020b9
:020000040000fa
:103f54000a44914200f1ff3300d1704710b511f8c3
:0c3f6400014b03f8014f9142f9d110bd50
:020000040000fa
:103f7000044a138843f002031380136b002bfcd117
:083f8000704700bf001c004364
:020000040000fa
:103f8800044a137d43f002031375136b13f4006f97
:083f9800fbd17047001c00433f
:020000040000fa
:103fa000044a138843f002031380136b002bfcd1e7
:083fb000704700bf0020004330
:020000040000fa
:103fb800044a137d43f002031375136b13f4006f67
:083fc800fbd17047002000430b
:020000040000fa
:103fd000044a138843f002031380136913f0020f9d
:083fe000fbd1704700240040f2
:020000040000fa
:103fe800044a136843f002031360136913f0020fc5
:083ff800fbd1704700380040c6
:020000040000fa
:10400000034b02229a72d872197300225a737047b6
:04401000100000207c
:020000040000fa
:10401400024b03229a725873704700bf10000020ad
:020000040000fa
:10402400024b03229a7206225a7370471000002032
:020000040000fa
:1040340010b1024b9861d961704700bf700a00202b
:020000040000fa
:104044000001020304050607080c10141820304070
:020000040000fa
:10405400024b40f204521a80704700bf00400041f6
:020000040000fa
:10406400024bd86ac0f38000704700bf0040004193
:020000040000fa
:10407400024b4ff400625a61704700bf0080004158
:020000040000fa
:1040840002440346934200d1704703f8011bf9e749
:020000040000fa
:0c409400014bb3f840007047001c0043d3
:020000040000fa
:0c40a000014bb3f84000704700200043c3
:020000040000fa
:0c40ac00014b18609960704790090020db
:020000040000fa
:0840b800500150091001101124
:020000040000fa
:0840c00008b5fef7ddf808bdac
:020000040000fa
:0240c800fee711
:020000040000fa
:0240ca00fee70f
:020000040000fa
:0240cc00fee70d
:020000040000fa
:0240ce00fee70b
:020000040000fa
:0240d000fee709
:020000040000fa
:0240d200fee707
:020000040000fa
:0240d400fee705
:020000040000fa
:0240d600704731
:020000040000fa
:0240d80070472f
:020000040000fa
:0200000400807a
:044000003912003c35
:020000040000fa
:0200000400807a
:044004009100a82a55
:020000040000fa
:0200000400807a
:04400800ffffffffb8
:00000001FF
