:020000040000fa
:10200000f8ff032001350000e7400000a94100006f
:10201000ad410000af410000b141000000000000f0
:10202000000000000000000000000000cf3f0000a2
:10203000ab41000000000000cf3f0000cf3f000098
:10204000cf3f0000cf3f0000cf3f0000cf3f000058
:10205000cf3f0000cf3f0000cf3f0000cf3f000048
:10206000cf3f0000cf3f0000cf3f0000193f0000ee
:10207000cf3f0000cf3f0000cf3f0000cf3f000028
:10208000cf3f0000cf3f0000cf3f0000cf3f000018
:10209000cf3f0000cf3f0000cf3f0000cf3f000008
:1020a000cf3f0000cf3f0000cf3f0000cf3f0000f8
:1020b000cf3f0000cf3f0000cf3f0000cf3f0000e8
:1020c000cf3f0000cf3f0000cf3f0000cf3f0000d8
:1020d000cf3f0000cf3f0000cf3f0000cf3f0000c8
:1020e000cf3f0000cf3f00000000000000000000d4
:1020f00000000000cf3f0000cf3f0000cf3f0000b6
:10210000cf3f0000cf3f0000cf3f0000cf3f000097
:10211000cf3f0000cf3f0000cf3f0000cf3f000087
:10212000cf3f0000cf3f0000cf3f0000cf3f000077
:10213000cf3f0000cf3f0000cf3f0000cf3f000067
:10214000cf3f0000cf3f0000cf3f0000cf3f000057
:10215000cf3f0000cf3f0000000000000000000063
:10216000000000000000000000000000000000006f
:102170000000000000000000212a0000cf3f000006
:10218000cf3f0000cf3f0000cf3f0000cf3f000017
:1021900000000000cf3f0000cf3f0000cf3f000015
:1021a000cf3f0000cf3f0000cf3f0000cf3f0000f7
:1021b000cf3f0000cf3f0000cf3f0000cf3f0000e7
:1021c000cf3f0000cf3f0000cf3f0000cf3f0000d7
:1021d000cf3f0000cf3f0000cf3f0000cf3f0000c7
:1021e000cf3f0000cf3f0000cf3f0000cf3f0000b7
:1021f000cf3f0000cf3f0000cf3f0000cf3f0000a7
:10220000cf3f00000000000000000000cf3f0000b2
:10221000cf3f0000cf3f0000cf3f0000cf3f000086
:10222000cf3f0000cf3f0000cf3f0000cf3f000076
:10223000cf3f0000cf3f0000cf3f0000cf3f000066
:10224000cf3f0000cf3f0000cf3f0000cf3f000056
:10225000cf3f0000cf3f0000cf3f0000cf3f000046
:020000040000fa
:10226000f8b500bff8bc08bc9e467047013c0000b2
:10227000f8b500bff8bc08bc9e467047dd3b0000c7
:020000040000fa
:1022800070b582b09e4b1b78a3b99e4b1b78002b78
:1022900040f08d819c4b1b78002b40f08f819b4b35
:1022a0001b78002b00f08881984b00221a7001f0f7
:1022b00035fd81e1924b00221a70954b1b7b082b58
:1022c00005d1934c221d04f10c05002103e001f01f
:1022d00025fd71e1194612f8010b80ea0103dbb21a
:1022e000aa42f7d1884223d1894b1b79894a1278b7
:1022f0009a4220d0874a1370854b03f114020433ad
:1023000093e8030082e80300834b5b78b3b9804b0a
:102310005b79013b092b4fd8dfe813f048006600da
:10232000700079009200a900c300da002e000601b7
:1023300001f0f4fc40e101f0f1fc3de10021764bbd
:102340005970a2f114030b225a75143304f11b02c5
:1023500013f8010b41409342fad16d4ad1766e4b8e
:102360001878002300931432082100f5a07000f0c3
:102370007dff01f0d3fc1fe1674b93f8713973b116
:10238000664a0023664ea2f2516552f8040b31688a
:1023900041f82300013395f871198b42f5db604b4e
:1023a0001b684ff05a32c3f8fc2305e05a4bd3f8b0
:1023b0000220574bc3f817205a4b04f11b0200218f
:1023c00013f8010b41409342fad1514ad176524b56
:1023d0001878002300931432082100f5a07000f053
:1023e00045ff01f09bfce7e04b4bd3f80610484a51
:1023f000c2f8171000229a71da71dde7444a464ba1
:1024000053f80a1fc2f816101b799376d4e7404b95
:102410009b79414a92f82f239a4209d902333e4ac6
:1024200002eb8303d3f80720394bc3f81720c3e727
:10243000374b00225a7504229a750122da75bbe7e0
:10244000334b9b79344a92f850269a4207d9cc33c1
:10245000314a52f823202e4bc3f81720ace72c4bff
:1024600000225a7505229a750122da75a4e7284bd5
:102470009b79294a92f871299a420ad903f5ca73bd
:10248000254a02eb8303d3f80120214bc3f8172020
:1024900092e71f4b00225a7506229a750122da75bf
:1024a0008ae71b4b9b791c4a92f850269a4207d91f
:1024b000cc33174ad2f81710174a42f823107be79b
:1024c000134b00225a7507229a750122da7573e7b9
:1024d0000f4b9b79104a92f871299a4208d90c4afd
:1024e000d2f817100c4a02eb8303c3f8511663e7c6
:1024f000074b00225a7508229a750122da755be7ac
:10250000490c0020480c0020470c0020460c0020fd
:10251000d80b0020440c0020100000206106002091
:10252000640c0020ec0b0020524bd3f874692eb3de
:10253000514b987928b14f4bdb7a012b2ed04d4b64
:1025400098724c4d0423eb7200232b736b734a4932
:102550008b7a00934b7a0a7ac979b047eb7a032bce
:1025600003d90322ea720522aa73434a414b53f866
:102570000a1fc2f816101b7993761de73e4a91791f
:1025800099720321d9720021197359730421997327
:10259000d3f80a30c2f8163091760de7364b032295
:1025a000da7500221a765a7601229a7604e7334bbe
:1025b00000221a7001f0b2fb02b070bd304b002255
:1025c0001a702d4b1b7b082b1bd12a4b00225a70f3
:1025d000294b03f11402191d03c982e803001b797a
:1025e000012b11d0022b2fd0224b187800230093ff
:1025f000244a082100f5807000f038fe01f08efbbf
:10260000dae701f08bfbd7e71a4b93f87c3973b903
:10261000194b00225a759a75da751a76164b154ab7
:1026200091785976d17899761279da76dce7124b7f
:1026300002225a750f4ad2f8782911799975517981
:10264000d97592791a76e9e70a4b93f87c393bb948
:10265000094bff221a7502225a7500229a75c3e7a8
:10266000044b012283f87d290021074801f04cfd2d
:10267000bae700bf10000020d80b0020480c002053
:0c268000470c0020ec0b0020113900007a
:020000040000fa
:10268c00ab4b1b78002b4ed1aa4b1b6a13f4004f9b
:10269c0000f0a681a84a13780133dbb21370042b27
:1026ac0005d9a34b01221a70a34b00221a70a34b1d
:1026bc001b78002b4ad19f4b1b6a13f0100f40f074
:1026cc0087819f4a13780133dbb21370042b05d931
:1026dc009a4b01221a709a4b00221a70994b1b8844
:1026ec00002b40f05f8170b5964b05221a80964bfb
:1026fc001b78002b61d1954b1b78012b50d05ab213
:10270c00002a36d0022b5cd1894b1b78002b51d17f
:10271c00884b4ff480425a618c4b00221a708a4bc2
:10272c0001221a704de0834b1b6a13f4004f40f0ea
:10273c005b81814a13780133dbb21370042bb6d959
:10274c0000237b4a13707c4a1370b0e7794b1b6ae9
:10275c0013f0100f00f04081794a13780133dbb28b
:10276c001370042bbad90023744a1370744a137073
:10277c00b4e7774b1b7853b96d4b1b786bb96d4b2a
:10278c004ff480429a61714b01221a7019e0013b9f
:10279c006f4a137001f0cefb13e001f0cbfb10e09d
:1027ac00634b1b786bb1634b04229a61674b02221b
:1027bc001a7006e001f0befb03e0664b1b78002ba1
:1027cc0049d05c4b1b6ac3f3c0038022002108462e
:1027dc0001f0d6fa01f0c6fc642404fb00f05e4d57
:1027ec0085fb00321318c217c2eba312d2b25b4e98
:1027fc0032700021012001f0c5fb01f0adfc04fb9f
:10280c0000f085fb00350544c217c2eba512d2b20d
:10281c00534c22700121084601f0b4fb0021042026
:10282c0001f060fb337883422cbf0023012320226c
:10283c000021084601f0a4fa0121042001f052fb0a
:10284c00237883422cbf0023012340220021084619
:10285c0001f096fa70bd01220021084601f0fcfa45
:10286c0000283bd1324b1b78002b00f09f803d4a57
:10287c0013780133dbb21370322b48d83a4a1278f2
:10288c00002a40f09b80142b12d9374c012525705f
:10289c000021032001f026fb344b18702b4610222c
:1028ac000021084601f06cfa2378002b40f086805a
:1028bc00224c237804220021084601f061fa237887
:1028cc00002b61d02a4b1b883bb3013b9bb2284a9f
:1028dc001380632b24d801f041fb72e701231d4abe
:1028ec00137040220221002001f04afa114c4ff4df
:1028fc008043636100201c4b187003461022014674
:10290c0001f03efa4ff40003c4f89830aae700f047
:10291c0039fe56e700f036fe53e700f033fe50e781
:10292c00144b1b78192b27d00133124a137048e72c
:10293c00560c0020008000415b0c0020550c002040
:10294c005a0c0020400c0020540c0020530c00208a
:10295c00580c0020520c002043082184500c0020fd
:10296c00510c0020590c0020570c00205f0c00204b
:10297c00420c00205e0c00201d4b4ff48042da61ab
:10298c001c4b01221a701ce70021022001f0aafa4c
:10299c0000eb80004000184b1880154b4ff4804220
:1029ac005a610ee7013b154a13807047144b002205
:1029bc001a70144b1b78002b3ff47aaf01f0cefa4f
:1029cc00114b1b78002ba5d0013b0f4a1370f8e676
:1029dc000e4b00221a7081e60c4b00221a707de619
:1029ec000b4b00221a7062e6094b00221a705ee64d
:1029fc00008000415e0c0020420c0020400c0020a6
:102a0c00590c0020570c00205f0c00205a0c0020a1
:042a1c005b0c00202f
:020000040000fa
:102a20002de9f04784b04ff084431d6d15f0007f11
:102a30001cbf4ff000721a6515f0010f62d04ff005
:102a4000844301221a655a6d22f001025a65d3f8b7
:102a5000a43013f07f0f55d04ff08443d3f8a44037
:102a6000c4f3052423014e4ad268d718d15811f077
:102a7000804fd15804eb84004a4e56f8200014bf12
:102a800021f06041c1f38a410160d2587b6813f4a0
:102a9000001f02d112f0005f78d104eb8403414a99
:102aa00002eb83031b6900221a707e683e4b0fcb3a
:102ab0000df1100c0ce90f00c6f30346664416f83e
:102ac00010ac384e4fea840808eb040906eb89097c
:102ad000524607f10801d9f8040001f087fad9f845
:102ae000083083f800a0d9f80c300bb17a681a804e
:102af0004ff08443c3f8a8402c4b1b6813b12b4afa
:102b00005068984715f4007f13d04ff084434ff47a
:102b100000721a655a6d22f400725a65002301266c
:102b20004ff0844227e0214b9b6913b11f4ad069c3
:102b3000984715f4006f12d04ff084424ff40063b1
:102b40001365d2f8c430c3f30423d2f8c420c2f30f
:102b50000442934203d20133dbb29a42fbd104b068
:102b6000bde8f087d2f8e00020ea0101c2f8e010e9
:102b70000133102bd7d006fa03f1d2f8d840d2f89f
:102b8000e0000842f4d00c42ecd1f1e704eb8403fe
:102b9000044a02eb83031b6901221a7085e700bf18
:102ba000880b0020b00b002018410000f80b00201b
:020000040000fa
:102bb0004d4b42f206229a821a46d36813f0010f57
:102bc000fbd0494b00221a7403f50063474ada62ce
:102bd0001a46536813f0200ffbd1454b454a9a62c1
:102be0001a46536813f0100ffbd1414b424a1a6347
:102bf0001a46536813f0400ffbd13d4b4222c3f8f5
:102c000084201a46d2f8843013f0400ffad03b4ba0
:102c100000229a6377225a631a46d36b13f0040f8b
:102c2000fbd1364b022283f830201a46d36b13f0c7
:102c3000020ffbd1314a136c03f00303032bfad1cb
:102c40002f4b01225a711a46d37813f0010ffbd093
:102c5000274b2c4a1a621a46536813f0040ffbd113
:102c6000234b294a5a621a46536813f0080ffbd1c6
:102c70001f4b4322c3f8a4201a46d2f8a43013f005
:102c8000400ffad01a4b4422c3f8ec201a46d2f86f
:102c9000ec3013f0400ffad0154b4422c3f8f0206b
:102ca0001a46d2f8f03013f0400ffad0104b412200
:102cb000c3f820211a46d2f8203113f0400ffad081
:102cc0000b4b4122c3f824211a46d2f8243113f0c9
:102cd000400ffad00a4b0d4a1a6144f2ff725a6152
:102ce0004ff4c0721a6270470014004004012000c3
:102cf000001c0040060130000601020000100040e8
:102d0000000800400701010007010200fffffb006f
:020000040000fa
:102d1000180c00201c00000000000000a00900208a
:102d20009801000000000000d80b002020000000e7
:102d300000000000100000208009000000000000da
:102d4000440c00200600000000000000640c00207d
:102d50000400000001000000000000449c09002065
:102d600004000000000000004a0c002001000000e8
:102d700000000000610c00200100000001000000c4
:102d800001000000f80b00202000000000000000ff
:102d9000880b002050000000000000004b0c0020b9
:102da0000100000000000000900900200c0000005d
:102db000000000004c0c0020040000000000000097
:102dc000340c00200400000000000000500c002023
:102dd0000800000000000000400c0020020000007d
:102de00000000000580c002002000000000000005d
:102df000420c002002000000000000005a0c0020dd
:102e00000700000000000000380c00200400000053
:102e100000000000380b00205000000000000000ff
:102e20003c0c002004000000000000000000000036
:102e300000000000666666666666666666666666ca
:020000040000fa
:102e40002de9f84f8b46924698469df828709df8dc
:102e50002c609df830503e4bd3f800903d4c2070d4
:102e6000012363703c4800f0adfaa770e67025714d
:102e70000223e372002323736373a373a371e371cb
:102e80002372637284f82fb384f850a6b8f1000f50
:102e900003d009f00f03012b13d02e4b002283f82f
:102ea00071292c4a0d9bc2f874394ff00053c2f8b7
:102eb00078391b78112b2ad0264b002283f87c29e5
:102ec0003de0c9f30219b9f1010fe6d184f8718927
:102ed00001f032f90028fbd1204b1968d1f8fc33fe
:102ee000b3f15a3f08d01e4b03eb8808002243f889
:102ef000042b4345fbd1d4e70b46194a01eb880864
:102f000053f8041b42f8041b4345f9d1c9e74ff0bd
:102f100000535b78822bcfd14ff000539b78132b5b
:102f2000cad14ff00053db78842bc5d1094b012265
:102f300083f87c294ff00053df711e725d72054be0
:102f4000002283f87d2900f0e9febde8f88f00bf7c
:102f50000440800010000020a0090020640c002024
:042f600061060020e6
:020000040000fa
:102f640010b4374b374a1a60402183f84210462286
:102f740083f84320062283f8442083f8452083f80d
:102f8400462083f8471083f8481083f8491083f8e3
:102f94004a2083f84b1083f84c20442083f84d00da
:102fa40083f84e1083f84f2083f8501083f85110a3
:102fb40083f8522083f8531083f8542083f8552063
:102fc400012083f8560083f8570083f8582083f8cb
:102fd400592083f85b20882483f83b401a4cc3f8bb
:102fe400804083f8c02083f8c12083f8c22083f88e
:102ff400c32083f8c41083f8c51083f8c80083f88d
:10300400c90083f8ca2083f8cb2083f8cc0083f866
:10301400cd0083f8ce2083f8cf2083f8d02083f826
:10302400d12083f8d61083f8d71083f8df1011224b
:1030340083f8b420772283f8b6205df8044b7047f8
:0c30440000800041846b0b003000c08055
:020000040000fa
:1030500038b501f099f8002840d1002404f00104ab
:10306000284dd5f8a030c3f3c03302220021084612
:1030700000f08cfe2b6ac3f380430822002108462f
:1030800000f084fe2b6ac3f30033102202210020db
:1030900000f07cfe204600f0e5fc204600f042fbfc
:1030a000204600f039f9204600f072fb204600f07f
:1030b000d9f9204600f082f8204600f081fc2b6a06
:1030c00013f4802f03d12b6a13f4801f0cd000233c
:1030d00002221146184600f059fe38bd01f03cf8b6
:1030e00080f00104e4b2b9e704220021084600f0b0
:1030f000b9fe0028ebd0012302221146002000f087
:0831000045feeae700800041f2
:020000040000fa
:1031080030b585b00125284b1d700024274b1c6065
:10311800274b039302950194009509232a4602211f
:103128001020fff789fe00942346224628212046d6
:1031380000f070fd0094234622463221284600f014
:1031480069fd009423462246c821022000f062fd52
:103158000094234622466421032000f05bfd00947e
:10316800234664221146042000f054fd00942346af
:1031780022462146052000f04dfd009423462246b4
:103188002146062000f046fd0094234622462146ab
:10319800072000f03ffd00942346224621460820e0
:1031a80000f038fd05b030bd610c00209c090020fe
:0431b800313e0000a4
:020000040000fa
:1031bc0010b52a4cd4f8a03003f0010310220121e1
:1031cc00002000f0ddfdd4f8a030c3f34003202232
:1031dc000121002000f0d4fdd4f8a030c3f380030b
:1031ec0001221146002000f0cbfdd4f8a030c3f32f
:1031fc00c00302220121002000f0c2fd236ac3f3a8
:10320c00405304220121002000f0bafd236ac3f3cd
:10321c00c06308220121002000f0b2fd236ac3f331
:10322c00006340220121002000f0aafd236ac3f3b1
:10323c00406380220121002000f0a2fd2022032106
:10324c00002000f009fe18b12022c4f8982010bd0f
:10325c00024b2022c3f89420f9e700bf0080004104
:020000040000fa
:10326c00f8b59df818c0bcf1010f01d90020f8bdcc
:10327c004ff08443d3f8c43013f4001f3fd14ff008
:10328c008443d3f8c440c4f3044426011d4b9f6906
:10329c00bd19b0f5006f26bf20f0604040f08040b3
:1032ac008004b8510b46082928bf0823180468600d
:1032bc001cf0fd0f1ed111461a4605f1080000f056
:1032cc008ffe114a13780133dbb213706a6842ea3d
:1032dc00036343f400036b60012000fa04f44ff025
:1032ec008443c3f8e040c3f8d0405a6d42f40072f6
:1032fc005a65bce7bb5943f00053bb51e1e70020d2
:0c330c00b5e700bf880b00204b0c002030
:020000040000fa
:1033180010b50446284b1b6ac3f3802308220221f8
:10332800002000f02ffd64b9234b4ff400625a616e
:1033380080225a614ff480725a614ff400725a61c8
:1033480010bd20220021084600f088fd08b31a4b62
:103358004ff400629a6108220121002000f07efdee
:10336800e0b1154b80229a6110220121002000f063
:1033780075fdb8b1104b4ff480729a61202201217b
:10338800002000f06bfd90b10b4b4ff400729a6176
:10339800d6e7094b4ff400625a61dce7064b8022fe
:1033a8005a61e1e7044b4ff480725a61e6e7024b39
:0c33b8004ff400725a61c3e7008000412e
:020000040000fa
:1033c40038b504464ff4cc72002100f077fe4ff07c
:1033d400844301229a611a46936913f0010ffbd0ca
:1033e4004ff084439a6942f002029a611a49cc6010
:1033f400a2b242f0004242f48032c3f8a02004f1a9
:1034040010028a6192b242f08052c3f8c02004f5df
:103414008872ca6192b242f48012c3f8f02004f5b3
:10342400c8720a620d4d03cdc4f89001c4f894111a
:1034340092b242f40032c3f884209a6922f48042a2
:1034440022f0010242f480429a611a46936913f011
:10345400010ffbd138bd00bf880b00209c41000048
:020000040000fa
:1034640010b5224b1b7813b3214b1b68ff2b0bd0d9
:1034740033b9204a4ff4005191614ff40061516116
:1034840001331b4a136010bd0020194b1860174b01
:103494001870184a136ac3f3802317490b704ff44a
:1034a400005151612022022100f06efcebe704463a
:1034b400114b1b7820220221002000f065fc24b966
:1034c4000c4b4ff400525a61dde7012211460020f3
:1034d40000f0c6fc20b1074b4ff400529a61d2e7ca
:1034e400044b4ff400525a61cde700bf4f0c00204b
:0c34f400340c0020008000414e0c002031
:020000040000fa
:1035000008b51b4b98471b4b9847eff3108172b6d9
:10351000194ad2f8883043f47003c2f88830bff3f8
:103520004f8fbff36f8f01b962b6144c20236360d5
:1035300000f00cfb124b23f07f030f4a9360114bfa
:103540009847a36823f00103a3602346da6812f0ca
:10355000010ffbd1094b5a6842f004025a60012264
:103560009a60094b9847094b984700f09bf8fee793
:10357000b3410000b341000000ed00e000600041f5
:1035800000200000b5380000b3410000b341000046
:020000040000fa
:1035900070b50024194b1c70194b1c702146204635
:1035a00000f0a6fc174b1870174e04257561174bd9
:1035b0001c70234640220221204600f0e7fb4ff416
:1035c0000003c6f89430234610222146204600f01e
:1035d000ddfb0f4b1c702146022000f089fc00eb44
:1035e000800040000b4b188023462a462146204687
:1035f00000f0ccfb084b1c7070bd00bf540c0020c9
:10360000530c0020580c002000800041520c002078
:0c361000570c0020420c0020590c002038
:020000040000fa
:10361c0038b54ff0844301229a611a46936913f02e
:10362c00010ffbd04ff084439a6942f002029a6179
:10363c00164ada612b22c3f8802001221a629a6999
:10364c0022f4804222f0010242f480429a611a462e
:10365c00936913f0010ffbd14ff0844300249c6558
:10366c000122da654ff000725a65094d2c606c60ce
:10367c00ac6028222146074800f01cfdec602c6150
:10368c006c61ac61ec612c626c6238bd00050200af
:08369c00880b0020b00b002098
:020000040000fa
:1036a40008b5002000f00cfc00211a4800f064fd6d
:1036b40000f0d8fcfff726fd00f0e0fc00f042fd2e
:1036c40000f09afb144c154d00f062fd237813f0c2
:1036d400020f0fd1237813f0040f15d1237813f0c0
:1036e400010ff1d023f0010323704ff00043c5f81c
:1036f4009c30e9e723f002032370fff7a7fc00f0f6
:1037040087f900f02ff9e5e723f004032370fef7af
:10371400bbffe3e7c53d0000600c002000800041d2
:020000040000fa
:1037240010b50446184b1b6ac3f38013012202210f
:10373400002000f029fb3cb9134b4ff400329a618e
:103744004ff480325a6110bd02220021084600f075
:1037540087fb70b10c4b4ff400325a6104220021f4
:10376400084600f07dfb48b1074b4ff480329a6164
:10377400e9e7054b4ff400329a61efe7024b4ff44f
:0c37840080325a61dfe700bf0080004186
:020000040000fa
:1037900010b50446184b1b6ac3f3005304220221e0
:1037a000002000f0f3fa3cb9134b4ff400225a61a9
:1037b0001022c3f8942010bd08220021084600f012
:1037c00051fb70b10c4b4ff400229a611022002182
:1037d000084600f047fb48b1074b1022c3f8982079
:1037e000e9e7054b4ff400225a61efe7024b102244
:0c37f000c3f89420dfe700bf0080004118
:020000040000fa
:1037fc00154b01221a801a46136b13f0010ffbd1e3
:10380c004ff080131b681a0902f07002d90001f402
:10381c00e061c3f382030a431a430b4ba3f848201d
:10382c004ff4e0621a800322da721a7241f6020235
:10383c009a801a22da80072283f82e201a46136bfc
:0c384c00002bfcd1704700bf001c0043a3
:020000040000fa
:10385800154b01221a801a46136b13f0010ffbd186
:103868004ff080131b689a0c02f07002d90a01f419
:10387800e061c3f302430a431a430b4ba3f8482001
:103888004ff4e0621a800322da721a7241f60102da
:103898009a801a22da80072283f82e201a46136ba0
:0c38a800002bfcd1704700bf0020004343
:020000040000fa
:1038b4000e4a38b5002313600d4a0e4c13600e4aad
:1038c4000e4d13600e4a13600e4a13600e4a536283
:1038d40013610123936000f06bfc00f069fcac42bf
:1038e40000d338bd54f8043b9847f8e73c0c00205b
:1038f400440b00206c220000400b002070220000ca
:0c390400380b00203c0b0020480b00207a
:020000040000fa
:10391000124b93f87d3903b97047104b002283f89e
:103920007d29d3f8782901211170d3f87829022153
:103930005170d3f8782903219170d3f87839042293
:10394000da70bff34f8f0649ca6802f4e062054b94
:103950001343cb60bff34f8f00bffde71000002083
:0839600000ed00e00400fa058f
:020000040000fa
:1039680008b580220321002000f078fa0f4b1b785d
:1039780083420cd10e4b1b68bbb10d4b1a68013a40
:103988001a601b688bb90b4b01221a700de080225c
:103998000321002000f062fa044b1870044b4ff426
:1039a8008a721a60034b00221a7008bd4a0c002064
:0839b8009c090020610c0020b5
:020000040000fa
:1039c00010b5134cd4f8a030c3f3c0230122032157
:1039d000002000f0dbf9d4f8a030c3f380230222ea
:1039e0000321002000f0d2f9d4f8a030c3f3004343
:1039f00004220321002000f0c9f9d4f8a030c3f359
:103a0000004308220321002000f0c0f910bd00bfd0
:043a100000800041f1
:020000040000fa
:103a140008b5104b1a78104b1b6ac3f340139a4233
:103a240010d00d4b1b6ac3f340130a4a13702022b3
:103a34000021084600f014fa38b1074b4ff4006235
:103a44009a6108bd054b1a70f1e7034b4ff400620d
:103a54005a61f6e74d0c0020008000414c0c002018
:020000040000fa
:103a640008b528b9114b4ff48002c3f8942008bd5f
:103a740004220121002000f0f3f928b90b4b4ff484
:103a84008002c3f89420f2e702220121002000f012
:103a9400e7f928b1054b4ff48002c3f89820e6e714
:103aa400024b4ff48002c3f89420e0e70080004109
:020000040000fa
:103ab400f0b59df81440ecb94ff0844cdcf8a450f8
:103ac400c5f305250c4cae007719bf0004eb070eb7
:103ad400e051cef80420cef80810cef80c30069b46
:103ae400cef81030dcf8543043f00103ccf85430f5
:0c3af400012000e00020f0bdb00b00201d
:020000040000fa
:103b000010b50e4b1b78b3b90d4b1c78a4b10d4bff
:103b10001b780bb11c460fe00021032000f0e8f9f0
:103b2000094b18700123074a137010220021084620
:103b300000f02cf900e00024204610bd520c0020bb
:0c3b4000540c0020570c00205f0c0020eb
:020000040000fa
:103b4c0070b50e4b0e4a0021934208d30d480e4d12
:103b5c004ff6ff76016829b943681bb970bd03f8ad
:103b6c00011bf1e783684268334000f10c0455f8ff
:103b7c0023302046984704eb8000ebe71000002030
:0c3b8c0010000020102d0000ac400000d4
:020000040000fa
:103b98000f4b01221a801a46136913f0010ffbd14b
:103ba8000b4b4ff401421a8000221a621a4613691d
:103bb80013f0200ffbd1064b00225a621a461369f4
:103bc80013f0400ffbd1024b83225a81704700bf8c
:043bd8000024004085
:020000040000fa
:103bdc0010b5054c227832b9044b13b10448aff33d
:103bec0000800123237010bd180c00200000000081
:103bfc000000000008b5034b1bb103490348aff3a9
:103c0c00008008bd000000001c0c0020000000001b
:020000040000fa
:103c1c0030b40d4c2468d4f8fc43b4f15a3f11d0a5
:103c2c000a4c94f8714984420cd9084c04eb800579
:103c3c0085f8511685f8522685f853369df80830cc
:103c4c0085f8543630bc7047640c002010000020fe
:020000040000fa
:103c5c004ff08443586c20f4605020f0180040045e
:103c6c00400c9b6913f0010f11d04ff08442936903
:103c7c0043f002039361936923f4804323f001031f
:103c8c0043f480439361936913f0010ffbd17047a8
:020000040000fa
:103c9c000d4ad36823f4e0631b041b0c43f0bf6391
:103cac0043f40033d360bff35f8f62b6074be0225f
:103cbc0083f80b234ff40061196083f84e234ff403
:103ccc0080429a60704700bf00ed00e000e100e028
:020000040000fa
:103cdc0008b50b4b1b782bb90a4b1b7813b10a4b4d
:103cec001b7803b908bd0020074b1870034610223f
:103cfc00014600f045f8054b4ff480425a61f1e75c
:103d0c00520c0020540c0020570c00200080004165
:020000040000fa
:103d1c0000b583b000221146084800f053f908485a
:103d2c00084b01930023009300f10e03021d00f1d8
:103d3c000c01fff7b9fe03b05df804fb553d000024
:083d4c00d80b0020450c0020fb
:020000040000fa
:103d540008b5fff781ff10f0070001d0072809d14b
:103d6400064b1b68b3f5a07f2cbf054b054b012206
:103d74001a7008bdfff7d0fffbe700bfd80b002087
:083d8400490c0020470c00204f
:020000040000fa
:103d8c0010b40c4c94f82f4384420fd903290dd84e
:103d9c00084c04eb80040c44e47b24ea020403b1d9
:103dac001443044b03eb80000844c4735df8044bcc
:083dbc00704700bf1000002059
:020000040000fa
:103dc40010f0010f04d00b4a137843f00203137070
:103dd40010f0020f04d0074a137843f00403137061
:103de40010f0800f04d0034a137843f001031370da
:083df400704700bf600c0020c5
:020000040000fa
:103dfc0010b50024084b1c80fff7c4fb00f0fef844
:103e0c0000f014f900f006f900f01cf9034b1c70db
:103e1c00034b1c7010bd00bf400c0020550c002043
:043e2c00560c002010
:020000040000fa
:103e300008b528b1012808d0042000f055f903e0a6
:103e4000fff74cff00f058f908bdfff759fe20b10d
:103e50000021084600f020f9f6e7032000f044f9bd
:023e6000f2e787
:020000040000fa
:023e62007047a7
:020000040000fa
:103e64000a4b93f8503683420ed9032901d9002016
:103e74007047064b03eb8000084490f830331a4235
:103e840014bf01200020704700207047100000205c
:020000040000fa
:103e94000a4b01221a601a46136913f0010ffbd171
:103ea400064b40f214721a6001221a731a773322f5
:103eb4009a721a461369002bfcd1704700380040ef
:020000040000fa
:103ec40008b500f02ff9fff74bf8fef76ffefff788
:103ed400c6fffff791fcfff79ffbfff7bbfcfff763
:0c3ee40059fefff7d5fffff7d7fe08bd21
:020000040000fa
:103ef000084b93f8713983420ad9032901d900206c
:103f00007047044b03eb8000084490f8510670475b
:083f10000020704710000020a2
:020000040000fa
:103f180008b5074a908980b2064b58604cf2ff31c9
:103f280091811b6813b1034a9168984708bd00bf87
:083f3800002400409009002064
:020000040000fa
:103f4000074b1b78012b03d00133054a13707047d0
:103f5000044b4ff48042da61014b01221a70704722
:083f60005c0c00200080004110
:020000040000fa
:103f6800074b1b78022b03d00133054a13707047a7
:103f7800044b4ff48042da61014b01221a707047fa
:083f88005d0c002000800041e7
:020000040000fa
:103f9000064b93f82f33834206d9032904d8034be9
:103fa00003eb80000844c273704700bf100000207c
:020000040000fa
:103fb00010b50023934206d113f0030018bf01206f
:0e3fc00000eb930010bdc45ccc540133f2e75b
:020000040000fa
:023fce00fee70c
:020000040000fa
:103fd00010b428b1044b43f8320003ebc20359601c
:0c3fe0005df8044b704700bff80b002098
:020000040000fa
:103fec005ab110b40a44431e11f8014b03f8014fa7
:0c3ffc009142f9d15df8044b704770470a
:020000040000fa
:10400800044a138843f002031380136b002bfcd17e
:08401800704700bf001c0043cb
:020000040000fa
:10402000044a137d43f002031375136b13f4006ffe
:08403000fbd17047001c0043a6
:020000040000fa
:10403800044a138843f002031380136b002bfcd14e
:08404800704700bf0020004397
:020000040000fa
:10405000044a137d43f002031375136b13f4006fce
:08406000fbd170470020004372
:020000040000fa
:10406800044a138843f002031380136913f0020f04
:08407800fbd170470024004059
:020000040000fa
:10408000034b00221a70034b01221a70704700bfc5
:084090004e0c00204f0c002033
:020000040000fa
:10409800034b0222da721873597300229a7370471d
:0440a80010000020e4
:020000040000fa
:1040ac00d5400000b13f0000a5410000a541000033
:0440bc00a54100001a
:020000040000fa
:1040c00032b1c9b20244034603f8011b9342fbd14b
:0440d000704700bf76
:020000040000fa
:1040d4000a440023914201d10020704701f8013bba
:0240e400f8e7fb
:020000040000fa
:0240e600fee7f3
:020000040000fa
:1040e800024b0322da729873704700bf1000002059
:020000040000fa
:1040f800024b0322da7206229a73704710000020de
:020000040000fa
:1041080010b1024b9861d961704700bff80b0020cd
:020000040000fa
:104118000001020304050607080c1014182030409b
:020000040000fa
:10412800024b40f204521a80704700bf0040004121
:020000040000fa
:10413800024bd86ac0f38000704700bf00400041be
:020000040000fa
:10414800024b4ff400625a61704700bf0080004183
:020000040000fa
:0c415800014b1878704700bf610c00207c
:020000040000fa
:0c416400014bb3f840007047001c004302
:020000040000fa
:0c417000014bb3f84000704700200043f2
:020000040000fa
:0c417c00014b186099607047900900200a
:020000040000fa
:0c418800014b1878704700bf540c002059
:020000040000fa
:0841940008b5fef773f808bd41
:020000040000fa
:08419c00500150091001100947
:020000040000fa
:0441a4000020704740
:020000040000fa
:0241a800fee730
:020000040000fa
:0241aa00fee72e
:020000040000fa
:0241ac00fee72c
:020000040000fa
:0241ae00fee72a
:020000040000fa
:0241b000fee728
:020000040000fa
:0241b200704754
:020000040000fa
:0241b400704752
:020000040000fa
:0200000400807a
:044000003912003c35
:020000040000fa
:0200000400807a
:044004009100a82a55
:020000040000fa
:0200000400807a
:04400800ffffffffb8
:00000001FF
