:020000040000fa
:10000000f0ff032035090000c50f0000c70f0000f6
:10001000cb0f0000cd0f0000cf0f0000000000004c
:10002000000000000000000000000000c30f0000fe
:10003000c90f000000000000c30f0000c30f000044
:10004000c30f0000c30f0000c30f0000c30f000068
:10005000c30f0000c30f0000c30f0000c30f000058
:10006000c30f0000c30f0000c30f0000a50e000067
:10007000c30f0000c30f0000c30f0000c30f000038
:10008000c30f0000c30f0000c30f0000c30f000028
:10009000c30f0000c30f0000c30f0000c30f000018
:1000a000c30f0000c30f0000c30f0000c30f000008
:1000b000c30f0000c30f0000c30f0000c30f0000f8
:1000c000c30f0000c30f0000c30f0000c30f0000e8
:1000d000c30f0000c30f0000c30f0000c30f0000d8
:1000e000c30f0000c30f000000000000000000006c
:1000f00000000000c30f0000c30f0000c30f00008a
:10010000c30f0000c30f0000c30f0000c30f0000a7
:10011000c30f0000c30f0000c30f0000c30f000097
:10012000c30f0000c30f0000c30f0000c30f000087
:10013000c30f0000c30f0000c30f0000c30f000077
:10014000c30f0000c30f0000c30f0000c30f000067
:10015000c30f0000c30f00000000000000000000fb
:10016000000000000000000000000000000000008f
:1001700000000000000000008102000001040000f7
:10018000c30f0000c30f0000c30f0000c30f000027
:1001900000000000c30f0000c30f0000c30f0000e9
:1001a000c30f0000c30f0000c30f0000c30f000007
:1001b000c30f0000c30f0000c30f0000c30f0000f7
:1001c000c30f0000c30f0000c30f0000c30f0000e7
:1001d000c30f0000c30f0000c30f0000c30f0000d7
:1001e000c30f0000c30f0000c30f0000c30f0000c7
:1001f000c30f0000c30f0000c30f0000c30f0000b7
:10020000c30f00000000000000000000c30f00004a
:10021000c30f0000c30f0000c30f0000c30f000096
:10022000c30f0000c30f0000c30f0000c30f000086
:10023000c30f0000c30f0000c30f0000c30f000076
:10024000c30f0000c30f0000c30f0000c30f000066
:10025000c30f0000c30f0000c30f0000c30f000056
:020000040000fa
:10026000f8b500bff8bc08bc9e467047a10c000062
:10027000f8b500bff8bc08bc9e4670477d0c000076
:020000040000fa
:100280002de9f04784b04ff084431c6d14f0007fdb
:100290001cbf4ff000721a6514f0010f62d04ff0ce
:1002a000844301221a655a6d22f001025a65d3f87f
:1002b000a43013f07f0f55d04ff08443d3f8a450ef
:1002c000c5f305252b014a4ad268d718d15811f039
:1002d000804fd15805eb8500464e56f8200014bfdc
:1002e00021f06041c1f38a410160d2587b6813f468
:1002f000001f02d112f0005f71d105eb85033d4a6a
:1003000002eb83031b6900221a707e683a4b0fcb05
:100310000df1100c0ce90f00c6f30346664416f805
:1003200010ac344e4fea850808eb050906eb890945
:10033000524607f10801d9f8040000f0e5fdd9f8ac
:10034000083083f800a0d9f80c300bb17a681a8015
:100350004ff08443c3f8a850284b1b6813b1274ab9
:100360005068984714f4007f20d04ff084434ff436
:1003700000721a655a6d22f400725a65d3f8d820bb
:10038000d3f8e03013f0010f0ad012f0010f07d0bc
:100390004ff08442d2f8e03023f00103c2f8e0309d
:1003a000164b9b6913b1154ad069984714f4006f36
:1003b00012d04ff084424ff400631365d2f8c4307a
:1003c000c3f30423d2f8c420c2f30442934203d2fd
:1003d0000133dbb29a42fbd104b0bde8f08705ebf4
:1003e0008503044a02eb83031b6901221a708ce720
:1003f000bc000020e4000020740f00002c0100204d
:020000040000fa
:100400002de9f04784b0574b1c6d14f0007f1cbfe2
:100410004ff000721a6514f0010f5fd0514b0122aa
:100420001a655a6d22f001025a65d3f8a43013f010
:100430007f0f53d04b4bd3f8a450c5f305252b01a8
:10044000494ad268d718d15811f0804fd15805ebde
:100450008500464e56f8200014bf21f06041c1f3dc
:100460008a410160d2587b6813f4001f02d112f058
:10047000005f6dd105eb85033c4a02eb83031b69ea
:1004800000221a707e683a4b0fcb0df1100c0ce96c
:100490000f00c6f30346664416f810ac334e4fea1d
:1004a000850808eb050906eb8909524607f10801a2
:1004b000d9f8040000f028fdd9f8083083f800a02e
:1004c000d9f80c300bb17a681a80264bc3f8a850c3
:1004d000284b1b6813b1274a5068984714f4007fd3
:1004e0001ed0204b4ff400721a655a6d22f4007230
:1004f0005a65d3f8d820d3f8e03013f0010f09d0b3
:1005000012f0010f06d0174ad2f8e03023f00103b1
:10051000c2f8e030174b9b6913b1164ad06998476f
:1005200014f4006f11d00f4a4ff400631365d2f832
:10053000c430c3f30423d2f8c420c2f3044293426c
:1005400003d20133dbb29a42fbd104b0bde8f0879d
:1005500005eb8503054a02eb83031b6901221a7030
:1005600090e700bf000400426c00002094000020cf
:08057000640f00000c010020e3
:020000040000fa
:100578003a4b00221a7403f50063394ada621a46c4
:10058800536813f0200ffbd1364b374a9a621a464c
:10059800536813f0100ffbd1324b4222c3f884206a
:1005a8001a46d2f8843013f0400ffad02f4b0022ad
:1005b8009a6377225a631a46d36b13f0040ffbd160
:1005c8002a4b022283f830201a46d36b13f0020f0d
:1005d800fbd1264a136c03f00303032bfad1244bf7
:1005e80001225a711a46d37813f0010ffbd01d4b24
:1005f800204a1a621a46536813f0040ffbd1194bac
:100608001d4a5a621a46536813f0080ffbd1154b5e
:100618004322c3f8a4201a46d2f8a43013f0400f9e
:10062800fad0104b4122c3f8ec201a46d2f8ec302d
:1006380013f0400ffad00b4b4122c3f8f0201a46b2
:10064800d2f8f03013f0400ffad0094b6ff07f4228
:100658001a6144f2ff725a61704700bf00140040eb
:1006680004012000001c004006013000001000407a
:0c0678000008004007010100070102001b
:020000040000fa
:100684008c0100201c000000000000003c00002041
:1006940001000000000000000c0100202000000008
:1006a400000000006c000020280000000000000092
:1006b4009400002028000000000000003d000020fd
:1006c40001000000000000002c01002020000000b8
:1006d40000000000bc000020280000000000000012
:1006e400e4000020280000000000000000000020ba
:1006f4002c000000000000004c010020200000003d
:1007040000000000400000202c0000000000000059
:100714006c01002020000000000000003e000020ca
:1007240001000000000000003f0000200100000064
:1007340000000000a80100200100000000000000eb
:100744002c0000200c0000000000000038000020f5
:100754000400000000000000000000000000000091
:020000040000fa
:10076400f8b59df818c0bcf1010f01d90020f8bdff
:10077400224bd3f8c43013f4001f3dd11f4bd3f8e0
:10078400c440c4f3044426011d4b9f69bd19b0f550
:10079400006f26bf20f0604040f080408004b851d4
:1007a4000b46082928bf0823180468601cf0fd0fb5
:1007b4001dd111461a4605f1080000f0a3fb114aa9
:1007c40013780133dbb213706a6842ea036343f4bb
:1007d40000036b60012000fa04f4084bc3f8e04006
:1007e400c3f8d0405a6d42f400725a65bfe7bb5952
:1007f40043f00053bb51e2e70020b8e70004004295
:080804006c0000203d00002003
:020000040000fa
:10080c0010b504462c22002100f0c6fb1e4b012221
:10081c009a611a46936913f0010ffbd01a4b9a692f
:10082c0042f002029a611949cc60a2b242f0004235
:10083c0042f48032c3f8a02004f110028a6192b213
:10084c0042f08072c3f8c02004f12002ca6192b257
:10085c0042f48032c3f8f02004f128020a620c49f9
:10086c00a16292b242f48032c3f884209a6922f4d5
:10087c00804222f0010242f480429a611a46936946
:10088c0013f0010ffbd110bd000400426c000020de
:04089c000106010e42
:020000040000fa
:1008a00010b504462c22002100f07cfb4ff084435d
:1008b00001229a611a46936913f0010ffbd04ff0a1
:1008c00084439a6942f002029a611849cc60a2b24c
:1008d00042f0004242f48032c3f8a02004f110023a
:1008e0008a6192b242f08072c3f8c02004f1200203
:1008f000ca6192b242f48032c3f8f02004f12802b7
:100900000a620b49a16292b242f48032c3f8842099
:100910009a6922f4804222f0010242f480429a61f4
:100920001a46936913f0010ffbd110bdbc000020e3
:040930000102010ab5
:020000040000fa
:1009340008b51b4b98471b4b9847eff3108172b6d1
:10094400194ad2f8883043f47003c2f88830bff3f0
:100954004f8fbff36f8f01b962b6144c20236360cd
:1009640000f0b6f8124b23f07f030f4a9360114b4b
:100974009847a36823f00103a3602346da6812f0c2
:10098400010ffbd1094b5a6842f004025a6001225c
:100994009a60094b9847094b984700f08df9fee798
:1009a400d10f0000d10f000000ed00e00060004115
:1009b40000000000f10b0000d10f0000d10f000077
:020000040000fa
:1009c40038b51d4b01229a611a46936913f0010f41
:1009d400fbd0194b9a6942f002029a61174ada6114
:1009e4002b22c3f8802001221a629a6922f48042e1
:1009f40022f0010242f480429a611a46936913f08c
:100a0400010ffbd10c4b00249c650122da654ff0e9
:100a140000725a650a4d2c606c60ac602822214635
:100a2400084800f0bdfaec602c616c61ac61ec61cb
:100a34002c626c6238bd00bf000400422bfe0156dc
:080a44006c000020940000206a
:020000040000fa
:100a4c0038b54ff0844301229a611a46936913f02a
:100a5c00010ffbd04ff084439a6942f002029a6175
:100a6c00164ada612b22c3f8802001221a629a6995
:100a7c0022f4804222f0010242f480429a611a462a
:100a8c00936913f0010ffbd14ff0844300249c6554
:100a9c000122da654ff000725a65094d2c606c60ca
:100aac00ac6028222146074800f076faec602c61f5
:100abc006c61ac61ec612c626c6238bd2bfe015632
:080acc00bc000020e400002042
:020000040000fa
:100ad4001e4b1f4a9342f0b438bf002103d203f8df
:100ae400011b9342fbd11b4ad2e9000150ea0103e6
:100af4004ff0000610d09468034602f10c076cb95d
:100b040021b1014403f8016b9942fbd13a46d2e981
:100b1400000150ea0103eed1f0bc704759b101f174
:100b24000c030c38801a1a443b461c1813f8015b5a
:100b340025709342f9d111f0030318bf012303eb8d
:100b4400910107eb81073a46e1e700bf000000206e
:080b54000000002084060000ef
:020000040000fa
:100b5c00f0b59df81440ecb94ff0844cdcf8a4507f
:100b6c00c5f305250c4cae007719bf0004eb070e3e
:100b7c00e051cef80420cef80810cef80c30069bcd
:100b8c00cef81030dcf8543043f00103ccf854307c
:0c0b9c00012000e00020f0bde40000207b
:020000040000fa
:100ba8000f4ad36823f4e0631b041b0c43f0bf63b4
:100bb80043f40033d360bff35f8f62b6094be02282
:100bc80083f80b234ff40061196083f84e234ff428
:100bd8008041996083f84f234ff400429a60704730
:080be80000ed00e000e100e077
:020000040000fa
:100bf00070b50d4d0d4c641ba4100026a64209d102
:100c00000b4d0c4cfff72cfb641ba4100026a642d6
:100c100005d170bd55f8043b98470136eee755f80d
:100c2000043b98470136f2e76c0200006c020000ba
:080c30006c02000070020000dc
:020000040000fa
:100c38000f4b01221a801a46136913f0010ffbd1da
:100c48000b4b4ff401421a8000221a621a461369ac
:100c580013f0200ffbd1064b00225a621a46136983
:100c680013f0400ffbd1024b80225a81704700bf1e
:040c78000024004014
:020000040000fa
:100c7c0010b5054c237833b9044b13b10448aff3ca
:100c8c0000800123237010bd8c01002000000000a7
:100c9c000000000008b5034b1bb103490348aff338
:100cac00008008bd00000000900100200000000042
:020000040000fa
:100cbc0008b5002000f0c8f800210b4800f074f9ca
:100ccc0000f036f900f028f900f05ef900f054f964
:100cdc00064c002501e000f04bf82378002bfad0ed
:100cec0000f026f82570f6e7cd0e00003c00002041
:020000040000fa
:100cfc004ff08443586c20f4605020f018004004ee
:100d0c00400c9b6913f0010f11d04ff08442936992
:100d1c0043f002039361936923f4804323f00103ae
:100d2c0043f480439361936913f0010ffbd1704737
:020000040000fa
:100d3c0000b583b00d4a01231375022353750323a9
:100d4c0093750423d3750523137606235376072353
:100d5c0093760821d17600230093143240f20120bf
:100d6c00fff7fafc03b05df804fb00bf4c01002058
:020000040000fa
:100d7c0008b50c4b1b781bb90b4b1b785bb908bd2a
:100d8c00084b00221a70094b4ff00042c3f89c200c
:100d9c0000f00ef8f3e7044b00221a7000f008f88c
:100dac00ede700bfa80100203f00002000800041bb
:020000040000fa
:100dbc0000b583b000221146084800f091f80848ad
:100dcc00084b01930023009300f10e03021d00f168
:100ddc000c01fff7bdfe03b05df804fb7d0e0000b7
:080dec006c0100203e00002014
:020000040000fa
:100df4000a4b012283f8562083f85720882183f870
:100e04003b104ff00041c3f8801083f8cc2083f8e6
:100e1400cd20772283f8b620704700bf00800041c0
:020000040000fa
:100e24000a4b01221a601a46136913f0010ffbd111
:100e3400064b40f214721a6001221a731a77332295
:100e44009a721a461369002bfcd17047003800408f
:020000040000fa
:100e540008b500f07df8fff7cbfffff78bfb00f040
:100e6400adf8fff7adfdfff7effdfff7e3fefff78a
:080e7400d7fffff797fe08bd50
:020000040000fa
:100e7c0008b5fff73dff10f0070005d0072803d099
:100e8c00034b01221a7002e0024b01221a7008bdba
:080e9c003f000020a801002026
:020000040000fa
:100ea40008b5074a908980b2064b58604cf2ff316e
:100eb40091811b6813b1034a9168984708bd00bf2c
:080ec400002400402c00002076
:020000040000fa
:100ecc0010f0800f07d0044b01221a70034b4ff027
:100edc000042c3f89c2070473c0000200080004179
:020000040000fa
:100eec0010b428b1044b43f8320003ebc203596031
:0c0efc005df8044b704700bf2c01002083
:020000040000fa
:100f08000a44914200f1ff3300d1704710b511f83f
:0c0f1800014b03f8014f9142f9d110bdcc
:020000040000fa
:100f2400044a136843f002031360136913f0020fb9
:080f3400fbd1704700380040ba
:020000040000fa
:100f3c00044a138843f002031380136913f0020f61
:080f4c00fbd1704700240040b6
:020000040000fa
:100f5400024b40f204521a80704700bf0040004127
:020000040000fa
:100f64000001020304050607080c10141820304081
:100f74000001020304050607080c10141820304071
:020000040000fa
:100f840008b50248fff740fc08bd00bf0000002080
:020000040000fa
:100f940008b50248fff782fc08bd00bf40000020ee
:020000040000fa
:100fa40002440346934200d1704703f8011bf9e75a
:020000040000fa
:0c0fb400014b1860996070472c00002071
:020000040000fa
:020fc000704778
:020000040000fa
:020fc200fee748
:020000040000fa
:020fc400fee746
:020000040000fa
:020fc600fee744
:020000040000fa
:020fc800fee742
:020000040000fa
:020fca00fee740
:020000040000fa
:020fcc00fee73e
:020000040000fa
:020fce00fee73c
:020000040000fa
:020fd000704768
:020000040000fa
:0200000400807a
:044000003912003c35
:020000040000fa
:0200000400807a
:044004008000a82a66
:020000040000fa
:0200000400807a
:04400800ffffffffb8
:00000001FF
