:020000040000fa
:10000000f0ff03205d0d00003d1600003f160000cc
:1000100043160000451600004716000000000000cf
:100020000000000000000000000000003b1600007f
:1000300041160000000000003b1600003b160000c7
:100040003b1600003b1600003b1600003b1600006c
:100050003b1600003b1600003b1600003b1600005c
:100060003b1600003b1600003b1600004914000040
:100070003b1600003b1600003b1600003b1600003c
:100080003b1600003b1600003b1600003b1600002c
:100090003b1600003b1600003b1600003b1600001c
:1000a0003b1600003b1600003b1600003b1600000c
:1000b0003b1600003b1600003b1600003b160000fc
:1000c0003b1600003b1600003b1600003b160000ec
:1000d0003b1600003b1600003b1600003b160000dc
:1000e0003b1600003b16000000000000000000006e
:1000f000000000003b1600003b1600003b1600000d
:100100003b1600003b1600003b1600003b160000ab
:100110003b1600003b1600003b1600003b1600009b
:100120003b1600003b1600003b1600003b1600008b
:100130003b1600003b1600003b1600003b1600007b
:100140003b1600003b1600003b1600003b1600006b
:100150003b1600003b1600000000000000000000fd
:10016000000000000000000000000000000000008f
:1001700000000000000000009506000015080000c7
:100180003b1600003b1600003b1600003b1600002b
:10019000000000003b1600003b1600003b1600006c
:1001a0003b1600003b1600003b1600003b1600000b
:1001b0003b1600003b1600003b1600003b160000fb
:1001c0003b1600003b1600003b1600003b160000eb
:1001d0003b1600003b1600003b1600003b160000db
:1001e0003b1600003b1600003b1600003b160000cb
:1001f0003b1600003b1600003b1600003b160000bb
:100200003b16000000000000000000003b1600004c
:100210003b1600003b1600003b1600003b1600009a
:100220003b1600003b1600003b1600003b1600008a
:100230003b1600003b1600003b1600003b1600007a
:100240003b1600003b1600003b1600003b1600006a
:100250003b1600003b1600003b1600003b1600005a
:020000040000fa
:10026000f8b500bff8bc08bc9e467047f512000008
:10027000f8b500bff8bc08bc9e467047d11200001c
:020000040000fa
:1002800030b583b09b4b1b78002b00f02881994b35
:1002900000221a70984b1b7b082b05d1964c221d0f
:1002a00004f10c05002103e001f052f81ae11946af
:1002b00012f8010b80ea0103dbb2aa42f7d18842af
:1002c00019d18d4b1a798d4b1b78934216d08b4bdd
:1002d0001a70894b03f11405191d03c985e8030041
:1002e0005b79013b092b12d8dfe803f00b29333a85
:1002f000526a839a11b201f02bf8f3e001f028f86a
:10030000f0e07f4bd3f801207b4bc3f817207d4be7
:1003100004f11b00002113f8012b51408342fad154
:10032000754ad176764b1878002300931432082151
:1003300000f5007000f072fc01f00af8d2e0704b9a
:10034000d3f805106c4ac2f8171000225a719a713e
:10035000dde76b4bd3f80920674bc3f81720d6e7ce
:10036000654b9b79664a527d9a4209d90233644aa9
:1003700002eb8303d3f805205f4bc3f81720c6e7d1
:100380005d4b00225a7504229a750122da75bee788
:10039000594b9b795a4a927e9a4209d90433584a5a
:1003a00002eb8303d3f80620534bc3f81720aee7c4
:1003b000514b00225a7505229a750122da75a6e77b
:1003c0004d4b9b794e4a92f83f209a4209d9063309
:1003d0004b4a02eb8303d3f80320474bc3f81720a3
:1003e00095e7454b00225a7506229a750122da7567
:1003f0008de7414b9b79424a927e9a4208d93e4a08
:10040000d2f817103e4a02eb8303c3f816107ee7ba
:10041000394b00225a7507229a750122da7576e760
:10042000354b9b79364a92f83f209a4208d9324a96
:10043000d2f81710324a02eb8303c3f81b1066e7a9
:100440002d4b00225a7508229a750122da755ee753
:100450002b4b9b6c23b32849897919b12848407ae2
:1004600001282bd0244ad2f80720254dc5f8412079
:1004700085f8401004226a7298476b7a032b25d9bd
:1004800003226a7205222a731b4a9179a972127992
:10049000ea721b4bd3f80920174bc3f8172036e735
:1004a000174b0321597204211973134988799872e3
:1004b000da72d3f80930c1f8173028e70e4b032061
:1004c000d8750120987619765a7620e7032be0d16b
:1004d0000b4b094a917999721279da72d9e70a4b72
:1004e0001b780bb903b030bd074b00221a7000f027
:1004f0002ffff7e7b30100206c010020b0010020be
:0c0500000000002080010020b20100205b
:020000040000fa
:10050c0008b5594b1b78594a126ac2f300529342f0
:10051c0076d0564b1b6ac3f30053534a1370544b9b
:10052c001b78524ad2f8a02002f0010293426dd0ff
:10053c004e4bd3f8a03003f001034d4a13704d4bd2
:10054c001b784a4ad2f8a020c2f34002934263d0ef
:10055c00464bd3f8a030c3f34003464a1370464bc6
:10056c001b78424ad2f8a020c2f38002934259d0a1
:10057c003e4bd3f8a030c3f380033f4a13703f4b7c
:10058c001b783a4ad2f8a020c2f3c00293424fd053
:10059c00364bd3f8a030c3f3c003384a1370384b32
:1005ac001b78324a126ac2f34052934246d02f4b08
:1005bc001b6ac3f34053324a1370324b1b782b4add
:1005cc00126ac2f3c06293423ed0284b1b6ac3f33b
:1005dc00c0632c4a137008220021084600f000ff6b
:1005ec00c0b3224b4ff400229a611022002108461e
:1005fc0000f0f6fe98b31d4b1022c3f8982008bdee
:10060c0004220221002000f0b9fe88e7102201210b
:10061c00002000f0b3fe92e720220121002000f020
:10062c00adfe9ce701221146002000f0a7fea6e7d4
:10063c0002220121002000f0a1feb0e704220121da
:10064c00002000f09bfeb8e708220121002000f0fa
:10065c0095fec0e7054b4ff400225a61c5e7034bea
:10066c001022c3f89420cae75e00002000800041ed
:10067c00a80100205f0000205d0000205c0000202d
:08068c00aa010020a9010020d1
:020000040000fa
:100694002de9f04784b04ff084431c6d14f0007fc3
:1006a4001cbf4ff000721a6514f0010f62d04ff0b6
:1006b400844301221a655a6d22f001025a65d3f867
:1006c400a43013f07f0f55d04ff08443d3f8a450d7
:1006d400c5f305252b014a4ad268d718d15811f021
:1006e400804fd15805eb8500464e56f8200014bfc4
:1006f40021f06041c1f38a410160d2587b6813f450
:10070400001f02d112f0005f71d105eb85033d4a51
:1007140002eb83031b6900221a707e683a4b0fcbed
:100724000df1100c0ce90f00c6f30346664416f8ed
:1007340010ac344e4fea850808eb050906eb89092d
:10074400524607f10801d9f8040000f0d9fed9f89f
:10075400083083f800a0d9f80c300bb17a681a80fd
:100764004ff08443c3f8a850284b1b6813b1274aa1
:100774005068984714f4007f20d04ff084434ff41e
:1007840000721a655a6d22f400725a65d3f8d820a3
:10079400d3f8e03013f0010f0ad012f0010f07d0a4
:1007a4004ff08442d2f8e03023f00103c2f8e03085
:1007b400164b9b6913b1154ad069984714f4006f1e
:1007c40012d04ff084424ff400631365d2f8c43062
:1007d400c3f30423d2f8c420c2f30442934203d2e5
:1007e4000133dbb29a42fbd104b0bde8f08705ebdc
:1007f4008503044a02eb83031b6901221a708ce708
:10080400dc00002004010020a01500004c010020a1
:020000040000fa
:100814002de9f04784b0574b1c6d14f0007f1cbfca
:100824004ff000721a6514f0010f5fd0514b012292
:100834001a655a6d22f001025a65d3f8a43013f0f8
:100844007f0f53d04b4bd3f8a450c5f305252b0190
:10085400494ad268d718d15811f0804fd15805ebc6
:100864008500464e56f8200014bf21f06041c1f3c4
:100874008a410160d2587b6813f4001f02d112f040
:10088400005f6dd105eb85033c4a02eb83031b69d2
:1008940000221a707e683a4b0fcb0df1100c0ce954
:1008a4000f00c6f30346664416f810ac334e4fea05
:1008b400850808eb050906eb8909524607f108018a
:1008c400d9f8040000f01cfed9f8083083f800a021
:1008d400d9f80c300bb17a681a80264bc3f8a850ab
:1008e400284b1b6813b1274a5068984714f4007fbb
:1008f4001ed0204b4ff400721a655a6d22f4007218
:100904005a65d3f8d820d3f8e03013f0010f09d09a
:1009140012f0010f06d0174ad2f8e03023f0010399
:10092400c2f8e030174b9b6913b1164ad069984757
:1009340014f4006f11d00f4a4ff400631365d2f81a
:10094400c430c3f30423d2f8c420c2f30442934254
:1009540003d20133dbb29a42fbd104b0bde8f08785
:1009640005eb8503054a02eb83031b6901221a7018
:1009740090e700bf000400428c000020b400002077
:08098400901500002c01002079
:020000040000fa
:10098c008c0100201c000000000000005c00002016
:10099c0001000000000000005d00002001000000cc
:1009ac00000000005e0000200100000000000000bc
:1009bc005f0000200100000000000000a8010020e2
:1009cc000100000000000000a9010020010000004f
:1009dc0000000000aa01002001000000000000003f
:1009ec002c01002020000000000000008c000020e2
:1009fc002800000000000000b400002028000000c7
:100a0c00000000004c01002020000000000000004d
:100a1c00dc00002028000000000000000401002081
:100a2c002800000000000000ab01002001000000c5
:100a3c00000000004c0000200c0000000000000032
:100a4c00ac0100200100000000000000ad010020fe
:100a5c000100000000000000ae01002001000000b9
:100a6c0000000000af0100200100000000000000a9
:100a7c00600000202c000000000000006c01002031
:100a8c002000000000000000000000204c000000ce
:100a9c0000000000b0010020010000000000000078
:100aac00b10100200100000000000000b201002094
:100abc000100000000000000b30100200100000054
:100acc00000000005800002004000000000000009e
:100adc0000000000000000002222222222222222fa
:020000040000fa
:100aec00424b42f20e229a821a46d36813f0010f3f
:100afc00fbd03e4b00221a7403f500633c4ada62c9
:100b0c001a46536813f0200ffbd13a4b3a4a9a62bb
:100b1c001a46536813f0100ffbd1364b374a1a6341
:100b2c001a46536813f0400ffbd1324b4222c3f8e4
:100b3c0084201a46d2f8843013f0400ffad0304b90
:100b4c0000229a6377225a631a46d36b13f0040f70
:100b5c00fbd12b4b022283f830201a46d36b13f0b7
:100b6c00020ffbd1264a136c03f00303032bfad1bb
:100b7c00244b01225a711a46d37813f0010ffbd083
:100b8c001c4b214a1a621a46536813f0040ffbd10e
:100b9c00184b1e4a5a621a46536813f0080ffbd1c1
:100bac00144b4322c3f8a4201a46d2f8a43013f0f5
:100bbc00400ffad00f4b4422c3f8ec201a46d2f85f
:100bcc00ec3013f0400ffad00a4b4422c3f8f0205b
:100bdc001a46d2f8f03013f0400ffad0094b6ff0f0
:100bec007f421a6144f2ff725a6170470014004050
:100bfc0004012000001c0040060130000601020028
:100c0c00001000400008004007010100070102002d
:020000040000fa
:100c1c00f8b59df818c0bcf1010f01d90020f8bd42
:100c2c004ff08443d3f8c43013f4001f3fd14ff07e
:100c3c008443d3f8c440c4f3044426011d4b9f697c
:100c4c00bd19b0f5006f26bf20f0604040f0804029
:100c5c008004b8510b46082928bf08231804686083
:100c6c001cf0fd0f1ed111461a4605f1080000f0cc
:100c7c0043fc114a13780133dbb213706a6842ea01
:100c8c00036343f400036b60012000fa04f44ff09b
:100c9c008443c3f8e040c3f8d0405a6d42f400726c
:100cac005a65bce7bb5943f00053bb51e1e7002048
:0c0cbc00b5e700bfdc000020ab01002009
:020000040000fa
:100cc80010b504462c22002100f08efc4ff084431e
:100cd80001229a611a46936913f0010ffbd04ff075
:100ce80084439a6942f002029a611849cc60a2b220
:100cf80042f0004242f48032c3f8a02004f110020e
:100d08008a6192b242f08072c3f8c02004f12002d6
:100d1800ca6192b242f48032c3f8f02004f128028a
:100d28000a620b49a16292b242f48032c3f884206d
:100d38009a6922f4804222f0010242f480429a61c8
:100d48001a46936913f0010ffbd110bddc00002097
:040d58001102110a69
:020000040000fa
:100d5c0008b51b4b98471b4b9847eff3108172b6a5
:100d6c00194ad2f8883043f47003c2f88830bff3c4
:100d7c004f8fbff36f8f01b962b6144c20236360a1
:100d8c0000f0b6f8124b23f07f030f4a9360114b1f
:100d9c009847a36823f00103a3602346da6812f096
:100dac00010ffbd1094b5a6842f004025a60012230
:100dbc009a60094b9847094b984700f04ff9fee7aa
:100dcc00491600004916000000ed00e000600041eb
:100ddc0000000000451200004916000049160000f2
:020000040000fa
:100dec0038b51d4b01229a611a46936913f0010f15
:100dfc00fbd0194b9a6942f002029a61174ada61e8
:100e0c002b22c3f8802001221a629a6922f48042b4
:100e1c0022f0010242f480429a611a46936913f05f
:100e2c00010ffbd10c4b00249c650122da654ff0bd
:100e3c0000725a650a4d2c606c60ac602822214609
:100e4c00084800f0cffbec602c616c61ac61ec618c
:100e5c002c626c6238bd00bf000400420005020029
:080e6c008c000020b4000020fe
:020000040000fa
:100e740038b54ff0844301229a611a46936913f0fe
:100e8400010ffbd04ff084439a6942f002029a6149
:100e9400164ada612b22c3f8802001221a629a6969
:100ea40022f4804222f0010242f480429a611a46fe
:100eb400936913f0010ffbd14ff0844300249c6528
:100ec4000122da654ff000725a65094d2c606c609e
:100ed400ac6028222146074800f088fbec602c61b6
:100ee4006c61ac61ec612c626c6238bd000502007f
:080ef400dc00002004010020d5
:020000040000fa
:100efc001e4b1f4a9342f0b438bf002103d203f8b3
:100f0c00011b9342fbd11b4ad2e9000150ea0103b9
:100f1c004ff0000610d09468034602f10c076cb930
:100f2c0021b1014403f8016b9942fbd13a46d2e955
:100f3c00000150ea0103eed1f0bc704759b101f148
:100f4c000c030c38801a1a443b461c1813f8015b2e
:100f5c0025709342f9d111f0030318bf012303eb61
:100f6c00910107eb81073a46e1e700bf0000002042
:080f7c00000000208c090000b8
:020000040000fa
:100f840010b4194b194a1a60062283f845204020f0
:100f940083f84b0083f8530083f8542083f85520da
:100fa400012183f8561083f8571083f85b208824b6
:100fb40083f83b400e4cc3f8804083f8c02083f88c
:100fc400c12083f8c22083f8c32083f8c40083f8c7
:100fd400cc1083f8cd1083f8ce20772283f8b62086
:100fe4005df8044b704700bf008000410008080012
:040ff4003000008049
:020000040000fa
:100ff80008b5002304220221184600f0c1f9002395
:1010080010220121184600f0bbf9002320220121fb
:10101800184600f0b5f9002301221146184600f0e1
:10102800aff9002302220121184600f0a9f9002394
:1010380004220121184600f0a3f900230822012107
:10104800184600f09df9054b4ff400225a61202202
:10105800c3f894201022c3f8942008bd00800041f2
:020000040000fa
:1010680008b5002000f000fa0021134800f0c4fa87
:1010780000f052fa00f05cfa00f066fafff7b8ffe9
:1010880000f09afa0d4c00f0cffa237813f0020f13
:1010980007d1237813f0010ff5d023f00103237053
:1010a800f1e723f002032370fff72cfa00f008f8a9
:1010b80000f0b0f9ede700bf99140000af0100207f
:020000040000fa
:1010c80008b5104b1a78104b1b6ac3f340139a42a9
:1010d80010d00d4b1b6ac3f340130a4a1370202229
:1010e8000021084600f07ef938b1074b4ff4006242
:1010f8009a6108bd054b1a70f1e7034b4ff4006283
:101108005a61f6e7ad01002000800041ac010020e3
:020000040000fa
:1011180010b500f077fa03281cd8dfe800f00205c4
:101128000f1500f059fa10bd00f072fa044600f0ed
:1011380075fa0146204600f01dfaf4e700f010faaf
:10114800064b0d221a70eee700f00afa034b002254
:101158001a70e8e7042000f037fae4e7ae0100204f
:020000040000fa
:10116800f0b59df81440ecb94ff0844cdcf8a4506d
:10117800c5f305250c4cae007719bf0004eb070e2c
:10118800e051cef80420cef80810cef80c30069bbb
:10119800cef81030dcf8543043f00103ccf854306a
:0c11a800012000e00020f0bd0401002048
:020000040000fa
:1011b4000f4ad36823f4e0631b041b0c43f0bf63a2
:1011c40043f40033d360bff35f8f62b6094be02270
:1011d40083f80b234ff40061196083f84e234ff416
:1011e4008041996083f84f234ff400429a6070471e
:0811f40000ed00e000e100e065
:020000040000fa
:1011fc0038b505460e4c112323700e48fff75efde3
:10120c00012262700023a370e27002216172a3724a
:10121c00e37223736371a371e37123726175a27618
:10122c00092384f83f30a56400f08cf838bd00bf6a
:08123c0000000020600000200a
:020000040000fa
:1012440070b50d4d0d4c641ba4100026a64209d1a7
:101254000b4d0c4cfff702f8641ba4100026a642a9
:1012640005d170bd55f8043b98470136eee755f8b3
:10127400043b98470136f2e76c0200006c02000060
:081284006c0200007002000082
:020000040000fa
:10128c000f4b01221a801a46136913f0010ffbd180
:10129c000b4b4ff401421a8000221a621a46136952
:1012ac0013f0200ffbd1064b00225a621a46136929
:1012bc0013f0400ffbd1024b81225a81704700bfc3
:0412cc0000240040ba
:020000040000fa
:1012d00010b5054c237833b9044b13b10448aff370
:1012e00000800123237010bd8c010020000000004d
:1012f0000000000008b5034b1bb103490348aff3de
:10130000008008bd000000009001002000000000e7
:020000040000fa
:101310004ff08443586c20f4605020f018004004d3
:10132000400c9b6913f0010f11d04ff08442936978
:1013300043f002039361936923f4804323f0010394
:1013400043f480439361936913f0010ffbd170471d
:020000040000fa
:1013500000b583b000221146084800f0c5f80848df
:10136000084b01930023009300f10e03021d00f1ce
:101370000c01fff7f9fe03b05df804fbc114000097
:081380006c010020b101002006
:020000040000fa
:1013880010b40b4c647d84420fd903290dd8084c46
:1013980004eb80040c44647b24ea020403b1144384
:1013a800034b03eb8000084444735df8044b70471b
:0413b8000000002011
:020000040000fa
:1013bc000a4b01221a601a46136913f0010ffbd174
:1013cc00064b40f214721a6001221a731a773322f8
:1013dc009a721a461369002bfcd1704700380040f2
:020000040000fa
:1013ec000a4b9b7e83420dd903290dd8074b03eb87
:1013fc0080000844837d23ea0203134314bf0120b9
:10140c00002070470020704700207047000000202b
:020000040000fa
:10141c00094b1b7823b1013bdbb2074a137003b1b4
:10142c00704710b500f0f2f8044600f0f5f80146ec
:0c143c00204600f09df810bdae0100201d
:020000040000fa
:1014480008b5074a908980b2064b58604cf2ff31c4
:1014580091811b6813b1034a9168984708bd00bf82
:08146800002400404c000020ac
:020000040000fa
:1014700008b500f09df8fff785fdfff737fb00f09a
:10148000dbf8fff7b3fcfff7f5fcfff7fffefff714
:0814900095fffff78ffe08bd78
:020000040000fa
:1014980010f0010f04d0074a137843f002031370c9
:1014a80010f0800f04d0034a137843f0010313703f
:0814b800704700bfaf010020e6
:020000040000fa
:1014c00008b5fff725ff10f0070005d0072803d067
:1014d000034b01221a7002e0024b01221a7008bd70
:0814e000b2010020b30100205d
:020000040000fa
:1014e80010b428b1044b43f8320003ebc20359602f
:0c14f8005df8044b704700bf4c01002061
:020000040000fa
:101504000a44914200f1ff3300d1704710b511f83d
:0c151400014b03f8014f9142f9d110bdca
:020000040000fa
:10152000044a138843f002031380136913f0020f77
:08153000fbd1704700240040cc
:020000040000fa
:10153800044a136843f002031360136913f0020f9f
:08154800fbd1704700380040a0
:020000040000fa
:1015500008b50348fff752fe024b00221a7008bd7f
:0815600019110000ae0100208a
:020000040000fa
:10156800034b01225a7200229a72da721a73704778
:04157800000000204f
:020000040000fa
:10157c00034b02225a729872d97200221a73704766
:04158c00000000203b
:020000040000fa
:101590000001020304050607080c1014182030404f
:1015a0000001020304050607080c1014182030403f
:020000040000fa
:1015b000024b40f204521a80704700bf00400041c5
:020000040000fa
:1015c000024b4ff400625a61704700bf0080004137
:020000040000fa
:1015d000024b03225a721873704700bf00000020ac
:020000040000fa
:1015e000024b03225a7206221a7370470000002031
:020000040000fa
:1015f00002440346934200d1704703f8011bf9e708
:020000040000fa
:0c160000014b1860996070474c000020fe
:020000040000fa
:0c160c00014b93f84000704700000020e4
:020000040000fa
:0c161800014b93f84100704700000020d7
:020000040000fa
:0c162400014b93f84200704700000020ca
:020000040000fa
:0816300008b5fef725fe08bd18
:020000040000fa
:021638007047f9
:020000040000fa
:02163a00fee7c9
:020000040000fa
:02163c00fee7c7
:020000040000fa
:02163e00fee7c5
:020000040000fa
:02164000fee7c3
:020000040000fa
:02164200fee7c1
:020000040000fa
:02164400fee7bf
:020000040000fa
:02164600fee7bd
:020000040000fa
:021648007047e9
:020000040000fa
:0200000400807a
:044000003912003c35
:020000040000fa
:0200000400807a
:044004008000a82a66
:020000040000fa
:0200000400807a
:04400800ffffffffb8
:00000001FF
