:020000040000fa
:10000000f0ff032095110000c51a0000c71a000078
:10001000cb1a0000cd1a0000cf1a0000000000002b
:10002000000000000000000000000000c31a0000f3
:10003000c91a000000000000c31a0000c31a000023
:10004000c31a0000c31a0000c31a0000c31a00003c
:10005000c31a0000c31a0000c31a0000c31a00002c
:10006000c31a0000c31a0000c31a000019190000c7
:10007000c31a0000c31a0000c31a0000c31a00000c
:10008000c31a0000c31a0000c31a0000c31a0000fc
:10009000c31a0000c31a0000c31a0000c31a0000ec
:1000a000c31a0000c31a0000c31a0000c31a0000dc
:1000b000c31a0000c31a0000c31a0000c31a0000cc
:1000c000c31a0000c31a0000c31a0000c31a0000bc
:1000d000c31a0000c31a0000c31a0000c31a0000ac
:1000e000c31a0000c31a0000000000000000000056
:1000f00000000000c31a0000c31a0000c31a000069
:10010000c31a0000c31a0000c31a0000c31a00007b
:10011000c31a0000c31a0000c31a0000c31a00006b
:10012000c31a0000c31a0000c31a0000c31a00005b
:10013000c31a0000c31a0000c31a0000c31a00004b
:10014000c31a0000c31a0000c31a0000c31a00003b
:10015000c31a0000c31a00000000000000000000e5
:10016000000000000000000000000000000000008f
:100170000000000000000000e50a0000650c00001f
:10018000c31a0000c31a0000c31a0000c31a0000fb
:1001900000000000c31a0000c31a0000c31a0000c8
:1001a000c31a0000c31a0000c31a0000c31a0000db
:1001b000c31a0000c31a0000c31a0000c31a0000cb
:1001c000c31a0000c31a0000c31a0000c31a0000bb
:1001d000c31a0000c31a0000c31a0000c31a0000ab
:1001e000c31a0000c31a0000c31a0000c31a00009b
:1001f000c31a0000c31a0000c31a0000c31a00008b
:10020000c31a00000000000000000000c31a000034
:10021000c31a0000c31a0000c31a0000c31a00006a
:10022000c31a0000c31a0000c31a0000c31a00005a
:10023000c31a0000c31a0000c31a0000c31a00004a
:10024000c31a0000c31a0000c31a0000c31a00003a
:10025000c31a0000c31a0000c31a0000c31a00002a
:020000040000fa
:10026000f8b500bff8bc08bc9e46704735170000c3
:10027000f8b500bff8bc08bc9e46704711170000d7
:020000040000fa
:10028000f0b583b0a54b1b78002b00f03b81a34b4e
:1002900000221a70a24b1b7b082b05d1a04c221dfb
:1002a00004f10c05002103e001f072fa2de119467a
:1002b00012f8010b80ea0103dbb2aa42f7d18842af
:1002c00019d1974b1b79974a12789a4216d0954ac2
:1002d0001370934b03f11402191d03c982e8030044
:1002e0005b79013b092b12d8dfe803f00b29333c83
:1002f000546c839ab1ca01f04bfa06e101f048fa56
:1003000003e1894bd3f80120854bc3f81720874bb5
:1003100004f11b00002113f8012b51408342fad154
:100320007f4ad176804b187800230093143208213d
:1003300000f5007000f042fe01f02afae5e07a4b89
:10034000d3f80510764ac2f8171000225a719a7134
:10035000dde7734a744b53f8091fc2f816101b7976
:100360009376d4e76e4b9b796f4a927d9a4209d976
:1003700002336d4a02eb8303d3f80620684bc3f8bf
:100380001720c4e7664b00225a7504229a75012291
:10039000da75bce7624b9b79634ad27e9a4209d9ef
:1003a0000433614a02eb8303d3f807205c4bc3f8a4
:1003b0001720ace75a4b00225a7505229a75012284
:1003c000da75a4e7564b9b79574a92f840209a4237
:1003d00007d90733544a52f82320514bc3f817204a
:1003e00095e74f4b00225a7506229a750122da755d
:1003f0008de74b4b9b794c4ad27e9a4208d9484aaa
:10040000d2f81710484a02eb8303c3f817107ee7af
:10041000434b00225a7507229a750122da7576e756
:100420003f4b9b79404a92f840209a4207d90733c4
:100430003b4ad2f817103c4a42f8231067e7384b82
:1004400000225a7508229a750122da755fe7364d47
:1004500005f1180305f13c07354ec5f1ff2505f5fb
:100460007f05e835ea18316853f8040f8850bb421d
:10047000f8d12f4b1b684ff05a32c3f8fc2346e7e4
:10048000294b5e6c2eb3264b987928b1264b9b7a6c
:10049000012b2ed0244b5872234d0423ab72002322
:1004a000eb722b731e498b7a00934b7a0a7ac979c7
:1004b000b047ab7a032b03d90322aa7205226a73d1
:1004c000174a194b53f8091fc2f816101b79937677
:1004d0001de7134a91795972032199720021d9724b
:1004e000197304215973d3f80930c2f81630917684
:1004f0000de70b4b0322da7500221a765a76012299
:100500009a7604e70b4b1b780bb903b0f0bd094b8f
:1005100000221a7001f03cf9f7e700bfb201002099
:100520002c010020af01002000000020400100202d
:0805300054000020b10100207d
:020000040000fa
:1005380038b57b4b1b78002b42d17a4b1b6a13f4de
:10054800004f00f0e580784a13780133dbb213706e
:10055800052b05d9724b01221a70734b00221a70b1
:10056800704b1b6a13f0100f00f0ce806f4b1b7896
:100578000133dbb2052b36d96c4b00221a706c4b59
:100588001b88002b40f0ab80694b06221a80694b10
:100598001b78002b49d1684b1b78012b37d05ab2f6
:1005a80022b3022b40f09e805d4b1b78002b40f05d
:1005b8009980614b00221a705e4b01221a7091e0fb
:1005c800584b1b6a13f4004f40f0a680564a137824
:1005d8000133dbb21370052bc2d90023504a1370c4
:1005e800514a1370bce7514a1370c8e7534b1b7844
:1005f8003bb94c4b4ff480429a614f4b01221a7021
:1006080070e0013b4d4a137001f0aaf96ae0444bcf
:100618001b78002b66d0434b04229a614ff480422a
:100628005a61454b02221a705ce0454b1b7863b156
:100638003c4b4ff480425a610020424b18700346ed
:100648001022014601f0f4f84ce00122002108468e
:1006580001f020f9002833d1394b1b78002be7d162
:100668002f4b1b78002b3ed0374a13780133dbb26f
:100678001370322b2dd8334a1278002a3ad1142b12
:1006880010d9304c012525700021032001f02cf9e8
:100698002e4b18702b4610220021084601f0c8f88e
:1006a80023783bbb0021022001f01ef900eb8000fb
:1006b8004000274b18801b4b4ff480425a6111e0d1
:1006c80001231f4a137040220221002001f0b0f8d4
:1006d800c2e700f0b3fe05e000f0b0fe02e0013b27
:1006e800134a138038bd184b00221a70154b1b781b
:1006f800002bd7d001f034f9144b1b78002bebd02a
:10070800013b124a1370ede7084b00221a7036e7d6
:10071800054b00221a7023e7034b00221a701fe7cb
:10072800ba01002000800041bf010020be01002066
:100738005c000020b9010020b8010020bc010020a5
:10074800b7010020bb010020bd010020c10100202d
:040758005e0000201f
:020000040000fa
:10075c008c0100201c00000000000000a8010020fb
:10076c000100000000000000a901002001000000b1
:10077c0000000000aa0100200100000000000000a1
:10078c00ab0100200100000000000000ac010020c3
:10079c000100000000000000ad010020010000007d
:1007ac0000000000ae01002001000000000000006d
:1007bc00600000202c000000000000002c01002034
:1007cc002000000000000000000000204800000095
:1007dc0000000000af01002001000000000000003c
:1007ec00b00100200100000000000000b101002059
:1007fc000100000000000000b20100200100000018
:10080c000000000054000020040000000100000063
:10081c00000000444c0100202000000000000000fb
:10082c008c0000202800000000000000b400002014
:10083c0028000000000000006c01002020000000d7
:10084c0000000000dc000020280000000000000078
:10085c00040100202800000000000000b30100206b
:10086c000100000000000000480000200c00000007
:10087c0000000000b4010020010000000000000096
:10088c00b50100200100000000000000b6010020ae
:10089c000100000000000000b70100200100000072
:1008ac0000000000b8010020010000000000000062
:1008bc00b90100200100000000000000ba01002076
:1008cc000100000000000000bb010020010000003e
:1008dc00000000005c00002002000000000000008e
:1008ec00bc0100200100000000000000bd01002040
:1008fc0001000000000000005e000020020000006b
:10090c0000000000be0100200100000000000000fb
:10091c00bf0100200100000000000000c001002009
:10092c000100000000000000c101002001000000d7
:10093c00000000005800002004000000000000002f
:10094c00000000000000000022222222222222228b
:020000040000fa
:10095c0008b5594b1b78594a126ac2f3005293429c
:10096c0076d0564b1b6ac3f30053534a1370544b47
:10097c001b78524ad2f8a02002f0010293426dd0ab
:10098c004e4bd3f8a03003f001034d4a13704d4b7e
:10099c001b784a4ad2f8a020c2f34002934263d09b
:1009ac00464bd3f8a030c3f34003464a1370464b72
:1009bc001b78424ad2f8a020c2f38002934259d04d
:1009cc003e4bd3f8a030c3f380033f4a13703f4b28
:1009dc001b783a4ad2f8a020c2f3c00293424fd0ff
:1009ec00364bd3f8a030c3f3c003384a1370384bde
:1009fc001b78324a126ac2f34052934246d02f4bb4
:100a0c001b6ac3f34053324a1370324b1b782b4a88
:100a1c00126ac2f3c06293423ed0284b1b6ac3f3e6
:100a2c00c0632c4a137008220021084600f030ffe6
:100a3c00c0b3224b4ff400229a61102200210846c9
:100a4c0000f026ff98b31d4b1022c3f8982008bd68
:100a5c0004220221002000f0e9fe88e71022012187
:100a6c00002000f0e3fe92e720220121002000f09c
:100a7c00ddfe9ce701221146002000f0d7fea6e720
:100a8c0002220121002000f0d1feb0e70422012156
:100a9c00002000f0cbfeb8e708220121002000f076
:100aac00c5fec0e7054b4ff400225a61c5e7034b66
:100abc001022c3f89420cae7aa010020008000414c
:100acc00ac010020ab010020a9010020a8010020ee
:080adc00ae010020ad01002075
:020000040000fa
:100ae4002de9f04784b04ff084431c6d14f0007f6f
:100af4001cbf4ff000721a6514f0010f62d04ff062
:100b0400844301221a655a6d22f001025a65d3f812
:100b1400a43013f07f0f55d04ff08443d3f8a45082
:100b2400c5f305252b014a4ad268d718d15811f0cc
:100b3400804fd15805eb8500464e56f8200014bf6f
:100b440021f06041c1f38a410160d2587b6813f4fb
:100b5400001f02d112f0005f71d105eb85033d4afd
:100b640002eb83031b6900221a707e683a4b0fcb99
:100b74000df1100c0ce90f00c6f30346664416f899
:100b840010ac344e4fea850808eb050906eb8909d9
:100b9400524607f10801d9f8040000f015ffd9f80e
:100ba400083083f800a0d9f80c300bb17a681a80a9
:100bb4004ff08443c3f8a850284b1b6813b1274a4d
:100bc4005068984714f4007f20d04ff084434ff4ca
:100bd40000721a655a6d22f400725a65d3f8d8204f
:100be400d3f8e03013f0010f0ad012f0010f07d050
:100bf4004ff08442d2f8e03023f00103c2f8e03031
:100c0400164b9b6913b1154ad069984714f4006fc9
:100c140012d04ff084424ff400631365d2f8c4300d
:100c2400c3f30423d2f8c420c2f30442934203d290
:100c34000133dbb29a42fbd104b0bde8f08705eb87
:100c44008503044a02eb83031b6901221a708ce7b3
:100c5400dc000020040100205c1a00006c0100206c
:020000040000fa
:100c64002de9f04784b0574b1c6d14f0007f1cbf76
:100c74004ff000721a6514f0010f5fd0514b01223e
:100c84001a655a6d22f001025a65d3f8a43013f0a4
:100c94007f0f53d04b4bd3f8a450c5f305252b013c
:100ca400494ad268d718d15811f0804fd15805eb72
:100cb4008500464e56f8200014bf21f06041c1f370
:100cc4008a410160d2587b6813f4001f02d112f0ec
:100cd400005f6dd105eb85033c4a02eb83031b697e
:100ce40000221a707e683a4b0fcb0df1100c0ce900
:100cf4000f00c6f30346664416f810ac334e4feab1
:100d0400850808eb050906eb8909524607f1080135
:100d1400d9f8040000f058fed9f8083083f800a090
:100d2400d9f80c300bb17a681a80264bc3f8a85056
:100d3400284b1b6813b1274a5068984714f4007f66
:100d44001ed0204b4ff400721a655a6d22f40072c3
:100d54005a65d3f8d820d3f8e03013f0010f09d046
:100d640012f0010f06d0174ad2f8e03023f0010345
:100d7400c2f8e030174b9b6913b1164ad069984703
:100d840014f4006f11d00f4a4ff400631365d2f8c6
:100d9400c430c3f30423d2f8c420c2f30442934200
:100da40003d20133dbb29a42fbd104b0bde8f08731
:100db40005eb8503054a02eb83031b6901221a70c4
:100dc40090e700bf000400428c000020b400002023
:080dd4004c1a00004c01002044
:020000040000fa
:100ddc00424b42f20e229a821a46d36813f0010f4c
:100dec00fbd03e4b00221a7403f500633c4ada62d6
:100dfc001a46536813f0200ffbd13a4b3a4a9a62c9
:100e0c001a46536813f0100ffbd1364b374a1a634e
:100e1c001a46536813f0400ffbd1324b4222c3f8f1
:100e2c0084201a46d2f8843013f0400ffad0304b9d
:100e3c0000229a6377225a631a46d36b13f0040f7d
:100e4c00fbd12b4b022283f830201a46d36b13f0c4
:100e5c00020ffbd1264a136c03f00303032bfad1c8
:100e6c00244b01225a711a46d37813f0010ffbd090
:100e7c001c4b214a1a621a46536813f0040ffbd11b
:100e8c00184b1e4a5a621a46536813f0080ffbd1ce
:100e9c00144b4322c3f8a4201a46d2f8a43013f002
:100eac00400ffad00f4b4422c3f8ec201a46d2f86c
:100ebc00ec3013f0400ffad00a4b4422c3f8f02068
:100ecc001a46d2f8f03013f0400ffad0094b6ff0fd
:100edc007f421a6144f2ff725a617047001400405d
:100eec0004012000001c0040060130000601020035
:100efc00001000400008004007010100070102003b
:020000040000fa
:100f0c0070b50646254b1d68254c112323702548ca
:100f1c0000f0f0f8012262700023a370e27002214d
:100f2c00a172e372237363736371a371e371237210
:100f3c00a175e27605f00f03934208d0184b0022fe
:100f4c0083f84020164b5e6400f01cfc70bdc5f3aa
:100f5c0002159542f2d1092284f8402000f088fd58
:100f6c000028fbd1104b1868d0f8fc33b3f15a3f72
:100f7c0009d00b4a02f11c034032002143f8041b38
:100f8c009342fbd1dee7031f084a203053f8041fbd
:100f9c0042f8041f8342f9d1d4e700bf044080001b
:100fac0000000020600000205400002018000020e9
:020000040000fa
:100fbc00f8b59df818c0bcf1010f01d90020f8bd9f
:100fcc004ff08443d3f8c43013f4001f3fd14ff0db
:100fdc008443d3f8c440c4f3044426011d4b9f69d9
:100fec00bd19b0f5006f26bf20f0604040f0804086
:100ffc008004b8510b46082928bf082318046860e0
:10100c001cf0fd0f1ed111461a4605f1080000f028
:10101c00d7fc114a13780133dbb213706a6842eac9
:10102c00036343f400036b60012000fa04f44ff0f7
:10103c008443c3f8e040c3f8d0405a6d42f40072c8
:10104c005a65bce7bb5943f00053bb51e1e70020a4
:0c105c00b5e700bfdc000020b30100205d
:020000040000fa
:1010680010b582b02348fff74dff002400942346b3
:1010780022462821204600f0a3fb0094234622465e
:101088003221012000f09cfb009423462246c8210f
:10109800022000f095fb2146032000f025fc009477
:1010a80023462246642100f08bfb009423466422e9
:1010b8001146042000f084fb009423462246214672
:1010c800052000f07dfb0094234622462146062099
:1010d80000f076fb0094234622462146072000f0c4
:1010e8006ffb0094234622462146082000f068fb47
:0810f80002b010bd91190000c7
:020000040000fa
:1011000010b504462c22002100f0c8fc4ff08443a7
:1011100001229a611a46936913f0010ffbd04ff038
:1011200084439a6942f002029a611849cc60a2b2e3
:1011300042f0004242f48032c3f8a02004f11002d1
:101140008a6192b242f08072c3f8c02004f120029a
:10115000ca6192b242f48032c3f8f02004f128024e
:101160000a620b49a16292b242f48032c3f8842031
:101170009a6922f4804222f0010242f480429a618c
:101180001a46936913f0010ffbd110bddc0000205b
:041190001102110a2d
:020000040000fa
:1011940008b51b4b98471b4b9847eff3108172b669
:1011a400194ad2f8883043f47003c2f88830bff388
:1011b4004f8fbff36f8f01b962b6144c2023636065
:1011c40000f0faf8124b23f07f030f4a9360114b9f
:1011d4009847a36823f00103a3602346da6812f05a
:1011e400010ffbd1094b5a6842f004025a600122f4
:1011f4009a60094b9847094b984700f05df9fee760
:10120400d11a0000d11a000000ed00e00060004196
:101214000000000085160000d11a0000d11a000059
:020000040000fa
:1012240038b51d4b01229a611a46936913f0010fd8
:10123400fbd0194b9a6942f002029a61174ada61ab
:101244002b22c3f8802001221a629a6922f4804278
:1012540022f0010242f480429a611a46936913f023
:10126400010ffbd10c4b00249c650122da654ff081
:1012740000725a650a4d2c606c60ac6028222146cd
:10128400084800f009fcec602c616c61ac61ec6115
:101294002c626c6238bd00bf0004004200050200ed
:0812a4008c000020b4000020c2
:020000040000fa
:1012ac0038b54ff0844301229a611a46936913f0c2
:1012bc00010ffbd04ff084439a6942f002029a610d
:1012cc00164ada612b22c3f8802001221a629a692d
:1012dc0022f4804222f0010242f480429a611a46c2
:1012ec00936913f0010ffbd14ff0844300249c65ec
:1012fc000122da654ff000725a65094d2c606c6062
:10130c00ac6028222146074800f0c2fbec602c613f
:10131c006c61ac61ec612c626c6238bd0005020042
:08132c00dc0000200401002098
:020000040000fa
:1013340010b41f4b1f4a1a60402183f84310062241
:1013440083f8442083f8452083f84b1083f84e102b
:1013540083f84f2083f8531083f8542083f85520e2
:10136400012083f8560083f8570083f85b20882413
:1013740083f83b40a4f1ff44583cc3f8804083f811
:10138400c02083f8c12083f8c22083f8c32083f8e7
:10139400c41083f8cc0083f8cd0083f8ce2083f802
:1013a400d710772283f8b6205df8044b704700bf4e
:0813b40000800041044808001c
:020000040000fa
:1013bc001e4b1f4a9342f0b438bf002103d203f8ee
:1013cc00011b9342fbd11b4ad2e9000150ea0103f5
:1013dc004ff0000610d09468034602f10c076cb96c
:1013ec0021b1014403f8016b9942fbd13a46d2e991
:1013fc00000150ea0103eed1f0bc704759b101f184
:10140c000c030c38801a1a443b461c1813f8015b69
:10141c0025709342f9d111f0030318bf012303eb9c
:10142c00910107eb81073a46e1e700bf000000207d
:08143c00000000205c07000025
:020000040000fa
:1014440010b50024144b1c70144b1c70214620460c
:1014540000f04cfa124b1870124b04225a61124bd2
:101464001c70234640220221204600f0e3f9234663
:1014740010222146204600f0ddf90c4b1c70214659
:10148400022000f033fa00eb80004000084b188083
:10149400084b1c7010bd00bfb9010020b80100202a
:1014a400bc01002000800041b7010020bb010020e6
:0814b4005e000020bd010020d4
:020000040000fa
:1014bc0008b5002000f03efa0021184800f0f0fac0
:1014cc0000f08cfa00f096fafff7c8fd00f02af84d
:1014dc0000f0d6fa124c15e023f002032370fff74c
:1014ec0037fa00f057f800f0eefa11e023f004039d
:1014fc002370fff71bf8237813f0040f02d023f0ae
:10150c000403237000f0d2fa237813f0020fe3d116
:10151c00237813f0040ff5d0e8e700bf01180000a2
:04152c00b6010020e4
:020000040000fa
:1015300008b5002304220221184600f07df900239b
:1015400010220121184600f077f900232022012102
:10155000184600f071f9002301221146184600f0e8
:101560006bf9002302220121184600f065f90023df
:1015700004220121184600f05ff90023082201210e
:10158000184600f059f9054b4ff400225a61202209
:10159000c3f894201022c3f8942008bd00800041b5
:020000040000fa
:1015a00008b5104b1a78104b1b6ac3f340139a42cc
:1015b00010d00d4b1b6ac3f340130a4a137020224c
:1015c0000021084600f06af938b1074b4ff4006279
:1015d0009a6108bd054b1a70f1e7034b4ff40062a6
:1015e0005a61f6e7b501002000800041b4010020f7
:020000040000fa
:1015f000f0b59df81440ecb94ff0844cdcf8a450e1
:10160000c5f305250c4cae007719bf0004eb070e9f
:10161000e051cef80420cef80810cef80c30069b2e
:10162000cef81030dcf8543043f00103ccf85430dd
:0c163000012000e00020f0bd04010020bb
:020000040000fa
:10163c000f4ad36823f4e0631b041b0c43f0bf6315
:10164c0043f40033d360bff35f8f62b6094be022e3
:10165c0083f80b234ff40061196083f84e234ff489
:10166c008041996083f84f234ff400429a60704791
:08167c0000ed00e000e100e0d8
:020000040000fa
:1016840070b50d4d0d4c641ba4100026a64209d163
:101694000b4d0c4cfef7e2fd641ba4100026a64281
:1016a40005d170bd55f8043b98470136eee755f86f
:1016b400043b98470136f2e76c0200006c0200001c
:0816c4006c020000700200003e
:020000040000fa
:1016cc000f4b01221a801a46136913f0010ffbd13c
:1016dc000b4b4ff401421a8000221a621a4613690e
:1016ec0013f0200ffbd1064b00225a621a461369e5
:1016fc0013f0400ffbd1024b83225a81704700bf7d
:04170c000024004075
:020000040000fa
:1017100010b5054c237833b9044b13b10448aff32b
:1017200000800123237010bd8c0100200000000008
:101730000000000008b5034b1bb103490348aff399
:10174000008008bd000000009001002000000000a3
:020000040000fa
:101750004ff08443586c20f4605020f0180040048f
:10176000400c9b6913f0010f11d04ff08442936934
:1017700043f002039361936923f4804323f0010350
:1017800043f480439361936913f0010ffbd17047d9
:020000040000fa
:1017900000b583b000221146084800f009f9084856
:1017a000084b01930023009300f10e03021d00f18a
:1017b0000c01fff71dff03b05df804fbc918000022
:0817c0002c010020b001002003
:020000040000fa
:1017c80030b40b4c2468d4f8fc43b4f15a3f0dd024
:1017d800084c94f84040844208d9064c04eb800534
:1017e80029776a77ab779df80830eb7730bc70477c
:0817f800540000200000002055
:020000040000fa
:1018000010f0010f04d00b4a137843f00203137059
:1018100010f0020f04d0074a137843f0040313704a
:1018200010f0800f04d0034a137843f001031370c3
:08183000704700bfb601002063
:020000040000fa
:1018380010b40b4ca47d84420fd903290dd8084c51
:1018480004eb80040c44a47b24ea020403b114438f
:10185800034b03eb8000084484735df8044b704726
:04186800000000205c
:020000040000fa
:10186c000a4b01221a601a46136913f0010ffbd1bf
:10187c00064b40f214721a6001221a731a77332243
:10188c009a721a461369002bfcd17047003800403d
:020000040000fa
:10189c00094bdb7e83420dd9032901d90020704707
:1018ac00054b03eb80000844c37d1a4214bf012092
:0c18bc0000207047002070470000002052
:020000040000fa
:1018c80008b5fff741ff10f0070005d0072803d03f
:1018d800034b01221a7002e0024b01221a7008bd64
:0818e800b1010020b201002053
:020000040000fa
:1018f000084b93f84030834209d9032901d90020cd
:101900007047044b03eb80000844007f70470020c1
:08191000704700bf0000002039
:020000040000fa
:1019180008b5074a908980b2064b58604cf2ff31ef
:1019280091811b6813b1034a9168984708bd00bfad
:081938000024004048000020db
:020000040000fa
:1019400008b500f093f8fff7f5fcfff747fa00f051
:10195000b7f8fff767fcfff7a9fcfff7b7fefff743
:0819600085fffff76bfe08bdd7
:020000040000fa
:10196800074b1b78032b03d00133054a13707047cc
:10197800044b4ff48042da61014b00221a70704721
:08198800c001002000800041b5
:020000040000fa
:1019900008b528b1012806d0042000f047f801e07e
:1019a00000f04cf808bd0021084600f035f8f9e7d2
:020000040000fa
:1019b00010b428b1044b43f8320003ebc203596062
:0c19c0005df8044b704700bf6c01002074
:020000040000fa
:1019cc000a44914200f1ff3300d1704710b511f871
:0c19dc00014b03f8014f9142f9d110bdfe
:020000040000fa
:1019e800044a138843f002031380136913f0020fab
:0819f800fbd170470024004000
:020000040000fa
:101a0000044a136843f002031360136913f0020fd2
:081a1000fbd1704700380040d3
:020000040000fa
:101a1800034b02229a72d872197300225a737047c4
:041a2800000000209a
:020000040000fa
:101a2c00024b03229a725873704700bf00000020cb
:020000040000fa
:101a3c00024b03229a7206225a7370470000002050
:020000040000fa
:101a4c000001020304050607080c1014182030408e
:101a5c000001020304050607080c1014182030407e
:020000040000fa
:101a6c00024b40f204521a80704700bf0040004104
:020000040000fa
:101a7c00024bd86ac0f38000704700bf00400041a1
:020000040000fa
:101a8c00024b4ff400625a61704700bf0080004166
:020000040000fa
:101a9c0002440346934200d1704703f8011bf9e757
:020000040000fa
:0c1aac00014b1860996070474800002052
:020000040000fa
:081ab80008b5fef7e1fb08bdd3
:020000040000fa
:021ac00070476d
:020000040000fa
:021ac200fee73d
:020000040000fa
:021ac400fee73b
:020000040000fa
:021ac600fee739
:020000040000fa
:021ac800fee737
:020000040000fa
:021aca00fee735
:020000040000fa
:021acc00fee733
:020000040000fa
:021ace00fee731
:020000040000fa
:021ad00070475d
:020000040000fa
:021ad20070475b
:020000040000fa
:0200000400807a
:044000003912003c35
:020000040000fa
:0200000400807a
:044004009100a82a55
:020000040000fa
:0200000400807a
:04400800ffffffffb8
:00000001FF
