:020000040000fa
:10000000f0ff0320c9110000b71b0000b91b00005e
:10001000bd1b0000bf1b0000c11b00000000000052
:10002000000000000000000000000000b51b000000
:10003000bb1b000000000000b51b0000b51b00004a
:10004000b51b0000b51b0000b51b0000b51b000070
:10005000b51b0000b51b0000b51b0000b51b000060
:10006000b51b0000b51b0000b51b0000191a0000ed
:10007000b51b0000b51b0000b51b0000b51b000040
:10008000b51b0000b51b0000b51b0000b51b000030
:10009000b51b0000b51b0000b51b0000b51b000020
:1000a000b51b0000b51b0000b51b0000b51b000010
:1000b000b51b0000b51b0000b51b0000b51b000000
:1000c000b51b0000b51b0000b51b0000b51b0000f0
:1000d000b51b0000b51b0000b51b0000b51b0000e0
:1000e000b51b0000b51b0000000000000000000070
:1000f00000000000b51b0000b51b0000b51b000090
:10010000b51b0000b51b0000b51b0000b51b0000af
:10011000b51b0000b51b0000b51b0000b51b00009f
:10012000b51b0000b51b0000b51b0000b51b00008f
:10013000b51b0000b51b0000b51b0000b51b00007f
:10014000b51b0000b51b0000b51b0000b51b00006f
:10015000b51b0000b51b00000000000000000000ff
:10016000000000000000000000000000000000008f
:1001700000000000000000001d0b00009d0c0000ae
:10018000b51b0000b51b0000b51b0000b51b00002f
:1001900000000000b51b0000b51b0000b51b0000ef
:1001a000b51b0000b51b0000b51b0000b51b00000f
:1001b000b51b0000b51b0000b51b0000b51b0000ff
:1001c000b51b0000b51b0000b51b0000b51b0000ef
:1001d000b51b0000b51b0000b51b0000b51b0000df
:1001e000b51b0000b51b0000b51b0000b51b0000cf
:1001f000b51b0000b51b0000b51b0000b51b0000bf
:10020000b51b00000000000000000000b51b00004e
:10021000b51b0000b51b0000b51b0000b51b00009e
:10022000b51b0000b51b0000b51b0000b51b00008e
:10023000b51b0000b51b0000b51b0000b51b00007e
:10024000b51b0000b51b0000b51b0000b51b00006e
:10025000b51b0000b51b0000b51b0000b51b00005e
:020000040000fa
:10026000f8b500bff8bc08bc9e467047c117000037
:10027000f8b500bff8bc08bc9e4670479d1700004b
:020000040000fa
:10028000f0b583b0a54b1b78002b00f03b81a34b4e
:1002900000221a70a24b1b7b082b05d1a04c221dfb
:1002a00004f10c05002103e001f0d8fa2de1194614
:1002b00012f8010b80ea0103dbb2aa42f7d18842af
:1002c00019d1974b1b79974a12789a4216d0954ac2
:1002d0001370934b03f11402191d03c982e8030044
:1002e0005b79013b092b12d8dfe803f00b29333c83
:1002f000546c839ab1ca01f0b1fa06e101f0aefa8a
:1003000003e1894bd3f80120854bc3f81720874bb5
:1003100004f11b00002113f8012b51408342fad154
:100320007f4ad176804b187800230093143208213d
:1003300000f5007000f05efe01f090fae5e07a4b07
:10034000d3f80510764ac2f8171000225a719a7134
:10035000dde7734a744b53f8091fc2f816101b7976
:100360009376d4e76e4b9b796f4a927d9a4209d976
:1003700002336d4a02eb8303d3f80620684bc3f8bf
:100380001720c4e7664b00225a7504229a75012291
:10039000da75bce7624b9b79634ad27e9a4209d9ef
:1003a0000433614a02eb8303d3f807205c4bc3f8a4
:1003b0001720ace75a4b00225a7505229a75012284
:1003c000da75a4e7564b9b79574a92f840209a4237
:1003d00007d90733544a52f82320514bc3f817204a
:1003e00095e74f4b00225a7506229a750122da755d
:1003f0008de74b4b9b794c4ad27e9a4208d9484aaa
:10040000d2f81710484a02eb8303c3f817107ee7af
:10041000434b00225a7507229a750122da7576e756
:100420003f4b9b79404a92f840209a4207d90733c4
:100430003b4ad2f817103c4a42f8231067e7384b82
:1004400000225a7508229a750122da755fe7364d47
:1004500005f1180305f13c07354ec5f1ff2505f5fb
:100460007f05e835ea18316853f8040f8850bb421d
:10047000f8d12f4b1b684ff05a32c3f8fc2346e7e4
:10048000294b5e6c2eb3264b987928b1264b9b7a6c
:10049000012b2ed0244b5872234d0423ab72002322
:1004a000eb722b731e498b7a00934b7a0a7ac979c7
:1004b000b047ab7a032b03d90322aa7205226a73d1
:1004c000174a194b53f8091fc2f816101b79937677
:1004d0001de7134a91795972032199720021d9724b
:1004e000197304215973d3f80930c2f81630917684
:1004f0000de70b4b0322da7500221a765a76012299
:100500009a7604e70b4b1b780bb903b0f0bd094b8f
:1005100000221a7001f0a2f9f7e700bfb201002033
:100520002c010020af01002000000020400100202d
:0805300054000020b10100207d
:020000040000fa
:1005380038b5844b1b78002b42d1834b1b6a13f4cc
:10054800004f00f0f780814a13780133dbb2137053
:10055800042b05d97b4b01221a707c4b00221a70a0
:10056800794b1b6a13f0100f00f0e080784b1b7872
:100578000133dbb2042b36d9754b00221a70754b48
:100588001b88002b40f0bd80724b05221a80724bed
:100598001b78002b56d1714b1b78012b44d05ab2d3
:1005a80022b3022b40f0b080664b1b78002b40f042
:1005b800ab806a4b00221a70674b01221a70a3e0c5
:1005c800614b1b6a13f4004f40f0b8805f4a137800
:1005d8000133dbb21370042bc2d90023594a1370bc
:1005e8005a4a1370bce75a4a1370c8e75c4b1b7829
:1005f8003bb9554b4ff480429a61584b01221a700f
:1006080082e0013b564a1370564b1b78012b03d0ee
:100618000133544a137077e04b4b4ff48042da6150
:10062800504b01221a706fe0464b1b78002b6bd0a1
:10063800454b04229a614ff480425a61474b02228b
:100648001a7061e0484b1b78002b5dd10122002114
:10065800084601f09ff9002834d1434b1b78002b42
:1006680052d1384b1b78002b4fd0404a13780133b6
:10067800dbb21370322b3ed83d4a1278002a4bd198
:10068800142b11d93a4c012525700021032001f0c3
:10069800abf9384b18702b4610220021084601f0a0
:1006a8002df92378002b37d10021022001f09cf985
:1006b80000eb80004000304b1880234b4ff4804201
:1006c8005a6121e00123284a1370402202210020a8
:1006d80001f014f91c4c4ff4804363610020244b53
:1006e800187003461022014601f008f94ff4000380
:1006f800c4f89830b1e700f0bbfe05e000f0b8fea2
:1007080002e0013b134a138038bd184b00221a70cf
:10071800174b1b78002bc7d001f0a2f9154b1b789b
:10072800002bebd0013b134a1370ede7084b002276
:100738001a7024e7054b00221a7011e7034b0022b8
:100748001a700de7ba01002000800041bf010020a7
:10075800be0100205c000020b9010020b801002083
:10076800bc010020c0010020b7010020bd0100200d
:0c077800bb010020c20100205e00002038
:020000040000fa
:100784008c0100201c00000000000000a8010020d3
:100794000100000000000000a90100200100000089
:1007a40000000000aa010020010000000000000079
:1007b400ab0100200100000000000000ac0100209b
:1007c4000100000000000000ad0100200100000055
:1007d40000000000ae010020010000000000000045
:1007e400600000202c000000000000002c0100200c
:1007f400200000000000000000000020480000006d
:1008040000000000af010020010000000000000013
:10081400b00100200100000000000000b101002030
:100824000100000000000000b201002001000000ef
:10083400000000005400002004000000010000003b
:10084400000000444c0100202000000000000000d3
:100854008c0000202800000000000000b4000020ec
:1008640028000000000000006c01002020000000af
:1008740000000000dc000020280000000000000050
:10088400040100202800000000000000b301002043
:100894000100000000000000480000200c000000df
:1008a40000000000b401002001000000000000006e
:1008b400b50100200100000000000000b601002086
:1008c4000100000000000000b7010020010000004a
:1008d40000000000b801002001000000000000003a
:1008e400b90100200100000000000000ba0100204e
:1008f4000100000000000000bb0100200100000016
:10090400000000005c000020020000000000000065
:10091400bc0100200100000000000000bd01002017
:1009240001000000000000005e0000200200000042
:1009340000000000be0100200100000000000000d3
:10094400bf0100200100000000000000c0010020e1
:100954000100000000000000c101002001000000af
:1009640000000000c201002001000000000000009f
:1009740058000020040000000000000000000000f7
:1009840000000000222222222222222222222222cb
:020000040000fa
:1009940008b5594b1b78594a126ac2f30052934264
:1009a40076d0564b1b6ac3f30053534a1370544b0f
:1009b4001b78524ad2f8a02002f0010293426dd073
:1009c4004e4bd3f8a03003f001034d4a13704d4b46
:1009d4001b784a4ad2f8a020c2f34002934263d063
:1009e400464bd3f8a030c3f34003464a1370464b3a
:1009f4001b78424ad2f8a020c2f38002934259d015
:100a04003e4bd3f8a030c3f380033f4a13703f4bef
:100a14001b783a4ad2f8a020c2f3c00293424fd0c6
:100a2400364bd3f8a030c3f3c003384a1370384ba5
:100a34001b78324a126ac2f34052934246d02f4b7b
:100a44001b6ac3f34053324a1370324b1b782b4a50
:100a5400126ac2f3c06293423ed0284b1b6ac3f3ae
:100a6400c0632c4a137008220021084600f094ff4a
:100a7400c0b3224b4ff400229a6110220021084691
:100a840000f08aff98b31d4b1022c3f8982008bdcc
:100a940004220221002000f033ff88e71022012104
:100aa400002000f02dff92e720220121002000f019
:100ab40027ff9ce701221146002000f021ffa6e752
:100ac40002220121002000f01bffb0e704220121d3
:100ad400002000f015ffb8e708220121002000f0f3
:100ae4000fffc0e7054b4ff400225a61c5e7034be3
:100af4001022c3f89420cae7aa0100200080004114
:100b0400ac010020ab010020a9010020a8010020b5
:080b1400ae010020ad0100203c
:020000040000fa
:100b1c002de9f04784b04ff084431c6d14f0007f36
:100b2c001cbf4ff000721a6514f0010f62d04ff029
:100b3c00844301221a655a6d22f001025a65d3f8da
:100b4c00a43013f07f0f55d04ff08443d3f8a4504a
:100b5c00c5f305252b014a4ad268d718d15811f094
:100b6c00804fd15805eb8500464e56f8200014bf37
:100b7c0021f06041c1f38a410160d2587b6813f4c3
:100b8c00001f02d112f0005f71d105eb85033d4ac5
:100b9c0002eb83031b6900221a707e683a4b0fcb61
:100bac000df1100c0ce90f00c6f30346664416f861
:100bbc0010ac344e4fea850808eb050906eb8909a1
:100bcc00524607f10801d9f8040000f069ffd9f882
:100bdc00083083f800a0d9f80c300bb17a681a8071
:100bec004ff08443c3f8a850284b1b6813b1274a15
:100bfc005068984714f4007f20d04ff084434ff492
:100c0c0000721a655a6d22f400725a65d3f8d82016
:100c1c00d3f8e03013f0010f0ad012f0010f07d017
:100c2c004ff08442d2f8e03023f00103c2f8e030f8
:100c3c00164b9b6913b1154ad069984714f4006f91
:100c4c0012d04ff084424ff400631365d2f8c430d5
:100c5c00c3f30423d2f8c420c2f30442934203d258
:100c6c000133dbb29a42fbd104b0bde8f08705eb4f
:100c7c008503044a02eb83031b6901221a708ce77b
:100c8c00dc00002004010020501b00006c0100203f
:020000040000fa
:100c9c002de9f04784b0574b1c6d14f0007f1cbf3e
:100cac004ff000721a6514f0010f5fd0514b012206
:100cbc001a655a6d22f001025a65d3f8a43013f06c
:100ccc007f0f53d04b4bd3f8a450c5f305252b0104
:100cdc00494ad268d718d15811f0804fd15805eb3a
:100cec008500464e56f8200014bf21f06041c1f338
:100cfc008a410160d2587b6813f4001f02d112f0b4
:100d0c00005f6dd105eb85033c4a02eb83031b6945
:100d1c0000221a707e683a4b0fcb0df1100c0ce9c7
:100d2c000f00c6f30346664416f810ac334e4fea78
:100d3c00850808eb050906eb8909524607f10801fd
:100d4c00d9f8040000f0acfed9f8083083f800a004
:100d5c00d9f80c300bb17a681a80264bc3f8a8501e
:100d6c00284b1b6813b1274a5068984714f4007f2e
:100d7c001ed0204b4ff400721a655a6d22f400728b
:100d8c005a65d3f8d820d3f8e03013f0010f09d00e
:100d9c0012f0010f06d0174ad2f8e03023f001030d
:100dac00c2f8e030174b9b6913b1164ad0699847cb
:100dbc0014f4006f11d00f4a4ff400631365d2f88e
:100dcc00c430c3f30423d2f8c420c2f304429342c8
:100ddc0003d20133dbb29a42fbd104b0bde8f087f9
:100dec0005eb8503054a02eb83031b6901221a708c
:100dfc0090e700bf000400428c000020b4000020eb
:080e0c00401b00004c01002016
:020000040000fa
:100e1400424b42f20e229a821a46d36813f0010f13
:100e2400fbd03e4b00221a7403f500633c4ada629d
:100e34001a46536813f0200ffbd13a4b3a4a9a6290
:100e44001a46536813f0100ffbd1364b374a1a6316
:100e54001a46536813f0400ffbd1324b4222c3f8b9
:100e640084201a46d2f8843013f0400ffad0304b65
:100e740000229a6377225a631a46d36b13f0040f45
:100e8400fbd12b4b022283f830201a46d36b13f08c
:100e9400020ffbd1264a136c03f00303032bfad190
:100ea400244b01225a711a46d37813f0010ffbd058
:100eb4001c4b214a1a621a46536813f0040ffbd1e3
:100ec400184b1e4a5a621a46536813f0080ffbd196
:100ed400144b4322c3f8a4201a46d2f8a43013f0ca
:100ee400400ffad00f4b4422c3f8ec201a46d2f834
:100ef400ec3013f0400ffad00a4b4422c3f8f02030
:100f04001a46d2f8f03013f0400ffad0094b6ff0c4
:100f14007f421a6144f2ff725a6170470014004024
:100f240004012000001c00400601300006010200fc
:100f34000010004000080040070101000701020002
:020000040000fa
:100f440070b50646254b1d68254c11232370254892
:100f540000f0a4f8012262700023a370e270022161
:100f6400a172e372237363736371a371e3712372d8
:100f7400a175e27605f00f03934208d0184b0022c6
:100f840083f84020164b5e6400f066fc70bdc5f328
:100f940002159542f2d1092284f8402000f0e6fdc2
:100fa4000028fbd1104b1868d0f8fc33b3f15a3f3a
:100fb40009d00b4a02f11c034032002143f8041b00
:100fc4009342fbd1dee7031f084a203053f8041f85
:100fd40042f8041f8342f9d1d4e700bf04408000e3
:100fe40000000020600000205400002018000020b1
:020000040000fa
:100ff400f8b59df818c0bcf1010f01d90020f8bd67
:101004004ff08443d3f8c43013f4001f3fd14ff0a2
:101014008443d3f8c440c4f3044426011d4b9f69a0
:10102400bd19b0f5006f26bf20f0604040f080404d
:101034008004b8510b46082928bf082318046860a7
:101044001cf0fd0f1ed111461a4605f1080000f0f0
:101054002bfd114a13780133dbb213706a6842ea3c
:10106400036343f400036b60012000fa04f44ff0bf
:101074008443c3f8e040c3f8d0405a6d42f4007290
:101084005a65bce7bb5943f00053bb51e1e700206c
:0c109400b5e700bfdc000020b301002025
:020000040000fa
:1010a00010b504462c22002100f072fd4ff084435d
:1010b00001229a611a46936913f0010ffbd04ff099
:1010c00084439a6942f002029a611849cc60a2b244
:1010d00042f0004242f48032c3f8a02004f1100232
:1010e0008a6192b242f08072c3f8c02004f12002fb
:1010f000ca6192b242f48032c3f8f02004f12802af
:101100000a620b49a16292b242f48032c3f8842091
:101110009a6922f4804222f0010242f480429a61ec
:101120001a46936913f0010ffbd110bddc000020bb
:041130001102110a8d
:020000040000fa
:1011340010b582b02248fff703ff00240094234631
:1011440022462821204600f0a3fb00942346224691
:101154003221012000f09cfb009423462246c82142
:10116400022000f095fb00942346224664210320cc
:1011740000f08efb0094234664221146042000f004
:1011840087fb0094234622462146052000f080fb7d
:101194000094234622462146062000f079fb009461
:1011a400234622462146072000f072fb0094234682
:1011b40022462146082000f06bfb02b010bd00bfa0
:0411c40039190000d5
:020000040000fa
:1011c80008b51b4b98471b4b9847eff3108172b635
:1011d800194ad2f8883043f47003c2f88830bff354
:1011e8004f8fbff36f8f01b962b6144c2023636031
:1011f80000f0faf8124b23f07f030f4a9360114b6b
:101208009847a36823f00103a3602346da6812f025
:10121800010ffbd1094b5a6842f004025a600122bf
:101228009a60094b9847094b984700f061f9fee727
:10123800c31b0000c31b000000ed00e0006000417c
:101248000000000011170000c31b0000c31b0000b2
:020000040000fa
:1012580038b51d4b01229a611a46936913f0010fa4
:10126800fbd0194b9a6942f002029a61174ada6177
:101278002b22c3f8802001221a629a6922f4804244
:1012880022f0010242f480429a611a46936913f0ef
:10129800010ffbd10c4b00249c650122da654ff04d
:1012a80000725a650a4d2c606c60ac602822214699
:1012b800084800f069fcec602c616c61ac61ec6181
:1012c8002c626c6238bd00bf0004004200050200b9
:0812d8008c000020b40000208e
:020000040000fa
:1012e00038b54ff0844301229a611a46936913f08e
:1012f000010ffbd04ff084439a6942f002029a61d9
:10130000164ada612b22c3f8802001221a629a69f8
:1013100022f4804222f0010242f480429a611a468d
:10132000936913f0010ffbd14ff0844300249c65b7
:101330000122da654ff000725a65094d2c606c602d
:10134000ac6028222146074800f022fcec602c61aa
:101350006c61ac61ec612c626c6238bd000502000e
:08136000dc0000200401002064
:020000040000fa
:1013680010b41f4b1f4a1a60402183f8431006220d
:1013780083f8442083f8452083f84b1083f84e10f7
:1013880083f84f2083f8531083f8542083f85520ae
:10139800012083f8560083f8570083f85b208824df
:1013a80083f83b40a4f1ff44583cc3f8804083f8dd
:1013b800c02083f8c12083f8c22083f8c32083f8b3
:1013c800c41083f8cc0083f8cd0083f8ce2083f8ce
:1013d800d710772283f8b6205df8044b704700bf1a
:0813e8000080004104480800e8
:020000040000fa
:1013f0001e4b1f4a9342f0b438bf002103d203f8ba
:10140000011b9342fbd11b4ad2e9000150ea0103c0
:101410004ff0000610d09468034602f10c076cb937
:1014200021b1014403f8016b9942fbd13a46d2e95c
:10143000000150ea0103eed1f0bc704759b101f14f
:101440000c030c38801a1a443b461c1813f8015b35
:1014500025709342f9d111f0030318bf012303eb68
:10146000910107eb81073a46e1e700bf0000002049
:081470000000002084070000c9
:020000040000fa
:1014780038b50024164b1c70164b1c7021462046ac
:1014880000f0b2fa144b1870144d04236b61144b1e
:101498001c70234640220221204600f02ffa4ff408
:1014a8000003c5f89430234610222146204600f058
:1014b80025fa0c4b1c702146022000f095fa00eb2f
:1014c80080004000084b1880084b1c7038bd00bfd6
:1014d800b9010020b8010020bc01002000800041b3
:1014e800b7010020bb0100205e000020bd010020e4
:020000040000fa
:1014f80008b5002000f0a0fa0021194800f04cfbc4
:1015080000f0defa00f0e8fafff710fe00f02cf821
:1015180000f032fb00f0f6fa124c15e023f002035b
:101528002370fff733fa00f057f800f047fb11e09b
:1015380023f004032370fef7fbff237813f0040f56
:1015480002d023f00403237000f02cfb237813f05f
:10155800020fe3d1237813f0040ff5d0e8e700bfba
:08156800cd180000b6010020bf
:020000040000fa
:1015700008b5002304220221184600f0c3f9002315
:1015800010220121184600f0bdf90023202201217c
:10159000184600f0b7f9002301221146184600f062
:1015a000b1f9002302220121184600f0abf9002313
:1015b00004220121184600f0a5f900230822012188
:1015c000184600f09ff9054b4ff400225a61202283
:1015d000c3f894201022c3f8942008bd0080004175
:020000040000fa
:1015e00008b5104b1a78104b1b6ac3f340139a428c
:1015f00010d00d4b1b6ac3f340130a4a137020220c
:101600000021084600f0caf938b1074b4ff40062d8
:101610009a6108bd054b1a70f1e7034b4ff4006265
:101620005a61f6e7b501002000800041b4010020b6
:020000040000fa
:10163000f0b59df81440ecb94ff0844cdcf8a450a0
:10164000c5f305250c4cae007719bf0004eb070e5f
:10165000e051cef80420cef80810cef80c30069bee
:10166000cef81030dcf8543043f00103ccf854309d
:0c167000012000e00020f0bd040100207b
:020000040000fa
:10167c0010b50e4b1b78b3b90d4b1c78a4b10d4ba8
:10168c001b780bb11c460fe00021032000f0aaf9d7
:10169c00094b18700123074a1370102200210846c9
:1016ac0000f02af900e00024204610bdb70100200c
:0c16bc00b9010020bb010020c201002089
:020000040000fa
:1016c8000f4ad36823f4e0631b041b0c43f0bf6389
:1016d80043f40033d360bff35f8f62b6094be02257
:1016e80083f80b234ff40061196083f84e234ff4fd
:1016f8008041996083f84f234ff400429a60704705
:0817080000ed00e000e100e04b
:020000040000fa
:1017100070b50d4d0d4c641ba4100026a64209d1d6
:101720000b4d0c4cfef79cfd641ba4100026a6423a
:1017300005d170bd55f8043b98470136eee755f8e2
:10174000043b98470136f2e76c0200006c0200008f
:081750006c02000070020000b1
:020000040000fa
:101758000f4b01221a801a46136913f0010ffbd1af
:101768000b4b4ff401421a8000221a621a46136981
:1017780013f0200ffbd1064b00225a621a46136958
:1017880013f0400ffbd1024b83225a81704700bff0
:0417980000240040e9
:020000040000fa
:10179c0010b5054c237833b9044b13b10448aff39f
:1017ac0000800123237010bd8c010020000000007c
:1017bc000000000008b5034b1bb103490348aff30d
:1017cc00008008bd00000000900100200000000017
:020000040000fa
:1017dc004ff08443586c20f4605020f01800400403
:1017ec00400c9b6913f0010f11d04ff084429369a8
:1017fc0043f002039361936923f4804323f00103c4
:10180c0043f480439361936913f0010ffbd170474c
:020000040000fa
:10181c0008b50b4b1b782bb90a4b1b7813b10a4b31
:10182c001b7803b908bd0020074b18700346102223
:10183c00014600f061f8054b4ff480425a61f1e724
:10184c00b7010020b9010020bb010020008000413d
:020000040000fa
:10185c0000b583b000221146084800f013f908487f
:10186c00084b01930023009300f10e03021d00f1bd
:10187c000c01fff7d7fe03b05df804fbc91900009b
:08188c002c010020b001002036
:020000040000fa
:1018940030b40b4c2468d4f8fc43b4f15a3f0dd057
:1018a400084c94f84040844208d9064c04eb800567
:1018b40029776a77ab779df80830eb7730bc7047af
:0818c400540000200000002088
:020000040000fa
:1018cc0010f0010f04d00b4a137843f0020313708d
:1018dc0010f0020f04d0074a137843f0040313707e
:1018ec0010f0800f04d0034a137843f001031370f7
:0818fc00704700bfb601002097
:020000040000fa
:1019040010b40b4ca47d84420fd903290dd8084c84
:1019140004eb80040c44a47b24ea020403b11443c2
:10192400034b03eb8000084484735df8044b704759
:04193400000000208f
:020000040000fa
:1019380008b528b1012808d0042000f0edf803e02c
:10194800fff768ff00f0f0f808bdfff793fe20b13d
:101958000021084600f0ccf8f6e7032000f0dcf898
:02196800f2e7a4
:020000040000fa
:02196a007047c4
:020000040000fa
:10196c000a4b01221a601a46136913f0010ffbd1be
:10197c00064b40f214721a6001221a731a77332242
:10198c009a721a461369002bfcd17047003800403c
:020000040000fa
:10199c00094bdb7e83420dd9032901d90020704706
:1019ac00054b03eb80000844c37d1a4214bf012091
:0c19bc0000207047002070470000002051
:020000040000fa
:1019c80008b5fff707ff10f0070005d0072803d078
:1019d800034b01221a7002e0024b01221a7008bd63
:0819e800b1010020b201002052
:020000040000fa
:1019f000084b93f84030834209d9032901d90020cc
:101a00007047044b03eb80000844007f70470020c0
:081a1000704700bf0000002038
:020000040000fa
:101a180008b5074a908980b2064b58604cf2ff31ee
:101a280091811b6813b1034a9168984708bd00bfac
:081a38000024004048000020da
:020000040000fa
:101a400008b500f08df8fff78ffcfff7e3f9fff71b
:101a50008cfffff701fcfff743fcfff77dfefff76c
:081a600085fffff731fe08bd10
:020000040000fa
:101a6800074b1b78022b03d00133054a13707047cc
:101a7800044b4ff48042da61014b01221a7070471f
:081a8800c101002000800041b3
:020000040000fa
:101a900010b428b1044b43f8320003ebc203596081
:0c1aa0005df8044b704700bf6c01002093
:020000040000fa
:101aac000a44914200f1ff3300d1704710b511f890
:0c1abc00014b03f8014f9142f9d110bd1d
:020000040000fa
:101ac800044a138843f002031380136913f0020fca
:081ad800fbd17047002400401f
:020000040000fa
:101ae000044a136843f002031360136913f0020ff2
:081af000fbd1704700380040f3
:020000040000fa
:101af800034b02229a72d872197300225a737047e4
:041b080000000020b9
:020000040000fa
:101b0c0008b5034b00221a80fff7b0fc08bd00bfdc
:041b1c005c00002049
:020000040000fa
:101b2000024b03229a725873704700bf00000020d6
:020000040000fa
:101b3000024b03229a7206225a737047000000205b
:020000040000fa
:101b40000001020304050607080c10141820304099
:101b50000001020304050607080c10141820304089
:020000040000fa
:101b6000024b40f204521a80704700bf004000410f
:020000040000fa
:101b7000024bd86ac0f38000704700bf00400041ac
:020000040000fa
:101b8000024b4ff400625a61704700bf0080004171
:020000040000fa
:101b900002440346934200d1704703f8011bf9e762
:020000040000fa
:0c1ba000014b186099607047480000205d
:020000040000fa
:081bac0008b5fef767fb08bd58
:020000040000fa
:021bb400fee74a
:020000040000fa
:021bb600fee748
:020000040000fa
:021bb800fee746
:020000040000fa
:021bba00fee744
:020000040000fa
:021bbc00fee742
:020000040000fa
:021bbe00fee740
:020000040000fa
:021bc000fee73e
:020000040000fa
:021bc20070476a
:020000040000fa
:021bc400704768
:020000040000fa
:0200000400807a
:044000003912003c35
:020000040000fa
:0200000400807a
:044004009100a82a55
:020000040000fa
:0200000400807a
:04400800ffffffffb8
:00000001FF
