:020000040000fa
:10000000f0ff032071170000a7270000a9270000b8
:10001000ad270000af270000b1270000000000005e
:10002000000000000000000000000000a527000004
:10003000ab27000000000000a5270000a527000056
:10004000a5270000a5270000a5270000a527000080
:10005000a5270000a5270000a5270000a527000070
:10006000a5270000a5270000a5270000b92400004f
:10007000a5270000a5270000a5270000a527000050
:10008000a5270000a5270000a5270000a527000040
:10009000a5270000a5270000a5270000a527000030
:1000a000a5270000a5270000a5270000a527000020
:1000b000a5270000a5270000a5270000a527000010
:1000c000a5270000a5270000a5270000a527000000
:1000d000a5270000a5270000a5270000a5270000f0
:1000e000a5270000a5270000000000000000000078
:1000f00000000000a5270000a5270000a52700009c
:10010000a5270000a5270000a5270000a5270000bf
:10011000a5270000a5270000a5270000a5270000af
:10012000a5270000a5270000a5270000a52700009f
:10013000a5270000a5270000a5270000a52700008f
:10014000a5270000a5270000a5270000a52700007f
:10015000a5270000a5270000000000000000000007
:10016000000000000000000000000000000000008f
:100170000000000000000000c50e00004510000057
:10018000a5270000a5270000a5270000a52700003f
:1001900000000000a5270000a5270000a5270000fb
:1001a000a5270000a5270000a5270000a52700001f
:1001b000a5270000a5270000a5270000a52700000f
:1001c000a5270000a5270000a5270000a5270000ff
:1001d000a5270000a5270000a5270000a5270000ef
:1001e000a5270000a5270000a5270000a5270000df
:1001f000a5270000a5270000a5270000a5270000cf
:10020000a52700000000000000000000a527000056
:10021000a5270000a5270000a5270000a5270000ae
:10022000a5270000a5270000a5270000a52700009e
:10023000a5270000a5270000a5270000a52700008e
:10024000a5270000a5270000a5270000a52700007e
:10025000a5270000a5270000a5270000a52700006e
:020000040000fa
:10026000f8b500bff8bc08bc9e46704749210000a5
:10027000f8b500bff8bc08bc9e46704725210000b9
:020000040000fa
:10028000ab4b1b78002b4ed1aa4b1b6a13f4004fcb
:1002900000f0a681a84a13780133dbb21370042b57
:1002a00005d9a34b01221a70a34b00221a70a34b4d
:1002b0001b78002b4ad19f4b1b6a13f0100f40f0a4
:1002c00087819f4a13780133dbb21370042b05d961
:1002d0009a4b01221a709a4b00221a70994b1b8874
:1002e000002b40f05f8170b5964b05221a80964b2b
:1002f0001b78002b61d1954b1b78012b50d05ab243
:10030000002a36d0022b5cd1894b1b78002b51d1af
:10031000884b4ff480425a618c4b00221a708a4bf2
:1003200001221a704de0834b1b6a13f4004f40f01a
:100330005b81814a13780133dbb21370042bb6d989
:1003400000237b4a13707c4a1370b0e7794b1b6a19
:1003500013f0100f00f04081794a13780133dbb2bb
:100360001370042bbad90023744a1370744a1370a3
:10037000b4e7774b1b7853b96d4b1b786bb96d4b5a
:100380004ff480429a61714b01221a7019e0013bcf
:100390006f4a137002f0a4f813e002f0a1f810e025
:1003a000634b1b786bb1634b04229a61674b02224b
:1003b0001a7006e002f094f803e0664b1b78002bfd
:1003c00049d05c4b1b6ac3f3c0038022002108465e
:1003d00001f09cff02f0c4f9642404fb00f05e4dc0
:1003e00085fb00321318c217c2eba312d2b25b4ec8
:1003f00032700021012002f0adf802f0abf904fbed
:1004000000f085fb00350544c217c2eba512d2b23d
:10041000534c22700121084602f09cf80021042070
:1004200002f036f8337883422cbf002301232022c8
:100430000021084601f06aff0121042002f028f89b
:10044000237883422cbf0023012340220021084649
:1004500001f05cff70bd01220021084601f0eeffb3
:1004600000283bd1324b1b78002b00f09f803d4a87
:1004700013780133dbb21370322b48d83a4a127822
:10048000002a40f09b80142b12d9374c012525708f
:100490000021032001f0fcff344b18702b46102282
:1004a0000021084601f032ff2378002b40f08680bf
:1004b000224c237804220021084601f027ff2378ec
:1004c000002b61d02a4b1b883bb3013b9bb2284acf
:1004d0001380632b24d802f017f872e701231d4a1a
:1004e000137040220221002001f010ff114c4ff444
:1004f0008043636100201c4b1870034610220146a4
:1005000001f004ff4ff40003c4f89830aae701f0ab
:1005100077f956e701f074f953e701f071f950e704
:10052000144b1b78192b27d00133124a137048e75c
:100530003f02002000800041440200203e020020d3
:1005400043020020480000203d0200203c02002021
:10055000410200205f000020430821845d0000204c
:100560005e000020420200204002002048020020dd
:100570004a000020470200201d4b4ff48042da6100
:100580001c4b01221a701ce70021022001f080ffa1
:1005900000eb80004000184b1880154b4ff4804250
:1005a0005a610ee7013b154a13807047144b002235
:1005b0001a70144b1b78002b3ff47aaf01f0a4ffa4
:1005c000114b1b78002ba5d0013b0f4a1370f8e6a6
:1005d0000e4b00221a7081e60c4b00221a707de649
:1005e0000b4b00221a7062e6094b00221a705ee67d
:1005f00000800041470200204a00002048000020ff
:100600004202002040020020480200204302002055
:040610004402002080
:020000040000fa
:10061400f0b583b0a54b1b78002b00f03b81a34bb6
:1006240000221a70a24b1b7b082b05d1a04c221d63
:1006340004f10c05002103e001f012fe2de119463e
:1006440012f8010b80ea0103dbb2aa42f7d1884217
:1006540019d1974b1b79974a12789a4216d0954a2a
:100664001370934b03f11402191d03c982e80300ac
:100674005b79013b092b12d8dfe803f00b29333ceb
:10068400546c839ab1ca01f0ebfd06e101f0e8fd78
:1006940003e1894bd3f80120854bc3f81720874b1e
:1006a40004f11b00002113f8012b51408342fad1bd
:1006b4007f4ad176804b18780023009314320821a6
:1006c40000f5007000f07efe01f0cafde5e07a4b13
:1006d400d3f80510764ac2f8171000225a719a719d
:1006e400dde7734a744b53f8091fc2f816101b79df
:1006f4009376d4e76e4b9b796f4a927d9a4209d9df
:1007040002336d4a02eb8303d3f80620684bc3f827
:100714001720c4e7664b00225a7504229a750122f9
:10072400da75bce7624b9b79634ad27e9a4209d957
:100734000433614a02eb8303d3f807205c4bc3f80c
:100744001720ace75a4b00225a7505229a750122ec
:10075400da75a4e7564b9b79574a92f840209a429f
:1007640007d90733544a52f82320514bc3f81720b2
:1007740095e74f4b00225a7506229a750122da75c5
:100784008de74b4b9b794c4ad27e9a4208d9484a12
:10079400d2f81710484a02eb8303c3f817107ee718
:1007a400434b00225a7507229a750122da7576e7bf
:1007b4003f4b9b79404a92f840209a4207d907332d
:1007c4003b4ad2f817103c4a42f8231067e7384beb
:1007d40000225a7508229a750122da755fe7364db0
:1007e40005f1180305f13c07354ec5f1ff2505f564
:1007f4007f05e835ea18316853f8040f8850bb4286
:10080400f8d12f4b1b684ff05a32c3f8fc2346e74c
:10081400294b5e6c2eb3264b987928b1264b9b7ad4
:10082400012b2ed0244b5872234d0423ab7200238a
:10083400eb722b731e498b7a00934b7a0a7ac9792f
:10084400b047ab7a032b03d90322aa7205226a7339
:10085400174a194b53f8091fc2f816101b799376df
:100864001de7134a91795972032199720021d972b3
:10087400197304215973d3f80930c2f816309176ec
:100884000de70b4b0322da7500221a765a76012201
:100894009a7604e70b4b1b780bb903b0f0bd094bf8
:1008a40000221a7001f0dcfcf7e700bf56000020bc
:1008b400c00100205300002000000020d4010020cb
:0808c4009800002055000020ff
:020000040000fa
:1008cc00200200201c000000000000004c00002052
:1008dc0001000000000000004d000020010000009d
:1008ec00000000004e00002001000000000000008d
:1008fc004f0000200100000000000000500000200c
:10090c000100000000000000510000200100000068
:10091c000000000052000020010000000000000058
:10092c00600000202c00000000000000c00100202e
:10093c002000000000000000000000204800000023
:10094c000000000053000020010000000000000027
:10095c0054000020010000000000000055000020a1
:10096c000100000000000000560000200100000003
:10097c0000000000980000200400000001000000ae
:10098c0000000044e00100202000000000000000f6
:10099c00f8000020280000000000000020010020ca
:1009ac00280000000000000057000020010000009b
:1009bc0000000000000200202000000000000000e9
:1009cc0048010020280000000000000070010020f9
:1009dc00280000000000000058000020010000006a
:1009ec00000000008c0000200c0000000000000043
:1009fc005900002001000000000000005a000020f7
:100a0c000100000000000000a00000202c000000ed
:100a1c0000000000cc0000202c00000000000000b2
:100a2c005b00002001000000000000005c000020c2
:100a3c0001000000000000005d000020010000002b
:100a4c00000000005e00002001000000000000001b
:100a5c005f00002001000000000000003c020020ac
:100a6c0001000000000000003d0200200100000019
:100a7c00000000003e020020010000000000000009
:100a8c003f02002001000000000000004002002096
:100a9c0001000000000000004800002002000000df
:100aac0000000000410200200100000000000000d6
:100abc004202002001000000000000004a0000205b
:100acc0002000000000000004302002001000000b2
:100adc0000000000440200200100000000000000a3
:100aec00450200200100000000000000460200202a
:100afc00010000000000000047020020010000007f
:100b0c00000000004802002001000000000000006e
:100b1c0049020020010000000000000098010020a4
:100b2c002800000001000000a12700008d1d00001e
:100b3c0085260000a91a0000251a00009527000040
:100b4c00992700008d2700006d2600009d270000ce
:100b5c009c000020040000000000000000000000c9
:100b6c0000000000222222222222222222222222e1
:020000040000fa
:100b7c0013400123010000002910012f0000000088
:100b8c002910022f010000003120002388130000df
:100b9c0032200023881300003320002300000000c3
:100bac00342000232cc900003520002308520000fb
:100bbc0036200023d007000037200023ceffffff94
:100bcc003b200123881300003b200223e803000094
:100bdc003b200323000000003b2004230000000006
:100bec003b2005238813000056200023f40100004d
:100bfc006120002301000000622000237800000027
:100c0c006320002301000000642000237800000012
:100c1c006520002301000000662000233c0000003a
:100c2c0002320023090000000b32012300000000f7
:100c3c000b320223000000000b32032301000000e2
:100c4c000b320423010000001032012350c30000ba
:100c5c00103202230a0000002132002300000000a1
:100c6c0041320123000000000037002bffffffff83
:100c7c005a60002b020000005b60002b000000009b
:100c8c005c60002b000000005d60002b0000000089
:100c9c005e60002b00000000656000230001000076
:100cac006660002b64000000676000230a000000ef
:100cbc006860002b640000007b60012300000000d2
:100ccc007b600223000000007d600123b0f6feff74
:100cdc007d600223500901007e60002f000000009f
:100cec008f600123d00700008f60022301000000f9
:100cfc00f260002b02000000916001230100000053
:100d0c009160022301000000c560002388130000dd
:100d1c00c6600023881300009860002f15000000a7
:100d2c007c600023000000000000000000000000b8
:020000040000fa
:100d3c0008b5594b1b78594a126ac2f300529342b8
:100d4c0076d0564b1b6ac3f30053534a1370544b63
:100d5c001b78524ad2f8a02002f0010293426dd0c7
:100d6c004e4bd3f8a03003f001034d4a13704d4b9a
:100d7c001b784a4ad2f8a020c2f34002934263d0b7
:100d8c00464bd3f8a030c3f34003464a1370464b8e
:100d9c001b78424ad2f8a020c2f38002934259d069
:100dac003e4bd3f8a030c3f380033f4a13703f4b44
:100dbc001b783a4ad2f8a020c2f3c00293424fd01b
:100dcc00364bd3f8a030c3f3c003384a1370384bfa
:100ddc001b78324a126ac2f34052934246d02f4bd0
:100dec001b6ac3f34053324a1370324b1b782b4aa5
:100dfc00126ac2f3c06293423ed0284b1b6ac3f303
:100e0c00c0632c4a137008220021084601f010fb25
:100e1c00c0b3224b4ff400229a61102200210846e5
:100e2c0001f006fb98b31d4b1022c3f8982008bda7
:100e3c0004220221002001f063fa88e7102201212c
:100e4c00002001f05dfa92e720220121002001f040
:100e5c0057fa9ce701221146002001f051faa6e74f
:100e6c0002220121002001f04bfab0e704220121fb
:100e7c00002001f045fab8e708220121002001f01a
:100e8c003ffac0e7054b4ff400225a61c5e7034b0c
:100e9c001022c3f89420cae74e00002000800041c5
:100eac00500000204f0000204d0000204c0000207e
:080ebc0052000020510000204b
:020000040000fa
:100ec4002de9f04784b04ff084431c6d14f0007f8b
:100ed4001cbf4ff000721a6514f0010f62d04ff07e
:100ee400844301221a655a6d22f001025a65d3f82f
:100ef400a43013f07f0f55d04ff08443d3f8a4509f
:100f0400c5f305252b014a4ad268d718d15811f0e8
:100f1400804fd15805eb8500464e56f8200014bf8b
:100f240021f06041c1f38a410160d2587b6813f417
:100f3400001f02d112f0005f71d105eb85033d4a19
:100f440002eb83031b6900221a707e683a4b0fcbb5
:100f54000df1100c0ce90f00c6f30346664416f8b5
:100f640010ac344e4fea850808eb050906eb8909f5
:100f7400524607f10801d9f8040001f013fbd9f82f
:100f8400083083f800a0d9f80c300bb17a681a80c5
:100f94004ff08443c3f8a850284b1b6813b1274a69
:100fa4005068984714f4007f20d04ff084434ff4e6
:100fb40000721a655a6d22f400725a65d3f8d8206b
:100fc400d3f8e03013f0010f0ad012f0010f07d06c
:100fd4004ff08442d2f8e03023f00103c2f8e0304d
:100fe400164b9b6913b1154ad069984714f4006fe6
:100ff40012d04ff084424ff400631365d2f8c4302a
:10100400c3f30423d2f8c420c2f30442934203d2ac
:101014000133dbb29a42fbd104b0bde8f08705eba3
:101024008503044a02eb83031b6901221a708ce7cf
:101034004801002070010020f42600000002002076
:020000040000fa
:101044002de9f04784b0574b1c6d14f0007f1cbf92
:101054004ff000721a6514f0010f5fd0514b01225a
:101064001a655a6d22f001025a65d3f8a43013f0c0
:101074007f0f53d04b4bd3f8a450c5f305252b0158
:10108400494ad268d718d15811f0804fd15805eb8e
:101094008500464e56f8200014bf21f06041c1f38c
:1010a4008a410160d2587b6813f4001f02d112f008
:1010b400005f6dd105eb85033c4a02eb83031b699a
:1010c40000221a707e683a4b0fcb0df1100c0ce91c
:1010d4000f00c6f30346664416f810ac334e4feacd
:1010e400850808eb050906eb8909524607f1080152
:1010f400d9f8040001f056fad9f8083083f800a0b2
:10110400d9f80c300bb17a681a80264bc3f8a85072
:10111400284b1b6813b1274a5068984714f4007f82
:101124001ed0204b4ff400721a655a6d22f40072df
:101134005a65d3f8d820d3f8e03013f0010f09d062
:1011440012f0010f06d0174ad2f8e03023f0010361
:10115400c2f8e030174b9b6913b1164ad06998471f
:1011640014f4006f11d00f4a4ff400631365d2f8e2
:10117400c430c3f30423d2f8c420c2f3044293421c
:1011840003d20133dbb29a42fbd104b0bde8f0874d
:1011940005eb8503054a02eb83031b6901221a70e0
:1011a40090e700bf00040042f80000202001002066
:0811b400e4260000e001002028
:020000040000fa
:1011bc004e4b42f20e229a821a46d36813f0010f5c
:1011cc00fbd04a4b00221a7403f50063484ada62da
:1011dc001a46536813f0200ffbd1464b464a9a62cd
:1011ec001a46536813f0100ffbd1424b434a1a6353
:1011fc001a46536813f0400ffbd13e4b4222c3f802
:10120c0084201a46d2f8843013f0400ffad03c4bad
:10121c0000229a6377225a631a46d36b13f0040f99
:10122c00fbd1374b022283f830201a46d36b13f0d4
:10123c00020ffbd1324a136c03f00303032bfad1d8
:10124c00304b01225a711a46d37813f0010ffbd0a0
:10125c00284b2d4a1a621a46536813f0040ffbd11f
:10126c00244b2a4a5a621a46536813f0080ffbd1d2
:10127c00204b4322c3f8a4201a46d2f8a43013f012
:10128c00400ffad01b4b4422c3f8ec201a46d2f87c
:10129c00ec3013f0400ffad0164b4422c3f8f02078
:1012ac001a46d2f8f03013f0400ffad0114b41220d
:1012bc00c3f820211a46d2f8203113f0400ffad08f
:1012cc000c4b4122c3f824211a46d2f8243113f0d6
:1012dc00400ffad00b4b6ff07f421a6144f2ff7251
:1012ec005a614ff4c0721a62704700bf001400407c
:1012fc0004012000001c0040060130000601020021
:10130c000010004000080040070101000701020026
:020000040000fa
:10131c00f8b50746244b1e68244c0125257024483b
:10132c0000f08cf965700023a370e5700222a272a4
:10133c00e372237363736371a371e3712372a275f8
:10134c00e57606f00f03ab4208d0184b002283f869
:10135c004020164b5f6400f07ffff8bdc6f3021609
:10136c00ae42f2d1092284f8402001f0cdf90028d8
:10137c00fbd1104b1868d0f8fc33b3f15a3f09d0ad
:10138c000a4a02f11c034032002143f8041b934229
:10139c00fbd1dee7031f084a203053f8041f42f844
:1013ac00041f8342f9d1d4e70440800000000020e0
:0c13bc00600000209800002018000020b5
:020000040000fa
:1013c800f8b59df818c0bcf1010f01d90020f8bd8f
:1013d8004ff08443d3f8c43013f4001f3fd14ff0cb
:1013e8008443d3f8c440c4f3044426011d4b9f69c9
:1013f800bd19b0f5006f26bf20f0604040f0804076
:101408008004b8510b46082928bf082318046860cf
:101418001cf0fd0f1ed111461a4605f1080001f017
:10142800bff8114a13780133dbb213706a6842ead5
:10143800036343f400036b60012000fa04f44ff0e7
:101448008443c3f8e040c3f8d0405a6d42f40072b8
:101458005a65bce7bb5943f00053bb51e1e7002094
:0c146800b5e700bf48010020580000203c
:020000040000fa
:10147400f8b59df818c0bcf1010f01d90020f8bde2
:10148400224bd3f8c43013f4001f3dd11f4bd3f8c3
:10149400c440c4f3044426011d4b9f69bd19b0f533
:1014a400006f26bf20f0604040f080408004b851b7
:1014b4000b46082928bf0823180468601cf0fd0f98
:1014c4001dd111461a4605f1080001f06bf8114ac6
:1014d40013780133dbb213706a6842ea036343f49e
:1014e40000036b60012000fa04f4084bc3f8e040e9
:1014f400c3f8d0405a6d42f400725a65bfe7bb5935
:1015040043f00053bb51e2e70020b8e70004004277
:08151400f80000205700002040
:020000040000fa
:10151c0010b4234b234a1a60462283f84320062238
:10152c0083f8442083f84520402083f84b0083f84f
:10153c004e0083f84f2083f8530083f8542083f82f
:10154c005520012183f8561083f8571083f85b203f
:10155c00882483f83b40a4f1ff44583cc3f88040f6
:10156c0083f8c02083f8c12083f8c22083f8c320fd
:10157c0083f8c40083f8c81083f8c91083f8cc1022
:10158c0083f8cd1083f8ce2083f8d700112283f88e
:10159c00b420772283f8b6205df8044b704700bf67
:0815ac00008000410448080022
:020000040000fa
:1015b40010b504462c22002101f0c2f81e4b012272
:1015c4009a611a46936913f0010ffbd01a4b9a697a
:1015d40042f002029a611949cc60a2b242f0004280
:1015e40042f48032c3f8a02004f110028a6192b25e
:1015f40042f08072c3f8c02004f12002ca6192b2a2
:1016040042f48032c3f8f02004f128020a620c4943
:10161400a16292b242f48032c3f884209a6922f41f
:10162400804222f0010242f480429a611a46936990
:1016340013f0010ffbd110bd00040042f80000209c
:041644000006800d0f
:020000040000fa
:1016480010b504462c22002101f078f84ff08443ad
:1016580001229a611a46936913f0010ffbd04ff0eb
:1016680084439a6942f002029a611849cc60a2b296
:1016780042f0004242f48032c3f8a02004f1100284
:101688008a6192b242f08072c3f8c02004f120024d
:10169800ca6192b242f48032c3f8f02004f1280201
:1016a8000a620b49a16292b242f48032c3f88420e4
:1016b8009a6922f4804222f0010242f480429a613f
:1016c8001a46936913f0010ffbd110bd48010020a1
:0416d8000102010a00
:020000040000fa
:1016dc0010b582b02248fff71bfe0024009423466d
:1016ec0022462821204600f0d3fd009423462246b2
:1016fc003221012000f0ccfd009423462246c82163
:10170c00022000f0c5fd00942346224664210320ec
:10171c0000f0befd0094234664221146042000f024
:10172c00b7fd0094234622462146052000f0b0fd6b
:10173c000094234622462146062000f0a9fd009481
:10174c00234622462146072000f0a2fd00942346a2
:10175c0022462146082000f09bfd02b010bd00bfc0
:04176c00a9230000ad
:020000040000fa
:1017700008b51b4b98471b4b9847eff3108172b687
:10178000194ad2f8883043f47003c2f88830bff3a6
:101790004f8fbff36f8f01b962b6144c2023636083
:1017a00000f0fcf8124b23f07f030f4a9360114bbb
:1017b0009847a36823f00103a3602346da6812f078
:1017c000010ffbd1094b5a6842f004025a60012212
:1017d0009a60094b9847094b984700f0a7f9fee734
:1017e000b3270000b327000000ed00e000600041d7
:1017f0000000000055200000b3270000b3270000c0
:020000040000fa
:1018000070b50024194b1c70194b1c7021462046e2
:1018100000f03efe174b1870174e04257561174bec
:101820001c70234640220221204600f06ffd4ff439
:101830000003c6f89430234610222146204600f0cb
:1018400065fd0f4b1c702146022000f021fe00ebcd
:10185000800040000b4b188023462a462146204634
:1018600000f054fd084b1c7070bd00bf3d0200200d
:101870003c02002041020020008000415f00002067
:0c188000400200204a000020420200202c
:020000040000fa
:10188c0038b51d4b01229a611a46936913f0010f6a
:10189c00fbd0194b9a6942f002029a61174ada613d
:1018ac002b22c3f8802001221a629a6922f480420a
:1018bc0022f0010242f480429a611a46936913f0b5
:1018cc00010ffbd10c4b00249c650122da654ff013
:1018dc0000725a650a4d2c606c60ac60282221465f
:1018ec00084800f029ffec602c616c61ac61ec6184
:1018fc002c626c6238bd00bf00040042000502007f
:08190c00f8000020200100207a
:020000040000fa
:1019140038b54ff0844301229a611a46936913f053
:10192400010ffbd04ff084439a6942f002029a619e
:10193400164ada612b22c3f8802001221a629a69be
:1019440022f4804222f0010242f480429a611a4653
:10195400936913f0010ffbd14ff0844300249c657d
:101964000122da654ff000725a65094d2c606c60f3
:10197400ac6028222146074800f0e2feec602c61ae
:101984006c61ac61ec612c626c6238bd00050200d4
:08199400480100207001002051
:020000040000fa
:10199c001e4b1f4a9342f0b438bf002103d203f808
:1019ac00011b9342fbd11b4ad2e9000150ea01030f
:1019bc004ff0000610d09468034602f10c076cb986
:1019cc0021b1014403f8016b9942fbd13a46d2e9ab
:1019dc00000150ea0103eed1f0bc704759b101f19e
:1019ec000c030c38801a1a443b461c1813f8015b84
:1019fc0025709342f9d111f0030318bf012303ebb7
:101a0c00910107eb81073a46e1e700bf0000002097
:081a1c0000000020cc080000ce
:020000040000fa
:101a240000b583b01e4b9b7c83b31d4b00229a747c
:101a34005b7c1bb1002003b05df804fb00f078fe72
:101a44000028f7d000f032fe46f240039842f1d16c
:101a540000f090fe602807d1114b1a6a0121117021
:101a64001b6a00225a70e5e700f062f94ff67073c2
:101a740003400222019243f0070300932b23002228
:101a840046f24001032000f0abf9d3e702230093b0
:101a94002b23002246f24001032000f01bfac9e781
:041aa400cc00002052
:020000040000fa
:101aa80000b583b01e4b9b7c83b31d4b00229a74f8
:101ab8005b7c1bb1002003b05df804fb00f036fe30
:101ac8000028f7d000f0f0fd46f240039842f1d12b
:101ad80000f04efe602807d1114b1a6a01211170df
:101ae8001b6a00225a70e5e700f020f94ff6787378
:101af80003400222019243f0060300932b230022a5
:101b080046f24001032000f069f9d3e7022300936d
:101b18002b23002246f24001032000f0d9f9c9e73f
:041b2800cc000020cd
:020000040000fa
:101b2c0008b5002000f06cfc00211b4800f018feea
:101b3c0000f072fd00f07cfd00f0ccfafff7c8fd60
:101b4c0000f02ef800f0e8fd00f00efc134c17e04e
:101b5c0023f002032370fff7ebf800f08ff900f08d
:101b6c0023fe00f055f811e023f004032370fef778
:101b7c0081fb237813f0040f02d023f004032370ad
:101b8c0000f0fafd237813f0020fe1d1237813f063
:101b9c00040ff5d0e8e700bfd52200004902002071
:020000040000fa
:101bac0008b5002304220221184600f0a9fb0023eb
:101bbc0010220121184600f0a3fb00232022012152
:101bcc00184600f09dfb002301221146184600f038
:101bdc0097fb002302220121184600f091fb002301
:101bec0004220121184600f08bfb0023082201215e
:101bfc00184600f085fb054b4ff400225a61202259
:101c0c00c3f894201022c3f8942008bd0080004132
:020000040000fa
:101c1c0008b5154b1b78f3b9144b9b7c5bb1134b7c
:101c2c001b7c43b9114b5b7c2bb9104bdb7cb3b9e0
:101c3c000e4b01225a740d4b1a6a12785b6a53f8d8
:101c4c0022309847084b187040b9084b9b7c2bb935
:101c5c0000f070fb02e0013b034a137008bd013b2e
:101c6c00024ad374fae700bf5b000020cc000020ce
:020000040000fa
:101c7c00154b01221a801a46136b13f0010ffbd17e
:101c8c004ff080131b681a0902f07002d90001f49e
:101c9c00e061c3f382030a431a430b4ba3f84820b9
:101cac004ff4e0621a800322da721a7241f60202d1
:101cbc009a801a22da80072283f82e201a46136b98
:0c1ccc00002bfcd1704700bf001c00433f
:020000040000fa
:101cd800154b01221a801a46136b13f0010ffbd122
:101ce8004ff080131b689a0c02f07002d90a01f4b5
:101cf800e061c3f302430a431a430b4ba3f848209d
:101d08004ff4e0621a800322da721a7241f6010275
:101d18009a801a22da80072283f82e201a46136b3b
:0c1d2800002bfcd1704700bf00200043de
:020000040000fa
:101d3400144b1b794f2b07d04b2b08d0472b0cd0bf
:101d4400432b13d0002070470e4b187a70470d4b6d
:101d54005a7a187a00eb022070470a4a937a507a2a
:101d640000eb0323107a00eb03207047054bd87a6d
:101d74009a7a02eb0022587a00eb0222187a00ebde
:081d840002207047cc00002092
:020000040000fa
:101d8c0030b583b0134b9b7cd3b1124b00229a74a9
:101d9c005b7c13b1002003b030bd00f0c5fc002803
:101dac00f8d000f07ffc46f241039842f2d1094c86
:101dbc00256a00f0d9f82870236a00225a70e9e7e6
:101dcc00022300932b23002246f24101032000f052
:081ddc007df8dfe7cc000020d8
:020000040000fa
:101de40010b584b0069c8df808308df80910090ae6
:101df4008df80a108df80b208df80c40230a8df80d
:101e04000d30230c8df80e30240e8df80f40002376
:101e1400009302aa082100f5c060fff729fb9df892
:101e24001c0000f0ddf9024b987404b010bd00bf33
:041e3400cc000020be
:020000040000fa
:101e3800f0b59df81440ecb9dff840c0dcf8a450c8
:101e4800c5f305250c4cae007719bf0004eb070e4f
:101e5800e051cef80420cef80810cef80c30069bde
:101e6800cef81030dcf8543043f00103ccf854308d
:101e7800012000e00020f0bd200100200004004205
:020000040000fa
:101e880008b5104b1a78104b1b6ac3f340139a42db
:101e980010d00d4b1b6ac3f340130a4a137020225b
:101ea8000021084600f0c6fa38b1074b4ff400622b
:101eb8009a6108bd054b1a70f1e7034b4ff40062b5
:101ec8005a61f6e75a0000200080004159000020be
:020000040000fa
:101ed80000b585b040238df808308df80910090a3f
:101ee8008df80a108df80b2000238df80c308df832
:101ef8000d308df80e308df80f30009302aa0821ae
:101f080000f5c060fff7b2fa9df8180000f066f916
:101f1800024b987405b05df804fb00bfcc000020ac
:020000040000fa
:101f2800f0b59df81440ecb94ff0844cdcf8a4509f
:101f3800c5f305250c4cae007719bf0004eb070e5e
:101f4800e051cef80420cef80810cef80c30069bed
:101f5800cef81030dcf8543043f00103ccf854309c
:0c1f6800012000e00020f0bd700100200e
:020000040000fa
:101f7400114b187a10f04f0312d0402b12d000f0fe
:101f84006f00212810d0232810d0272810d007282c
:101f940011d00f2b0ed0082b14bf0220092070473c
:101fa40002207047032070470420704705207047c3
:0c1fb4000620704708207047cc00002079
:020000040000fa
:101fc00010b50e4b1b78b3b90d4b1c78a4b10d4b5b
:101fd0001b780bb11c460fe00021032000f058fadb
:101fe000094b18700123074a13701022002108467c
:101ff00000f08cf900e00024204610bd5f000020b6
:0c2000003d0200204002002048020020a9
:020000040000fa
:10200c000f4ad36823f4e0631b041b0c43f0bf633b
:10201c0043f40033d360bff35f8f62b6094be02209
:10202c0083f80b234ff40061196083f84e234ff4af
:10203c008041996083f84f234ff400429a607047b7
:08204c0000ed00e000e100e0fe
:020000040000fa
:1020540070b50d4d0d4c641ba4100026a64209d189
:102064000b4d0c4cfef7faf8641ba4100026a64294
:1020740005d170bd55f8043b98470136eee755f895
:10208400043b98470136f2e76c0200006c02000042
:082094006c0200007002000064
:020000040000fa
:10209c000f4b01221a801a46136913f0010ffbd162
:1020ac000b4b4ff401421a8000221a621a46136934
:1020bc0013f0200ffbd1064b00225a621a4613690b
:1020cc0013f0400ffbd1024b83225a81704700bfa3
:0420dc00002400409c
:020000040000fa
:1020e00008b50c48fff766fa0b4b0020187503f192
:1020f00015021a62094a5a62094a9a621874587497
:1021000000f0a8fa012000f0a5fa022000f0a2fadf
:1021100008bd00bfa0000020cc00002098010020d6
:042120007c0b000034
:020000040000fa
:1021240010b5054c237833b9044b13b10448aff30d
:1021340000800123237010bd200200200000000055
:102144000000000008b5034b1bb103490348aff37b
:10215400008008bd000000002402002000000000f0
:020000040000fa
:102164000e4b586c20f4605020f018004004400cd2
:102174009b6913f0010f10d0084a936943f00203de
:102184009361936923f4804323f0010343f4804370
:102194009361936913f0010ffbd17047000400426f
:020000040000fa
:1021a4004ff08443586c20f4605020f01800400431
:1021b400400c9b6913f0010f11d04ff084429369d6
:1021c40043f002039361936923f4804323f00103f2
:1021d40043f480439361936913f0010ffbd170477b
:020000040000fa
:1021e40030b583b00b4c002525746574e0742a4621
:1021f4002946094800f0baf9084b0193009504f107
:102204000e03221d04f10c012046fff713fe03b058
:1022140030bd00bfcc000020312500005c00002050
:020000040000fa
:1022240008b50b4b1b782bb90a4b1b7813b10a4b1f
:102234001b7803b908bd0020074b18700346102211
:10224400014600f061f8054b4ff480425a61f1e712
:102254005f0000203d020020400200200080004179
:020000040000fa
:1022640000b583b000221146084800f08df90848f3
:10227400084b01930023009300f10e03021d00f1ab
:102284000c01fff74ffe03b05df804fb6924000066
:08229400c001002054000020ed
:020000040000fa
:10229c0030b40b4c2468d4f8fc43b4f15a3f0dd045
:1022ac00084c94f84040844208d9064c04eb800555
:1022bc0029776a77ab779df80830eb7730bc70479d
:0822cc00980000200000002032
:020000040000fa
:1022d40010f0010f04d00b4a137843f0020313707b
:1022e40010f0020f04d0074a137843f0040313706c
:1022f40010f0800f04d0034a137843f001031370e5
:08230400704700bf49020020f0
:020000040000fa
:10230c0010b40b4ca47d84420fd903290dd8084c72
:10231c0004eb80040c44a47b24ea020403b11443b0
:10232c00034b03eb8000084484735df8044b704747
:04233c00000000207d
:020000040000fa
:102340000a4b1b7d0133dbb2032b0ad0074a1375fe
:10235000064b00229a74064a5a6203f115021a6269
:102360007047024b00221a75f2e700bfcc00002034
:0423700098010020b0
:020000040000fa
:1023740010b50024084b1c80fff740fa00f020f948
:1023840000f036f900f028f900f03ef9034b1c7018
:10239400034b1c7010bd00bf480000203e0200200b
:0423a4003f020020d4
:020000040000fa
:1023a80008b528b1012808d0042000f087f903e017
:1023b800fff734ff00f08af908bdfff7fdfd20b1f3
:1023c8000021084600f066f9f6e7032000f076f9e8
:0223d800f2e72a
:020000040000fa
:0223da0070474a
:020000040000fa
:1023dc000a4b01221a601a46136913f0010ffbd144
:1023ec00064b40f214721a6001221a731a773322c8
:1023fc009a721a461369002bfcd1704700380040c2
:020000040000fa
:10240c0008b500f079f9fff783f8fef7d1fefff776
:10241c00defffff72dfcfff733fafff757fcfff752
:10242c0073fafff735fefff7d3fffff7e9fd08bda1
:020000040000fa
:10243c00094bdb7e83420dd9032901d9002070475b
:10244c00054b03eb80000844c37d1a4214bf0120e6
:0c245c00002070470020704700000020a6
:020000040000fa
:1024680008b5fff79bfe10f0070005d0072803d03a
:10247800034b01221a7002e0024b01221a7008bdb8
:08248800550000205600002061
:020000040000fa
:10249000084b93f84030834209d9032901d9002021
:1024a0007047044b03eb80000844007f7047002016
:0824b000704700bf000000208e
:020000040000fa
:1024b80008b5074a908980b2064b58604cf2ff3144
:1024c80091811b6813b1034a9168984708bd00bf02
:0824d800002400408c000020ec
:020000040000fa
:1024e000074b1b78012b03d00133054a137070474b
:1024f000044b4ff48042da61014b01221a7070479d
:082500004502002000800041ab
:020000040000fa
:10250800074b1b78022b03d00133054a1370704721
:10251800044b4ff48042da61014b01221a70704774
:08252800460200200080004182
:020000040000fa
:1025300008b5fff717fe10f0070005d0072803d0f5
:10254000034b01225a7402e0014b01221a7408bda8
:04255000cc0000209b
:020000040000fa
:10255400054b9b7d834206d9032904d8024b03eb28
:0c256400800008448273704700000020d3
:020000040000fa
:1025700010b428b1044b43f8320003ebc203596096
:0c2580005df8044b704700bfe001002034
:020000040000fa
:10258c0010b428b1044b43f8320003ebc20359607a
:0c259c005df8044b704700bf00020020f7
:020000040000fa
:1025a8000a44914200f1ff3300d1704710b511f889
:0c25b800014b03f8014f9142f9d110bd16
:020000040000fa
:1025c400044a138843f002031380136b002bfcd1dd
:0825d400704700bf001c00432a
:020000040000fa
:1025dc00044a137d43f002031375136b13f4006f5d
:0825ec00fbd17047001c004305
:020000040000fa
:1025f400044a138843f002031380136b002bfcd1ad
:08260400704700bf00200043f5
:020000040000fa
:10260c00044a137d43f002031375136b13f4006f2c
:08261c00fbd1704700200043d0
:020000040000fa
:10262400044a138843f002031380136913f0020f62
:08263400fbd1704700240040b7
:020000040000fa
:10263c00044a136843f002031360136913f0020f8a
:08264c00fbd17047003800408b
:020000040000fa
:1026540000eb4000034b1844002343758375c37596
:08266400704700bfcc0000200c
:020000040000fa
:10266c0038b5044c256afff77ffc2870236a0020dc
:08267c00587038bdcc000020ad
:020000040000fa
:1026840038b5044c256afff773fc2870236a0020d0
:08269400587038bdcc00002095
:020000040000fa
:10269c00034b02229a72d872197300225a73704734
:0426ac00000000200a
:020000040000fa
:1026b000034b9a79587900eb022080b2704700bf33
:0426c000cc0000202a
:020000040000fa
:1026c400024b03229a725873704700bf0000002027
:020000040000fa
:1026d400024b03229a7206225a73704700000020ac
:020000040000fa
:1026e4000001020304050607080c101418203040ea
:1026f4000001020304050607080c101418203040da
:020000040000fa
:10270400024b40f204521a80704700bf004000415f
:020000040000fa
:10271400024bd86ac0f38000704700bf00400041fc
:020000040000fa
:10272400024b4ff400625a61704700bf00800041c1
:020000040000fa
:10273400024b1879803818bf01207047cc00002064
:020000040000fa
:1027440002440346934200d1704703f8011bf9e7a2
:020000040000fa
:0c275400014bb3f840007047001c00432c
:020000040000fa
:0c276000014bb3f840007047002000431c
:020000040000fa
:0c276c00014b1860996070478c00002041
:020000040000fa
:0c277800014b1879704700bfcc00002016
:020000040000fa
:0827840008b5fdf745ff08bd93
:020000040000fa
:08278c0008b5fff78bf908bd49
:020000040000fa
:04279400002070476a
:020000040000fa
:042798000020704766
:020000040000fa
:04279c000020704762
:020000040000fa
:0427a000002070475e
:020000040000fa
:0227a400fee74e
:020000040000fa
:0227a600fee74c
:020000040000fa
:0227a800fee74a
:020000040000fa
:0227aa00fee748
:020000040000fa
:0227ac00fee746
:020000040000fa
:0227ae00fee744
:020000040000fa
:0227b000fee742
:020000040000fa
:0227b20070476e
:020000040000fa
:0227b40070476c
:020000040000fa
:0200000400807a
:044000003912003c35
:020000040000fa
:0200000400807a
:044004009100a82a55
:020000040000fa
:0200000400807a
:04400800ffffffffb8
:00000001FF
