:10000000F0FF0320C1050000630A0000650A00003C
:10001000690A00006B0A00006D0A00000000000081
:10002000000000000000000000000000610A000065
:10003000670A000000000000610A0000610A000079
:10004000610A0000610A0000610A0000610A000004
:10005000610A0000610A0000610A0000610A0000F4
:10006000610A0000610A0000610A00009D090000A9
:10007000610A0000610A0000610A0000610A0000D4
:10008000610A0000610A0000610A0000610A0000C4
:10009000610A0000610A0000610A0000610A0000B4
:1000A000610A0000610A0000610A0000610A0000A4
:1000B000610A0000610A0000610A0000610A000094
:1000C000610A0000610A0000610A0000610A000084
:1000D000610A0000610A0000610A0000610A000074
:1000E000610A0000610A000000000000000000003A
:1000F00000000000610A0000610A0000610A0000BF
:10010000610A0000610A0000610A0000610A000043
:10011000610A0000610A0000610A0000610A000033
:10012000610A0000610A0000610A0000610A000023
:10013000610A0000610A0000610A0000610A000013
:10014000610A0000610A0000610A0000610A000003
:10015000610A0000610A00000000000000000000C9
:10016000000000000000000000000000000000008F
:10017000000000000000000081020000610A000091
:10018000610A0000610A0000610A0000610A0000C3
:1001900000000000610A0000610A0000610A00001E
:1001A000610A0000610A0000610A0000610A0000A3
:1001B000610A0000610A0000610A0000610A000093
:1001C000610A0000610A0000610A0000610A000083
:1001D000610A0000610A0000610A0000610A000073
:1001E000610A0000610A0000610A0000610A000063
:1001F000610A0000610A0000610A0000610A000053
:10020000610A00000000000000000000610A000018
:10021000610A0000610A0000610A0000610A000032
:10022000610A0000610A0000610A0000610A000022
:10023000610A0000610A0000610A0000610A000012
:10024000610A0000610A0000610A0000610A000002
:10025000610A0000610A0000610A0000610A0000F2
:10026000F8B500BFF8BC08BC9E4670470D090000F9
:10027000F8B500BFF8BC08BC9E467047E90800000E
:100280002DE9F04784B04FF084431C6D14F0007FDB
:100290001CBF4FF000721A6514F0010F63D04FF0CD
:1002A000844301221A655A6D22F001025A65D3F87F
:1002B000A43013F07F0F56D04FF08443D3F8A450EE
:1002C000C5F305252B01854AD268D718D15811F0FE
:1002D000804FD15805EB8500814E56F8200014BFA1
:1002E00021F06041C1F38A410160D2587B6813F468
:1002F000001F03D112F0005F40F0E68005EB85039C
:10030000774A02EB83031B6900221A707E68754BE3
:100310000FCB0DF1100C0CE90F00C6F30346664439
:1003200016F810AC6E4E4FEA850808EB050906EB8F
:100330008909524607F10801D9F8040000F054FB7E
:10034000D9F8083083F800A0D9F80C300BB17A68DE
:100350001A804FF08443C3F8A850634B1B6813B155
:10036000614A5068984714F0100F67D04FF08443EB
:1003700010221A655A6D22F010025A65D3F8B43073
:1003800013F07F0F5AD04FF08443D3F8B450C5F325
:1003900005252B01514A1269D718D15811F0804F09
:1003A000D05805F1010101EB81014D4E56F8216055
:1003B00014BF20F06040C0F38A403060D2587B68A0
:1003C00013F4001F02D112F0005F74D105EB850316
:1003D000434A02EB83035B6A00221A707E68414B3A
:1003E0000FCB0DF1100C0CE90F00C6F30346664469
:1003F00016F8108C3A4E6B1C03EB830306EB830359
:10040000424607F10801586800F0EEFAAB005A19AD
:1004100006EB8202D26982F800802B4406EB830649
:10042000336A0BB17A681A804FF08443C3F8B8502E
:100430002D4B9B6813B12C4AD068984714F4007F69
:1004400020D04FF084434FF400721A655A6D22F4A5
:1004500000725A65D3F8D820D3F8E03013F0010FBA
:100460000AD012F0010F07D04FF08442D2F8E030EA
:1004700023F00103C2F8E0301B4B9B6913B11A4A09
:10048000D069984714F4006F12D04FF084424FF4B3
:1004900000631365D2F8C430C3F30423D2F8C42038
:1004A000C2F30442934203D20133DBB29A42FBD13E
:1004B00004B0BDE8F08705EB8503094A02EB83032E
:1004C0005B6A01221A7089E705EB8503044A02EB97
:1004D00083031B6901221A7018E700BF1000002077
:1004E00038000020300A0000600000202C4B002261
:1004F0001A7403F500632B4ADA621A46536813F044
:10050000200FFBD1284B01225A711A46D37813F0E1
:10051000010FFBD0254B264A1A621A46536813F086
:10052000040FFBD1214B234A5A621A46536813F039
:10053000080FFBD11D4B204A9A621A46536813F0EC
:10054000100FFBD1194B1B4A1A631A46536813F05C
:10055000400FFBD1154B4322C3F8A4201A46D2F812
:10056000A43013F0400FFAD0104B4422C3F8EC2013
:100570001A46D2F8EC3013F0400FFAD00B4B44225D
:10058000C3F8F0201A46D2F8F03013F0400FFAD03A
:10059000054B0A4A1A6144F2FF725A61704700BF64
:1005A000001400400401200000080040001C00402E
:1005B000060101000601020006013000FFFFFB00FA
:1005C00008B51B4B98471B4B9847EFF3108172B649
:1005D000194AD2F8883043F47003C2F88830BFF368
:1005E0004F8FBFF36F8F01B962B6144C2023636045
:1005F00000F072F8124B23F07F030F4A9360114B07
:100600009847A36823F00103A3602346DA6812F039
:10061000010FFBD1094B5A6842F004025A600122D3
:100620009A60094B9847094B984700F0EBF9FEE7B1
:100630006F0A00006F0A000000ED00E0006000415A
:10064000000000005D0800006F0A00006F0A000053
:1006500038B54FF0844301229A611A46936913F02A
:10066000010FFBD04FF084439A6942F002029A6175
:10067000164ADA612B22C3F8802001221A629A6995
:1006800022F4804222F0010242F480429A611A462A
:10069000936913F0010FFBD14FF0844300249C6554
:1006A0000122DA654FF000725A65094D2C606C60CA
:1006B000AC6028222146074800F0CAF9EC602C61A2
:1006C0006C61AC61EC612C626C6238BD00050200AB
:1006D00010000020380000201E4B1F4A9342F0B447
:1006E00038BF002103D203F8011B9342FBD11B4A00
:1006F000D2E9000150EA01034FF0000610D09468DF
:10070000034602F10C076CB921B1014403F8016BF7
:100710009942FBD13A46D2E9000150EA0103EED1F9
:10072000F0BC704759B101F10C030C38801A1A441F
:100730003B461C1813F8015B25709342F9D111F068
:10074000030318BF012303EB910107EB81073A462E
:10075000E1E700BF10000020100000200C0800009E
:100760004FF4005318684FF000531B78012B12D040
:10077000013018BF01204FF0005311221A7082225D
:100780005A7013229A708422DA7000221A710122A0
:100790005A719A7170474FF000535B78022BE7D182
:1007A0004FF000539B78032BE2D14FF00053DB78DE
:1007B000042BDDD10020DEE7134B05221A60022254
:1007C00083F84020012183F84210402283F843201F
:1007D00083F84B2083F84E2083F8532083F856107B
:1007E00083F8571083F83110882083F83B004FF0CE
:1007F0000040C3F8800083F8C42083F8D72083F832
:10080000DF1083F8BF207047008000418000002087
:100810001C0000000000000060000020200000001C
:100820000000000010000020280000000000000070
:100830003800002028000000000000009C0000207C
:100840000C00000000000000A800002004000000D0
:1008500000000000000000000000000070B50D4D19
:100860000D4C641BA4100026A64209D10B4D0C4C64
:10087000FFF7F6FC641BA4100026A64205D170BD4C
:1008800055F8043B98470136EEE755F8043B984786
:100890000136F2E76C0200006C0200006C020000FE
:1008A000700200000F4B01221A801A46136913F0E0
:1008B000010FFBD10B4B4FF401421A8000221A6248
:1008C0001A46136913F0200FFBD1064B00225A621F
:1008D0001A46136913F0400FFBD1024B83225A8151
:1008E000704700BF0024004010B5054C237833B991
:1008F000044B13B10448AFF300800123237010BDF3
:1009000080000020000000000000000008B5034B3C
:100910001BB103490348AFF3008008BD000000008D
:1009200084000020000000000D4AD36823F4E06337
:100930001B041B0C43F0BF6343F40033D360BFF3CD
:100940005F8F62B6074BE02283F80B234FF4006100
:10095000196083F84E234FF480429A60704700BFBD
:1009600000ED00E000E100E00B4B01221A601A46A6
:10097000136913F0010FFBD1074B4FF4C2621A60E9
:1009800001221A7302229A8333229A721A46136939
:10099000002BFCD1704700BF0038004008B5074A63
:1009A000908980B2064B58604CF2FF3191811B68F0
:1009B00013B1034A9168984708BD00BF0024004066
:1009C0009C00002008B500F03BF8FFF7F5FEFFF7AC
:1009D0008DFD00F02CF8FFF73BFEFFF763FFFFF7FC
:1009E000C3FFFFF7A1FF08BD0A44914200F1FF33A6
:1009F00000D1704710B511F8014B03F8014F914237
:100A0000F9D110BD08B50020FFF7DCFFFFF7A8FE05
:100A100000B9FEE700F001F8FBE74FF400531B6854
:100A200083F3088842F204031B6818477047704735
:100A30000001020304050607080C101418203040BA
:100A4000024B4FF482721A80704700BF0040004191
:100A500002440346934200D1704703F8011BF9E7B3
:100A6000FEE7FEE7FEE7FEE7FEE7FEE7FEE770478C
:10200000F0FF032015360000AF42000071430000CE
:102010007543000077430000794300000000000092
:102020000000000000000000000000006741000008
:10203000734300000000000067410000674100009A
:1020400067410000674100006741000067410000F0
:1020500067410000674100006741000067410000E0
:10206000674100006741000067410000B140000087
:1020700067410000674100006741000067410000C0
:1020800067410000674100006741000067410000B0
:1020900067410000674100006741000067410000A0
:1020A0006741000067410000674100006741000090
:1020B0006741000067410000674100006741000080
:1020C0006741000067410000674100006741000070
:1020D0006741000067410000674100006741000060
:1020E00067410000674100000000000000000000A0
:1020F00000000000674100006741000067410000E8
:10210000674100006741000067410000674100002F
:10211000674100006741000067410000674100001F
:10212000674100006741000067410000674100000F
:1021300067410000674100006741000067410000FF
:1021400067410000674100006741000067410000EF
:10215000674100006741000000000000000000002F
:10216000000000000000000000000000000000006F
:102170000000000000000000212A0000674100006C
:1021800067410000674100006741000067410000AF
:102190000000000067410000674100006741000047
:1021A000674100006741000067410000674100008F
:1021B000674100006741000067410000674100007F
:1021C000674100006741000067410000674100006F
:1021D000674100006741000067410000674100005F
:1021E000674100006741000067410000674100004F
:1021F000674100006741000067410000674100003F
:10220000674100000000000000000000674100007E
:10221000674100006741000067410000674100001E
:10222000674100006741000067410000674100000E
:1022300067410000674100006741000067410000FE
:1022400067410000674100006741000067410000EE
:1022500067410000674100006741000067410000DE
:10226000F8B500BFF8BC08BC9E467047CD3D0000E5
:10227000F8B500BFF8BC08BC9E467047A93D0000F9
:1022800070B582B09E4B1B78A3B99E4B1B78002B78
:1022900040F08D819C4B1B78002B40F08F819B4B35
:1022A0001B78002B00F08881984B00221A7001F0F7
:1022B0001BFE81E1924B00221A70954B1B7B082B71
:1022C00005D1934C221D04F10C05002103E001F01F
:1022D0000BFE71E1194612F8010B80EA0103DBB233
:1022E000AA42F7D1884223D1894B1B79894A1278B7
:1022F0009A4220D0874A1370854B03F114020433AD
:1023000093E8030082E80300834B5B78B3B9804B0A
:102310005B79013B092B4FD8DFE813F048006600DA
:10232000700079009200A900C300DA002E000601B7
:1023300001F0DAFD40E101F0D7FD3DE10021764BEF
:102340005970A2F114030B225A75143304F11B02C5
:1023500013F8010B41409342FAD16D4AD1766E4B8E
:102360001878002300931432082100F5A07001F0C2
:1023700007F801F0B9FD1FE1674B93F8713973B1AC
:10238000664A0023664EA2F2516552F8040B31688A
:1023900041F82300013395F871198B42F5DB604B4E
:1023A0001B684FF05A32C3F8FC2305E05A4BD3F8B0
:1023B0000220574BC3F817205A4B04F11B0200218F
:1023C00013F8010B41409342FAD1514AD176524B56
:1023D0001878002300931432082100F5A07000F053
:1023E000CFFF01F081FDE7E04B4BD3F80610484AE0
:1023F000C2F8171000229A71DA71DDE7444A464BA1
:1024000053F80A1FC2F816101B799376D4E7404B95
:102410009B79414A92F82F239A4209D902333E4AC6
:1024200002EB8303D3F80720394BC3F81720C3E727
:10243000374B00225A7504229A750122DA75BBE7E0
:10244000334B9B79344A92F850269A4207D9CC33C1
:10245000314A52F823202E4BC3F81720ACE72C4BFF
:1024600000225A7505229A750122DA75A4E7284BD5
:102470009B79294A92F871299A420AD903F5CA73BD
:10248000254A02EB8303D3F80120214BC3F8172020
:1024900092E71F4B00225A7506229A750122DA75BF
:1024A0008AE71B4B9B791C4A92F850269A4207D91F
:1024B000CC33174AD2F81710174A42F823107BE79B
:1024C000134B00225A7507229A750122DA7573E7B9
:1024D0000F4B9B79104A92F871299A4208D90C4AFD
:1024E000D2F817100C4A02EB8303C3F8511663E7C6
:1024F000074B00225A7508229A750122DA755BE7AC
:10250000550C0020540C0020530C0020520C0020CD
:10251000D80B0020500C0020100000206106002085
:10252000700C0020EC0B0020524BD3F874692EB3D2
:10253000514B987928B14F4BDB7A012B2ED04D4B64
:1025400098724C4D0423EB7200232B736B734A4932
:102550008B7A00934B7A0A7AC979B047EB7A032BCE
:1025600003D90322EA720522AA73434A414B53F866
:102570000A1FC2F816101B7993761DE73E4A91791F
:1025800099720321D9720021197359730421997327
:10259000D3F80A30C2F8163091760DE7364B032295
:1025A000DA7500221A765A7601229A7604E7334BBE
:1025B00000221A7001F098FC02B070BD304B00226E
:1025C0001A702D4B1B7B082B1BD12A4B00225A70F3
:1025D000294B03F11402191D03C982E803001B797A
:1025E000012B11D0022B2FD0224B187800230093FF
:1025F000244A082100F5807000F0C2FE01F074FC4E
:10260000DAE701F071FCD7E71A4B93F87C3973B91C
:10261000194B00225A759A75DA751A76164B154AB7
:1026200091785976D17899761279DA76DCE7124B7F
:1026300002225A750F4AD2F8782911799975517981
:10264000D97592791A76E9E70A4B93F87C393BB948
:10265000094BFF221A7502225A7500229A75C3E7A8
:10266000044B012283F87D290021074801F030FE48
:10267000BAE700BF10000020D80B0020540C002047
:10268000530C0020EC0B0020953A0000AB4B1B785C
:10269000002B4ED1AA4B1B6A13F4004F00F0A68109
:1026A000A84A13780133DBB21370042B05D9A34B6E
:1026B00001221A70A34B00221A70A34B1B78002B27
:1026C0004AD19F4B1B6A13F0100F40F087819F4A3D
:1026D00013780133DBB21370042B05D99A4B012216
:1026E0001A709A4B00221A70994B1B88002B40F0ED
:1026F0005F8170B5964B05221A80964B1B78002B94
:1027000061D1954B1B78012B50D05AB2002A36D09C
:10271000022B5CD1894B1B78002B51D1884B4FF495
:1027200080425A618C4B00221A708A4B01221A7027
:102730004DE0834B1B6A13F4004F40F05B81814AEC
:1027400013780133DBB21370042BB6D900237B4A14
:1027500013707C4A1370B0E7794B1B6A13F0100FAB
:1027600000F04081794A13780133DBB21370042BF7
:10277000BAD90023744A1370744A1370B4E7774BC4
:102780001B7853B96D4B1B786BB96D4B4FF480427E
:102790009A61714B01221A7019E0013B6F4A137064
:1027A00001F09AFC13E001F097FC10E0634B1B78FA
:1027B0006BB1634B04229A61674B02221A7006E0E8
:1027C00001F08AFC03E0664B1B78002B49D05C4B80
:1027D0001B6AC3F3C00380220021084601F0BCFB42
:1027E00001F0AAFD642404FB00F05E4D85FB00327D
:1027F0001318C217C2EBA312D2B25B4E3270002183
:10280000012001F091FC01F091FD04FB00F085FB3B
:1028100000350544C217C2EBA512D2B2534C227048
:102820000121084601F080FC0021042001F02CFC6D
:10283000337883422CBF0023012320220021084645
:1028400001F08AFB0121042001F01EFC2378834261
:102850002CBF0023012340220021084601F07CFB0D
:1028600070BD01220021084601F0C8FB00283BD1C1
:10287000324B1B78002B00F09F803D4A13780133C8
:10288000DBB21370322B48D83A4A1278002A40F053
:102890009B80142B12D9374C012525700021032071
:1028A00001F0F2FB344B18702B4610220021084631
:1028B00001F052FB2378002B40F08680224C2378D5
:1028C00004220021084601F047FB2378002B61D049
:1028D0002A4B1B883BB3013B9BB2284A1380632BD6
:1028E00024D801F00DFC72E701231D4A1370402229
:1028F0000221002001F030FB114C4FF48043636152
:1029000000201C4B187003461022014601F024FBE6
:102910004FF40003C4F89830AAE700F0C3FE56E76E
:1029200000F0C0FE53E700F0BDFE50E7144B1B78EB
:10293000192B27D00133124A137048E7620C00208C
:1029400000800041670C0020610C0020660C002014
:102950004C0C0020600C00205F0C0020640C002058
:102960005E0C0020430821845C0C00205D0C0020DC
:10297000650C0020630C00206B0C00204E0C002026
:102980006A0C00201D4B4FF48042DA611C4B01227F
:102990001A701CE70021022001F076FB00EB80009A
:1029A0004000184B1880154B4FF480425A610EE7D7
:1029B000013B154A13807047144B00221A70144BC8
:1029C0001B78002B3FF47AAF01F09AFB114B1B7878
:1029D000002BA5D0013B0F4A1370F8E60E4B0022E6
:1029E0001A7081E60C4B00221A707DE60B4B002218
:1029F0001A7062E6094B00221A705EE60080004100
:102A00006A0C00204E0C00204C0C0020650C0020AD
:102A1000630C00206B0C0020660C0020670C00206B
:102A20002DE9F04784B04FF084431D6D15F0007F11
:102A30001CBF4FF000721A6515F0010F62D04FF005
:102A4000844301221A655A6D22F001025A65D3F8B7
:102A5000A43013F07F0F55D04FF08443D3F8A44037
:102A6000C4F3052423014E4AD268D718D15811F077
:102A7000804FD15804EB84004A4E56F8200014BF12
:102A800021F06041C1F38A410160D2587B6813F4A0
:102A9000001F02D112F0005F78D104EB8403414A99
:102AA00002EB83031B6900221A707E683E4B0FCB3A
:102AB0000DF1100C0CE90F00C6F30346664416F83E
:102AC00010AC384E4FEA840808EB040906EB89097C
:102AD000524607F10801D9F8040001F061FBD9F86A
:102AE000083083F800A0D9F80C300BB17A681A804E
:102AF0004FF08443C3F8A8402C4B1B6813B12B4AFA
:102B00005068984715F4007F13D04FF084434FF47A
:102B100000721A655A6D22F400725A65002301266C
:102B20004FF0844227E0214B9B6913B11F4AD069C3
:102B3000984715F4006F12D04FF084424FF40063B1
:102B40001365D2F8C430C3F30423D2F8C420C2F30F
:102B50000442934203D20133DBB29A42FBD104B068
:102B6000BDE8F087D2F8E00020EA0101C2F8E010E9
:102B70000133102BD7D006FA03F1D2F8D840D2F89F
:102B8000E0000842F4D00C42ECD1F1E704EB8403FE
:102B9000044A02EB83031B6901221A7085E700BF18
:102BA000880B0020B00B0020E0420000F80B002052
:102BB0004D4B42F206229A821A46D36813F0010F57
:102BC000FBD0494B00221A7403F50063474ADA62CE
:102BD0001A46536813F0200FFBD1454B454A9A62C1
:102BE0001A46536813F0100FFBD1414B424A1A6347
:102BF0001A46536813F0400FFBD13D4B4222C3F8F5
:102C000084201A46D2F8843013F0400FFAD03B4BA0
:102C100000229A6377225A631A46D36B13F0040F8B
:102C2000FBD1364B022283F830201A46D36B13F0C7
:102C3000020FFBD1314A136C03F00303032BFAD1CB
:102C40002F4B01225A711A46D37813F0010FFBD093
:102C5000274B2C4A1A621A46536813F0040FFBD113
:102C6000234B294A5A621A46536813F0080FFBD1C6
:102C70001F4B4322C3F8A4201A46D2F8A43013F005
:102C8000400FFAD01A4B4422C3F8EC201A46D2F86F
:102C9000EC3013F0400FFAD0154B4422C3F8F0206B
:102CA0001A46D2F8F03013F0400FFAD0104B412200
:102CB000C3F820211A46D2F8203113F0400FFAD081
:102CC0000B4B4122C3F824211A46D2F8243113F0C9
:102CD000400FFAD00A4B0D4A1A6144F2FF725A6152
:102CE0004FF4C0721A6270470014004004012000C3
:102CF000001C0040060130000601020000100040E8
:102D0000000800400701010007010200FFFFFB006F
:102D1000180C00201C00000000000000A00900208A
:102D20009801000000000000D80B002020000000E7
:102D300000000000100000208009000000000000DA
:102D4000500C00200600000000000000700C002065
:102D50000400000001000000000000449C09002065
:102D60000400000000000000560C002001000000DC
:102D7000000000006F0C00200100000001000000B6
:102D800001000000F80B00202000000000000000FF
:102D9000880B00205000000000000000570C0020AD
:102DA0000100000000000000900900200C0000005D
:102DB00000000000580C002004000000000000008B
:102DC000340C002004000000000000005C0C002017
:102DD00008000000000000004C0C00200200000071
:102DE00000000000640C0020020000000000000051
:102DF0004E0C00200200000000000000660C0020C5
:102E00000800000000000000380C00200400000052
:102E1000000000006E0C0020010000000000000017
:102E20003C0C00200C00000000000000380B0020CB
:102E30005000000000000000480C002004000000CA
:102E400000000000000000000000000066666666EA
:102E50002DE9F84F8B46924698469DF828709DF8CC
:102E60002C609DF830503E4BD3F800903D4C2070C4
:102E7000012363703C4800F02FFBA770E6702571BA
:102E80000223E372002323736373A373A371E371BB
:102E90002372637284F82FB384F850A6B8F1000F40
:102EA00003D009F00F03012B13D02E4B002283F81F
:102EB00071292C4A0D9BC2F874394FF00053C2F8A7
:102EC00078391B78112B2AD0264B002283F87C29D5
:102ED0003DE0C9F30219B9F1010FE6D184F8718917
:102EE00001F00EFA0028FBD1204B1968D1F8FC3311
:102EF000B3F15A3F08D01E4B03EB8808002243F879
:102F0000042B4345FBD1D4E70B46194A01EB880853
:102F100053F8041B42F8041B4345F9D1C9E74FF0AD
:102F200000535B78822BCFD14FF000539B78132B4B
:102F3000CAD14FF00053DB78842BC5D1094B012255
:102F400083F87C294FF00053DF711E725D72054BD0
:102F5000002283F87D2900F0C7FFBDE8F88F00BF8D
:102F60000440800010000020A0090020700C002008
:102F70006106002008B53B4B1B6A13F4806F1CD020
:102F800004220121002001F039F8B0B1364B1B6852
:102F9000022B20D0032B42D0012B1BD1334B01221B
:102FA0001A70304B4FF48002C3F89820304B0D223A
:102FB0001A702D4B02221A600CE02A4B4FF480024B
:102FC000C3F894200021294B187801F049F9264BC9
:102FD00000221A6008BD264A1378013BDBB2137049
:102FE000002BF7D11F4B4FF48002C3F89420214BE4
:102FF0001B6803EBC30203EBC20242F2107393FBA4
:10300000F2F30D3B13F0FF0305D0194A1370164B72
:1030100003221A60DEE7164B01221A70F7E7144A02
:103020001378013BDBB21370002BD3D10F4B187810
:10303000114B1B6898420ED001300C4B1870094B95
:103040004FF48002C3F89820094B0D221A70064BEA
:1030500002221A60BEE7002101F002F9024B0022B1
:103060001A60B7E700800041400C00206D0C002082
:103070006E0C0020380C00203C0C002010B4374BA4
:10308000374A1A60402183F84210462283F84320D1
:10309000062283F8442083F8452083F8462083F8ED
:1030A000471083F8481083F8491083F84A2083F8C2
:1030B0004B1083F84C20442083F84D0083F84E10C9
:1030C00083F84F2083F8501083F8511083F8522072
:1030D00083F8531083F8542083F85520012083F897
:1030E000560083F8570083F8582083F8592083F856
:1030F0005B20882483F83B401A4CC3F8804083F857
:10310000C02083F8C12083F8C22083F8C32083F84D
:10311000C41083F8C51083F8C80083F8C90083F889
:10312000CA2083F8CB2083F8CC0083F8CD0083F845
:10313000CE2083F8CF2083F8D02083F8D12083F8E5
:10314000D61083F8D71083F8DF10112283F8B4204B
:10315000772283F8B6205DF8044B70470080004169
:10316000846B0B003000C08030B585B00125284B42
:103170001D700024274B1C60274B0393029501947C
:10318000009509232A4602211020FFF761FE0094D2
:10319000234622462821204600F026FE009423469E
:1031A00022463221284600F01FFE00942346224684
:1031B000C821022000F018FE009423462246642114
:1031C000032000F011FE00942346642211460420DF
:1031D00000F00AFE0094234622462146052000F016
:1031E00003FE0094234622462146062000F0FCFD03
:1031F0000094234622462146072000F0F5FD009466
:10320000234622462146082000F0EEFD05B030BDE1
:103210006F0C00209C090020993B000038B501F09C
:1032200097F800283DD1002404F00104274DD5F87B
:10323000A030C3F3C03302220021084600F08CFE08
:103240002B6AC3F3804308220021084600F084FE65
:103250002B6AC3F3003310220221002000F07CFE11
:10326000204600F0EBFA204600F0E0F8204600F09F
:103270001BFB204600F080F9204600F029F820468C
:1032800000F060FC2B6A13F4802F03D12B6A13F437
:10329000801F0CD0002302221146184600F05CFE6D
:1032A00038BD01F03DF880F00104E4B2BCE704222F
:1032B0000021084600F0A2FE0028EBD001230222E4
:1032C0001146002000F048FEEAE700BF0080004100
:1032D00010B52A4CD4F8A03003F0010310220121CC
:1032E000002000F039FED4F8A030C3F340032022C0
:1032F0000121002000F030FED4F8A030C3F3800399
:1033000001221146002000F027FED4F8A030C3F3BC
:10331000C00302220121002000F01EFE236AC3F335
:10332000405304220121002000F016FE236AC3F35B
:10333000C06308220121002000F00EFE236AC3F3BF
:10334000006340220121002000F006FE236AC3F33F
:10335000406380220121002000F0FEFD4022012177
:10336000002000F04BFE18B12022C4F8982010BDB8
:10337000024B2022C3F89420F9E700BF00800041EF
:10338000F8B59DF818C0BCF1010F01D90020F8BDB7
:103390004FF08443D3F8C43013F4001F3FD14FF0F3
:1033A0008443D3F8C440C4F3044426011D4B9F69F1
:1033B000BD19B0F5006F26BF20F0604040F080409E
:1033C0008004B8510B46082928BF082318046860F8
:1033D0001CF0FD0F1ED111461A4605F1080000F041
:1033E000DFFE114A13780133DBB213706A6842EAD8
:1033F000036343F400036B60012000FA04F44FF010
:103400008443C3F8E040C3F8D0405A6D42F40072E0
:103410005A65BCE7BB5943F00053BB51E1E70020BC
:10342000B5E700BF880B0020570C002010B50446FC
:10343000284B1B6AC3F3802308220221002000F0DE
:103440008BFD64B9234B4FF400625A6180225A61AC
:103450004FF480725A614FF400725A6110BD2022FD
:103460000021084600F0CAFD08B31A4B4FF4006271
:103470009A6108220121002000F0C0FDE0B1154B47
:1034800080229A6110220121002000F0B7FDB8B11E
:10349000104B4FF480729A6120220121002000F02D
:1034A000ADFD90B10B4B4FF400729A61D6E7094B1A
:1034B0004FF400625A61DCE7064B80225A61E1E773
:1034C000044B4FF480725A61E6E7024B4FF40072EE
:1034D0005A61C3E70080004138B504464FF4CC720E
:1034E000002100F0D1FE4FF0844301229A611A4678
:1034F000936913F0010FFBD04FF084439A6942F0B7
:1035000002029A611A49CC60A2B242F0004242F42F
:103510008032C3F8A02004F110028A6192B242F016
:103520008052C3F8C02004F58872CA6192B242F496
:103530008012C3F8F02004F5C8720A620D4D03CD65
:10354000C4F89001C4F8941192B242F40032C3F866
:1035500084209A6922F4804222F0010242F48042DF
:103560009A611A46936913F0010FFBD138BD00BF71
:10357000880B00206443000010B5224B1B7813B366
:10358000214B1B68FF2B0BD033B9204A4FF400515D
:1035900091614FF40061516101331B4A136010BD0A
:1035A0000020194B1860174B1870184A136AC3F3A0
:1035B000802317490B704FF40051516120220221E2
:1035C00000F0CAFCEBE70446114B1B7820220221D5
:1035D000002000F0C1FC24B90C4B4FF400525A619A
:1035E000DDE701221146002000F008FD20B1074B65
:1035F0004FF400529A61D2E7044B4FF400525A61E3
:10360000CDE700BF5B0C0020340C0020008000419F
:103610005A0C002008B51B4B98471B4B9847EFF3FB
:10362000108172B6194AD2F8883043F47003C2F898
:103630008830BFF34F8FBFF36F8F01B962B6144C60
:103640002023636000F046FB124B23F07F030F4AF8
:103650009360114B9847A36823F00103A3602346AE
:10366000DA6812F0010FFBD1094B5A6842F00402EC
:103670005A6001229A60094B9847094B984700F01D
:103680009BF8FEE77B4300007B43000000ED00E079
:103690000060004100200000393A00007B43000038
:1036A0007B43000070B50024194B1C70194B1C7033
:1036B0002146204600F0E8FC174B1870174E0425F1
:1036C0007561174B1C70234640220221204600F0F2
:1036D00043FC4FF40003C6F89430234610222146E1
:1036E000204600F039FC0F4B1C702146022000F0F0
:1036F000CBFC00EB800040000B4B188023462A4691
:103700002146204600F028FC084B1C7070BD00BF0D
:10371000600C00205F0C0020640C00200080004141
:103720005E0C0020630C00204E0C0020650C002075
:1037300038B54FF0844301229A611A46936913F019
:10374000010FFBD04FF084439A6942F002029A6164
:10375000164ADA612B22C3F8802001221A629A6984
:1037600022F4804222F0010242F480429A611A4619
:10377000936913F0010FFBD14FF0844300249C6543
:103780000122DA654FF000725A65094D2C606C60B9
:10379000AC6028222146074800F076FDEC602C61E1
:1037A0006C61AC61EC612C626C6238BD000502009A
:1037B000880B0020B00B002008B5002000F04EFC64
:1037C00000211B4800F0BEFD00F028FDFFF7CCFCF7
:1037D00000F030FD00F09CFD00F0F6FB154C164D9E
:1037E00000F0BCFD237813F0020F0FD1237813F003
:1037F000040F17D1237813F0010FF1D023F0010348
:1038000023704FF00043C5F89C30E9E723F0020332
:103810002370FFF703FD00F0E9F900F07BF800F0FA
:1038200065F9E3E723F004032370FEF72FFFE1E7D8
:10383000913F00006C0C00200080004110B5044650
:10384000184B1B6AC3F3801301220221002000F0F1
:1038500083FB3CB9134B4FF400329A614FF4803232
:103860005A6110BD02220021084600F0C7FB70B16A
:103870000C4B4FF400325A6104220021084600F03C
:10388000BDFB48B1074B4FF480329A61E9E7054B25
:103890004FF400329A61EFE7024B4FF480325A61E5
:1038A000DFE700BF0080004110B50446184B1B6ADB
:1038B000C3F3005304220221002000F04DFB3CB969
:1038C000134B4FF400225A611022C3F8942010BD0C
:1038D00008220021084600F091FB70B10C4B4FF418
:1038E00000229A6110220021084600F087FB48B1AF
:1038F000074B1022C3F89820E9E7054B4FF400224C
:103900005A61EFE7024B1022C3F89420DFE700BFB3
:103910000080004108B500F035FC28B1164B1B684B
:103920005BB1FFF727FB07E0144B4FF48002C3F8AD
:103930009420114B00221A6008BD042201210020AE
:1039400000F05CFB28B90D4B4FF48002C3F89420C3
:10395000F2E702220121002000F050FB28B1074BC2
:103960004FF48002C3F89820E6E7044B4FF480023E
:10397000C3F89420E0E700BF400C00200080004125
:10398000154B01221A801A46136B13F0010FFBD15D
:103990004FF080131B681A0902F07002D90001F47D
:1039A000E061C3F382030A431A430B4BA3F8482098
:1039B0004FF4E0621A800322DA721A7241F60202B0
:1039C0009A801A22DA80072283F82E201A46136B77
:1039D000002BFCD1704700BF001C0043154B012297
:1039E0001A801A46136B13F0010FFBD14FF08013AE
:1039F0001B689A0C02F07002D90A01F4E061C3F36B
:103A000002430A431A430B4BA3F848204FF4E062E9
:103A10001A800322DA721A7241F601029A801A227F
:103A2000DA80072283F82E201A46136B002BFCD174
:103A3000704700BF002000430E4A38B500231360D2
:103A40000D4A0E4C13600E4A0E4D13600E4A136061
:103A50000E4A13600E4A536213610123936000F013
:103A60008DFC00F08BFCAC4200D338BD54F8043B15
:103A70009847F8E7480C0020440B00206C22000017
:103A8000400B002070220000380B00203C0B00206F
:103A9000480B0020124B93F87D3903B97047104B47
:103AA000002283F87D29D3F8782901211170D3F8F9
:103AB000782902215170D3F8782903219170D3F825
:103AC00078390422DA70BFF34F8F0649CA6802F4CE
:103AD000E062054B1343CB60BFF34F8F00BFFDE7A0
:103AE0001000002000ED00E00400FA0508B5802277
:103AF0000321002000F082FA0F4B1B7883420CD187
:103B00000E4B1B68BBB10D4B1A68013A1A601B685B
:103B10008BB90B4B01221A700DE08022032100208B
:103B200000F06CFA044B1870044B4FF48A721A6060
:103B3000034B00221A7008BD560C00209C0900207F
:103B40006F0C002010B5134CD4F8A030C3F3C02381
:103B500001220321002000F0FFF9D4F8A030C3F3C4
:103B6000802302220321002000F0F6F9D4F8A030CF
:103B7000C3F3004304220321002000F0EDF9D4F840
:103B8000A030C3F3004308220321002000F0E4F931
:103B900010BD00BF0080004110B501280DD00C46BB
:103BA00043B22BB1022814D0042000F081FB03E0C3
:103BB00000F07AF900F084FB10BD00F065F820B148
:103BC0000021084600F04CFBF6E7032000F070FBF4
:103BD000F2E71146204600F0C5F810B100F036FBC0
:103BE000EAE7032000F064FBE6E7704708B5104BF6
:103BF0001A78104B1B6AC3F340139A4210D00D4B36
:103C00001B6AC3F340130A4A13702022002108469E
:103C100000F0F4F938B1074B4FF400629A6108BD27
:103C2000054B1A70F1E7034B4FF400625A61F6E757
:103C3000590C002000800041580C0020F0B59DF880
:103C40001440ECB94FF0844CDCF8A450C5F30525C2
:103C50000C4CAE007719BF0004EB070EE051CEF814
:103C60000420CEF80810CEF80C30069BCEF81030A9
:103C7000DCF8543043F00103CCF85430012000E06C
:103C80000020F0BDB00B002010B50E4B1B78B3B96F
:103C90000D4B1C78A4B10D4B1B780BB11C460FE0EB
:103CA0000021032000F0F0F9094B18700123074AA6
:103CB000137010220021084600F04EF900E00024A5
:103CC000204610BD5E0C0020600C0020630C00201C
:103CD0006B0C002070B50E4B0E4A0021934208D3A6
:103CE0000D480E4D4FF6FF76016829B943681BB9A0
:103CF00070BD03F8011BF1E783684268334000F1AF
:103D00000C0455F823302046984704EB8000EBE77D
:103D10001000002010000020102D00007442000050
:103D20000F4B01221A801A46136913F0010FFBD1C1
:103D30000B4B4FF401421A8000221A621A46136993
:103D400013F0200FFBD1064B00225A621A4613696A
:103D500013F0400FFBD1024B83225A81704700BF02
:103D60000024004038B505460C46042201210020FD
:103D700000F044F9034658B1074A126A12F4806F02
:103D800008D0064A1560064A1460064A01211160EF
:103D9000184638BD0023FBE7008000413C0C0020A2
:103DA000380C0020400C002010B5054C227832B9A8
:103DB000044B13B10448AFF300800123237010BDFE
:103DC000180C0020000000000000000008B5034BA4
:103DD0001BB103490348AFF3008008BD0000000099
:103DE0001C0C00200000000030B40D4C2468D4F8F6
:103DF000FC43B4F15A3F11D00A4C94F87149844203
:103E00000CD9084C04EB800585F8511685F852262C
:103E100085F853369DF8083085F8543630BC704725
:103E2000700C0020100000204FF08443586C20F4E8
:103E3000605020F018004004400C9B6913F0010F03
:103E400011D04FF08442936943F002039361936968
:103E500023F4804323F0010343F480439361936987
:103E600013F0010FFBD170470D4AD36823F4E063D0
:103E70001B041B0C43F0BF6343F40033D360BFF358
:103E80005F8F62B6074BE02283F80B234FF400618B
:103E9000196083F84E234FF480429A60704700BF48
:103EA00000ED00E000E100E008B50B4B1B782BB9FA
:103EB0000A4B1B7813B10A4B1B7803B908BD0020CD
:103EC000074B187003461022014600F045F8054BD9
:103ED0004FF480425A61F1E75E0C0020600C002034
:103EE000630C00200080004100B583B00022114621
:103EF000084800F039F90848084B01930023009363
:103F000000F10E03021D00F10C01FFF797FE03B054
:103F10005DF804FB213F0000D80B0020510C00206D
:103F200008B5FFF781FF10F0070001D0072809D17D
:103F3000064B1B68B3F5A07F2CBF054B054B012238
:103F40001A7008BDFFF7D0FFFBE700BFD80B0020B9
:103F5000550C0020530C002010B40C4C94F82F4347
:103F600084420FD903290DD8084C04EB80040C447B
:103F7000E47B24EA020403B11443044B03EB800006
:103F80000844C4735DF8044B704700BF1000002064
:103F900010F0010F04D00B4A137843F002031370A2
:103FA00010F0020F04D0074A137843F00403137093
:103FB00010F0800F04D0034A137843F0010313700C
:103FC000704700BF6C0C002010B50024084B1C800B
:103FD000FFF768FB00F0F2F800F008F900F0FAF8DB
:103FE00000F010F9034B1C70034B1C7010BD00BF98
:103FF0004C0C0020610C0020620C00200A4B93F84E
:10400000503683420ED9032901D900207047064B50
:1040100003EB8000084490F830331A4214BF0120AB
:104020000020704700207047100000200A4B01223A
:104030001A601A46136913F0010FFBD1064B40F2C8
:1040400014721A6001221A731A7733229A721A466E
:104050001369002BFCD170470038004008B500F010
:1040600047F9FFF70BF8FEF7A3FDFFF7BEFDFFF7DB
:1040700087FCFFF75DFBFFF7B1FCFFF751FEFFF791
:10408000D5FFFFF7F1FE08BD084B93F87139834265
:104090000AD9032901D900207047044B03EB8000A3
:1040A000084490F851067047002070471000002027
:1040B00008B5074A908980B2064B58604CF2FF3130
:1040C00091811B6813B1034A9168984708BD00BFEE
:1040D0000024004090090020074B1B78012B03D0DF
:1040E0000133054A13707047044B4FF48042DA6184
:1040F000014B01221A707047680C002000800041BB
:10410000074B1B78022B03D00133054A137070470D
:10411000044B4FF48042DA61014B01221A70704760
:10412000690C002000800041064B93F82F33834236
:1041300006D9032904D8034B03EB80000844C2735B
:10414000704700BF1000002010B50023934206D135
:1041500013F0030018BF012000EB930010BDC45CF6
:10416000CC540133F2E7FEE710B428B1044B43F816
:10417000320003EBC20359605DF8044B704700BF87
:10418000F80B002008B500F0E3F818B9002000F0A3
:10419000010008BD00F0C4F880F00100C0B2F6E7ED
:1041A0005AB110B40A44431E11F8014B03F8014FF1
:1041B0009142F9D15DF8044B70477047044A138867
:1041C00043F002031380136B002BFCD1704700BF38
:1041D000001C0043044A137D43F002031375136B64
:1041E00013F4006FFBD17047001C0043044A13888E
:1041F00043F002031380136B002BFCD1704700BF08
:1042000000200043044A137D43F002031375136B2F
:1042100013F4006FFBD1704700200043044A138859
:1042200043F002031380136913F0020FFBD17047B0
:1042300000240040034B00221A70034B01221A7025
:10424000704700BF5A0C00205B0C0020034B01227A
:10425000DA7200221A735A739A73704710000020A2
:10426000034B0222DA721873597300229A73704753
:10427000100000209D420000494100006D430000F5
:104280006D4300006D43000032B1C9B202440346E1
:1042900003F8011B9342FBD1704700BF0A4400237F
:1042A000914201D10020704701F8013BF8E7FEE799
:1042B000024B0322DA729873704700BF100000208F
:1042C000024B0322DA7206229A7370471000002014
:1042D00010B1024B9861D961704700BFF80B002004
:1042E0000001020304050607080C101418203040D2
:1042F000024B40F204521A80704700BF0040004158
:10430000024BD86AC0F38000704700BF00400041F4
:10431000024B4FF400625A61704700BF00800041B9
:10432000014B1878704700BF6F0C0020014BB3F8A9
:1043300040007047001C0043014BB3F84000704739
:1043400000200043014B18609960704790090020DD
:10435000014B1878704700BF600C002008B5FDF7CE
:104360008FFF08BD5001500910011009002070474F
:0E437000FEE7FEE7FEE7FEE7FEE77047704758
:0200000400807A
:0C4000003912003C9100A82AFFFFFFFFCE
:00000001FF
